:0200000480007A
:1000000073100030B714013823A40400B701004076
:1000100093810178B70200809382021C7390523062
:1000200073104030731040347325103013758502FF
:100030006308050037250000732005307310300079
:10004000732540F1631405043701044013010100D6
:100050001302010073100134B70200809382E20B97
:10006000E7800200B70200809382420AE780020024
:100070001305000093050000B702008093826254CC
:10008000B70000809380C0096780020073F00730DA
:1000900073104030730050106FF0DFFF130000004A
:1000A0006FF0DFFE6780000000000000000000002D
:1000B000411122C600080100324441018280011131
:1000C00006CE22CC00101387018893870188B307DE
:1000D000F7403E86814513850188EF00703913870C
:1000E000018893870188B307F7403E86B7170080E1
:1000F000938507C813850188EF0030361387018880
:1001000093870188B307F7403E86B7170080938531
:1001100007C813850188EF0050341387018893873F
:100120000188B307F7403E86B7170080938507C85C
:1001300013850188EF007032138701889387018847
:10014000B307F7403E86B7170080938507C813852D
:100150000188EF009030232604FE39A88327C4FECF
:100160001397270093870188BA979C438297832728
:10017000C4FE85072326F4FE138701889387018830
:10018000B307F74089830327C4FEE369F7FC010046
:100190000100F2406244056182800000000000001E
:1001C000232E51FE93020100130101F8137101FF68
:1001D000232211002324510083A2C2FF23263100D1
:1001E00023284100232A5100232C6100232E710073
:1001F00023208102232291022324A1022326B1027B
:100200002328C102232AD102232CE102232EF1024A
:10021000232001052322110523242105232631054E
:1002200023284105232A5105232C6105232E71051E
:1002300023208107232291072324A1072326B10726
:100240002328C107232AD107232CE107232EF107F6
:100250007322003473231034232061007324003090
:1002600073252034F325103413060100B701004034
:1002700093810178B70200809382C208E780020070
:100280007310043003230100731013348321C10061
:100290000322010183224101032381018323C10140
:1002A0000324010283244102032581028325C10224
:1002B0000326010383264103032781038327C10308
:1002C0000328010483284104032981048329C104EC
:1002D000032A0105832A4105032B8105832BC105D0
:1002E000032C0106832C4106032D8106832DC106B4
:1002F000032E0107832E4107032F8107832FC10798
:1003000083204100032181007300203000000000A1
:1003100000000000000000000000000000000000DD
:1003200000000000000000000000000000000000CD
:1003300000000000000000000000000000000000BD
:0403400000000000B9
:10034400011106CE22CC0010AA87A307F4FE83472E
:10035400F4FE3E8511230100F2406244056182806F
:10036400011106CE22CC00102326A4FE2324B4FEC1
:100374000326C4FEA145032584FE3923AA873E85AE
:10038400F24062440561828069712326111223249C
:100394008112001A232EA4EC8327C4ED9C43A107E9
:1003A4002322F4FE832544FE372500806923AA878F
:1003B40093C7170093F7F70F99C3AD474DA8832749
:1003C400C4ED9C432326F4FEB7270080A107232411
:1003D400F4FEA5A88327C4FE130700106374F70076
:1003E400930700102320F4FE930704EE1306401F26
:1003F400832504FE3E854929AA8793C7170093F7EE
:10040400F70F99C39147A5A0930704EE032604FEB2
:10041400BE85032584FE4D23AA8793C7170093F74F
:10042400F70F99C39D47A1A0032784FE832704FEE9
:10043400BA972324F4FE0327C4FE832704FEB307DC
:10044400F7402326F4FE0945E53D8327C4FED9F38E
:1004540021468325C4ED37250080B92BAA8793C78D
:10046400170093F7F70F99C39D4711A081473E8565
:100474008320C1120324811255618280411122C656
:10048400000881473E85324441018280011106CE35
:1004940022CC0010930744FEBE851305401FC935C6
:1004A400AA8793C7170093F7F70F99C3914799A8A1
:1004B400930744FE3E85D12BAA8793C7170093F771
:1004C400F70F99C38D473DA809459D3D930744FE09
:1004D4003E855D3D2326A4FE8327C4FE81C7832772
:1004E400C4FE0DA0C523AA8793C7170093F7F70F7F
:1004F40099E73D252A87832744FE6304F70099473B
:1005040011A081473E85F240624405618280011159
:1005140006CE22CC0010054525358D3F2326A4FEAA
:100524008327C4FE81EB0945213DB727008013854D
:100534008700E9258327C4FE93F7F70F3E85093525
:10054400D9BF411106C622C40008012CD12D3D3764
:10055400AA8791C36D3FBD23AA8791C7B72700809F
:1005640013858700612D653781473E85B24022445B
:1005740041018280011122CE00102326A4FE29A865
:10058400B7D70030BC47858B99E3854711A88327EB
:10059400C4FEFD172326F4FE8327C4FEF5F381472A
:1005A4003E85724405618280011122CE001023260B
:1005B400A4FE0327C4FEB7070080BA973E857244A1
:1005C40005618280011106CE22CC26CA00102326A2
:1005D400A4FEB7D400300325C4FEF937AA879CC013
:1005E400B7D700303707DEC01107F8C3B7871E003E
:1005F400138507484137AA873E85F2406244D244B6
:10060400056182805D7186C6A2C4A6C28008232EBD
:10061400A4FA232CB4FA232AC4FA232604FE29A814
:100624008327C4FEC117A2977D57238EE7FC832737
:10063400C4FE85072326F4FE0327C4FEBD47E3F169
:10064400E7FE232604FE1DA0032784FB8327C4FEA4
:10065400BA9703C707008327C4FEC117A297238E46
:10066400E7FC8327C4FE85072326F4FE0327C4FE84
:10067400832744FBE36AF7FC8347C4FC3E87834734
:10068400D4FCA2075D8F8347E4FCC2075D8F8347D8
:10069400F4FCE207D98F2324F4FE834704FD3E874C
:1006A400834714FDA2075D8F834724FDC2075D8F36
:1006B400834734FDE207D98F2322F4FE834744FDA8
:1006C4003E87834754FDA2075D8F834764FDC207BD
:1006D4005D8F834774FDE207D98F2320F4FE83479F
:1006E40084FD3E87834794FDA2075D8F8347A4FD65
:1006F400C2075D8F8347B4FDE207D98F232EF4FC34
:10070400B7D70030032784FED8C3B7D700300327F8
:1007140044FE98C7B7D70030032704FED8C7B7D71D
:1007240000300327C4FD98CBB7D400300325C4FBA5
:10073400A53DAA879CC0B7D700303707DEC009079C
:10074400F8C3B7170300138507D42D35AA873E8550
:10075400B6402644964461618280011122CE001085
:10076400B7E7003003D70700136707102390E700AB
:10077400B7E7003003D70701136707102398E70092
:10078400B70700289853B7070028719B98D3B70779
:100794000028D85F719B13671700D8DFB7070028BC
:1007A400D85F4D9B13674700D8DFB707002803D7EE
:1007B400470313671700239AE702B707002803D7F4
:1007C400470313672700239AE702B7E700309847E7
:1007D4001367070498C7B7E70030984F13670704F7
:1007E40098CFB7E70030370702000507B8DBB7E753
:1007F4000030B85B13670710B8DB99472326F4FE73
:100804000327C4FEB7877000B307F70237F7FA026D
:1008140013070708B307F74013976700B7877000FB
:10082400B357F7022324F4FEB76700300327C4FE4E
:10083400D8D3B7670030032784FE98D7B767003052
:1008440013070007D8D7B76700301307103098DBB9
:100854000100724405618280011122CE0010AA8732
:10086400A307F4FE0100B76700309C4F9D83858B7E
:1008740093F7F70FEDDBB76700300347F4FE98C337
:100884000100724405618280797122D60018232EFA
:10089400A4FC232CB4FC232AC4FC832784FD232436
:1008A400F4FE8327C4FD2322F4FE8327C4FD99E3C9
:1008B4008147B5A8032744FD9307007DB307F702DA
:1008C4002326F4FE89A8B76700309C4F9183858B5B
:1008D40093F7F70F85EFB76700309443832744FEFF
:1008E400138717002322E4FE13F7F60F2380E70093
:1008F400832784FEFD172324F4FE032744FD930776
:10090400007DB307F7022326F4FE31A08327C4FE3B
:10091400FD172326F4FE832784FE81C78327C4FEA4
:10092400DDF3832784FE93B7170093F7F70F3E8513
:10093400325445618280797106D622D40018232E60
:10094400A4FC232CB4FC832784FD99E3854785A06C
:100954000327C4FDFD77F98F2324F4FE0327C4FD88
:10096400832784FD3E978567FD173E97FD77F98FB2
:100974002322F4FE832784FE2326F4FE15A00325F8
:10098400C4FE8931AA8793C7170093F7F70F99C359
:10099400814731A80327C4FE8567BA972326F4FE4E
:1009A4000327C4FE832744FEE36BF7FC85473E859B
:1009B400B250225445618280797106D622D400183F
:1009C400232EA4FC232CB4FC232AC4FC8327C4FDBB
:1009D4002326F4FE832784FD2324F4FE832744FD89
:1009E4002322F4FE832784FD99E38147BDA0832756
:1009F40044FDA5E3854795A0832744FE41476373DF
:100A0400F700C1472320F4FE032604FE832584FE59
:100A14000325C4FEC53EAA8793C7170093F7F70FB3
:100A240099C381471DA80327C4FE832704FEBA97F0
:100A34002326F4FE032784FE832704FEBA97232487
:100A4400F4FE032744FE832704FEB307F740232262
:100A5400F4FE832744FECDF385473E85B2502254ED
:100A640045618280411122C60008B72700803E8577
:100A7400324441018280411122C60008B727008018
:100A8400A1073E85324441018280011122CE00102B
:100A94002326A4FE8327C4FE99E3814705A0832768
:100AA400C4FE9C4389CB8327C4FE9843B7E70F0059
:100AB400E11763F4E700814711A085473E8572443E
:100AC40005618280011106CE22CC0010613F2326ED
:100AD400A4FE0325C4FE553FAA8793C7170093F7C6
:100AE400F70F99C3814705A879372324A4FE8327E8
:100AF400C4FE9C43BE85032584FE91202322A4FECC
:100B04008327C4FEDC43032744FEB307F74093B7AF
:100B1400170093F7F70F3E85F24062440561828027
:100B2400011106CE22CC0010353F2326A4FE8327D4
:100B3400C4FE9C433E85F240624405618280797123
:100B440022D60018232EA4FC232CB4FCFD57232604
:100B5400F4FE8327C4FD99E3814751A0232404FEB6
:100B6400ADA00327C4FD832784FEBA9783C707007B
:100B7400E2070327C4FEB98F2326F4FE232204FED2
:100B84001DA88327C4FE63DE07008327C4FE1397D2
:100B94001700B727C104938777DBB98F2326F4FEA8
:100BA40031A08327C4FE86072326F4FE832744FE50
:100BB40085072322F4FE032744FE9D47E3F3E7FC65
:100BC400832784FE85072324F4FE032784FE8327DA
:100BD40084FDE368F7F88327C4FE93C7F7FF3E85D7
:100BE400325445618280411122C60008737004307A
:100BF400731040300100324441018280797106D67D
:100C040022D40018232EA4FC8327C4FD2326F4FE3B
:100C1400D93F0F00F00F8327C4FE82970100FDBF68
:100C2400011122CE0010B70700809387071C2326EA
:100C3400F4FE8327C4FE73905730010072440561AB
:100C44008280411122C60008737004307310403052
:100C540073005010F5BF2A8309CA8383050023005B
:100C640073007D16050385056DFA82802A8311C6FB
:0C0C74002300B3007D16050365FE82809E
:040000058000000077
:00000001FF
