:020000044000BA
:1000000073100030B7710040938181FCB70200404B
:100010009382021473905230731040307310403446
:10002000732510301375850263080500372500001D
:100030007320053073103000732540F163140504FC
:100040003701044013010100130201007310013451
:10005000B70200409382E20AE7800200B702004044
:100060009382C209E7800200130500009305000097
:10007000B712004093822274B70000409380400979
:100080006780020073F00730731040307300501027
:100090006FF0DFFF130000006FF0DFFE67800000ED
:1000A000411122C600080100324441018280411101
:1000B00006C622C40008138781E4938701E1B307D1
:1000C000F7403E868145138501E1EF5000691387B3
:1000D00001E193878188B307F7403E869385818845
:1000E00013858188EF5000661387418893870188C4
:1000F000B307F7403E869385018813850188EF504A
:0C01000060640100B24022444101828092
:10014000232E51FE93020100130101F8137101FFE8
:10015000232211002324510083A2C2FF2326310051
:1001600023284100232A5100232C6100232E7100F3
:1001700023208102232291022324A1022326B102FB
:100180002328C102232AD102232CE102232EF102CB
:1001900023200105232211052324210523263105CF
:1001A00023284105232A5105232C6105232E71059F
:1001B00023208107232291072324A1072326B107A7
:1001C0002328C107232AD107232CE107232EF10777
:1001D0007322003473231034232061007324003011
:1001E00073252034F325103413060100B771004045
:1001F000938181FCB702004093820255E7800200A0
:100200007310043003230100731013348321C100E1
:100210000322010183224101032381018323C101C0
:100220000324010283244102032581028325C102A4
:100230000326010383264103032781038327C10388
:100240000328010483284104032981048329C1046C
:10025000032A0105832A4105032B8105832BC10550
:10026000032C0106832C4106032D8106832DC10634
:10027000032E0107832E4107032F8107832FC10718
:100280008320410003218100730020300000000022
:10029000000000000000000000000000000000005E
:1002A000000000000000000000000000000000004E
:1002B000000000000000000000000000000000003E
:0402C000000000003A
:1002C400011122CE0010AA872324B4FE2322C4FEE7
:1002D400A307F4FE8347F4FE89EFB7770040138742
:1002E4000785832784FE8A07BA97032744FE98C3A9
:1002F40011A813878190832784FE8A07BA9703275E
:1003040044FE98C30100724405618280011122CE2B
:1003140000102326A4FEAE87A305F4FEB706000C46
:100324000347B4FE8327C4FE8A07B69798C3010027
:10033400724405618280797122D60018AA87232C21
:10034400B4FCA30FF4FC8347F4FD9DEB3707000CCA
:100354008967BA979C432326F4FE832784FD0547C7
:10036400B317F7003E878327C4FED98F2326F4FEF4
:100374003707000C8967BA970327C4FE98C325A8DA
:100384003707000C8967BA9783A707082326F4FE6A
:10039400832784FD0547B317F7003E878327C4FEF0
:1003A400D98F2326F4FE3707000C8967BA970327F1
:1003B400C4FE23A0E70801003254456182807971AC
:1003C40022D60018AA87232CB4FCA30FF4FC83477D
:1003D400F4FD8DEF3707000C8967BA979C432326F9
:1003E400F4FE832784FD0547B317F70093C7F7FF8F
:1003F4003E878327C4FEF98F2326F4FE3707000CBB
:100404008967BA970327C4FE98C335A83707000C39
:100414008967BA9783A707082326F4FE832784FDF8
:100424000547B317F70093C7F7FF3E878327C4FE3A
:10043400F98F2326F4FE3707000C8967BA97032740
:10044400C4FE23A0E70801003254456182800111F3
:1004540022CE0010AA87A307F4FE8347F4FE81EBA3
:100464003707000CB7072000BA97DC4339A03707D9
:10047400000CB7172000BA97DC433E85724405612F
:100484008280011122CE0010AA872324B4FEA30780
:10049400F4FE8347F4FE91EB3707000CB707200006
:1004A400BA97032784FED8C309A83707000CB717E7
:1004B4002000BA97032784FED8C301007244056163
:1004C4008280011122CE0010AA872324B4FEA30740
:1004D400F4FE8347F4FE91EB3707000CB7072000C6
:1004E400BA97032784FE98C309A83707000CB717E7
:1004F4002000BA97032784FE98C301007244056163
:100504008280011106CE22CC0010014589372326B2
:10051400A4FEB7770040138707858327C4FE8A07A4
:10052400BA979C4399CFB7770040138707858327F1
:10053400C4FE8A07BA979C4382978325C4FE01456B
:1005440089370100F240624405618280011106CEC0
:1005540022CC0010F32720342326F4FE8327C4FE84
:100564002324F4FE832784FE63C40702832784FEC6
:10057400BD8B2D47636BF70013972700B7670040C7
:100584009387C759BA979C43828701000100FDBF36
:100594008D3F0100F240624405618280011106CE64
:1005A40022CC0010AA87A307F4FE8347F4FE3E85FD
:1005B400EF0090360100F24062440561828001112F
:1005C40022CE00102326A4FEAE87A305F4FE8327C3
:1005D400C4FE0347B4FE2380E70085473E8572448A
:1005E40005618280797122D60018232EA4FC232C65
:1005F400B4FC232604FE35A0032784FD93071700CB
:10060400232CF4FC8327C4FD93861700232ED4FCEB
:10061400034707002380E7008327C4FE85072326BA
:10062400F4FE832784FD83C70700F9F78327C4FEFC
:100634003E85325445618280797106D622D40018F1
:10064400232EA4FCAE87232AC4FC2328D4FCA30DA8
:10065400F4FC232604FE832744FDFD17232AF4FC1F
:10066400032704FDA54763FFE704032704FDA94707
:100674003357F7028347B4FDBA86032644FDBE858B
:100684000325C4FD553F2326A4FE8327C4FE032768
:10069400C4FDBA97232EF4FC15A88347B4FDBE8588
:1006A4000325C4FD293F8327C4FD8507232EF4FCBD
:1006B4008327C4FE85072326F4FE832744FDFD1704
:1006C400232AF4FC832744FDE349F0FC032704FDBB
:1006D400A947B377F70293F7F70F9387070393F7C5
:1006E400F70FBE850325C4FDD93D2A878327C4FEA1
:1006F400BA972326F4FE8327C4FE3E85B2502254C3
:1007040045618280797106D622D40018232EA4FC78
:10071400AE87232AC4FC2328D4FCA30DF4FC23268F
:1007240004FE832704FD63D90700832704FDB30770
:10073400F0402324F4FE29A0832704FD2324F4FE9F
:10074400832744FDFD17232AF4FC032784FEA547D1
:1007540063F3E706832704FD63D60702032784FEB9
:10076400A947B357F702B307F0403E878347B4FD68
:10077400BA86032644FDBE850325C4FD61372326BE
:10078400A4FE15A0032784FEA947B357F7023E87AA
:100794008347B4FDBA86032644FDBE850325C4FD04
:1007A40095372326A4FE8327C4FE0327C4FDBA97E6
:1007B400232EF4FC85A8832704FD63DD0702832729
:1007C40044FDFD17232AF4FC35A08347B4FDBE8500
:1007D4000325C4FDED338327C4FD8507232EF4FCD4
:1007E4008327C4FE85072326F4FE832744FDFD17D3
:1007F400232AF4FC832744FDE349F0FC832704FD0A
:1008040063D207029305D0020325C4FD4D3B2A871A
:100814008327C4FEBA972326F4FE8327C4FD8507E5
:10082400232EF4FC032784FEA947B377F70293F73A
:10083400F70F9387070393F7F70FBE850325C4FDCE
:10084400BD3B2A878327C4FEBA972326F4FE832759
:10085400C4FE3E85B250225445618280797106D629
:1008640022D40018232EA4FCAE87232AC4FC2328F8
:10087400E4FCA30DF4FCB687230DF4FC232604FE4C
:10088400832744FDFD17232AF4FC832704FD918369
:10089400B5C3832704FD13D747008346A4FD8347CC
:1008A400B4FD032644FDBE850325C4FD453F2A87C8
:1008B4008327C4FEBA972326F4FE8327C4FE0327A6
:1008C400C4FDBA97232EF4FC15A88347B4FDBE8556
:1008D4000325C4FDED318327C4FD8507232EF4FCD5
:1008E4008327C4FE85072326F4FE832744FDFD17D2
:1008F400232AF4FC832744FDE349F0FC832704FD09
:1009040013F7F700A54763E2E702832704FD93F793
:10091400F70FBD8B93F7F70F9387070393F7F70F41
:10092400BE850325C4FD613999A08347A4FD8DC309
:10093400832704FD93F7F70FBD8B93F7F70F938786
:10094400770393F7F70FBE850325C4FD8D3905A002
:10095400832704FD93F7F70FBD8B93F7F70F938766
:10096400770593F7F70FBE850325C4FD89398327DF
:10097400C4FE85072326F4FE8327C4FE3E85B250B9
:10098400225445618280797106D622D40018232E20
:10099400A4FC232CB4FC232AC4FC2328D4FC232445
:1009A40004FE232204FE8327C4FD638107268327D4
:1009B400C4FD2380070099AC832744FD03C70700C7
:1009C400930750026308F702032744FD93071700B7
:1009D400232AF4FC8327C4FD93861700232ED4FC1A
:1009E400034707002380E700832744FE850723226B
:1009F400F4FE29AC832744FD850703C7070093074A
:100A040050026317F7028327C4FD13871700232EB0
:100A1400E4FC130750022380E700832744FD890781
:100A2400232AF4FC832744FE85072322F4FEF9AA33
:100A340093070002A307F4FE230704FE832744FD63
:100A44008507232AF4FC832744FD03C70700930783
:100A540000036315F70493070003A307F4FE832739
:100A640044FD8507232AF4FC15A88347E4FE3E874A
:100A7400BA878A07BA97860713F7F70F832744FDC7
:100A840083C70700BA9793F7F70F938707FD2307E8
:100A9400F4FE832744FD8507232AF4FC832744FDC1
:100AA40003C707009307F00263FAE700832744FDB6
:100AB40003C7070093079003E3F9E7FA0347E4FE4B
:100AC400832744FEBA973E87832784FD63FEE700AD
:100AD400832784FD13F7F70F832744FE93F7F70F5B
:100AE400B307F7402307F4FE832744FD83C70700B9
:100AF400938787FA130700026365F70E139727009D
:100B0400B76700409387C75CBA979C4382870346C4
:100B1400E4FE832704FD138747002328E4FC98435D
:100B24008347F4FEBA86BE850325C4FDE13E232433
:100B3400A4FE55A80346E4FE832704FD138747005B
:100B44002328E4FC98438347F4FEBA86BE85032534
:100B5400C4FDDD342324A4FE79A00346E4FE8327E8
:100B640004FD138747002328E4FC98438347F4FEDD
:100B74008146BE850325C4FDD5312324A4FEA5A04A
:100B84000346E4FE832704FD138747002328E4FC7F
:100B940098438347F4FE8546BE850325C4FD7D390D
:100BA4002324A4FE89A0832704FD13874700232858
:100BB400E4FC9C43BE850325C4FD2D342324A4FEFC
:100BC4001DA0832704FD138747002328E4FC9C43CE
:100BD40093F7F70FBE850325C4FDD5322324A4FE65
:100BE40019A0FD5795A8832744FD8507232AF4FC03
:100BF400832784FE0327C4FDBA97232EF4FC03271E
:100C040044FE832784FEBA972322F4FE832744FDFF
:100C140083C7070099C7832744FE032784FDE3EDB8
:100C2400E7D8832744FE032784FD63F7E70083277F
:100C3400C4FD2380070039A88327C4FDFD17232E94
:100C4400F4FC8327C4FD23800700832744FEFD179B
:100C54002322F4FE832744FE3E85B250225445618C
:100C640082805D7106D622D40018232EA4FC232C86
:100C7400B4FC232AC4FC54C418C85CC8232C040143
:100C8400232E1401930704022328F4FC832704FD74
:100C9400B1172324F4FE832784FEBE86032644FD75
:100CA400832584FD0325C4FDF9392326A4FE832767
:100CB400C4FE3E85B250225461618280011106CE89
:100CC40022CC00102326A4FE2324B4FE2322C4FE37
:100CD400832644FE032684FE9305E0150325C4FE03
:100CE4005D31AA873E85F24062440561828061716C
:100CF4002326111A2324811A001B232EA4E4232C57
:100D0400B4E4232AC4E4B76700409387076503A3C8
:100D1400070083A8470003A88700C8478C4BD04B23
:100D2400944FD84F9C53232664E6232814E7232AA0
:100D340004E7232CA4E6232EB4E62320C4E82322CC
:100D4400D4E82324E4E82326F4E8930704E90326FB
:100D540044E5832584E53E8595372A879307D01596
:100D640063DCE70083A70188D8479307C4E6BA8504
:100D74003E85F1220100FDBF930704E98325C4E504
:100D84003E85752AAA873E858320C11A0324811AC9
:100D94005D618280011106CE22CC00102326A4FEC0
:100DA4002324B4FE83A701889C47032684FE83255D
:100DB400C4FE3E852D3FAA873E85F240624405610C
:100DC40082805D7106D622D40018232EA4FC232C25
:100DD400B4FC10C454C418C85CC8232C0401232ECA
:100DE400140193070402232AF4FC832744FDA1176A
:100DF4002324F4FE832784FE3E86832584FD032575
:100E0400C4FDF5352326A4FE8327C4FE3E85B250D7
:100E14002254616182805D7106D622D40018232E8B
:100E2400A4FC4CC010C454C418C85CC8232C0401CE
:100E3400232E140193070402232CF4FC832784FD3E
:100E440091172324F4FE832784FEBE850325C4FD65
:100E540091372326A4FE8327C4FE3E85B250225434
:100E6400616182805D7106D622D40018232EA4FC11
:100E7400232CB4FC10C454C418C85CC8232C04012B
:100E8400232E140193070402232AF4FC832744FD30
:100E9400A1172324F4FE832784FE3E86832584FD44
:100EA4000325C4FD213D2326A4FE8327C4FE3E85DD
:100EB400B250225461618280797106D622D400181E
:100EC400232EA4FC83A701889C47BE850325C4FD6B
:100ED400BD202326A4FE83A701889C47BE852945FF
:100EE40009288327C4FE85073E85B25022544561F4
:100EF4008280011106CE22CC00102326A4FE2324D6
:100F0400B4FE83A701889C47032784FE6309F70086
:100F140083A70188DC47032784FE631CF70083272B
:100F2400C4FE93F7F70F3E85EFF04FE78327C4FE27
:100F340011A0FD573E85F2406244056182807971BB
:100F440006D622D40018232EA4FC232CB4FC23267A
:100F540004FE0DA88327C4FD83C70700832584FDF1
:100F64003E85413F2A87FD576314F700FD5715A0BE
:100F74008327C4FE85072326F4FE8327C4FD850743
:100F8400232EF4FC8327C4FD83C70700E1F78327DE
:100F9400C4FE3E85B250225445618280011106CEC2
:100FA40022CC26CA001003A701E1B7271C00B357BF
:100FB400F7022326F4FE83A701E13E85EF50204B80
:100FC4002A87B767004083A547673A85EF403030EA
:100FD400AA87BE840325C4FEEF506049AA87BE8554
:100FE4002685EF50E00AAA873E87B767004083A5AD
:100FF40087673A85EF40505CAA873E87B767004011
:1010040083A5C7673A85EF400076AA873E85EF50EF
:10101400E040AA872324F4FEB7E7003003D7070093
:10102400136707102390E700B7E7003003D70701E1
:10103400136707102398E700B7E700309847136752
:10104400070498C7B7E70030984F1367070498CF91
:10105400B7070028D85F719B13671700D8DFB7075D
:101064000028D85F4D9B13674700D8DFB7070028D7
:101074000D47D8DBB7E70030B45B3707FDFF7D17BA
:10108400F98E4167558FB8DBB7E70030B45B37079B
:10109400F0FF7D17758FB8DBB7E70030B85B1367D7
:1010A4000710B8DBB7E70030B85B13671700B8DB8D
:1010B400B76700300327C4FED8D3B76700300327CF
:1010C40084FE98D7B767003013070007D8D7B767EF
:1010D400003023AA0702B76700301307103098DBEB
:1010E4000100F2406244D24405618280411122C66B
:1010F40000080100B76700309C4F9183858B93F7FC
:10110400F70FEDFBB767003083C7070093F7F70FBE
:101114003E85324441018280011122CE00102326F3
:10112400A4FE0100B76700309C4F8D83858B93F735
:10113400F70FEDFBB76700300327C4FE98C3814760
:101144003E85724405618280397122DE80008547C4
:101154002324F4FEB7E70030DC5F8D8B93F7F70FA1
:101164002322F4FEB727F400938707402320F4FEDC
:10117400B7E70030BC4F3E878567FD17F98FC2077C
:10118400C183232EF4FCB7E70030BC4B9D8393F757
:10119400F70393F7F70F232CF4FCB7E70030BC4BAD
:1011A400B5839D8B93F7F70F232AF4FCB7E7003040
:1011B400BC4BC18393F7F70393F7F70F2328F4FC91
:1011C400B7E70030BC4BD9839D8B93F7F70F2326E9
:1011D400F4FCB7E70030BC4BE58393F7F70393F7D0
:1011E400F70F2324F4FEB7E70030BC4B9183858BC3
:1011F40093F7F70F99CBB7E70030F84BB707000127
:10120400FD17F98F2326F4FE19A0232604FE832755
:10121400C4FE13D787018327C4FD3E97832704FEAA
:101224003307F702832744FD93861700832784FD41
:10123400B386F602832704FD8507B387F602335786
:10124400F70223AAE1E08327C4FE13D7870183278B
:10125400C4FD3E97832704FE3307F7028327C4FCAB
:1012640093861700832784FDB386F602832784FEC2
:101274008507B387F6023357F70223ACE1E003276F
:1012840044FE8D47630DF704032744FE8D4763EC4A
:10129400E704032744FE8947630EF702032744FE4D
:1012A400894763E2E704832744FE99C7032744FE82
:1012B4008547630AF70005A837470F00130707247B
:1012C40023A8E1E00DA03727F4001307074023A863
:1012D400E1E011A803A741E123A8E1E029A02167E7
:1012E40023A8E1E001000100725421618280011110
:1012F40022CE0010232604FEB7E7003003D70700F0
:10130400136707402390E700B7E7003003D70701CE
:10131400136707402398E700B7270028D45F316795
:10132400558FD8DFB727002803D74703136707086B
:10133400239AE702B7E7003045671307171223AE75
:10134400E70AB7E700303767C10F13077710B8CB48
:10135400B7E7003023AA0704B7E7003013072003D8
:10136400B8CFB7E70030B84B1377F7F91367070224
:10137400B8CB9307803E2326F4FE31A08327C4FE16
:10138400FD172326F4FE8327C4FEEDFB0100B7E717
:101394000030BC53858B13F7F70F8547E319F7FE2D
:1013A400B7E70030B84B659B13674700B8CB894754
:1013B4002324F4FEB7D70030F4473707F1FF7D1735
:1013C400F98E37070300558FF8C7B7D70030F847B1
:1013D40013672700F8C7B7E70030032784FE98DBBC
:1013E400232604FE31A08327C4FE85072326F4FEAA
:1013F400B7E70030DC5F8D8B13F7F70FB7E70030EA
:101404009C5B8D8B93F7F70F6308F7000327C4FEEB
:1014140093073006E3F9E7FC01007244056182801A
:10142400011106CE22CC001081450145EFF06F89F1
:101434008567938707802326F4FE8327C4FEF3A7DA
:1014440047302326F4FEA1472324F4FE832784FE99
:10145400F3A707302324F4FE0100F240624405613F
:101464008280411106C622C4000851350100B240F1
:10147400224441018280011122CE00102326A4FEC1
:101484002324B4FE2322C4FE032744FE85476318A5
:10149400F7008327C4FE032784FED8D731A083270F
:1014A400C4FE032784FE98DB010072440561828038
:1014B400011122CE00102326A4FE2324B4FE832788
:1014C400C4FE032784FE98C701007244056182802C
:1014D400011122CE00102326A4FE2324B4FE832768
:1014E400C4FE032784FED8C70100724405618280CC
:1014F400011122CE00102326A4FE2324B4FEB7E754
:10150400003098478327C4FE93C7F7FFB376F700EC
:10151400832784FE81C78327C4FE11A0814737E750
:101524000030D58F1CC7010072440561828001110F
:1015340022CE00102326A4FE2324B4FEB7E70030F5
:1015440098438327C4FE93C7F7FFB376F700832736
:1015540084FE81C78327C4FE11A0814737E700308A
:10156400D58F1CC30100724405618280011122CE13
:1015740000102326A4FE2324B4FEB7E70030984FBE
:101584008327C4FE93C7F7FFB376F700832784FE4F
:1015940081C78327C4FE11A0814737E70030D58F68
:1015A4001CCF0100724405618280011122CE00101B
:1015B4002326A4FE2324B4FEB7E70030984B8327E8
:1015C400C4FE93C7F7FFB376F700832784FE81C771
:1015D4008327C4FE11A0814737E70030D58F1CCB89
:1015E4000100724405618280011122CE001023267D
:1015F400A4FEB70700309C4393F6F7FC8327C4FE90
:1016040013974700B7070030558F98C30100724401
:1016140005618280011122CE00102326A4FE23241A
:10162400B4FEB707003098478327C4FE93C7F7FF7B
:10163400B376F700032784FE8327C4FE3307F7023B
:10164400B7070030558F98C7010072440561828046
:10165400011122CE00102326A4FEB7070030D44B7C
:10166400B70700300327C4FE558FD8CB010072445E
:1016740005618280011122CE00102326A4FE2324BA
:10168400B4FE370700308327C4FE89078E07BA9754
:10169400032784FED8C7010072440561828041118A
:1016A40006C622C400088545130500104935854542
:1016B40013050010DD3D0546C167938507F0370526
:1016C4000028553B0100B2402244410182800111AF
:1016D40006CE22CC00102326A4FE85450545093DEF
:1016E4008545054561358327C4FEFD17BE85014543
:1016F40051370545D53D85450945293FB717004074
:101704001386677999450145EFE09FBB85451945E7
:10171400EFE0DFBF99450145EFE0FFC10100F24072
:10172400624405618280411106C622C40008153B4B
:10173400213CB5370100B24022444101828041116D
:1017440006C622C40008C53783A701E185833E8508
:10175400BD3FF931238201E283C741E293F7F70FDA
:10176400BE86B76700401387076893972600BA9729
:10177400984323A0E1E2C167938507F03705002869
:10178400813B83A701E2BE8537050028153301009C
:10179400FDBF411106C622C40008C167938507F046
:1017A40037050028353383C741E293F7F70F8507E0
:1017B40013F7F70F2382E1E283C741E213F7F70F30
:1017C4008D4763F4E700238201E283C741E293F784
:1017D400F70FBE86B7670040138707689397260004
:1017E400BA97984323A0E1E283A701E2BE853705B7
:1017F40000287D390D45A93D0100B2402244410134
:101804008280011122CE00102326A4FEB7E7003007
:101814000327C4FE058B1377F70F058B220783A6D6
:10182400070B93F6F6EF558F23A8E70A01007244DD
:1018340005618280011122CE00102326A4FE2324F8
:10184400B4FEB7070130DC430327C4FE8546339753
:10185400E6001347F7FFB3F6E7008327C4FE032728
:1018640084FE3317F700B7070130558FD8C3010042
:10187400724405618280011122CE00102326A4FE49
:101884002324B4FEB7070130DC4F0327C4FE0A0744
:10189400BD463397E6001347F7FFB3F6E700832707
:1018A400C4FE8A07032784FE3317F700B707013005
:1018B400558FD8CF0100724405618280011122CE78
:1018C40000102326A4FE2324B4FEB7060130832788
:1018D40084FE9D8B13F7F70F8327C4FE9A07B697F0
:1018E4001D8B83D68705E19A558F239CE70401005D
:1018F400724405618280011122CE00102326A4FEC9
:101904002324B4FEB7060130832784FE9D8B13F78E
:10191400F70F8327C4FE9A07B6971D8B13169700FB
:1019240003D78705BA867D771307F71F758FBA86A5
:101934003287558F239CE70401007244056182803D
:10194400011122CE00102326A4FE2324B4FEB706E0
:101954000130832784FE858B13F7F70F8327C4FE9A
:101964009A07B697058B220783D6870593F6F6EF79
:10197400558F239CE70401007244056182800111A4
:1019840022CE00102326A4FE2324B4FEB706013081
:10199400832784FE9D8B13F7F70F8327C4FE9A07D2
:1019A400B6971D8B220783D6070693F6F68F558FBD
:1019B4002390E7060100724405618280011122CE62
:1019C40000102326A4FE2324B4FEB7060130832787
:1019D40084FE858B13F7F70F8327C4FE9A07B69707
:1019E400058B83D60706F99A558F2390E7060100E5
:1019F400724405618280011122CE00102326A4FEC8
:101A04002324B4FEB7060130832784FE13F7F70FAF
:101A14008327C4FE9A07B6972382E706010072441F
:101A240005618280011122CE00102326A4FE232406
:101A3400B4FEB7060130832784FE858B13F7F70FB6
:101A44008327C4FE9A07B697058B2207F45393F6AF
:101A5400F6EF558FF8D301007244056182800111BD
:101A640022CE00102326A4FE2324B4FE2322C4FE87
:101A7400370701308327C4FE9A07BA97FC57032718
:101A840084FE85463397E6001347F7FF7D8F83274F
:101A940084FE832644FEB397F600B70601305D8FBB
:101AA4008327C4FE9A07B697F8D7010072440561EC
:101AB4008280011122CE00102326A4FE2324B4FE2A
:101AC40037070130832684FEB7070001FD17FD8E1A
:101AD4008327C4FE9A07BA97370700017D17758FCD
:101AE400B05BB70600FFF18E558FB8DB010072447E
:101AF40005618280011122CE00102326A4FE232436
:101B0400B4FE37060130832784FE858B93F6F70FE6
:101B14000327C4FEBA878607BA978A07B29713F7D2
:101B24001600320703A60740FD76FD16F18E558F89
:101B340023A0E7400100724405618280011122CE96
:101B440000102326A4FE2324B4FE37060130832785
:101B540084FE858B93F6F70F0327C4FEBA878607A6
:101B6400BA978A07B29713F71600620703A60740CD
:101B7400B70600FFFD16F18E558F23A0E740010044
:101B8400724405618280011122CE00102326A4FE36
:101B94002324B4FE37060130832784FE9D8B93F6FD
:101BA400F70F0327C4FEBA878607BA978A07B29746
:101BB40013F77600420703A60740B706F9FFFD16A0
:101BC400F18E558F23A0E7400100724405618280A5
:101BD400011122CE00102326A4FE2324B4FE2322C6
:101BE400C4FEB70601300327C4FEBA878607BA9736
:101BF4008A07B69703A70740FD779387F70F7D8F72
:101C0400832784FE93968700832744FEAA07D58FF3
:101C140037060130B366F7000327C4FEBA87860788
:101C2400BA978A07B29723A0D7400100724405618E
:101C34008280011122CE00102326A4FE2324B4FEA8
:101C440037060130832784FE3E878567FD17F98FA9
:101C540093960701C1820327C4FEBA878607BA9701
:101C64008A07B29705677D17758F03A64740FD76EF
:101C7400F18E558F23A2E7400100724405618280F2
:101C8400011122CE00102326A4FE2324B4FE37061D
:101C94000130832784FE3E878567FD17F98F93966D
:101CA4000701C1820327C4FEBA878607BA978A0749
:101CB400B29705677D17758F420703A64740B7069D
:101CC40001F0FD16F18E558F23A2E7400100724406
:101CD40005618280797122D60018232EA4FC232C5E
:101CE400B4FC232AC4FC832784FD8D8B8E07232612
:101CF400F4FE032784FD9D4763F3E70437070130AF
:101D04008327C4FD85079A07BA979C430327C4FE1B
:101D14009306F0033397E6001347F7FF7D8F83277D
:101D2400C4FE832644FDB397F600B70601305D8FE9
:101D34008327C4FD85079A07B69798C379A003271C
:101D440084FD8D4763F3E704370701308327C4FD1F
:101D540085079A07BA979C430327C4FE9306F003AA
:101D64003397E6001347F7FF7D8F8327C4FE83264E
:101D740044FDB397F600B70601305D8F8327C4FD99
:101D840085079A07B69798C389A037070130832738
:101D9400C4FD85079A07BA979C430327C4FE93069C
:101DA400F0033397E6001347F7FF7D8F8327C4FEC4
:101DB400832644FDB397F600B70601305D8F832771
:101DC400C4FD85079A07B69798C30100325445614C
:101DD4008280411106C622C4000801451D34054510
:101DE4000D340100B240224441018280797106D64B
:101DF40022D40018232EA4FC232CB4FC832784FDB6
:101E04009C43BE850325C4FDBD34832784FDDC4388
:101E1400BE850325C4FD393C232604FE1DA00327EB
:101E240084FD8327C4FE8A07BA979C473E86832590
:101E3400C4FE0325C4FD793D8327C4FE85072326FC
:101E4400F4FE0327C4FE9D47E3FBE7FC832784FDE0
:101E54009C57BE850325C4FD9534832784FDDC5738
:101E6400BE850325C4FD413C832784FD9C5BBE8560
:101E74000325C4FDF134832784FDDC5BBE85032583
:101E8400C4FD953E832784FD9C5FBE850325C4FD68
:101E9400513E832784FDDC5FBE850325C4FD1139D3
:101EA400232404FE25A0032784FD832784FEC10781
:101EB4008A07BA979C433E86832584FE0325C4FD86
:101EC400793E832784FE85072324F4FE032784FEBA
:101ED4009D47E3FAE7FC832784FDBC53BE850325B5
:101EE400C4FD713C832784FDFC53BE850325C4FDDA
:101EF400F1340100B250225445618280797122D6B6
:101F04000018232EA4FC8327C4FD23A007008327E5
:101F1400C4FD23A20700232604FE31A80327C4FD21
:101F24008327C4FE8A07BA9723A407008327C4FE25
:101F340085072326F4FE0327C4FE9D47E3F0E7FE4E
:101F44008327C4FD23A407028327C4FD0547D8D7EC
:101F54008327C4FD23A807028327C4FD23AA0702FD
:101F64008327C4FD23AC07028327C4FD23AE0702E5
:101F7400232404FE39A80327C4FD832784FEC10754
:101F84008A07BA9723A00700832784FE85072324A2
:101F9400F4FE032784FE9D47E3FFE7FC8327C4FD8B
:101FA4000547B8D38327C4FD23A207060100325492
:101FB40045618280011106CE22CC00102326A4FEA6
:101FC4002324B4FE832784FE9C43BE850325C4FEDC
:101FD4001536832784FEDC43BE850325C4FE913970
:101FE400832784FE9C47BE850325C4FE513983277D
:101FF40084FEDC47BE850325C4FE8936832784FE20
:102004009C4BBE850325C4FEBD3E832784FED84B6E
:10201400832784FE9C4F3E86BA850325C4FE4D3E2D
:102024000100F240624405618280011122CE001059
:102034002326A4FE8327C4FE23A007008327C4FE0F
:1020440023A207008327C4FE23A407008327C4FE1A
:1020540023A607008327C4FE23A807008327C4FE02
:1020640023AA07008327C4FE23AC0700010072449F
:1020740005618280011122CE00102326A4FEB7E759
:1020840000300327C4FE058B1377F70F058B220757
:1020940083A6470B93F6F6EF558F23AAE70A0100B0
:1020A400724405618280011122CE00102326A4FE11
:1020B400B72701309843B707F9FFFD17B376F70048
:1020C4008327C4FE13970701B7270130558F98C3A0
:1020D4000100724405618280011122CE0010232682
:1020E400A4FEB72701309843E577FD17B376F700D0
:1020F4008327C4FE1397C700B7270130558F98C3B1
:102104000100724405618280011122CE0010232651
:10211400A4FEB72701309C4393F6F7CF8327C4FE70
:1021240013978700B7270130558F98C30100724475
:1021340005618280011122CE00102326A4FE2324EF
:10214400B4FEB7270130D8438327C4FE8A078D46DF
:10215400B397F60093C7F7FFB376F7008327C4FE5F
:102164008A07032784FE3317F700B7270130558FFA
:10217400D8C30100724405618280011122CE00108F
:102184002326A4FE2324B4FEB727013098478327CF
:10219400C4FE8A079D46B397F60093C7F7FFB3764C
:1021A400F7008327C4FE8A07032784FE3317F7004A
:1021B400B7270130558F98C70100724405618280AA
:1021C400411106C622C4000801456D3505455D353B
:1021D4000100B240224441018280011106CE22CC8A
:1021E40000102326A4FE8327C4FE9C433E85653D40
:1021F4008327C4FEDC433E85C5358327C4FE9C4744
:102204003E8519370100F240624405618280011164
:1022140022CE00102326A4FE8327C4FE23A2070097
:102224008327C4FE23A407008327C4FE23A007003A
:102234000100724405618280011106CE22CC001097
:102244002326A4FE2324B4FE832784FE9C43BE8558
:102254000325C4FEC535832784FEDC43BE850325E0
:10226400C4FE213F0100F2406244056182800111F5
:1022740022CE00102326A4FE8327C4FE23A2070037
:102284008327C4FE054798C3010072440561828018
:10229400011122CE00102326A4FE2324B4FEB7E7A6
:1022A4000030984B8327C4FE93C7F7FFB376F7003B
:1022B400832784FE81C78327C4FE11A0814737E7A3
:1022C4000030D58F1CCB010072440561828001115E
:1022D40022CE00102326A4FE2324B4FE8327C4FEAA
:1022E400DC4713F7E7FF832784FE5D8F8327C4FE53
:1022F400D8C70100724405618280011122CE00100A
:102304002326A4FE2324B4FE8327C4FEDC4713F74C
:10231400D7FF832784FE86075D8F8327C4FED8C733
:102324000100724405618280011122CE001023262F
:10233400A4FE2324B4FE8327C4FEDC4713F7B7FFAF
:10234400832784FE8A075D8F8327C4FED8C70100D4
:10235400724405618280011122CE00102326A4FE5E
:102364002324B4FE8327C4FEDC4713F777FE8327B8
:1023740084FE8E075D8F8327C4FED8C70100724494
:1023840005618280011122CE00102326A4FE23249D
:10239400B4FE8327C4FEDC4713F7F7F9832784FED2
:1023A40096075D8F8327C4FED8C701007244056178
:1023B4008280011122CE00102326A4FE2324B4FE21
:1023C4008327C4FEDC4713F7F7F7832784FE9E07B1
:1023D4005D8F8327C4FED8C70100724405618280E3
:1023E400011122CE00102326A4FE2324B4FE832749
:1023F400C4FE032784FE98CB0100724405618280E9
:10240400011122CE00102326A4FE2324B4FE832728
:10241400C4FE032784FED8CB010072440561828088
:10242400797106D622D40018232EA4FC85450325F1
:10243400C4FD713D81450325C4FD513D0327C4FD01
:10244400B70703206314F700856711A08967232663
:10245400F4FE81450325C4FE253D85450325C4FEC0
:10246400053D0100B250225445618280011106CE1F
:1024740022CC00102326A4FE2324B4FE832784FE4A
:102484009C43BE850325C4FEA13F832784FEDC4311
:10249400BE850325C4FEFD35832784FE9C47BE8587
:1024A4000325C4FE3937832784FEDC47BE85032514
:1024B400C4FEA135832784FE9C4BBE850325C4FE40
:1024C400A535832784FEDC4BBE850325C4FE613518
:1024D400832784FE9C4FBE850325C4FE1537010067
:1024E400F240624405618280011122CE001023264D
:1024F400A4FE8327C4FE23A007008327C4FE23A2CF
:1025040007008327C4FE23A407008327C4FE23A651
:1025140007008327C4FE23A807008327C4FE23AA39
:1025240007008327C4FE3727C104130777DB98CF3E
:102534000100724405618280011122CE001023261D
:10254400A4FE2324B4FEB7E70030984B8327C4FECF
:1025540093C7F7FFB376F700832784FE81C78327E9
:10256400C4FE11A0814737E70030D58F1CCB010092
:10257400724405618280011122CE00102326A4FE3C
:10258400B7070220FC4393F6E7FFB70702200327AF
:10259400C4FE558FF8C30100724405618280411165
:1025A40022C60008B7070220F843B70702201367C2
:1025B4002700F8C30100324441018280011122CE78
:1025C40000102326A4FEB7070220FC4393F6B7FFAE
:1025D4008327C4FE13972700B7070220558FF8C33B
:1025E4000100724405618280011122CE001023266D
:1025F400A4FEB7070220FC4393F677FE8327C4FEAC
:1026040013973700B7070220558FF8C301007244AF
:1026140005618280011122CE00102326A4FEB70793
:102624000220FC4393F6F7F98327C4FE139757005F
:10263400B7070220558FF8C30100724405618280F8
:10264400011122CE00102326A4FEB7070220FC436A
:1026540093F6F79F8327C4FE13979700B7070220CA
:10266400558FF8C30100724405618280011122CEA6
:1026740000102326A4FEB7070220FC4393F6F7EFCD
:102684008327C4FE13978700B7070220558FF8C32A
:102694000100724405618280011122CE00102326BC
:1026A400A4FE2324B4FE370702208327C4FE8A072E
:1026B400BA97032784FE98C301007244056182809F
:1026C400011122CE00102326A4FE2324B4FE3707D2
:1026D40002208327C4FE91078A07BA97032784FE42
:1026E40098C30100724405618280011122CE00105A
:1026F4002326A4FE2324B4FE370702208327C4FE26
:10270400A1078A07BA97032784FE98C3010072447D
:1027140005618280011122CE00102326A4FE370712
:1027240002208327C4FEF1078A07BA979C433E859B
:10273400724405618280011122CE00102326A4FE7A
:10274400370702208327C4FE938787028A07BA9734
:102754009C433E85724405618280411122C6000873
:10276400B707022083A70708858B3E8532444101C1
:102774008280011122CE00102326A4FEB707022076
:102784000327C4FEB8C70100724405618280411169
:1027940022C60008B7070220F847B70702201367CC
:1027A4001700F8C70100324441018280011122CE92
:1027B40000102326A4FEB7070220FC4793F6D7FF98
:1027C4008327C4FE13971700B7070220558FF8C755
:1027D4000100724405618280011122CE001023267B
:1027E400A4FEB7070220FC4793F6B7FF8327C4FE75
:1027F40013972700B7070220558FF8C701007244CA
:1028040005618280411122C60008B707022083A710
:10281400070893F7071099C3854711A081473E85A0
:10282400324441018280411106C622C40008814518
:10283400114519338545114501330100B240224445
:1028440041018280011106CE22CC00102326A4FE71
:102854008327C4FE9C433E8595338327C4FEDC4313
:102864003E8559338327C4FE9C473E8565338327C1
:10287400C4FEDC473E85DD3B8327C4FE9C4B3E857E
:10288400DD398327C4FEDC4B3E855D3B0100F2400D
:10289400624405618280011122CE00102326A4FE29
:1028A4008327C4FE23A007008327C4FE0547D8C39B
:1028B4008327C4FE0D4798C78327C4FE0547D8C79E
:1028C4008327C4FE054798CB8327C4FE23AA0700A9
:1028D4000100724405618280011122CE001023267A
:1028E400A4FE2324B4FE8327C4FE23A00700832769
:1028F400C4FE23A207008327C4FE032784FED8CB8B
:102904008327C4FE054798C78327C4FE23A6070070
:102914008327C4FE23A807008327C4FE23AE070031
:102924008327C4FE23A0070201007244056182804C
:10293400011106CE22CC00102326A4FE8327C4FE58
:10294400DC4B984B8327C4FEDC53058B1377F70FBE
:10295400058B9443F99A558F98C38327C4FE9847EF
:102964008327C4FEDC53058B1377F70F058B06070B
:102974009443F59A558F98C38327C4FEDC4B984340
:102984008327C4FEDC53058B1377F70F058B0A07E7
:102994009443ED9A558F98C38327C4FEDC4BD843E8
:1029A4008327C4FEDC530D8B1377F70F0D8B0E07B3
:1029B40094439D9A558F98C38327C4FEDC4B984754
:1029C4008327C4FEDC530D8B1377F70F0D8B16078B
:1029D400944393F6F6F9558F98C38327C4FEDC4BD2
:1029E400D84B8327C4FEDC530D8B1377F70F0D8B65
:1029F40036079043E976FD16F18E558F98C38327E9
:102A0400C4FED8478327C4FEDC53058B1377F70F26
:102A1400058B3E079043E176FD16F18E558F98C3E2
:102A24008327C4FE984B8327C4FEDC53BA8605670C
:102A34007D17758F93160701C18205677D17758F02
:102A440042079043B70601F0FD16F18E558F98C3E7
:102A54008327C4FED84F8327C4FEDC53D8C38327FF
:102A6400C4FE98538327C4FEDC5398C78327C4FE4F
:102A74009C4781EB8327C4FE9C4F3E85553D2A87A6
:102A840011A001478327C4FEDC53D8C78327C4FEA3
:102A9400DC533E85F240624405618280011106CE1A
:102AA40022CC00102326A4FE8327C4FE9C433E852B
:102AB400F5398327C4FEDC433E85393B0325C4FE38
:102AC400853DAA873E857531D9310100F2406244C3
:102AD40005618280797106D622D40018232EA4FCC5
:102AE400232CB4FC232604FE0DA00327C4FE930765
:102AF40017002326F4FE8327C4FD93864700232E64
:102B0400D4FC9C43BE853A85CD360327C4FE832777
:102B140084FDE36CF7FC01000100B25022544561CE
:102B24008280797106D622D40018232EA4FC232C8B
:102B3400B4FC232604FE89A88327C4FD8D0783C71C
:102B440007003E878327C4FD890783C70700A207C0
:102B54003E978327C4FD850783C70700C2073E97B6
:102B64008327C4FD83C70700E207BA97BE85032500
:102B7400C4FEB9368327C4FD9107232EF4FC8327B2
:102B8400C4FE85072326F4FE0327C4FE832784FDA1
:102B9400E364F7FA01000100B250225445618280D7
:102BA400797106D622D40018232EA4FC232CB4FC5D
:102BB4008327C4FDDC4399E3914711A0A147232453
:102BC400F4FE232604FEA1A8832784FD8D0783C772
:102BD40007003E87832784FD890783C70700A20770
:102BE4003E97832784FD850783C70700C2073E9766
:102BF400832784FD83C70700E207BA972322F4FEE4
:102C0400832544FE0325C4FECD34832784FD910728
:102C1400232CF4FC8327C4FE85072326F4FE032714
:102C2400C4FE832784FEE361F7FA01000100B25079
:102C3400225445618280397106DE22DC8000232E15
:102C4400A4FC232CB4FC232AC4FC2328D4FC232670
:102C5400E4FC0325C4FDFD36832784FD91C7832549
:102C640084FD0325C4FD2D3F832704FD81C703256F
:102C740004FD05248327C4FDD84389476314F70062
:102C8400894711A091472322F4FE832544FE03259E
:102C940044FD413D0100D134AA87F5DF093201002A
:102CA400B707022083A70708898BFDDB0100B7075C
:102CB400022083A70708858BFDDB8327C4FD984783
:102CC4008547631CF7008327C4FD98438547631633
:102CD400F7000145E5300145353A232604FEC9A035
:102CE4000325C4FE053C2324A4FE832784FE13D7B6
:102CF4008701832784FE93D68700C167938707F0F3
:102D0400F58F3E97832784FE93968700B707FF00CD
:102D1400F58F3E97832784FEE207BA972324F4FEB7
:102D24008327C4FD98478547631DF7048327C4FDA3
:102D3400984385476317F704832704FD8D0783C7EA
:102D440007003E87832704FD890783C70700A2077E
:102D54003E97832704FD850783C70700C2073E9774
:102D6400832704FD83C70700E207BA973E878327BA
:102D740084FEB98F2324F4FE832704FD91072328BE
:102D8400F4FC8327C4FC032784FE98C38327C4FC74
:102D940091072326F4FC8327C4FE85072326F4FE2B
:102DA4000327C4FE832744FEE36CF7F2010001000D
:102DB400F250625421618280517186D7A2D5A6D384
:102DC40080192326A4F22324B4F22322C4F223205C
:102DD400D4F2232EE4F0232CF4F0930704FF232AE7
:102DE400F4F0832744F1938707F49387F7079D83CF
:102DF4009394770023A00400832784F291C783254A
:102E040084F20325C4F2693B8327C4F181C70325F7
:102E1400C4F14120930784FC8325C4F23E856D3CB4
:102E2400832704F28D83232CF4FC8327C4F2D84334
:102E340089476307F700832784FD8583232CF4FCEB
:102E4400832784FDFD17232CF4FC85472324F4FCFD
:102E5400232694FE832744F22322F4FE832784F15D
:102E64002324F4FE0100D538AA87F5DF930784FCF8
:102E74003E852D3101007932AA87F5FF0100F13832
:102E8400AA87F5DF01000100BE502E549E546D61E7
:102E94008280797106D622D40018232EA4FC23261E
:102EA40004FE99A88326C4FE8327C4FD8D0783C727
:102EB40007003E878327C4FD890783C70700A2074D
:102EC4003E978327C4FD850783C70700C2073E9743
:102ED4008327C4FD83C70700E207BA97BE853685FA
:102EE400EFF08FFB8327C4FD9107232EF4FC832787
:102EF400C4FE85072326F4FE0327C4FE8D47E3D3CF
:102F0400E7FA01000100B2502254456182800111A8
:102F140006CE22CC00102326A4FE2324B4FE2322B2
:102F2400C4FE0325C4FE853A832784FED843832741
:102F3400C4FED8C3832784FE98438327C4FE98C362
:102F44008327C4FE0D4798C78327C4FE032744FE86
:102F5400D8CB0100F240624405618280797106D6C3
:102F640022D400182326A4FE2324B4FE2322C4FE64
:102F74002320D4FE232EE4FC232CF4FC232A04FD7A
:102F8400832584FE0325C4FE813A8327C4FE0327D8
:102F940004FED8D38327C4FE0327C4FDD8CF8327D8
:102FA400C4FE032744FD98D38327C4FE054798C372
:102FB400832784FD91C7832784FD9183FD1711A086
:102FC40081470327C4FE1CCB832744FE93B7170015
:102FD40093F7F70F3E878327C4FE98C78327C4FE61
:102FE400032744FE98CF0100B250225445618280E9
:102FF400130101C923261136232481362322913655
:10300400801E232EA4CA232CB4CA232AC4CA23286C
:10301400D4CA2326E4CA2324F4CA232204CB2320BB
:1030240014CB930704FF232EF4C88327C4C99387C2
:1030340007CD9387F7079D83939477008327C4CBA9
:10304400D84389476314F70085475DA223A0041879
:1030540023A0041023A004088327C4CB0547D8C7A2
:10306400930704FD01468325C4CB3E854D35930764
:1030740004FA09468325C4CB3E85513D930784F861
:103084000D468325C4CB3E855935832784CB91C710
:10309400832584CB0325C4CB21368327C4CA81C7A7
:1030A4000325C4CAFD33832744CA8E072326F4FEAE
:1030B400832704CB8E072324F4FE232C04EC8327DC
:1030C400C4FE139787018327C4FE93968700B7072E
:1030D400FF00F58F3E978327C4FE93D68700C16710
:1030E400938707F0F58F3E978327C4FEE183BA9751
:1030F400232EF4EC232004EE832784FE1397870108
:10310400832784FE93968700B707FF00F58F3E97C9
:10311400832784FE93D68700C167938707F0F58FD2
:103124003E97832784FEE183BA972322F4EE832714
:1031340044CA99C7832784CA81C7130684F319A094
:10314400130604F193860418930504FD130504F68D
:103154000148814701471935832744CA95CB832702
:1031640084CA9DC723A00400930784FB05468325D6
:10317400C4CB3E85693B130604F1930584FB130518
:1031840084F30148832744CA032784CAA686F933F3
:1031940093860410130684EE930504FA130504F1D0
:1031A400032804CA832704CB032744CB453B1307D6
:1031B40084ED93860408930584F8130584EE0328AC
:1031C400040081470146593B0100EFF00FD9AA875B
:1031D400EDDF930704F63E85D1300100EFF08FE276
:1031E400AA87EDFF0100EFF04FD7AA87EDDF8147F3
:1031F4003E858320C136032481368324413613015E
:1032040001378280011106CE22CC00102326A4FEB1
:103214002324B4FE8327C4FED84389476314F700EC
:1032240085472DA8032584FEAD318327C4FE23AA38
:1032340007008327C4FE0547D8C70325C4FEEFF063
:103244006FE00100EFF06FD1AA87EDDFEFF02FB54B
:103254000100EFF08FD0AA87EDDF81473E85F24071
:10326400624405618280797106D622D40018232E27
:10327400A4FC232CB4FC232AC4FC8327C4FDD84318
:1032840089476314F7008547B9A00545EFF04FBBA4
:10329400232604FE15A8032784FD8327C4FEBA97BA
:1032A40091453E85BD380100EFF02FCBAA87EDDFB5
:1032B400EFF0EFAE0100EFF04FCAAA87EDDF8327EE
:1032C400C4FEC1072326F4FE0327C4FE832744FD5E
:1032D400E363F7FC81473E85B25022544561828006
:1032E400797106D622D40018232EA4FC232CB4FC16
:1032F400232AC4FC2328D4FC8327C4FDD84389474C
:103304006314F700854721A20945EFF06FB3232624
:1033140004FEFDA0032784FD8327C4FEBA979145CC
:103324003E85EFF01F800100EFF02FC3AA87EDDF89
:10333400EFF0EFA60100EFF04FC2AA87EDDF2324E0
:1033440004FE6DA0032584FEEFF0CFBC2322A4FE6F
:10335400832784FE139727008327C4FEBA97032785
:1033640004FDBA97032744FE1377F70F2380E70081
:10337400832744FE93D68700832784FE1397270070
:103384008327C4FEBA978507032704FDBA9713F76A
:10339400F60F2380E700832744FE93D60701832793
:1033A40084FE139727008327C4FEBA97890703274F
:1033B40004FDBA9713F7F60F2380E700832744FE32
:1033C40093D68701832784FE139727008327C4FE9F
:1033D400BA978D07032704FDBA9713F7F60F2380D6
:1033E400E700832784FE85072324F4FE032784FE55
:1033F4008D47E3F9E7F48327C4FEC1072326F4FECF
:103404000327C4FE832744FDE366F7F081473E8526
:10341400B250225445618280797106D622D40018B4
:10342400232EA4FC232CB4FC232AC4FC2328D4FC80
:103434008327C4FDD84389476314F7008547CDA08B
:103444000D45EFF0EF9F81450145EFF06FA78145F2
:103454000945EFF0EFA6832784FD8E07BE85054559
:10346400EFF00FA6832744FD8E07BE850D45EFF0D0
:103474002FA50100EFF06FAEAA87EDDFEFF02F92DA
:103484000100EFF08FADAA87EDDF232604FE59A0DB
:103494008327C4FE89833E85EFF0EFA92324A4FE8D
:1034A400032704FD8327C4FEBA97032784FE1377FA
:1034B400F70F2380E700832784FE93D687008327B2
:1034C400C4FE8507032704FDBA9713F7F60F23807C
:1034D400E700832784FE93D607018327C4FE890768
:1034E400032704FDBA9713F7F60F2380E700832719
:1034F40084FE93D687018327C4FE8D07032704FD2A
:10350400BA9713F7F60F2380E7008327C4FE9107C9
:103514002326F4FE0327C4FEBD47E3FBE7F68147F9
:103524003E85B250225445618280011122CE0010A2
:103534002326A4FEB7C70030DC4393F687FF832716
:10354400C4FE98438327C4FEDC4386075D8F83272C
:10355400C4FE9C478A075D8FB7C70030558FD8C318
:103564000100724405618280011122CE00102326DD
:10357400A4FE2324B4FE032784FE85476318F700C2
:10358400B7C700300327C4FE98CF31A0B7C70030B7
:103594000327C4FED8CF0100724405618280011163
:1035A40022CE00102326A4FE2324B4FE032784FE87
:1035B40085476318F700B7C700300327C4FE98D3C4
:1035C40031A0B7C700300327C4FED8D3010072442A
:1035D40005618280011122CE00102326A4FE23243B
:1035E400B4FE032784FE85476318F700B7C700308D
:1035F4000327C4FE98D731A0B7C700300327C4FE01
:10360400D8D70100724405618280011122CE0010D6
:103614002326A4FE2324B4FE032784FE85476318CF
:10362400F700B7C700300327C4FE98DB31A0B7C743
:1036340000300327C4FED8DB010072440561828098
:10364400011122CE00102326A4FE2324B4FE032756
:1036540084FE85476318F700B7C700300327C4FE0C
:1036640098DF31A0B7C700300327C4FED8DF0100BC
:10367400724405618280011122CE00102326A4FE2B
:103684008327C4FE23A007008327C4FE23A20700C8
:103694008327C4FE23A407000100724405618280CD
:1036A400011122CE00102326A4FE2324B4FE832776
:1036B40084FE9C433E878327C4FE98C3832784FEED
:1036C4009C5B8D8B13F7F70F8327C4FE0D8B460786
:1036D4009047B706FAFFFD16F18E558F98C78327DA
:1036E40084FE9C5F8D8B13F7F70F8327C4FE0D8B2D
:1036F4003E079047A176FD16F18E558F98C7832714
:1037040084FEDC4F858B13F7F70F8327C4FE058BEC
:103714006E079047B70600F8FD16F18E558F98C7CF
:10372400832784FE9C4F858B13F7F70F8327C4FEF2
:10373400058B6A079047B70600FCFD16F18E558F7E
:1037440098C7832784FE9C53858B13F7F70F832731
:10375400C4FE058B72079047B70600F0FD16F18E84
:10376400558F98C7832784FEDC433E878327C4FE96
:10377400D8C3832784FEDC5B8D8B13F7F70F832775
:10378400C4FE0D8B56079047B706A0FFFD16F18EB9
:10379400558F98C7832784FEDC5F8D8B13F7F70F53
:1037A4008327C4FE0D8B4E079047B706E8FFFD162E
:1037B400F18E558F98C7832784FE9C57858B13F70A
:1037C400F70F8327C4FE058B62079047B70600FFF7
:1037D400FD16F18E558F98C7832784FEDC53858BA5
:1037E40013F7F70F8327C4FE058B5E079047B706D0
:1037F40080FFFD16F18E558F98C7832784FEDC5712
:10380400858B13F7F70F8327C4FE058B6607904754
:10381400B70600FEFD16F18E558F98C7832784FEE8
:10382400DC47858B13F7F70F8327C4FE058B94477A
:10383400F99A558F98C7832784FEDC4BBD8B13F709
:10384400F70F8327C4FE3D8B06079447859A558F4F
:1038540098C7832784FE9C4BC207C183FD17C20708
:10386400C18393F7F73F1397070141838327C4FE6E
:103874001377F73F16079047E176FD06F18E558FD3
:1038840098C7832784FE9C479D8B13F7F70F8327E4
:10389400C4FE76079047B7060020FD16F18E558FBB
:1038A40098C70100724405618280011122CE001084
:1038B4002326A4FE8327C4FE23A007008327C4FE77
:1038C40023A807028327C4FE0D4798DF8327C4FE7D
:1038D40023AE07008327C4FE23AC07008327C4FE5E
:1038E40023A007028327C4FE23A207008327C4FE64
:1038F40023AA07028327C4FE0D47D8DF8327C4FE0B
:1039040023A407028327C4FE23A207028327C4FE3D
:1039140023A607028327C4FE23A607008327C4FE29
:1039240023AA07008327C4FE054798CB8327C4FE38
:1039340023A407000100724405618280411122C65C
:103944000008B7C7003023A20700B7C7003023A47C
:103954000700B7C70030370700017D17D8D7B7C7AE
:103964000030370700017D17D8DFB7C700303707AD
:1039740000017D17D8DBB7C70030370700017D177A
:10398400D8D3B7C70030370700017D17D8CF01005F
:10399400324441018280011106CE22CC001023263C
:1039A400A4FE8327C4FE91073E8541368327C4FEC7
:1039B40098438327C4FE9C4BBE853A85753683277E
:1039C400C4FE98438327C4FE9C4FBE853A8535398F
:1039D4008327C4FE98438327C4FEDC4FBE853A8503
:1039E40085318327C4FE98438327C4FEDC4BBE8500
:1039F4003A8575368327C4FE98438327C4FE9C53B7
:103A0400BE853A85C13E0100F24062440561828070
:103A1400011122CE00102326A4FE8327C4FE3707FB
:103A240000017D1798C38327C4FE23A007028327C0
:103A3400C4FE23AE07008327C4FE23AC07008327FC
:103A4400C4FE23AA07008327C4FE23A807008327F4
:103A5400C4FE23A407008327C4FE23A607008327EC
:103A6400C4FE23A207000100724405618280011193
:103A740022CE00102326A4FE2324B4FEB7E7003090
:103A8400984B8327C4FE93C7F7FFB376F7008327C9
:103A940084FE81C78327C4FE11A0814737E7003025
:103AA400D58F1CCB0100724405618280011122CEA6
:103AB40000102326A4FE2324B4FE2322C4FE0327DD
:103AC40044FE85476318F7008327C4FE032784FE5A
:103AD400D8D731A08327C4FE032784FE98DB0100D6
:103AE400724405618280011122CE00102326A4FEB7
:103AF4002324B4FE2322C4FE032744FE854763180F
:103B0400F7008327C4FE032784FED8DB31A0832774
:103B1400C4FE032784FE98DF01007244056182809D
:103B2400797122D60018232EA4FC232CB4FC232A5A
:103B3400C4FC8327C4FD9C432326F4FE232404FEF3
:103B440089A8832784FE0547B317F7003E87832798
:103B540084FDF98F95CB832784FE86070D47B31721
:103B6400F70093C7F7FF0327C4FEF98F2326F4FE5B
:103B7400832784FE8607032744FDB317F700032732
:103B8400C4FED98F2326F4FE832784FE85072324CD
:103B9400F4FE032784FEBD47E3F5E7FA8327C4FD5B
:103BA4000327C4FE98C30100325445618280011189
:103BB40006CE22CC00102326A4FE2324B4FE232206
:103BC400C4FE8327C4FE93874702032644FE83254D
:103BD40084FE3E85B1370100F24062440561828073
:103BE400011106CE22CC00102326A4FE2324B4FE09
:103BF4002322C4FE8327C4FEF107032644FE832543
:103C040084FE3E85313F0100F240624405618280BA
:103C1400011106CE22CC00102326A4FE2324B4FED8
:103C24002322C4FE8327C4FE93870702032644FE8F
:103C3400832584FE3E85ED350100F2406244056132
:103C44008280797122D60018232EA4FC232CB4FC84
:103C5400232AC4FC8327C4FDDC5F2326F4FE23242B
:103C640004FE89A8832784FE0547B317F7003E871F
:103C7400832784FDF98F95CB832784FE86070D4720
:103C8400B317F70093C7F7FF0327C4FEF98F232662
:103C9400F4FE832784FE8607032744FDB317F70049
:103CA4000327C4FED98F2326F4FE832784FE8507C9
:103CB4002324F4FE032784FEBD47E3F5E7FA8327B4
:103CC400C4FD0327C4FED8DF01003254456182805D
:103CD400797106D622D40018232EA4FC0327C4FD30
:103CE400B70700286317F700930700102326F4FE94
:103CF40035A00327C4FDB71700286317F7009307FF
:103D040000202326F4FE19A80327C4FDB7270028A2
:103D14006316F700930700402326F4FE814503252C
:103D2400C4FEB13385450325C4FE91330100B2506E
:103D3400225445618280011106CE22CC0010232634
:103D4400A4FE2324B4FE832784FE9843832784FEA1
:103D5400DC433E86BA850325C4FE893B832784FE63
:103D64009843832784FEDC473E86BA850325C4FE38
:103D7400C93D832784FE9843832784FE9C473E865F
:103D8400BA850325C4FE8533832784FE984383279D
:103D940084FEDC4B3E86BA850325C4FE093D832799
:103DA40084FE9843832784FE9C4F3E86BA85032570
:103DB400C4FE3D35832784FE9843832784FEDC4F6D
:103DC4003E86BA850325C4FEA1350100F240624453
:103DD40005618280011122CE00102326A4FE8327D0
:103DE400C4FE41677D1798C38327C4FE23A207003E
:103DF4008327C4FE23A607008327C4FE23A4070049
:103E04008327C4FE23AA07008327C4FE23AC07002C
:103E14008327C4FE23AE07008327C4FE23A807001C
:103E24000100724405618280011122CE0010232614
:103E3400A4FE2324B4FEB7E7003098438327C4FECE
:103E440093C7F7FFB376F700832784FE81C78327E0
:103E5400C4FE11A0814737E70030D58F1CC3010091
:103E6400724405618280011122CE00102326A4FE33
:103E74002324B4FEB7E70030984B8327C4FE93C7CE
:103E8400F7FFB376F700832784FE81C78327C4FE38
:103E940011A0814737E70030D58F1CCB0100724455
:103EA40005618280011122CE00102326A4FEB727CB
:103EB40003209C4393F6E7FFB72703200327C4FEA0
:103EC400558F98C30100724405618280011122CE8E
:103ED40000102326A4FEB72703209C4393F6D7FFA4
:103EE4008327C4FE13971700B7270320558F98C361
:103EF4000100724405618280011122CE0010232644
:103F0400A4FEB72703209C4393F6B7FF8327C4FE80
:103F140013972700B7270320558F98C301007244D5
:103F240005618280011122CE00102326A4FEB7274A
:103F340003209C4393F677FF8327C4FE139737002F
:103F4400B7270320558F98C301007244056182800E
:103F5400011122CE00102326A4FEB72703209C4380
:103F640093F6F7FC8327C4FE13974700B727032073
:103F7400558F98C30100724405618280011122CEDD
:103F840000102326A4FEB72703209C4393F6F7FBD7
:103F94008327C4FE13976700B7270320558F98C360
:103FA4000100724405618280011122CE0010232693
:103FB400A4FEB72703209C4393F6F7F78327C4FE98
:103FC40013977700B7270320558F98C301007244D5
:103FD40005618280011122CE00102326A4FEB7279A
:103FE40003209843D177FD17B376F7008327C4FEE7
:103FF4001397E700B7270320558F98C30100724435
:1040040005618280411122C60008B72703209C4322
:10401400B9838D8B3E85324441018280011122CEC9
:1040240000102326A4FEB72703200327C4FED8C309
:104034000100724405618280011122CE0010232602
:10404400A4FE372703208327C4FEC1078A07BA9733
:104054009C433E85724405618280011106CE22CCC8
:1040640000102326A4FE793FAA870D476386E70242
:104074000D476365F7020947638EE7000947636FDD
:10408400F70089C705476385E70009A8954701A894
:10409400914731A09D4721A0A14711A081473E85AA
:1040A400F240624405618280797106D622D426D218
:1040B4000018232EA4FC232604FE232404FE99378F
:1040C400AA873E85593F2324A4FE832784FE232602
:1040D400F4FE15A08327C4FEFD172326F4FE8327D0
:1040E400C4FE8A070327C4FDB304F7000325C4FEF6
:1040F400A137AA879CC08327C4FEE9FF832784FED7
:104104003E85B2502254925445618280797106D61C
:1041140022D40018232EA4FC232CB4FC232604FE52
:1041240039A88327C4FE8A070327C4FDBA979C4392
:104134003E85ED358327C4FE85072326F4FE032739
:10414400C4FE832784FDE36EF7FC01000100B25036
:10415400225445618280411106C622C400080145EB
:10416400913381452145013385452145ED390100D0
:10417400B240224441018280011106CE22CC0010BB
:104184002326A4FE85452145453185452145E13950
:104194008327C4FE9C4B3E85D5338327C4FEDC4372
:1041A4003E85993B8327C4FEDC4B3E85F53B832744
:1041B400C4FE9C4F3E85393D8327C4FEDC473E85C3
:1041C400413B8327C4FE9C433E8509338327C4FEB9
:1041D4009C473E85813B0545F1310100F240624434
:1041E40005618280011122CE00102326A4FE8327BC
:1041F400C4FE23A807008327C4FE23A20700832745
:10420400C4FE23AA07008327C4FE23AC0700832728
:10421400C4FE23A607008327C4FE23A00700832728
:10422400C4FE23A4070001007244056182800111C9
:1042340022CE00102326A4FEB75700300327C4FE65
:104244001377F7071377F70F060783C64701858AA5
:10425400558F238AE70001007244056182800111B1
:1042640022CE00102326A4FEB75700300327C4FE35
:104274001377F70F2380E7020100724405618280FF
:10428400011122CE00102326A4FEB75700300327C5
:10429400C4FE3D8B1377F70F120783C6C701BD8A8F
:1042A400558F238EE700010072440561828001115D
:1042B40022CE00102326A4FEB75700300327C4FEE5
:1042C4001377F70F2382E7020100724405618280AD
:1042D400797106D622D40018232EA4FC232CB4FC16
:1042E4008327C4FD8A07032784FDB357F7022326D7
:1042F400F4FE8327C4FE93F7F7073E850D3F83271B
:10430400C4FE9D833E85A13F0100B2502254456105
:104314008280797106D622D40018232EA4FC232C83
:10432400B4FC0327C4FDBA878607BA97032784FD24
:10433400B357F7022326F4FE8327C4FEBD8B3E85C4
:1043440081378327C4FE91833E8595370100B2509F
:10435400225445618280011122CE00102326A4FE3E
:104364002324B4FEB7E70030984B8327C4FE93C7D9
:10437400F7FFB376F700832784FE81C78327C4FE43
:1043840011A0814737E70030D58F1CCB0100724460
:1043940005618280011122CE00102326A4FEB707F6
:1043A40004200327C4FE1D8B1377F70F1D8B4207D0
:1043B400D043B706F9FFFD16F18E558FD8C301001F
:1043C400724405618280011122CE00102326A4FECE
:1043D400B70704200327C4FE1377F70FA382E7006F
:1043E4000100724405618280011122CE001023264F
:1043F400A4FEB70704200327C4FE1377F70313773B
:10440400F70F1377F70383D6C70093F606FC558F8F
:104414002396E7000100724405618280011122CED7
:1044240000102326A4FEB70704200327C4FE058B2F
:104434001377F70F058B1E0783D6C70093F6F6F79D
:10444400558F2396E70001007244056182800111B3
:1044540022CE00102326A4FEB70704200327C4FE9F
:10446400058B1377F70F058B220783D6C70093F6C6
:10447400F6EF558F2396E7000100724405618280B0
:10448400011122CE00102326A4FEB707042003271F
:10449400C4FE058B1377F70F058B260783D6C70059
:1044A40093F6F6DF558F2396E70001007244056109
:1044B4008280011122CE00102326A4FEB707042017
:1044C4000327C4FE0D8B1377F70F0D8B1316A7006C
:1044D40003D7C700BA867D771307F73F758FBA866F
:1044E4003287558F2396E70001007244056182806C
:1044F400011122CE0010AA87A307F4FEB7070420F7
:104504000347F4FE238CE7000100724405618280B6
:10451400011122CE00102326A4FEB707042003278E
:10452400C4FE0D8B1377F70F0D8B2207944F93F670
:10453400F6CF558F98CF0100724405618280011136
:1045440022CE00102326A4FEB70704200327C4FEAE
:104554000D8B1377F70F0D8B2A07904FFD769386FB
:10456400F63FF18E558F98CF010072440561828029
:10457400011122CE00102326A4FEB707042003272E
:10458400C4FE0D8B1377F70F0D8B3207904FF57622
:10459400FD16F18E558F98CF01007244056182801B
:1045A400011122CE00102326A4FEB70704200327FE
:1045B400C4FE0D8B1377F70F0D8B3A07904FD1760E
:1045C400FD16F18E558F98CF0100724405618280EB
:1045D400011122CE00102326A4FEB70704200327CE
:1045E400C4FE0D8B1377F70F0D8B4207904FB70660
:1045F400FDFFFD16F18E558F98CF010072440561C1
:104604008280011122CE00102326A4FEB7070420C5
:104614000327C4FE7D8B1377F70F7D8B4A07904FDA
:10462400B70684FFFD16F18E558F98CF01007244B2
:1046340005618280011122CE00102326A4FEB70753
:1046440004200327C4FE0D8B1377F70F0D8B62072D
:10465400904FB70600FDFD16F18E558F98CF0100DF
:10466400724405618280011122CE00102326A4FE2B
:10467400B70704200327C4FE0D8B1377F70F0D8BA8
:104684006A07904FB70600F4FD16F18E558F98CF48
:104694000100724405618280011122CE001023269C
:1046A400A4FEB70704200327C4FE058B1377F70F76
:1046B4007E07904FB706008093C6F6FFF18E558FA4
:1046C40098CF0100724405618280411106C622C45C
:1046D400000881454145413185454145AD390100D9
:1046E400B240224441018280011106CE22CC001046
:1046F4002326A4FE014579398327C4FE9C433E85C5
:104704004D3B8327C4FEDC433E85093B8327C4FE1F
:104714009C473E85D1398327C4FEDC473E85053B53
:104724008327C4FE9C4B3E85A13B8327C4FEDC4B00
:104734003E8551390100F2406244056182800111D5
:1047440022CE00102326A4FE8327C4FE23A0070044
:104754008327C4FE23A207008327C4FE054798C706
:104764008327C4FE23A607008327C4FE23A80700CB
:104774008327C4FE23AA07000100724405618280D6
:10478400011106CE22CC00102326A4FE09451931BE
:104794008327C4FE83C707003E85993B8327C4FE55
:1047A400DC433E85B5338327C4FE9C473E85413BAD
:1047B4008327C4FEDC473E85653B8327C4FE9C4BB0
:1047C4003E85F93B8327C4FEDC4B3E8511358327A8
:1047D400C4FE9C4F3E8535358327C4FEDC4F3E85A1
:1047E400913D8327C4FE9C533E85B53D8327C4FE7B
:1047F400DC533E8555358327C4FE9C573E85E13600
:104804000100F240624405618280011122CE001051
:104814002326A4FE8327C4FE238007008327C4FE27
:1048240023A207008327C4FE23A407008327C4FE12
:1048340023A607008327C4FE23A807008327C4FEFA
:1048440023AA07008327C4FE23AC07008327C4FEE2
:1048540023AE07008327C4FE23A007028327C4FED8
:1048640023A207028327C4FE23A407020100724483
:1048740005618280011122CE00102326A4FEB7E731
:1048840000300327C4FE0D8B1377F70F0D8B945B59
:10489400F19A558F98DB01007244056182804111C1
:1048A40022C60008B7E70030DC5F8D8B93F7F70F63
:1048B4003E85324441018280797122D60018232E2C
:1048C400A4FC232604FE0327C4FD8D476300F702DE
:1048D4000327C4FD8D4763EEE7000327C4FD894722
:1048E4006308F7000327C4FD894721A0010011A034
:1048F40001008327C4FE3E8532544561828079716C
:1049040022D60018232EA4FC232604FE0327C4FD6C
:104914008D476300F7020327C4FD8D4763EEE7006C
:104924000327C4FD89476308F7000327C4FD8947AB
:1049340021A0010011A001008327C4FE3E8532544A
:1049440045618280797122D60018232EA4FC232687
:1049540004FE0327C4FD8D476300F7020327C4FD4B
:104964008D4763EEE7000327C4FD89476308F7001A
:104974000327C4FD894721A0010011A0010083275A
:10498400C4FE3E85325445618280411122C600082E
:10499400B7470F00938707243E8532444101828044
:1049A400411122C60008B727F400938707403E85CB
:1049B400324441018280411122C60008A1679387D5
:1049C40007D03E85324441018280797122D6001895
:1049D400B7E70030BC4BB5839D8B93F7F70F850782
:1049E4002326F4FEB7E70030BC4BC18393F7F703EB
:1049F40093F7F70F85072324F4FEB7E70030BC4F85
:104A04003E878567FD17F98FC207C1832322F4FE11
:104A1400B7E70030BC4B9D8393F7F70393F7F70F89
:104A24002320F4FEB727F40093870740232EF4FCD9
:104A34000327C4FD832744FE3307F702832604FEBD
:104A44008327C4FEB386F602832784FEB387F60267
:104A5400B357F7023E85325445618280011106CE78
:104A640022CC00102D3D2326A4FE0325C4FEA93527
:104A7400AA873E85F240624405618280797106D638
:104A840022D40018232EA4FC37E700308327C4FD6A
:104A9400F1078A07BA979C43C1838D8B93F7F70F6D
:104AA4002324F4FE37E700308327C4FDF1078A0787
:104AB400BA979C43D183858B93F7F70F9DC337E750
:104AC40000308327C4FDF1078A07BA979C43E1832A
:104AD40093F7F70393F7F70F850786072326F4FE6A
:104AE40021A085472326F4FE032584FE093D2A8759
:104AF4008327C4FEB357F7023E85B2502254456162
:104B04008280797106D622D40018232EA4FC37E7BC
:104B140000308327C4FD938747028A07BA97DC4392
:104B2400C1838D8B93F7F70F2324F4FE37E700300E
:104B34008327C4FD938747028A07BA97DC43D1834E
:104B4400858B93F7F70F85C737E700308327C4FDBC
:104B5400938747028A07BA97DC43E18393F7F70305
:104B640093F7F70F850786072326F4FE21A08547D0
:104B74002326F4FE032584FE59332A878327C4FEA3
:104B8400B357F7023E85B250225445618280011129
:104B940006CE22CC0010B7E7003083A7070BC183F1
:104BA4008D8B93F7F70F2324F4FEB7E7003083A728
:104BB400070BD183858B93F7F70F99CFB7E70030B5
:104BC40083A7070BE18393F7F70393F7F70F8507A1
:104BD40086072326F4FE21A085472326F4FE032519
:104BE40084FE313B2A878327C4FEB357F7023E85F0
:104BF400F240624405618280011106CE22CC00108D
:104C0400B7E7003083A7870BC1838D8B93F7F70F2A
:104C14002324F4FEB7E7003083A7870BD183858B69
:104C240093F7F70F99CFB7E7003083A7870BE1839A
:104C340093F7F70393F7F70F850786072326F4FE08
:104C440021A085472326F4FE032584FEE5392A871F
:104C54008327C4FEB357F7023E85F24062440561E0
:104C64008280011106CE22CC0010B7E7003083A762
:104C7400C70B91838D8B93F7F70F2324F4FEB7E7CB
:104C8400003083A7C70BB183858B93F7F70F81CFD0
:104C9400B7E7003083D7E70BC207C18385078607D0
:104CA4002326F4FE21A085472326F4FE032584FE53
:104CB40051392A878327C4FEB357F7023E85F24051
:104CC400624405618280797122D60018232EA4FCE7
:104CD4008967938707712324F4FE232604FEB7E72C
:104CE4000030B84BB7E70030619BB8CBB7E7003072
:104CF400B84BB707C0FF9387F707B376F70083274E
:104D0400C4FDDC43139777008327C4FD9C4BB6078F
:104D14005D8F8327C4FDDC4BC2075D8FB7E700308E
:104D2400558FB8CBB7E70030B84FFD77B376F700AF
:104D34008327C4FD9847B7E70030558FB8CF0100EB
:104D4400832784FEF5FF832784FE81E78547232696
:104D5400F4FE8327C4FE3E853254456182800111EE
:104D640022CE00102326A4FE8327C4FE414798C701
:104D74008327C4FE0547D8C38327C4FE054798CBC1
:104D84008327C4FE0547D8CB8327C4FE054798CFA5
:104D94008327C4FE0547D8CF010072440561828091
:104DA400411122C60008B7E7003037171134130742
:104DB4001710B8CB0100324441018280797106D6C4
:104DC40022D40018232EA4FC896793870771232417
:104DD400F4FE232604FE0325C4FD693C0100832759
:104DE40084FEF5FF832784FE81E785472326F4FEAE
:104DF4008327C4FE3E85B25022544561828001114E
:104E040022CE00102326A4FE2324B4FEB7E60030ED
:104E1400832784FE858B13F7F70F8327C4FE9387BC
:104E240047028A07B697058B2207D44393F6F6EF19
:104E3400558FD8C30100724405618280011122CECE
:104E440000102326A4FE2324B4FE832784FEBD8BF6
:104E540013F7F70F8327C4FE3D8B83D60700C19A4F
:104E6400558F2390E700010072440561828001118F
:104E740022CE00102326A4FE2324B4FE832784FE1E
:104E8400858B13F7F70F8327C4FE058B0A0783D698
:104E94004700ED9A558F2392E700010072440561A3
:104EA4008280011122CE00102326A4FE2324B4FE06
:104EB400832784FE8D8B13F7F70F8327C4FE0D8B96
:104EC400120783D6070093F6F6FC558F2390E7006C
:104ED4000100724405618280011122CE0010232654
:104EE400A4FE2324B4FE2322C4FE832784FE13F7E6
:104EF400F70F8327C4FEA380E7008327C4FE03279C
:104F040044FE98CB0100724405618280797106D613
:104F140022D40018232EA4FC0327C4FDB7070520C0
:104F24006315F700232604FE11A80327C4FDB70761
:104F340006206315F70085472326F4FE81450325E3
:104F4400C4FE753D85450325C4FE553D0100B250A0
:104F5400225445618280011106CE22CC0010232602
:104F6400A4FE2324B4FE832784FED847832784FE2B
:104F74009C4B3E86BA850325C4FEB93F832784FE35
:104F84009C47BE850325C4FE553D832784FEDC4330
:104F9400BE850325C4FE3137832784FE9C43BE852A
:104FA4000325C4FEE9350100F240624405618280B4
:104FB400011122CE00102326A4FE8327C4FE23A6BB
:104FC40007008327C4FE094798CB8327C4FE1D47E7
:104FD40098C78327C4FE23A207008327C4FE23A007
:104FE40007000100724405618280011122CE001085
:104FF4002326A4FE2324B4FEB7E700309847832772
:10500400C4FE93C7F7FFB376F700832784FE81C7F6
:105014008327C4FE11A0814737E70030D58F1CC712
:105024000100724405618280011122CE0010232602
:10503400A4FE2324B4FEB7E70030984F8327C4FEB0
:1050440093C7F7FFB376F700832784FE81C78327CE
:10505400C4FE11A0814737E70030D58F1CCF010073
:10506400724405618280011122CE00102326A4FE21
:10507400B74700309C4393F6E7FFB7470030032758
:10508400C4FE558F98C301007244056182800111EA
:1050940022CE00102326A4FEB74700309C4393F68B
:1050A400D7FF8327C4FE13971700B7470030558FE7
:1050B40098C30100724405618280011122CE001060
:1050C4002326A4FEB74700309C4393F677FF83273B
:1050D400C4FE13973700B7470030558F98C30100BB
:1050E400724405618280011122CE00102326A4FEA1
:1050F400B74700309C4393F6F7EF8327C4FE13971A
:105104008700B7470030558F98C30100724405618A
:105114008280011122CE00102326A4FEB74700305E
:105124009843FD779387F77FB376F7008327C4FE10
:105134001397B700B7470030558F98C301007244E6
:1051440005618280011122CE00102326A4FEB747F8
:1051540000309843B707F1FFFD17B376F7008327B4
:10516400C4FE13970701B7470030558F98C3010059
:10517400724405618280011122CE00102326A4FE10
:10518400B74700309843B707F0FFFD17B376F70031
:105194008327C4FE13974701B7470030558F98C340
:1051A4000100724405618280011122CE0010232681
:1051B400A4FEB74700309843B7070040FD17B37605
:1051C400F7008327C4FE1397E701B7470030558FD4
:1051D40098C30100724405618280411122C600080F
:1051E400B7470030DC433E8532444101828041119F
:1051F40022C60008B747003083A707083E8532441B
:1052040041018280411106C622C400080545E13DE2
:1052140081454145113D8545414539350145E135D6
:105224000100B240224441018280011106CE22CC09
:1052340000102326A4FE8327C4FE9C433E85813DA3
:105244008327C4FEDC433E858D3D8327C4FE9C47F3
:105254003E85C1358327C4FEDC473E85E53583277B
:10526400C4FE9C4B3E85013F8327C4FEDC4B3E8538
:10527400253F01458D3D0100F24062440561828075
:10528400011122CE00102326A4FE8327C4FE23A0EE
:1052940007008327C4FE23A207008327C4FE23A498
:1052A40007008327C4FE23A607008327C4FE23A880
:1052B40007008327C4FE23AA07008327C4FE13071D
:1052C400002098CF8327C4FE23AE07008327C4FEA3
:1052D400794798D301007244056182805D7186C666
:1052E400A2C4A6C28008232EA4FA232CB4FA193F20
:1052F40085454145DD39854541453D330545E53322
:105304009307C4FC3E85AD3F930700202322F4FE9F
:10531400930700022326F4FE232404FE9147232C42
:10532400F4FC232804FC9307C4FC3E85FD3D05459D
:105334001D3B01005D352A87832784FBE39CE7FE40
:105344000145153311A88324C4FB93874400232EFD
:10535400F4FA713DAA879CC0832784FB1387F7FF67
:10536400232CE4FAEDF30545BD3B0100B640264489
:10537400964461618280011122CE00102326A4FE8E
:105384002324B4FEB7E60030832784FE858B13F70D
:10539400F70F8327C4FEF1078A07B697058B220708
:1053A400944393F6F6EF558F98C301007244056158
:1053B4008280011122CE00102326A4FE2324B4FEF1
:1053C400832784FE8D8B13F7F70F8327C4FE0D8B81
:1053D400160783C6C70293F6F6F9558F2386E702AC
:1053E4000100724405618280011122CE001023263F
:1053F400A4FE2324B4FE832784FE858B13F7F70FC2
:105404008327C4FE058B0E0783C6C702DD9A558F1A
:105414002386E7020100724405618280011122CED5
:1054240000102326A4FE2324B4FE8327C4FEDC57E5
:1054340013F797F7832784FE5D8F8327C4FED8D79D
:105444000100724405618280011122CE00102326DE
:10545400A4FE2324B4FE2322C4FE8327C4FE032710
:1054640084FED8D38327C4FE032744FE98D70100C3
:10547400724405618280011122CE00102326A4FE0D
:105484002324B4FE832784FE858B13F7F70F832729
:10549400C4FE058B120783C6C702BD9A558F2386A7
:1054A400E7020100724405618280011122CE0010DE
:1054B4002326A4FE2324B4FE832784FE858B13F7BE
:1054C400F70F8327C4FE058B260783D6070393F6BD
:1054D400F6DF558F2398E70201007244056182804C
:1054E400011122CE00102326A4FE2324B4FE832718
:1054F40084FE858B13F7F70F8327C4FE058B2207E1
:1055040083D6070393F6F6EF558F2398E70201003D
:10551400724405618280797106D622D426D200189D
:10552400232EA4FC232CB4FC0327C4FDB76700304E
:105534006315F700232604FE05A80327C4FDB777E7
:1055440000306316F70085472326F4FE31A80327AD
:10555400C4FDB78700306316F70089472326F4FE9D
:1055640021A08D472326F4FE0325C4FEEFF00FD1BE
:105574002324A4FE832784FD9207032784FEB357C4
:10558400F7022322F4FE032584FEEF00506EAA8462
:10559400032584FDEF00B06D2A87B767004083A51B
:1055A40007693A85EF005001AA87BE852685052341
:1055B400AA87BE84032544FEEF00706BAA87BE85CC
:1055C4002685EF00F02CAA873E87B767004083A5A5
:1055D40047693A85EF00407EAA873E87B767004057
:1055E40083A587693A854122AA873E85EF00106327
:1055F400AA872320F4FE032604FE832544FE032504
:10560400C4FD99350100B250225492544561828000
:10561400797106D622D40018232EA4FC0327C4FDD6
:10562400B76700306315F700232604FE05A8032797
:10563400C4FDB77700306316F70085472326F4FED0
:1056440031A80327C4FDB78700306316F7008947E4
:105654002326F4FE21A08D472326F4FE814503254D
:10566400C4FE113B85450325C4FE31330100B2500D
:10567400225445618280011106CE22CC00102326DB
:10568400A4FE2324B4FE832784FEDC47BE850325C1
:10569400C4FE5135832784FE9C47BE850325C4FE82
:1056A400093B832784FE9C43BE850325C4FE2D3B12
:1056B400832784FEDC43BE850325C4FE853383270C
:1056C40084FE9C4BBE850325C4FE7533832784FE6C
:1056D4009C4FBE850325C4FE2135832784FEDC4B05
:1056E400BE850325C4FED1330100F2406244056146
:1056F4008280011122CE00102326A4FE8327C4FE3B
:10570400096713070758D8C78327C4FE0D4798C7EE
:105714008327C4FE23A807008327C4FE23A207000F
:105724008327C4FE23A007008327C4FE23AA0700FF
:105734008327C4FE23AC0700010072440561828004
:105744002A8309CA83830500230073007D16050399
:1057540085056DFA82802A8311C62300B3007D1665
:10576400050365FE82803707800041117D1793563B
:10577400750113D67501B377A70026C26D8F4AC091
:105784001376F60F13F9F60F06C622C49354F501E7
:10579400FD818E070E07B306C9406381B404635FBD
:1057A400D00031EE630107121386F6FF630E062A5A
:1057B4009305F00F638BB616B28689A8F1C2B306BF
:1057C4002641631C091CF5CF1385F6FF6309052CDC
:1057D4001308F00F63890615AA86F9A22688635870
:1057E400D01469C61306F00F6301C9143706000408
:1057F400518F6D466359D61E8507CA8689A0130644
:10580400F00F6304C91237060004518FED450546B5
:1058140063CDD50013060002158E3316C700B356A8
:10582400D7003337C00033E6E600918F3707000412
:10583400B3F6E700CDEA13F77700CA8649C713F732
:10584400F70011466303C7009107370700047D8FF3
:105854003DCB138516001307F00F26886301E50876
:10586400139767001375F50F2583B24022445E0534
:10587400598D9317F801924402495D8D410182804C
:10588400130619001376E60F63140614631A090845
:105894006383072075CB3385E74037060004698EA0
:1058A40063030622B307F740AE84BDA009CF138675
:1058B400F6FF6303061A9305F00F6388B606B286F3
:1058C4000DBFAE84BA871307F00F8D836390E60C87
:1058D400C1CF01481305F00F3707400079B713050E
:1058E400F00F014759B77D1733F4E7002285EF0025
:1058F400D0436D153314A40063412507B306254135
:10590400850693070002958FB317F400B337F000B0
:105914003354D400C18F814613F777000DF335B7A4
:10592400639907145DD7AE84BA878D8355B7B1C226
:10593400B30626416319090ED1D79385F6FF638D0B
:1059440005101305F00FE381A6FEAE86ED4563D680
:10595400D51293071700B286DDB5B70700FCFD1713
:10596400B306A940E18F4DBF26881305F00F014708
:10597400EDBD9306190013F6E60F55EE6319090EF3
:1059840063840712631407128D838146A60713D715
:10599400970013F5F60F2688C9BD1305F00FE3042D
:1059A400A6F837050004C98F6D480545634DD80036
:1059B40013050002158D3395A700B3D6D700B3376E
:1059C400A00033E5F600B307A7403289AE84B9BD21
:1059D4003384E740B7060004E18EBDEA01F80148CC
:1059E4000145014759B513060002158E3316C70049
:1059F4003357D700B336C000558FBA973707000422
:105A04007D8FE30A07E2930619001305F00F01479F
:105A1400E38DA6E43706007E13D717007D16858B29
:105A2400718FD98FD5BD9305F00FE30FB6EEB7058F
:105A34000004CD8F21BF1306F00FE382C6EA3E9720
:105A44009357170013F67700E31B06DE8D833DBFE3
:105A54003304F740AE8459BDBA97370700047D8FED
:105A64008946054945FBC1BB998F0549C1B3E38DFF
:105A740007EAE31007E68D83A1BD93050002958D27
:105A8400B395B700B3D6D700B337B000DD8EB38774
:105A9400E6003289A5B721D7AE84BA87F5B5B30736
:105AA400F740AE84054959B3BA87F9BDBA973706AA
:105AB40000047D8E814659DA370700FC7D17F98F83
:105AC40085468D83E1B5AA8719D98D83C1B57971CE
:105AD400935775014AD04ECE06D69319950022D419
:105AE40026D252CC56CA5AC893F7F70F93D99900C5
:105AF4001359F501F1CF1307F00F6381E70E8E09F7
