:020000044000BA
:1000000073100030B73100409381C195B7020040B2
:100010009382021473905230731040307310403446
:10002000732510301375850263080500372500001D
:100030007320053073103000732540F163140504FC
:100040003701044013010100130201007310013451
:10005000B70200409382E20AE7800200B702004044
:100060009382C209E7800200130500009305000097
:10007000B71200409382225FB7000040938040098E
:100080006780020073F00730731040307300501027
:100090006FF0DFFF130000006FF0DFFE67800000ED
:1000A000411122C600080100324441018280411101
:1000B00006C622C40008138781E99387C1E0B3070D
:1000C000F7403E8681451385C1E0EF10E059138764
:1000D000C1E093874188B307F7403E869385418806
:1000E00013854188EF10E056138741889387018874
:1000F000B307F7403E869385018813850188EF108A
:0C01000040550100B240224441018280C1
:10014000232E51FE93020100130101F8137101FFE8
:10015000232211002324510083A2C2FF2326310051
:1001600023284100232A5100232C6100232E7100F3
:1001700023208102232291022324A1022326B102FB
:100180002328C102232AD102232CE102232EF102CB
:1001900023200105232211052324210523263105CF
:1001A00023284105232A5105232C6105232E71059F
:1001B00023208107232291072324A1072326B107A7
:1001C0002328C107232AD107232CE107232EF10777
:1001D0007322003473231034232061007324003011
:1001E00073252034F325103413060100B731004085
:1001F0009381C195B702004093820255E7800200C7
:100200007310043003230100731013348321C100E1
:100210000322010183224101032381018323C101C0
:100220000324010283244102032581028325C102A4
:100230000326010383264103032781038327C10388
:100240000328010483284104032981048329C1046C
:10025000032A0105832A4105032B8105832BC10550
:10026000032C0106832C4106032D8106832DC10634
:10027000032E0107832E4107032F8107832FC10718
:100280008320410003218100730020300000000022
:10029000000000000000000000000000000000005E
:1002A000000000000000000000000000000000004E
:1002B000000000000000000000000000000000003E
:0402C000000000003A
:1002C400011122CE0010AA872324B4FE2322C4FEE7
:1002D400A307F4FE8347F4FE89EFB7270040138792
:1002E400071E832784FE8A07BA97032744FE98C310
:1002F40011A813874190832784FE8A07BA9703279E
:1003040044FE98C30100724405618280011122CE2B
:1003140000102326A4FEAE87A305F4FEB706000C46
:100324000347B4FE8327C4FE8A07B69798C3010027
:10033400724405618280797122D60018AA87232C21
:10034400B4FCA30FF4FC8347F4FD9DEB3707000CCA
:100354008967BA979C432326F4FE832784FD0547C7
:10036400B317F7003E878327C4FED98F2326F4FEF4
:100374003707000C8967BA970327C4FE98C325A8DA
:100384003707000C8967BA9783A707082326F4FE6A
:10039400832784FD0547B317F7003E878327C4FEF0
:1003A400D98F2326F4FE3707000C8967BA970327F1
:1003B400C4FE23A0E70801003254456182807971AC
:1003C40022D60018AA87232CB4FCA30FF4FC83477D
:1003D400F4FD8DEF3707000C8967BA979C432326F9
:1003E400F4FE832784FD0547B317F70093C7F7FF8F
:1003F4003E878327C4FEF98F2326F4FE3707000CBB
:100404008967BA970327C4FE98C335A83707000C39
:100414008967BA9783A707082326F4FE832784FDF8
:100424000547B317F70093C7F7FF3E878327C4FE3A
:10043400F98F2326F4FE3707000C8967BA97032740
:10044400C4FE23A0E70801003254456182800111F3
:1004540022CE0010AA87A307F4FE8347F4FE81EBA3
:100464003707000CB7072000BA97DC4339A03707D9
:10047400000CB7172000BA97DC433E85724405612F
:100484008280011122CE0010AA872324B4FEA30780
:10049400F4FE8347F4FE91EB3707000CB707200006
:1004A400BA97032784FED8C309A83707000CB717E7
:1004B4002000BA97032784FED8C301007244056163
:1004C4008280011122CE0010AA872324B4FEA30740
:1004D400F4FE8347F4FE91EB3707000CB7072000C6
:1004E400BA97032784FE98C309A83707000CB717E7
:1004F4002000BA97032784FE98C301007244056163
:100504008280011106CE22CC0010014589372326B2
:10051400A4FEB72700401387071E8327C4FE8A075B
:10052400BA979C4399CFB72700401387071E8327A8
:10053400C4FE8A07BA979C4382978325C4FE01456B
:1005440089370100F240624405618280011106CEC0
:1005540022CC0010F32720342326F4FE8327C4FE84
:100564002324F4FE832784FE63C40702832784FEC6
:10057400BD8B2D47636BF70013972700B727004007
:10058400938787F3BA979C43828701000100FDBFDC
:100594008D3F0100F240624405618280011106CE64
:1005A40022CC0010AA87A307F4FE8347F4FE3E85FD
:1005B400EF00F0330100F2406244056182800111D2
:1005C40022CE00102326A4FEAE87A305F4FE8327C3
:1005D400C4FE0347B4FE2380E70085473E8572448A
:1005E40005618280797122D60018232EA4FC232C65
:1005F400B4FC232604FE35A0032784FD93071700CB
:10060400232CF4FC8327C4FD93861700232ED4FCEB
:10061400034707002380E7008327C4FE85072326BA
:10062400F4FE832784FD83C70700F9F78327C4FEFC
:100634003E85325445618280797106D622D40018F1
:10064400232EA4FCAE87232AC4FC2328D4FCA30DA8
:10065400F4FC232604FE832744FDFD17232AF4FC1F
:10066400032704FDA54763FFE704032704FDA94707
:100674003357F7028347B4FDBA86032644FDBE858B
:100684000325C4FD553F2326A4FE8327C4FE032768
:10069400C4FDBA97232EF4FC15A88347B4FDBE8588
:1006A4000325C4FD293F8327C4FD8507232EF4FCBD
:1006B4008327C4FE85072326F4FE832744FDFD1704
:1006C400232AF4FC832744FDE349F0FC032704FDBB
:1006D400A947B377F70293F7F70F9387070393F7C5
:1006E400F70FBE850325C4FDD93D2A878327C4FEA1
:1006F400BA972326F4FE8327C4FE3E85B2502254C3
:1007040045618280797106D622D40018232EA4FC78
:10071400AE87232AC4FC2328D4FCA30DF4FC23268F
:1007240004FE832704FD63D90700832704FDB30770
:10073400F0402324F4FE29A0832704FD2324F4FE9F
:10074400832744FDFD17232AF4FC032784FEA547D1
:1007540063F3E706832704FD63D60702032784FEB9
:10076400A947B357F702B307F0403E878347B4FD68
:10077400BA86032644FDBE850325C4FD61372326BE
:10078400A4FE15A0032784FEA947B357F7023E87AA
:100794008347B4FDBA86032644FDBE850325C4FD04
:1007A40095372326A4FE8327C4FE0327C4FDBA97E6
:1007B400232EF4FC85A8832704FD63DD0702832729
:1007C40044FDFD17232AF4FC35A08347B4FDBE8500
:1007D4000325C4FDED338327C4FD8507232EF4FCD4
:1007E4008327C4FE85072326F4FE832744FDFD17D3
:1007F400232AF4FC832744FDE349F0FC832704FD0A
:1008040063D207029305D0020325C4FD4D3B2A871A
:100814008327C4FEBA972326F4FE8327C4FD8507E5
:10082400232EF4FC032784FEA947B377F70293F73A
:10083400F70F9387070393F7F70FBE850325C4FDCE
:10084400BD3B2A878327C4FEBA972326F4FE832759
:10085400C4FE3E85B250225445618280797106D629
:1008640022D40018232EA4FCAE87232AC4FC2328F8
:10087400E4FCA30DF4FCB687230DF4FC232604FE4C
:10088400832744FDFD17232AF4FC832704FD918369
:10089400B5C3832704FD13D747008346A4FD8347CC
:1008A400B4FD032644FDBE850325C4FD453F2A87C8
:1008B4008327C4FEBA972326F4FE8327C4FE0327A6
:1008C400C4FDBA97232EF4FC15A88347B4FDBE8556
:1008D4000325C4FDED318327C4FD8507232EF4FCD5
:1008E4008327C4FE85072326F4FE832744FDFD17D2
:1008F400232AF4FC832744FDE349F0FC832704FD09
:1009040013F7F700A54763E2E702832704FD93F793
:10091400F70FBD8B93F7F70F9387070393F7F70F41
:10092400BE850325C4FD613999A08347A4FD8DC309
:10093400832704FD93F7F70FBD8B93F7F70F938786
:10094400770393F7F70FBE850325C4FD8D3905A002
:10095400832704FD93F7F70FBD8B93F7F70F938766
:10096400770593F7F70FBE850325C4FD89398327DF
:10097400C4FE85072326F4FE8327C4FE3E85B250B9
:10098400225445618280797106D622D40018232E20
:10099400A4FC232CB4FC232AC4FC2328D4FC232445
:1009A40004FE232204FE8327C4FD638107268327D4
:1009B400C4FD2380070099AC832744FD03C70700C7
:1009C400930750026308F702032744FD93071700B7
:1009D400232AF4FC8327C4FD93861700232ED4FC1A
:1009E400034707002380E700832744FE850723226B
:1009F400F4FE29AC832744FD850703C7070093074A
:100A040050026317F7028327C4FD13871700232EB0
:100A1400E4FC130750022380E700832744FD890781
:100A2400232AF4FC832744FE85072322F4FEF9AA33
:100A340093070002A307F4FE230704FE832744FD63
:100A44008507232AF4FC832744FD03C70700930783
:100A540000036315F70493070003A307F4FE832739
:100A640044FD8507232AF4FC15A88347E4FE3E874A
:100A7400BA878A07BA97860713F7F70F832744FDC7
:100A840083C70700BA9793F7F70F938707FD2307E8
:100A9400F4FE832744FD8507232AF4FC832744FDC1
:100AA40003C707009307F00263FAE700832744FDB6
:100AB40003C7070093079003E3F9E7FA0347E4FE4B
:100AC400832744FEBA973E87832784FD63FEE700AD
:100AD400832784FD13F7F70F832744FE93F7F70F5B
:100AE400B307F7402307F4FE832744FD83C70700B9
:100AF400938787FA130700026365F70E139727009D
:100B0400B7270040938787F6BA979C4382870346AA
:100B1400E4FE832704FD138747002328E4FC98435D
:100B24008347F4FEBA86BE850325C4FDE13E232433
:100B3400A4FE55A80346E4FE832704FD138747005B
:100B44002328E4FC98438347F4FEBA86BE85032534
:100B5400C4FDDD342324A4FE79A00346E4FE8327E8
:100B640004FD138747002328E4FC98438347F4FEDD
:100B74008146BE850325C4FDD5312324A4FEA5A04A
:100B84000346E4FE832704FD138747002328E4FC7F
:100B940098438347F4FE8546BE850325C4FD7D390D
:100BA4002324A4FE89A0832704FD13874700232858
:100BB400E4FC9C43BE850325C4FD2D342324A4FEFC
:100BC4001DA0832704FD138747002328E4FC9C43CE
:100BD40093F7F70FBE850325C4FDD5322324A4FE65
:100BE40019A0FD5795A8832744FD8507232AF4FC03
:100BF400832784FE0327C4FDBA97232EF4FC03271E
:100C040044FE832784FEBA972322F4FE832744FDFF
:100C140083C7070099C7832744FE032784FDE3EDB8
:100C2400E7D8832744FE032784FD63F7E70083277F
:100C3400C4FD2380070039A88327C4FDFD17232E94
:100C4400F4FC8327C4FD23800700832744FEFD179B
:100C54002322F4FE832744FE3E85B250225445618C
:100C640082805D7106D622D40018232EA4FC232C86
:100C7400B4FC232AC4FC54C418C85CC8232C040143
:100C8400232E1401930704022328F4FC832704FD74
:100C9400B1172324F4FE832784FEBE86032644FD75
:100CA400832584FD0325C4FDF9392326A4FE832767
:100CB400C4FE3E85B250225461618280011106CE89
:100CC40022CC00102326A4FE2324B4FE2322C4FE37
:100CD400832644FE032684FE9305E0150325C4FE03
:100CE4005D31AA873E85F24062440561828061716C
:100CF4002326111A2324811A001B232EA4E4232C57
:100D0400B4E4232AC4E4B72700409387C7FE03A3AF
:100D1400070083A8470003A88700C8478C4BD04B23
:100D2400944FD84F9C53232664E6232814E7232AA0
:100D340004E7232CA4E6232EB4E62320C4E82322CC
:100D4400D4E82324E4E82326F4E8930704E90326FB
:100D540044E5832584E53E8595372A879307D01596
:100D640063DCE70083A70188D8479307C4E6BA8504
:100D74003E85F1220100FDBF930704E98325C4E504
:100D84003E85752AAA873E858320C11A0324811AC9
:100D94005D618280011106CE22CC00102326A4FEC0
:100DA4002324B4FE83A701889C47032684FE83255D
:100DB400C4FE3E852D3FAA873E85F240624405610C
:100DC40082805D7106D622D40018232EA4FC232C25
:100DD400B4FC10C454C418C85CC8232C0401232ECA
:100DE400140193070402232AF4FC832744FDA1176A
:100DF4002324F4FE832784FE3E86832584FD032575
:100E0400C4FDF5352326A4FE8327C4FE3E85B250D7
:100E14002254616182805D7106D622D40018232E8B
:100E2400A4FC4CC010C454C418C85CC8232C0401CE
:100E3400232E140193070402232CF4FC832784FD3E
:100E440091172324F4FE832784FEBE850325C4FD65
:100E540091372326A4FE8327C4FE3E85B250225434
:100E6400616182805D7106D622D40018232EA4FC11
:100E7400232CB4FC10C454C418C85CC8232C04012B
:100E8400232E140193070402232AF4FC832744FD30
:100E9400A1172324F4FE832784FE3E86832584FD44
:100EA4000325C4FD213D2326A4FE8327C4FE3E85DD
:100EB400B250225461618280797106D622D400181E
:100EC400232EA4FC83A701889C47BE850325C4FD6B
:100ED400BD202326A4FE83A701889C47BE852945FF
:100EE40009288327C4FE85073E85B25022544561F4
:100EF4008280011106CE22CC00102326A4FE2324D6
:100F0400B4FE83A701889C47032784FE6309F70086
:100F140083A70188DC47032784FE631CF70083272B
:100F2400C4FE93F7F70F3E85EFF04FE78327C4FE27
:100F340011A0FD573E85F2406244056182807971BB
:100F440006D622D40018232EA4FC232CB4FC23267A
:100F540004FE0DA88327C4FD83C70700832584FDF1
:100F64003E85413F2A87FD576314F700FD5715A0BE
:100F74008327C4FE85072326F4FE8327C4FD850743
:100F8400232EF4FC8327C4FD83C70700E1F78327DE
:100F9400C4FE3E85B250225445618280011122CEA6
:100FA400001003A7C1E0B7271C00B357F70223269C
:100FB400F4FE83A7C1E053F717D0B727004087A7F3
:100FC40007015377F7188327C4FED3F717D0537755
:100FD400F708B727004087A747015377F710B727CB
:100FE400004087A78701D377F700D39717C023243E
:100FF400F4FEB7E7003003D7070013670710239008
:10100400E700B7E7003003D70701136707102398F9
:10101400E700B7E7003098471367070498C7B7E7B6
:101024000030984F1367070498CFB7070028D85F9C
:10103400719B13671700D8DFB7070028D85F4D9B53
:1010440013674700D8DFB70700280D47D8DBB7E799
:101054000030B45B3707FDFF7D17F98E4167558F6C
:10106400B8DBB7E70030B45B3707F0FF7D17758F47
:10107400B8DBB7E70030B85B13670710B8DBB7E736
:101084000030B85B13671700B8DBB767003003277D
:10109400C4FED8D3B7670030032784FE98D7B76758
:1010A400003013070007D8D7B767003023AA070218
:1010B400B76700301307103098DB010072440561F4
:1010C4008280411122C600080100B76700309C4F9E
:1010D4009183858B93F7F70FEDFBB767003083C7D8
:1010E400070093F7F70F3E853244410182800111D6
:1010F40022CE00102326A4FE0100B76700309C4FC7
:101104008D83858B93F7F70FEDFBB76700300327CB
:10111400C4FE98C381473E8572440561828039715B
:1011240022DE800085472324F4FEB7E70030DC5F2D
:101134008D8B93F7F70F2322F4FEB727F4009387E0
:1011440007402320F4FEB7E70030BC4F3E87856795
:10115400FD17F98FC207C183232EF4FCB7E70030D3
:10116400BC4B9D8393F7F70393F7F70F232CF4FC01
:10117400B7E70030BC4BB5839D8B93F7F70F232A59
:10118400F4FCB7E70030BC4BC18393F7F70393F744
:10119400F70F2328F4FCB7E70030BC4BD9839D8BB1
:1011A40093F7F70F2326F4FCB7E70030BC4BE58335
:1011B40093F7F70393F7F70F2324F4FEB7E7003010
:1011C400BC4B9183858B93F7F70F99CBB7E700302E
:1011D400F84BB7070001FD17F98F2326F4FE19A079
:1011E400232604FE8327C4FE13D787018327C4FD67
:1011F4003E97832704FE3307F702832744FD938633
:101204001700832784FDB386F602832704FD850730
:10121400B387F6023357F70223A8E1E08327C4FE1D
:1012240013D787018327C4FD3E97832704FE330722
:10123400F7028327C4FC93861700832784FDB386B3
:10124400F602832784FE8507B387F6023357F70235
:1012540023AAE1E0032744FE8D47630DF704032727
:1012640044FE8D4763ECE704032744FE8947630E7D
:10127400F702032744FE894763E2E704832744FE19
:1012840099C7032744FE8547630AF70005A8374733
:101294000F001307072423A6E1E00DA03727F4006D
:1012A4001307074023A6E1E011A803A701E123A641
:1012B400E1E029A0216723A6E1E0010001007254C6
:1012C40021618280011122CE0010232604FEB7E79B
:1012D400003003D70700136707402390E700B7E700
:1012E400003003D70701136707402398E700B727A7
:1012F4000028D45F3167558FD8DFB727002803D77C
:10130400470313670708239AE702B7E700304567E6
:101314001307171223AEE70AB7E700303767C10F88
:1013240013077710B8CBB7E7003023AA0704B7E751
:10133400003013072003B8CFB7E70030B84B13775A
:10134400F7F913670702B8CB9307803E2326F4FE10
:1013540031A08327C4FEFD172326F4FE8327C4FE91
:10136400EDFB0100B7E70030BC53858B13F7F70F93
:101374008547E319F7FEB7E70030B84B659B136761
:101384004700B8CB89472324F4FEB7D70030F4478D
:101394003707F1FF7D17F98E37070300558FF8C71C
:1013A400B7D70030F84713672700F8C7B7E700300E
:1013B400032784FE98DB232604FE31A08327C4FE82
:1013C40085072326F4FEB7E70030DC5F8D8B13F727
:1013D400F70FB7E700309C5B8D8B93F7F70F63082B
:1013E400F7000327C4FE93073006E3F9E7FC010086
:1013F400724405618280011106CE22CC0010814521
:101404000145EFF00F8C8567938707802326F4FE50
:101414008327C4FEF3A747302326F4FEA1472324E1
:10142400F4FE832784FEF3A707302324F4FE01008F
:10143400F240624405618280411106C622C400085C
:1014440051350100B240224441018280797106D6AF
:1014540022D40018232EA4FCA30704FE39A8834732
:10146400F4FE0327C4FDBA9783C707003E854131C4
:101474008347F4FE8507A307F4FE0347F4FE9307AE
:10148400700763EAE7008347F4FE0327C4FDBA97B5
:1014940083C70700E9F70100B250225445618280F6
:1014A400411122C60008B7E7003003D707001367CD
:1014B40007102390E700B7E7003003D7070113674D
:1014C40007102398E700B70700284167130707F0C0
:1014D400D8D7B70700284167130707F098C701005A
:1014E400324441018280011106CE22CC0010232611
:1014F400A4FEB7E7003098471367170098C7B7E70B
:101504000030984F1367170098CFB70700300327B0
:10151400C4FE7D17D8CFB707003003D70700137771
:10152400F7FC136707012390E700B707003009476A
:1015340098C7B71700401386476199450145EFE006
:101544003FD885451945EFE07FDC99450145EFE03B
:101554009FDE0100F240624405618280411106C6AB
:1015640022C40008353FC93D5D3E1D3F053C83A7AD
:10157400C1E03E85EF00F00D2A87AE87B726004014
:1015840003A6060983A646093A85BE85E5202A876F
:10159400AE873A85BE85EF00807EAA87BE85B727D1
:1015A400004013850702EFF01F87B7F7003083A5CB
:1015B4000711B7F7003003A64711B7F7003083A629
:1015C4008711B7F7003083A7C7113E87B7270040BC
:1015D4001385C703EFF03F84B72700401385C7077F
:1015E400EFF09F8D0100B2402244410182804111FD
:1015F40006C622C400089D3783A7C1E091833E85B7
:10160400DD35D53B1307001023AEE1E00100FDBF3B
:10161400411122C60008B707002803A7C1E198CBEF
:1016240083A7C1E11397170023AEE1E003A7C1E14B
:10163400A16763F6E7001307001023AEE1E0B707E4
:1016440000300D47D8CB01003244410182802A8307
:1016540009CA83830500230073007D1605038505ED
:101664006DFA82802A8311C62300B3007D16050318
:1016740065FE8280797122D44AD066C206D626D20B
:101684004ECE52CC56CA5AC85EC662C46AC02A84B8
:10169400B28C3689732A200093D745019394C500F0
:1016A40093F7F77FB18013DBF5016384071093068A
:1016B400F07F6380D7148E04135CD501336C9C00D7
:1016C40037078000336CEC00931B3500938A17C0F6
:1016D4008144014D8149935749011314C90093F77B
:1016E400F77FE68531801359F901D1CB9306F07F5A
:1016F4006389D7060E0413D7DC01418F938717C083
:1017040037048000598C93953C00B38AFA40014514
:10171400BD4733462B0163E997189716000093865B
:10172400A6978A04B69498403697028713761900D0
:10173400814701440147D207C18F7E06D18F3A8584
:10174400BE8563990914B250225492540259F24945
:10175400624AD24A424BB24B224C924C024D4561F2
:10176400828033679401938A1A8069CBB707080093
:1017740093E434000D45E37DF4F8C14951BFB367E8
:101784009401DDC7630F043822851D2FAA879306B1
:1017940055FF7547938587FF158F3314B40033D7EE
:1017A400EC00598CB395BC00D697938A373F01451A
:1017B40085B733ECA40063050C0A638704342685DB
:1017C40001272A87930755FF754C930B87FF330C2A
:1017D400FC40B3947401335C8401336C9C00B31BF0
:1017E40074019307D0C0B38AE7408144014D814915
:1017F400DDB533ECA40063190C04814BA144930AB6
:10180400F07F094D8149C1BD5A896284DE858547CF
:10181400E30EFDF063030D2489476309FD040146CB
:101824009307F07F37040800014731B72A8DC5B705
:1018340093E41400014481450545D9BD93E4240093
:10184400014481450945E9B5B7090800B3B9340134
:10185400268CAA8B9209B144930AF07F0D4DA5BD45
:10186400814B9144814A054D8149B5B513761900E0
:101874009307F07F014401477DBD01469307F07F44
:10188400370408000147C149D207C18F7E06D18FB2
:101894003A85BE8573A019007DB593E98900930745
:1018A400F07F01440147CDB76368843163048C3011
:1018B4005E87FD1A814B9317840013D507013354B7
:1018C400AC0293D68501DD8E1398060113580801E6
:1018D4009398850093570701337CAC02B3058802C3
:1018E400420CB3E7870163FBB700B6971303F4FF19
:1018F40063EED73463FCB7347914B6978D8FB3D5C0
:10190400A70242074183B3F7A702B30FB802C20785
:10191400D98F63FBF701B6971387F5FF63E6D732D8
:1019240063F4F733F915B6974204C1624D8C1383FF
:10193400F2FFB3756400935E040113DE080133F310
:101944006800338F6502B387F741B305BE021357AE
:101954000F01B38F6E02FE952E97B38ECE03637381
:10196400F701969EC16FFD1F935507013377F70169
:101974004207337FFF01F6957A9763EBB7206387BD
:10198400B7203387EB408D8FB3BBEB00B387774130
:101994003289638EF62EB3D5A702935E0701B3F79F
:1019A400A702330FB802C207B3E7FE0063FBE701E7
:1019B400B697938EF5FF63EDD73063FBE731F915E6
:1019C400B697B387E741B3DEA70242074183B3F773
:1019D400A7023308D803C2075D8F637B07013697DC
:1019E4009387FEFF6364D72E6372072FF91E369721
:1019F400C205B3E5D5011395050113DF0501418146
:101A0400B30EA302330707413305AE0293D70E0189
:101A140033036F021A95AA97330EEE0363F467003B
:101A240041652A9E41687D1813D50701B3F7070164
:101A3400C207B3FE0E017295F697637CA71E369714
:101A44001383F5FF3A886369D72A6365A72863007F
:101A5400A7329A8593E5150019A013761900938788
:101A6400FA3F635CF00213F7750071EB370700016E
:101A7400618F19C7B70700FFFD177D8C93870A4054
:101A84001307E07F6343F70E1317D4018D812604F7
:101A94004D8F318093F7F77F79B963880712054535
:101AA400B306F54013078003634CD7027D476356A2
:101AB400D72C05551D8D930700023355A400638769
:101AC400F6009387EA43B317F400DD8D3337B00093
:101AD400498F93777700638507240545814615A2CE
:101AE4003367B40009CF894793E919004A8763082B
:101AF400FA008D4701476314FA003307254193E93F
:101B040029008147014449B3652E93075501F146E5
:101B140013070502E3DAF6CA6115331CA400814BEE
:101B2400C9B16685712E9306550171479307050265
:101B3400E351D7C6611581453394AC00B5B109476B
:101B440093E919006307EA1A0D47630CEA10E31FCF
:101B54000AF013F7F5009146E30AD7F0138745001E
:101B6400B335B7002E94BA8511B789476302FA0ECC
:101B74008D476301FA10630F0A0C370410009307B2
:101B8400E07F7D147D5793E95900FDB9E3FBEBDE5B
:101B9400B38E1B0133BF7E01B30FDF00FE97F68BBC
:101BA400930FF4FF63FCF60863EBB70C6387F50C43
:101BB4007E84C1BBE3EEBBCE1317FC0193D61B009E
:101BC400135C1C00558FFE0BFDB193F77500A288C2
:101BD400E9EB135584011345150005898546938760
:101BE400EA413398F50033380001B397F80033D74E
:101BF400D500B367F8005D8F93777700B3D6D8002C
:101C040099CB894793E919006309FA128D47630D4B
:101C1400FA1063070A12B7078000F58FF5C393E93A
:101C24001900854701440147E30005C693E92900EB
:101C3400A1B9E311A7E2E38407E211B5E39AF6F64A
:101C4400E3040FF67E8435BBBA85F9B91A847DB1F5
:101C5400E30509F29307F07F0144014793E9590032
:101C640025B1E31509E013878500B335B7002E9439
:101C7400BA85EDBBE31309F0F1BFE3FBEEF2C69EB8
:101C840033BF1E01369F7914F68BFA97DDB913071B
:101C940020C09387FA3FFD55E3D3EAEAA288E39094
:101CA40007E0894793E919006300FA0C8D4763053F
:101CB400FA0AE3100AF293F7F5001147E38BE7F011
:101CC40093B7C5FF93C717003E9421B7BE8E0DB3DB
:101CD400F685C5B9139318003338130136983A982A
:101CE400F9159A88E318A8D6E38B17D793E515005E
:101CF400BDB3E30D09D685BF9A85E307A8FE99BB5A
:101D0400139496000D83F6063180558FE30505A2E2
:101D140093F619008147E38006A293E92900ADB642
:101D24000D838147014401BCE31709EE9307870043
:101D340033B7E700BA963E87F9BDE30E09ECFDB769
:101D44009377F7009145E388B7EC9307470033B7DF
:101D5400E700BA963E87C1B5E31D09E693B785FF50
:101D640093C717003E94B5B5E30509E6C5BFE3E3A1
:101D7400F8F69A85E39C17F7DDB1A2888DB52A861B
:101D8400F32720003705100093D745011307F5FF0B
:101D940093F7F77F9308E03FB376B7003288FD816D
:101DA40063CBF80081E733E5C60059CD014505480A
:101DB4007320180082801307D0416357F702370756
:101DC40000801347F7FF3385E500B9CD1307E041E1
:101DD4004148E39FE7FC1397B600935756015D8F84
:101DE40061FB2E063DE28280130730431D8FFD48C0
:101DF400C98E63DFE802130500026308A700138895
:101E0400D7C0339806013368C800130530411D8DCF
:101E14003338000133D5A60099C13305A040E30B44
:101E240008F87320180079B741487320180059B78F
:101E34009387D7BE3318F600B396F6003355E60001
:101E440033380001558DC9BF82802E887320180055
:101E540095B7411122C406C62A841DC9952093074B
:101E6400E041898F294793F7F77F634DA7022D47F8
:101E7400098F55053357E4003314A400B24022857A
:101E8400320722443183D207D98FBE854101828033
:101E9400B2402285814722440147D207D98FBE85AB
:101EA4004101828055153317A4000144B2402285B4
:101EB400320722443183D207D98FBE854101828003
:101EC400C1676376F5029337051093C717008E0731
:101ED400130700021D8F3355F50097070000938701
:101EE400A71FAA9703C507003305A7408280B70739
:101EF40000016370F502C1473355F50097070000F0
:101F04009387871DAA9703C5070041473305A74058
:101F14008280E1473355F500970700009387C71B7C
:0E1F2400AA9703C5070021473305A740828016
:101F38008E0500408E0500408E0500408E0500404D
:101F48008E0500408E0500408E0500408E0500403D
:101F58008E0500408E0500408E0500408E0500402D
:101F6800840B0040E60B0040E60B0040E60B004007
:101F7800E60B0040E60B0040E60B0040E60B004095
:101F8800E60B0040E60B0040E60B0040C60B0040A5
:101F9800120B0040E60B0040E60B0040E60B004049
:101FA800E60B0040120B0040E60B0040E60B004039
:101FB800E60B0040E60B0040E60B0040E60B004055
:101FC800E60B0040E60B0040E60B0040AA0B004081
:101FD800E60B0040380B0040E60B0040E60B0040E3
:101FE8005E0B0040737464696F2E633A20696E63F8
:101FF8007265617365204D41585F535452494E478D
:102008005F53495A450A0D000000E149000080422B
:102018000000003F000000004B3139323156473094
:10202800313520535953434C4B203D202564204DD6
:10203800487A0A0020205549445B305D203D203015
:1020480078255820205549445B315D203D20307863
:10205800255820205549445B325D203D20307825A5
:102068005820205549445B335D203D203078255861
:102078000A000000202053746172742052756E4C5F
:1020880065647300000000000000000080842E4199
:1020980014F8FFFF06F8FFFF9CF6FFFF98F7FFFF15
:1020A8009CF6FFFFE6F7FFFF9CF6FFFF98F7FFFFA0
:1020B800DCF7FFFFDCF7FFFFE6F7FFFF98F7FFFF0E
:1020C80074F7FFFF74F7FFFF74F7FFFF8AF7FFFF4E
:1020D80000010202030303030404040404040404C7
:1020E8000505050505050505050505050505050598
:1020F8000606060606060606060606060606060678
:102108000606060606060606060606060606060667
:102118000707070707070707070707070707070747
:102128000707070707070707070707070707070737
:102138000707070707070707070707070707070727
:102148000707070707070707070707070707070717
:1021580008080808080808080808080808080808F7
:1021680008080808080808080808080808080808E7
:1021780008080808080808080808080808080808D7
:1021880008080808080808080808080808080808C7
:1021980008080808080808080808080808080808B7
:1021A80008080808080808080808080808080808A7
:1021B8000808080808080808080808080808080897
:1021C8000808080808080808080808080808080887
:0421D8000827004094
:0421DC000827004090
:1021E00000000000000000000000000000000000EF
:1021F00000000000000000000000000000000000DF
:1022000000000000000000000000000000000000CE
:1022100000000000000000000000000000000000BE
:1022200000000000000000000000000000000000AE
:10223000000000000000000000000000000000009E
:10224000000000000000000000000000000000008E
:10225000000000000000000000000000000000007E
:10226000000000000000000000000000000000006E
:10227000000000000000000000000000000000005E
:10228000000000000000000000000000000000004E
:10229000000000000000000000000000000000003E
:1022A000000000000000000000000000000000002E
:1022B000000000000000000000000000000000001E
:1022C000000000000000000000000000000000000E
:1022D00000000000000000000000000000000000FE
:1022E00000000000000000000100000000000000ED
:1022F00000000000000000000000000000000000DE
:1023000000000000000000000000000000000000CD
:1023100000000000000000000000000000000000BD
:1023200000000000000000000000000000000000AD
:0400000540000000B7
:00000001FF
