:0200000480007A
:1000000073100030B714013823A40400B701004076
:1000100093810178B70200809382021C7390523062
:1000200073104030731040347325103013758502FF
:100030006308050037250000732005307310300079
:10004000732540F1631405043701044013010100D6
:100050001302010073100134B70200809382E20B97
:10006000E7800200B70200809382420AE780020024
:100070001305000093050000B722008093824253CD
:10008000B70000809380C0096780020073F00730DA
:1000900073104030730050106FF0DFFF130000004A
:1000A0006FF0DFFE6780000000000000000000002D
:1000B000411122C600080100324441018280011131
:1000C00006CE22CC0010138701EF938701E2B3071D
:1000D000F7403E868145138501E2EF70C012138719
:1000E00001E293878188B307F7403E86B787008097
:1000F0009385879413858188EF70800F13874188DB
:1001000093870188B307F7403E86B78700809385C1
:10011000479413850188EF70A00D1387018893879A
:100120000188B307F7403E86B77700809385875CE8
:1001300013850188EF70C00B1387018893870188AE
:10014000B307F7403E86B77700809385875C1385B9
:100150000188EF70E009232604FE39A88327C4FE36
:100160001397270093870188BA979C438297832728
:10017000C4FE85072326F4FE138701889387018830
:10018000B307F74089830327C4FEE369F7FC010046
:100190000100F2406244056182800000000000001E
:1001C000232E51FE93020100130101F8137101FF68
:1001D000232211002324510083A2C2FF23263100D1
:1001E00023284100232A5100232C6100232E710073
:1001F00023208102232291022324A1022326B1027B
:100200002328C102232AD102232CE102232EF1024A
:10021000232001052322110523242105232631054E
:1002200023284105232A5105232C6105232E71051E
:1002300023208107232291072324A1072326B10726
:100240002328C107232AD107232CE107232EF107F6
:100250007322003473231034232061007324003090
:1002600073252034F325103413060100B701004034
:1002700093810178B71200809382E29CE7800200AC
:100280007310043003230100731013348321C10061
:100290000322010183224101032381018323C10140
:1002A0000324010283244102032581028325C10224
:1002B0000326010383264103032781038327C10308
:1002C0000328010483284104032981048329C104EC
:1002D000032A0105832A4105032B8105832BC105D0
:1002E000032C0106832C4106032D8106832DC106B4
:1002F000032E0107832E4107032F8107832FC10798
:1003000083204100032181007300203000000000A1
:1003100000000000000000000000000000000000DD
:1003200000000000000000000000000000000000CD
:1003300000000000000000000000000000000000BD
:0403400000000000B9
:10034400411122C60008B7E7003003D7070013673E
:1003540007102390E700B7E7003003D707011367BE
:1003640007102398E700B70700283D67D8D7B707D9
:1003740000283D6798C70100324441018280011181
:1003840022CE00102326A4FEB70700280327C4FEAC
:1003940098CB0100724405618280011122CE0010C5
:1003A4002326A4FEB70700280327C4FED8C70100EC
:1003B400724405618280011122CE00102326A4FE1E
:1003C400B70700280327C4FE98C7010072440561DB
:1003D4008280411106C622C40008B7E7003003D763
:1003E4000700136707102390E700B7E7003003D72F
:1003F4000701136707102398E700B707002805676C
:100404001307078098DBB7070028056713070780E1
:10041400B8D7B7070028056713070780B8DBB70705
:100424000028056713070780B8D3B7070080138631
:10043400074795450145E1248545154539269545E8
:1004440001450D2E0100B240224441018280411138
:1004540022C6000883A741E389C723AA01E285478E
:1004640011A081473E85324441018280411122C658
:100474000008B707002805671307078023A0E708CB
:10048400054723AAE1E201003244410182807971E7
:1004940006D622D44AD24ED00018232CA4FC232EF4
:1004A400B4FCAD20032684FD8326C4FD3307A600D7
:1004B4003A883338C800B387B600B306F800B68765
:1004C4002324E4FE2326F4FEB74700022322F4FE8D
:1004D400B747000291072320F4FE832744FE7D578B
:1004E40098C38327C4FE13D9070081494A87832709
:1004F40004FE98C3032784FE832744FE98C30100A7
:10050400B25022541259825945618280011122CE7F
:10051400001037C300026113232664FE37C30002B0
:100524007113232464FE032384FE03230300232284
:1005340064FE0323C4FE03230300232064FE032379
:1005440084FE03230300032E44FEE31E6EFC0323F8
:1005540044FE1A888148931708000147032804FEC3
:10056400428681463365C700B3E5D7002A87AE8744
:100574003A85BE85724405618280397106DE22DCCB
:100584004ADA4ED852D656D45AD25ED080002326A8
:10059400A4FCAD3F2A8AAE8A8327C4FC3E898149E4
:1005A400B7F7FA02938707083387F9028147B3073D
:1005B400F9023E97B7F7FA0293870708B306F902E0
:1005C400B33BF902368BB3077701BE8B1306803E2B
:1005D40081465A85DE85EF60D0432A87AE873A8606
:1005E400BE863307CA00BA85B3B54501B387DA00BE
:1005F400B386F500B687232CE4FC232EF4FC01001B
:1006040031372A87AE878326C4FD3E86E36AD6FE49
:100614008326C4FD3E866397C600832684FDBA877D
:10062400E3E0D7FE0100F25062545259C259325AE3
:10063400A25A125B825B21618280397106DE22DC60
:100644004ADA4ED852D656D45AD25ED080002326E7
:10065400A4FC6D3D2A8AAE8A8327C4FC3E89814965
:10066400B7F7FA02938707083387F9028147B3077C
:10067400F9023E97B7F7FA0293870708B306F9021F
:10068400B33BF902368BB3077701BE8B37460F00B5
:100694001306062481465A85DE85EF6090372A8743
:1006A400AE873A86BE863307CA00BA85B3B545011C
:1006B400B387DA00B386F500B687232CE4FC232E37
:1006C400F4FC0100A1352A87AE878326C4FD3E864B
:1006D400E36AD6FE8326C4FD3E866397C60083265E
:1006E40084FDBA87E3E0D7FE0100F2506254525908
:1006F400C259325AA25A125B825B21618280011173
:1007040022CE0010AA872324B4FE2322C4FEA3070A
:10071400F4FE8347F4FE89EFB70700401387870090
:10072400832784FE8A07BA97032744FE98C311A837
:1007340013878190832784FE8A07BA97032744FE90
:1007440098C30100724405618280011122CE001019
:100754002326A4FEAE87A305F4FEB706000C0347C8
:10076400B4FE8327C4FE8A07B69798C30100724477
:1007740005618280797122D60018AA87232CB4FCE3
:10078400A30FF4FC8347F4FD9DEB3707000C896746
:10079400BA979C432326F4FE832784FD0547B317A9
:1007A400F7003E878327C4FED98F2326F4FE37073C
:1007B400000C8967BA970327C4FE98C325A8370796
:1007C400000C8967BA9783A707082326F4FE8327BA
:1007D40084FD0547B317F7003E878327C4FED98FEE
:1007E4002326F4FE3707000C8967BA970327C4FE53
:1007F40023A0E7080100325445618280011106CE2E
:1008040022CC00102326A4FE2324B4FEB287A30323
:10081400F4FE032684FE8325C4FE0145CD358347BB
:1008240074FEBE850325C4FE0D378325C4FE014531
:1008340091370100F240624405618280797122D6C9
:100844000018AA87232CB4FCA30FF4FC8347F4FDFF
:100854008DEF3707000C8967BA979C432326F4FE73
:10086400832784FD0547B317F70093C7F7FF3E8737
:100874008327C4FEF98F2326F4FE3707000C89670B
:10088400BA970327C4FE98C335A83707000C8967B5
:10089400BA9783A707082326F4FE832784FD054718
:1008A400B317F70093C7F7FF3E878327C4FEF98F7A
:1008B4002326F4FE3707000C8967BA970327C4FE82
:1008C40023A0E7080100325445618280011122CE41
:1008D4000010AA87A307F4FE8347F4FE81EB3707D1
:1008E400000CB7072000BA97DC4339A03707000C87
:1008F400B7172000BA97DC433E85724405618280B5
:10090400011122CE0010AA872324B4FEA307F4FE0B
:100914008347F4FE91EB3707000CB7072000BA9722
:10092400032784FED8C309A83707000CB717200093
:10093400BA97032784FED8C30100724405618280FC
:10094400011122CE0010AA872324B4FEA307F4FECB
:100954008347F4FE91EB3707000CB7072000BA97E2
:10096400032784FE98C309A83707000CB717200093
:10097400BA97032784FE98C30100724405618280FC
:10098400011106CE22CC0010014589372326A4FE8E
:10099400B7070040138787008327C4FE8A07BA97E6
:1009A4009C4399CFB7070040138787008327C4FE71
:1009B4008A07BA979C4382978325C4FE01458937E9
:1009C4000100F240624405618280797106D622D426
:1009D4000018F32720342326F4FE8327C4FE23249F
:1009E400F4FEF32710342322F4FE832744FE23204D
:1009F400F4FE832784FE63CE0702832784FEBD8B27
:100A04002D476365F70213972700B7770080938714
:100A1400875CBA979C438287832704FE9107232E21
:100A2400F4FC8327C4FD7390173411A00100010066
:100A3400FDBFB9370100B2502254456182800111D3
:100A440006CE22CC0010AA87A307F4FE8347F4FE47
:100A54003E85EF0090340100F240624405618280DB
:100A6400011122CE00102326A4FEAE87A305F4FEB6
:100A74008327C4FE0347B4FE2380E70085473E85F1
:100A8400724405618280797122D60018232EA4FC59
:100A9400232CB4FC232604FE35A0032784FD9307EE
:100AA4001700232CF4FC8327C4FD93861700232E00
:100AB400D4FC034707002380E7008327C4FE85078F
:100AC4002326F4FE832784FD83C70700F9F78327D1
:100AD400C4FE3E85325445618280797106D622D4A3
:100AE4000018232EA4FCAE87232AC4FC2328D4FC9C
:100AF400A30DF4FC232604FE832744FDFD17232ABB
:100B0400F4FC032704FDA54763FFE704032704FD62
:100B1400A9473357F7028347B4FDBA86032644FD39
:100B2400BE850325C4FD553F2326A4FE8327C4FEAA
:100B34000327C4FDBA97232EF4FC15A88347B4FDFC
:100B4400BE850325C4FD293F8327C4FD8507232EC5
:100B5400F4FC8327C4FE85072326F4FE832744FD83
:100B6400FD17232AF4FC832744FDE349F0FC032703
:100B740004FDA947B377F70293F7F70F93870703A9
:100B840093F7F70FBE850325C4FDD93D2A87832734
:100B9400C4FEBA972326F4FE8327C4FE3E85B250D2
:100BA400225445618280797106D622D40018232EFE
:100BB400A4FCAE87232AC4FC2328D4FCA30DF4FC94
:100BC400232604FE832704FD63D90700832704FD3D
:100BD400B307F0402324F4FE29A0832704FD232433
:100BE400F4FE832744FDFD17232AF4FC032784FE27
:100BF400A54763F3E706832704FD63D607020327AB
:100C040084FEA947B357F702B307F0403E878347F2
:100C1400B4FDBA86032644FDBE850325C4FD6137B1
:100C24002326A4FE15A0032784FEA947B357F70281
:100C34003E878347B4FDBA86032644FDBE8503255B
:100C4400C4FD95372326A4FE8327C4FE0327C4FDD1
:100C5400BA97232EF4FC85A8832704FD63DD0702DD
:100C6400832744FDFD17232AF4FC35A08347B4FDF4
:100C7400BE850325C4FDED338327C4FD8507232EDC
:100C8400F4FC8327C4FE85072326F4FE832744FD52
:100C9400FD17232AF4FC832744FDE349F0FC832752
:100CA40004FD63D207029305D0020325C4FD4D3B26
:100CB4002A878327C4FEBA972326F4FE8327C4FD1C
:100CC4008507232EF4FC032784FEA947B377F70294
:100CD40093F7F70F9387070393F7F70FBE85032561
:100CE400C4FDBD3B2A878327C4FEBA972326F4FE9E
:100CF4008327C4FE3E85B2502254456182807971B7
:100D040006D622D40018232EA4FCAE87232AC4FCC2
:100D14002328E4FCA30DF4FCB687230DF4FC23265E
:100D240004FE832744FDFD17232AF4FC832704FDD6
:100D34009183B5C3832704FD13D747008346A4FDDD
:100D44008347B4FD032644FDBE850325C4FD453F0A
:100D54002A878327C4FEBA972326F4FE8327C4FE7A
:100D64000327C4FDBA97232EF4FC15A88347B4FDCA
:100D7400BE850325C4FDED318327C4FD8507232EDD
:100D8400F4FC8327C4FE85072326F4FE832744FD51
:100D9400FD17232AF4FC832744FDE349F0FC832751
:100DA40004FD13F7F700A54763E2E702832704FD78
:100DB40093F7F70FBD8B93F7F70F9387070393F719
:100DC400F70FBE850325C4FD613999A08347A4FDAF
:100DD4008DC3832704FD93F7F70FBD8B93F7F70FAC
:100DE4009387770393F7F70FBE850325C4FD8D39E9
:100DF40005A0832704FD93F7F70FBD8B93F7F70F37
:100E04009387770593F7F70FBE850325C4FD8939CA
:100E14008327C4FE85072326F4FE8327C4FE3E856C
:100E2400B250225445618280797106D622D40018CA
:100E3400232EA4FC232CB4FC232AC4FC2328D4FC96
:100E4400232404FE232204FE8327C4FD6381072692
:100E54008327C4FD2380070099AC832744FD03C77F
:100E64000700930750026308F702032744FD930722
:100E74001700232AF4FC8327C4FD93861700232E2E
:100E8400D4FC034707002380E700832744FE85073B
:100E94002322F4FE29AC832744FD850703C70700FA
:100EA400930750026317F7028327C4FD13871700C3
:100EB400232EE4FC130750022380E700832744FD1C
:100EC4008907232AF4FC832744FE85072322F4FEA2
:100ED400F9AA93070002A307F4FE230704FE83275D
:100EE40044FD8507232AF4FC832744FD03C7070038
:100EF400930700036315F70493070003A307F4FEA5
:100F0400832744FD8507232AF4FC15A88347E4FEC0
:100F14003E87BA878A07BA97860713F7F70F83279E
:100F240044FD83C70700BA9793F7F70F938707FD2C
:100F34002307F4FE832744FD8507232AF4FC832733
:100F440044FD03C707009307F00263FAE700832711
:100F540044FD03C7070093079003E3F9E7FA034747
:100F6400E4FE832744FEBA973E87832784FD63FE0D
:100F7400E700832784FD13F7F70F832744FE93F7D5
:100F8400F70FB307F7402307F4FE832744FD83C715
:100F94000700938787FA130700026365F70E139718
:100FA4002700B77700809387875FBA979C4382872F
:100FB4000346E4FE832704FD138747002328E4FC4B
:100FC40098438347F4FEBA86BE850325C4FDE13EFB
:100FD4002324A4FE55A80346E4FE832704FD1387B7
:100FE40047002328E4FC98438347F4FEBA86BE8571
:100FF4000325C4FDDD342324A4FE79A00346E4FEC6
:10100400832704FD138747002328E4FC9843834780
:10101400F4FE8146BE850325C4FDD5312324A4FEF8
:10102400A5A00346E4FE832704FD13874700232875
:10103400E4FC98438347F4FE8546BE850325C4FD3E
:101044007D392324A4FE89A0832704FD1387470048
:101054002328E4FC9C43BE850325C4FD2D342324AE
:10106400A4FE1DA0832704FD138747002328E4FC66
:101074009C4393F7F70FBE850325C4FDD532232483
:10108400A4FE19A0FD5795A8832744FD8507232AAC
:10109400F4FC832784FE0327C4FDBA97232EF4FCB3
:1010A400032744FE832784FEBA972322F4FE832772
:1010B40044FD83C7070099C7832744FE032784FDA3
:1010C400E3EDE7D8832744FE032784FD63F7E700B5
:1010D4008327C4FD2380070039A88327C4FDFD1797
:1010E400232EF4FC8327C4FD23800700832744FEBA
:1010F400FD172322F4FE832744FE3E85B25022547A
:10110400456182805D7106D622D40018232EA4FC8A
:10111400232CB4FC232AC4FC54C418C85CC8232C54
:101124000401232E1401930704022328F4FC8327CB
:1011340004FDB1172324F4FE832784FEBE86032610
:1011440044FD832584FD0325C4FDF9392326A4FE2B
:101154008327C4FE3E85B25022546161828001110E
:1011640006CE22CC00102326A4FE2324B4FE232280
:10117400C4FE832644FE032684FE9305E01503255E
:10118400C4FE5D31AA873E85F240624405618280D7
:1011940061712326111A2324811A001B232EA4E42F
:1011A400232CB4E4232AC4E4B77700809387C76769
:1011B40003A3070083A8470003A88700C8478C4BF4
:1011C400D04B944FD84F9C53232664E6232814E72E
:1011D400232A04E7232CA4E6232EB4E62320C4E820
:1011E4002322D4E82324E4E82326F4E8930704E93B
:1011F400032644E5832584E53E8595372A879307AE
:10120400D01563DCE70083A70188D8479307C4E6B9
:10121400BA853E85F1220100FDBF930704E98325C9
:10122400C4E53E85752AAA873E858320C11A032416
:10123400811A5D618280011106CE22CC0010232622
:10124400A4FE2324B4FE83A701889C47032684FEBE
:101254008325C4FE3E852D3FAA873E85F240624425
:10126400056182805D7106D622D40018232EA4FC69
:10127400232CB4FC10C454C418C85CC8232C040127
:10128400232E140193070402232AF4FC832744FD2C
:10129400A1172324F4FE832784FE3E86832584FD40
:1012A4000325C4FDF5352326A4FE8327C4FE3E850D
:1012B400B2502254616182805D7106D622D4001836
:1012C400232EA4FC4CC010C454C418C85CC8232CDE
:1012D4000401232E140193070402232CF4FC832716
:1012E40084FD91172324F4FE832784FEBE85032501
:1012F400C4FD91372326A4FE8327C4FE3E85B25045
:101304002254616182805D7106D622D40018232E96
:10131400A4FC232CB4FC10C454C418C85CC8232CEB
:101324000401232E140193070402232AF4FC8327C7
:1013340044FDA1172324F4FE832784FE3E868325DF
:1013440084FD0325C4FD213D2326A4FE8327C4FE7A
:101354003E85B250225461618280797106D622D4CE
:101364000018232EA4FC83A701889C47BE8503256F
:10137400C4FDBD202326A4FE83A701889C47BE8507
:10138400294509288327C4FE85073E85B250225487
:1013940045618280011106CE22CC00102326A4FED2
:1013A4002324B4FE83A701889C47032784FE630992
:1013B400F70083A70188DC47032784FE631CF7003A
:1013C4008327C4FE93F7F70F3E85EFF04FE783279B
:1013D400C4FE11A0FD573E85F2406244056182803F
:1013E400797106D622D40018232EA4FC232CB4FC35
:1013F400232604FE0DA88327C4FD83C70700832585
:1014040084FD3E85413F2A87FD576314F700FD574D
:1014140015A08327C4FE85072326F4FE8327C4FD75
:101424008507232EF4FC8327C4FD83C70700E1F757
:101434008327C4FE3E85B250225445618280011147
:1014440022CE0010A1472324F4FE832784FED3F781
:1014540017D0B777008007A7076A5377F708B777DD
:10146400008087A7476A5377F710B777008087A76C
:10147400876AD377F700D39717C02326F4FEB7E71C
:10148400003003D70700136707102390E700B7E77E
:10149400003003D70701136707102398E700B7E765
:1014A400003098471367074098C7B7E70030984F54
:1014B4001367074098CFB7070028D45F3707F4FFB6
:1014C4007D17F98E37070400558FD8DFB70700283A
:1014D400D45F3707FDFF7D17F98E4167558FD8DF3D
:1014E400B707002813070030D8DBB7E7003083A61E
:1014F40007083707FDFF7D17F98E4167558F23A035
:10150400E708B7E7003083A607083707F0FF7D1721
:10151400758F23A0E708B7E7003003A70708136710
:10152400071023A0E708B7E7003003A707081367ED
:10153400170023A0E708B7A70030032784FED8D3F9
:10154400B7A700300327C4FE98D7B7A70030130706
:101554000007D8D7B7A7003023AA0702B7A70030DF
:101564001307103098DB0100724405618280411139
:1015740022C600080100B7A700309C4F9183858BD9
:1015840093F7F70FEDFBB7A7003083C7070093F776
:10159400F70F3E85324441018280011122CE0010B2
:1015A4002326A4FE0100B7A700309C4F8D83858BB2
:1015B40093F7F70FEDFBB7A700300327C4FE98C3DA
:1015C40081473E857244056182800000011122CE6C
:1015D40000102326A4FE8327C4FE73A00730010055
:1015E4007244056182800100011122CE001023267D
:1015F400A4FE8327C4FE73B0073001007244056162
:1016040082800100011122CE00102326A4FE83272C
:10161400C4FE73905730010072440561828001005A
:10162400011122CE00102326A4FE8327C4FE73A03A
:10163400473001007244056182800100011122CE0D
:1016440000102326A4FE8327C4FE73B04730010094
:101654007244056182800100011122CE0010F3273B
:1016640020342326F4FE8327C4FE3E85724405619C
:1016740082800100411106C622C400085520B71714
:1016840000809387C7733E85B53FBD280100B240F3
:101694002244410182800100011106CE22CC0010B7
:1016A4002326A4FE8327C4FE0547B317F7003E850F
:1016B400853F0100F240624405618280011106CE3B
:1016C40022CC00102326A4FE8327C4FE0547B317AB
:1016D400F7003E85A5370100F2406244056182802F
:1016E400011122CE00102326A4FE2324B4FE138766
:1016F40081E38327C4FE8A07BA97032784FE98C32D
:101704000100724405618280411106C622C40008AA
:1017140021456D3D0100B240224441018280010017
:10172400411106C622C4000821457D3D0100B24096
:101734002244410182800100717106D716D51AD363
:101744001ED122CF2ACD2ECB32C936C73AC53EC3CD
:1017540042C1C6DEF2DCF6DAFAD8FED682EE86ECB8
:101764008AEA8EE892E696E49AE29EE02AFE2EFC4D
:1017740032FA36F83AF63EF442F246F072EE76EC7D
:101784007AEA7EE80019C93D232EA4F48327C4F520
:1017940063C907020327C4F5B7070040F98F21473F
:1017A400636BF70013972700B77700809387C76AA6
:1017B400BA979C438287010019A00100010001002F
:1017C400FDBF8327C4F593F7F70F232EF4F4138793
:1017D40081E38327C4F58A07BA979C4391CB138787
:1017E40081E38327C4F58A07BA979C43829711A0A3
:1017F40001A0BA50AA521A538A537A446A45DA4568
:101804004A46BA462A479A470A48F658665ED65E5A
:10181400465FB65F7660E6605661C6613662A66270
:10182400166386637275E2755276C2763277A27752
:1018340012788278726EE26E526FC26F4D617300DD
:1018440020300000757106C722C54AC34EC1D2DEDE
:10185400D6DCDADADED8E2D6E6D4EAD2EED0000973
:1018640023A001E223A201E223A401E223A601E2D0
:10187400B7E70030BC4B9D8393F7F70393F7F70F5B
:10188400A307F4FCB7E70030BC4BB5839D8B93F7FB
:10189400F70F85072307F4FCB7E70030BC4BC1837F
:1018A40093F7F70393F7F70F8507A306F4FCB7E75D
:1018B4000030BC4BD9839D8B93F7F70F8507230624
:1018C400F4FCB7E70030BC4BE58393F7F70393F7D9
:1018D400F70F8507A305F4FCB7E70030BC4B858BF5
:1018E40093F7F70F63820720B7E70030BC4B91836F
:1018F400858B93F7F70F63820718B7E70030BC4F67
:101904003E878567FD17F98FC207C183E207232C41
:10191400F4FAFD87232EF4FAB7E70030F84BB70743
:101924000001FD17F98F232AF4FA0347F4FCB727C3
:10193400F40093870740B3C7E7023E8EFD87BE8E4F
:10194400832744FB3E8F814F032784FB8327C4FBFB
:101954003305EF00AA86B3B6E601B385FF00B3876B
:10196400B600BE852A87AE873386EE02B386C703E8
:10197400B2963306EE02B338EE023288B38716010C
:10198400BE88939788001353880133E3670093D389
:1019940088010347E4FC8347D4FCB307F702232CF4
:1019A400F4F8FD87232EF4F8032684F98326C4F97A
:1019B4001A859E85EF50F0052A87AE8723A2E1E2BF
:1019C4008347F4FC3727F40013070740B347F702B3
:1019D4002328F4F8FD87232AF4F8832744FB2324DF
:1019E400F4F8232604F8032684FB8326C4FB032887
:1019F40084F88328C4F8C2853387C500BA85428534
:101A0400B3B5A5004685B307D500B386F500B68700
:101A1400032504F9832544F9AE863386E602AA86B3
:101A2400B386D702B2962A863306E602AA85B3BAEB
:101A3400E502328AB3875601BE8A93978A00135C03
:101A44008A0133EC870193DC8A010347C4FC834792
:101A5400B4FCB307F7022320F4F8FD872322F4F83B
:101A6400032604F8832644F86285E685EF50607AFD
:101A74002A87AE8723A4E1E285A8B7E70030BC4FEC
:101A84003E878567FD17F98FC207C1832322F4FCC3
:101A9400032744FCB727F40093870740B307F702F2
:101AA4008346F4FC0347E4FCB386E6020347D4FC14
:101AB4003387E60233D7E70223A2E1E2032744FC9B
:101AC400B727F40093870740B307F7028346F4FC73
:101AD4000347C4FCB386E6020347B4FC3387E6023B
:101AE40033D7E70223A4E1E2B7E70030DC5F8D8B54
:101AF40093F7F70F0D476389E7020D476348F70033
:101B04000547638CE70009476384E70237470F0002
:101B14001307072423A0E1E20DA03727F4001307DD
:101B2400074023A0E1E211A8216723A0E1E231A04C
:101B340003A741E223A0E1E20100B7E700309C4B98
:101B44008583858B93F7F70F638B071A370701207B
:101B54008567BA9783A7C780E183858B93F7F70FCF
:101B6400639B0718370701208567BA9783A7078007
:101B74009D8393F7F70393F7F70FA307F4FC370755
:101B840001208567BA9783A70780B5839D8B93F758
:101B9400F70F85072307F4FC370701208567BA97F9
:101BA40083A70780C18393F7F70393F7F70F85079C
:101BB400A306F4FC370701208567BA9783A707803B
:101BC4009183858B93F7F70FF5C33707012085675A
:101BD400BA9783A787803E878567FD17F98FC20769
:101BE400C183E2072324F4FAFD872326F4FA370796
:101BF40001208567BA9703A74780B7070001FD173F
:101C0400F98F2322F4FA8347F4FC3727F4001307EF
:101C14000740B347F7023E8DFD87BE8D832744FA04
:101C2400232CF4F6232E04F6032684FA8326C4FA1E
:101C3400032884F78328C4F7C2853387C500BA858F
:101C44004285B3B5A5004685B307D500B386F50034
:101C5400B6873386ED02B386A703B2963306ED0248
:101C6400B339ED023289B3873601BE89939789006F
:101C7400135B890133EB670193DB89010347E4FCC0
:101C84008347D4FCB307F7022328F4F6FD87232AFD
:101C9400F4F6032604F7832644F75A85DE85EF50CD
:101CA40040572A87AE8723A6E1E291A8370701208F
:101CB4008567BA9783A787803E878567FD17F98F65
:101CC400C207C1832328F4FA032704FBB727F400CF
:101CD40093870740B307F7028346F4FC0347E4FC09
:101CE400B386E6020347D4FC3387E60233D7E70220
:101CF40023A6E1E229A003A701E223A6E1E2010071
:101D0400BA402A441A498A49765AE65A565BC65B4F
:101D1400365CA65C165D865D49618280011122CE27
:101D24000010232604FEB7E7003003D7070013672B
:101D340007402390E700B7E7003003D70701136794
:101D440007402398E700B7270028D45F3167558FF1
:101D5400D8DFB727002803D7470313670708239A58
:101D6400E702B7E7003045671307171223AEE70A07
:101D7400B7E70030985B719B98DBB7E70030054705
:101D840098DB232604FE31A08327C4FE850723267F
:101D9400F4FEB7E70030DC5F8D8B13F7F70FB7E77E
:101DA40000309C5B8D8B93F7F70F6308F7000327D4
:101DB400C4FE93073006E3F9E7FCB7E7003037E7E2
:101DC400C31E13077708B8CBB7E7003023AA07046C
:101DD400B7E7003013074006B8CFB7E70030B84B79
:101DE4001377F7F913670702B8CB9307803E2326CE
:101DF400F4FE31A08327C4FEFD172326F4FE8327B7
:101E0400C4FEEDFB0100B7E70030BC53858B13F72C
:101E1400F70F8547E319F7FEB7E70030B84B659B2A
:101E240013674700B8CB89472324F4FEB7D70030A3
:101E3400F4473707F1FF7D17F98E37070300558FF5
:101E4400F8C7B7D70030F84713672700F8C7B7E7D4
:101E54000030032784FE98DB232604FE31A0832769
:101E6400C4FE85072326F4FEB7E70030DC5F8D8BC4
:101E740013F7F70FB7E700309C5B8D8B93F7F70FE1
:101E84006308F7000327C4FE93073006E3F9E7FC71
:101E94000100724405618280011106CE22CC00103B
:101EA40081450145EFE0DFA9930700082326F4FEEE
:101EB4008327C4FEF3B747302326F4FE8567938750
:101EC40007802324F4FE832784FEF3A747302324CA
:101ED400F4FEA1472322F4FE832744FEF3A7073030
:101EE4002322F4FE0100F240624405618280011164
:101EF40006CE22CC00109D450145EFE07FA4856706
:101F0400938707802326F4FE8327C4FEF3B7473064
:101F14002326F4FEA1472324F4FE832784FEF3B78B
:101F240007302324F4FE0100F240624405618280FC
:101F3400411106C622C40008D5330100B240224430
:101F440041018280011122CE00102326A4FEB7078E
:101F540000309C4393F6F7FC8327C4FE1397470095
:101F6400B7070030558F98C3010072440561828021
:101F7400011122CE00102326A4FEB70700309C4393
:101F840093F6F7F38327C4FE13976700B70700306F
:101F9400558F98C30100724405618280011122CEDD
:101FA40000102326A4FEB70700309C4393F6F7EFF6
:101FB4008327C4FE13978700B7070030558F98C353
:101FC4000100724405618280011122CE0010232693
:101FD400A4FEB70700300327C4FED8C3010072442F
:101FE40005618280011122CE00102326A4FE232441
:101FF400B4FEB707003098478327C4FE93C7F7FFA2
:10200400B376F700032784FE8327C4FE3307F70261
:10201400B7070030558F98C701007244056182806C
:10202400011122CE00102326A4FEB7070030D44BA2
:10203400B70700300327C4FE558FD8CB0100724484
:1020440005618280011122CE00102326A4FE2324E0
:10205400B4FE370700308327C4FE89078E07BA977A
:10206400032784FED8C701007244056182800111F0
:1020740022CE00102326A4FE2324B4FE8327C4FE0C
:102084009843832784FEF98F99C3854711A081471C
:102094003E85724405618280011122CE0010232600
:1020A400A4FE2324B4FE8327C4FE03A707088327C2
:1020B40084FEF98F99C3854711A081473E857244F8
:1020C40005618280011122CE00102326A4FE232460
:1020D400B4FE8327C4FE032784FE23A0E70801007F
:1020E400724405618280011122CE0010A14723268B
:1020F400F4FE8327C4FED3F717D0B777008007A771
:10210400077A5377F708B777008087A7477A53771A
:10211400F710B777008087A7877AD377F700D3972C
:1021240017C02324F4FEB7E7003003D70700136772
:1021340007102390E700B7E7003003D707011367C0
:1021440007102398E700B7E7003098471367074064
:1021540098C7B7E70030984F1367074098CFB70781
:102164000028D45F3707FDFF7D17F98E4167558F2F
:10217400D8DFB7070028D45F3707F4FF7D17F98E3F
:1021840037070400558FD8DFB7070028130700303E
:10219400D8DBB7E7003083A607083707FDFF7D17B4
:1021A400F98E4167558F23A0E708B7E7003083A66F
:1021B40007083707F0FF7D17758F23A0E708B7E7F7
:1021C400003003A707081367071023A0E708B7E741
:1021D400003003A707081367170023A0E708B7A771
:1021E40000300327C4FED8D3B7A70030032784FEEA
:1021F40098D7B7A7003013070007D8D7B7A7003080
:1022040023AA0702B7A700301307103098DB010098
:10221400724405618280411106C622C40008093B4C
:10222400EFF04FE2EFF0AFA10928B92C3528AD311A
:102234000100B240224441018280411122C60008BB
:10224400B7E7003003D70700136707202390E700A0
:10225400B7E7003003D70701136707202398E70087
:102264000100324441018280011106CE22CC0010CB
:10227400A30704FE89A08347F4FE37770080130781
:10228400076D8A07BA9788438347F4FE377700803F
:10229400130707718A07BA978C430347F4FE9387A1
:1022A40001DBBA97BE860546EF10003C8347F4FE77
:1022B4008507A307F4FE0347F4FEBD47E3FDE7FAF1
:1022C40085451545EFE06FC8B72700801386E72ED4
:1022D40095450145EFE0AFC295450145EFE08FC953
:1022E4000100F240624405618280011106CE22CCD5
:1022F400001083A701E32324F4FEA30704FE95AA98
:102304008347F4FE377700801307076D8A07BA976F
:1023140094438347F4FE37770080130707718A07D5
:10232400BA979C43BE853685853B2A878547631DBE
:10233400F7128347F4FE377700801307076D8A0787
:10234400BA9794438347F4FE3777008013070771E5
:102354008A07BA979C43BE853685113BAA87B33753
:10236400F00093F7F70FA303F4FE8347F4FE1387FB
:1023740001DBBA9783C7070013F7F70F854763118B
:10238400F706834774FEA9EF8347F4FE138781E6BB
:102394008A07BA979C43032784FE1D8F9307200363
:1023A400636FF7088347F4FE3777008013070775D8
:1023B4008A07BA979C433E85612D8347F4FE1387B1
:1023C40081E68A07BA97032784FE98C38347F4FEFD
:1023D400138701DBBA97034774FE2380E70085A0C7
:1023E4008347F4FE138701DBBA9783C7070093F78B
:1023F400F70FB1E7034774FE85476312F704834779
:10240400F4FE138781E68A07BA979C43032784FE68
:102414001D8F930720036364F7028347F4FE138739
:1024240001DBBA97034774FE2380E7008347F4FE79
:10243400138781E68A07BA97032784FE98C38347E4
:10244400F4FE377700801307076D8A07BA97944321
:102454008347F4FE37770080130707718A07BA971A
:102464009C43BE853685B9398347F4FE8507A307A7
:10247400F4FE0347F4FEBD47E3F4E7E8010001007E
:10248400F240624405618280011106CE22CC001024
:10249400B7E7003098471367170098C7B7E70030CD
:1024A400984F1367170098CF0145CD3C0D45C934AB
:1024B4000545493C03A701E28967938707F4B357AD
:1024C400F7022326F4FE8327C4FE81E785472326EB
:1024D400F4FE8325C4FE0145B5360145F534854532
:1024E4000545093685451945EFE02FA6B727008035
:1024F4001386275199450145EFE06FA099450145A1
:10250400EFE04FA70100F24062440561828041116F
:1025140006C622C4000883A701E31387170023A873
:10252400E1E20545F53C0100B240224441018280CC
:10253400411106C622C40008F939B7770080138513
:102544000779EFE09FE173005010F5BF011122CE2F
:102554000010AA87A307F4FE0347F4FE9307B00212
:102564006308F7000347F4FE9307D0026314F700EF
:10257400854705A00347F4FE9307A0026308F7000C
:102584000347F4FE9307F0026314F700894711A090
:1025940081473E85724405618280597186D6A2D4F2
:1025A400A6D28018232EA4F8232CB4F8232AC4F826
:1025B400232604FE232404FE832744F923A00700D2
:1025C40029AC832784FE0327C4F9BA9783C707007D
:1025D400A301F4FE034734FE930700026307F700E8
:1025E400034734FEA5476318F700832784FE850755
:1025F4002324F4FEDDA2034734FE9307F00263FABA
:10260400E70C034734FE9307900363E4E70C2322AB
:1026140004FE0DA8032744FEBA878A07BA978607E3
:10262400BE86832784FE0327C4F9BA9783C70700AD
:10263400938707FDB6972322F4FE832784FE85073C
:102644002324F4FE832784FE0327C4F9BA9703C71F
:1026540007009307F00263FDE700832784FE032746
:10266400C4F9BA9703C7070093079003E3F4E7FAA2
:10267400832744F998439307F00363D4E700FD5795
:10268400F5A2832744F99C433E87BA878607BA9705
:102694008A073E87832784F9BA971307E0062380C5
:1026A400E700832744F99C433E87BA878607BA9795
:1026B4008A073E87832784F9BA97032744FED8C341
:1026C400832744F99C4313871700832744F998C34D
:1026D40029A2034734FE9307B002630FF7080347A8
:1026E40034FE9307D0026309F708034734FE9307C7
:1026F400A0026303F708034734FE9307F002631C48
:10270400F70C9DA8832744F998439307F00363D4F7
:10271400E700FD57A1AA832744F99C433E87BA8763
:102724008607BA978A073E87832784F9BA971307DF
:10273400F0062380E7008327C4FEFD172326F4FE5A
:10274400832744F99C433E87BA878607BA978A074A
:102754003E87832784F9BA970327C4FE411722973B
:10276400034707FB2384E700832744F99C4313872B
:102774001700832744F998C38327C4FE6353F002E8
:102784008327C4FEFD17C117A29783C707FB3E85A5
:10279400753BAA84834734FE3E854D3BAA87E3D329
:1027A400F4F60327C4FE9307F00363D4E700F95754
:1027B40075A88327C4FE138717002326E4FEC117D8
:1027C400A297034734FE2388E7FA832784FE85070C
:1027D4002324F4FE19A0F55751A8832784FE032768
:1027E400C4F9BA9783C70700E39D07DC9DA8832734
:1027F40044F998439307F00363D4E700FD57BDA061
:10280400832744F99C433E87BA878607BA978A0789
:102814003E87832784F9BA971307F0062380E700DD
:102824008327C4FEFD172326F4FE832744F99C4323
:102834003E87BA878607BA978A073E87832784F933
:10284400BA970327C4FE41172297034707FB238443
:10285400E700832744F99C4313871700832744F92F
:1028640098C38327C4FEE344F0F881473E85B650FD
:1028740026549654656182802971232E8112800228
:102884002326A4EC2324B4EC2322C4EC232604FE44
:10289400232404FE71A2032784FEBA878607BA970D
:1028A4008A073E878327C4ECBA9703C707009307B8
:1028B400E0066311F7040327C4FE9307F00363D40F
:1028C400E700FD5749A2032784FEBA878607BA9713
:1028D4008A073E878327C4EC3E978327C4FE9386EA
:1028E40017002326D4FE58438A07C117A29723A6AC
:1028F400E7EE15A2032784FEBA878607BA978A07EC
:102904003E878327C4ECBA9703C707009307F006F2
:102914006311F7100327C4FE854763C4E700F95722
:102924001DA28327C4FEFD172326F4FE8327C4FEBD
:102934008A07C117A29783A7C7EE2320F4FE832733
:10294400C4FEFD172326F4FE8327C4FE8A07C1179D
:10295400A29783A7C7EE232EF4FC032784FEBA872D
:102964008607BA978A073E878327C4ECBA9783C73A
:1029740087001307F0026380E7061307F002634A37
:10298400F7061307D0026386E7021307D0026342F7
:10299400F7061307A0026387E7021307B002639ADE
:1029A400E7040327C4FD832704FEBA972322F4FE19
:1029B40099A00327C4FD832704FEB307F74023220D
:1029C400F4FE15A80327C4FD832704FEB307F7020A
:1029D4002322F4FE0DA0832704FE99E3F557A5A056
:1029E4000327C4FD832704FEB347F7022322F4FE22
:1029F40019A0F15789A88327C4FE1387170023263B
:102A0400E4FE8A07C117A297032744FE23A6E7EE34
:102A140019A0ED570DA8832784FE85072324F4FE0F
:102A2400032784FE832784ECE347F7E60327C4FEE9
:102A340085476304F700E95739A00327C4ED8327CA
:102A440044EC98C381473E850324C11331618280DD
:102A5400130101CC232E1132232C8132800623262C
:102A6400A4CC0327C4CCBD476302F71A0327C4CC04
:102A7400BD4763E1E7260327C4CCB947630EF714C7
:102A84000327C4CCB94763E7E7240327C4CCA5478D
:102A940063FAE7008327C4CC138767FF8D4763EB92
:102AA400E722A1A88327C4CC93F7F70F93870703E2
:102AB4002303F4FE03A781EE9307E00363C6E70252
:102AC40083A781EE9386170023A4D1EE138781EAAE
:102AD400BA97034764FE2380E70083A781EE138738
:102AE40081EABA9723800700938581EAB77700804B
:102AF4001385C77AEFE04FFCDDA283A781EE638DD7
:102B0400071C83A781EEFD17138781EABA9783C751
:102B14000700A303F4FE034774FE9307B0026300A7
:102B2400F71C034774FE9307D002630AF71A03479E
:102B340074FE9307A0026304F71A034774FE930715
:102B4400F002630EF718A30704FE0327C4CCA947B9
:102B54006316F7009307B002A307F4FE0327C4CC5F
:102B6400AD476316F7009307D002A307F4FE0327CB
:102B7400C4CCB1476316F7009307A002A307F4FE81
:102B84000327C4CCB5476316F7009307F002A307E5
:102B9400F4FE03A781EE9307E00363C6E70283A76D
:102BA40081EE9386170023A4D1EE138781EABA97A6
:102BB4000347F4FE2380E70083A781EE138781EAAD
:102BC400BA9723800700938581EAB777008013853D
:102BD400C77AEFE06FEE21A283A781EE635FF00076
:102BE40083A781EE1387F7FF23A4E1EE83A781EE89
:102BF400138781EABA9723800700938581EAB77720
:102C040000801385C77AEFE02FEBD1A883A781EE6C
:102C1400F1C783A781EEFD17138781EABA9783C7AB
:102C240007002307F4FE0347E4FE9307B00263079B
:102C3400F70A0347E4FE9307D0026301F70A034748
:102C4400E4FE9307A002630BF7080347E4FE93072F
:102C5400F0026305F708130704FE9307C4CD3A8610
:102C6400BE85138581EA153A2324A4FE832784FEB6
:102C740091CB832584FEB77700801385877BEFE0B3
:102C8400AFE3B1A8032704FE9306C4FD9307C4CDA4
:102C94003686BA853E85CD362324A4FE832784FE5A
:102CA40091CB832584FEB77700801385C77CEFE042
:102CB400AFE035A08327C4FDBE85B77700801385B8
:102CC400077EEFE06FDF23A401EE938781EA238080
:102CD400070031A0010021A0010011A00100832000
:102CE400C13303248133130101348280011122CEC4
:102CF40000102326A4FE2324B4FE8327C4FE032746
:102D040084FE98C70100724405618280011122CEBD
:102D140000102326A4FE2324B4FE8327C4FE032725
:102D240084FED8C70100724405618280411122C625
:102D3400000883C7C1EE93F7F70F3E853244410183
:102D44008280411122C6000883C7D1EE93F7F70FA2
:102D54003E85324441018280411106C622C40008E6
:102D64008945371500285D370100B24022444101EE
:102D74008280411106C622C40008894537150028FF
:102D8400B5370100B240224441018280411106C698
:102D940022C4000831200100B24022444101828053
:102DA400411106C622C40008B7E7003003D7070064
:102DB400136707202390E700B7E7003003D7070124
:102DC400136707202398E700B7E7003003D707000D
:102DD400136707022390E700B7E7003003D7070122
:102DE400136707022398E700B7E7003083A6470973
:102DF4003707FDFF7D17F98E4167558F23AAE70832
:102E0400B7E7003003A747091367170023AAE708A9
:102E1400B7E7003003A747091367071023AAE70899
:102E2400B707052021472388E700B7070520054792
:102E3400A380E700B707052003D707001377F7FB44
:102E44002390E700B707052003D707001377F7F7A8
:102E54002390E700B707052003D707001377F7FC93
:102E64002390E700B707052003D70700419B1367AA
:102E740077002390E700B707052003D747006D9B31
:102E84002392E7009120B70705200547D8CBB73731
:102E940000801386671FAD450145EFD05F868545E9
:102EA4002D45EFD09F8AAD450145EFD0BF8CB707C4
:102EB400052003D74700136727002392E70001008A
:102EC400B240224441018280797106D622D400188E
:102ED400B71700283547D8DBB717002813071005A4
:102EE400D8DF930784FD3E85EF2000468547232ED7
:102EF400F4FC232004FE8947232CF4FC930784FD6F
:102F0400BE8537150028EF20A03B894537150028DA
:102F1400F13B0100B250225445618280011122CE5E
:102F24000010AA87A307F4FE0100B7070520DC47B9
:102F3400898BE5DFB70705200347F4FE98C7010036
:102F4400B7070520DC47918BE5DFB70705209C47D1
:102F540093F7F70F3E85724405618280011106CE16
:102F640022CC0010D53B1545553F1305F00F7D3796
:102F7400AA87A307F4FEF53B8347F4FE3E85F2409F
:102F8400624405618280397106DE22DC80002326DA
:102F9400A4FC83A701E22324F4FEF9472322F4FED0
:102FA400032784FE9307803EB357F7020327C4FC2C
:102FB400B307F7022320F4FE032704FE832744FE0D
:102FC400B357F7022326F4FE8327C4FE99EF8547FF
:102FD4002326F4FE19A85937AA87A30FF4FC8347C4
:102FE400F4FD858B99E3854709A88327C4FE1387DD
:102FF400F7FF2326E4FEE5F381473E85F250625451
:1030040021618280411106C622C40008B1331945EA
:10301400313785330100B240224441018280797105
:1030240006D622D40018AA87232CB4FC232AC4FC75
:10303400231FF4FC832784FD63820710832744FD48
:10304400638E070E83C7C1EE93F7F70F639A070EDB
:10305400A38601EE05472386E1EED1A88357E4FD5C
:1030640093F7F7032322F4FE13070004832744FE97
:10307400B307F7402326F4FE0327C4FE832744FD49
:1030840063F6E700832744FD2326F4FEA53FE931D8
:10309400094569358357E4FDA183C207C18393F7CA
:1030A400F70F3E85A53D8357E4FD93F7F70F3E8563
:1030B400B535232404FE39A8032784FD832784FE21
:1030C400BA9783C707003E85913D832784FE850711
:1030D4002324F4FE032784FE8327C4FEE36EF7FC57
:1030E400493951454D35AA8793C7170093F7F70F10
:1030F40099C70547A386E1EE238601EE99A08327AD
:10310400C4FEC207C1830357E4FDBA97231FF4FC2E
:10311400032784FD8327C4FEBA97232CF4FC0327DA
:1031240044FD8327C4FEB307F740232AF4FC832716
:1031340044FDE39507F2238601EE21A0010011A0CE
:103144000100B250225445618280797106D622D49E
:1031540026D20018AA87232CB4FC232AC4FC231FDC
:10316400F4FC832784FDB5CF832744FDBDCB83C7FF
:10317400C1EE93F7F70FA5EBA38601EE054723866F
:10318400E1EED93E0D45593B8357E4FDA183C207C7
:10319400C18393F7F70F3E8551338357E4FD93F7CB
:1031A400F70F3E85A53B232604FE15A0032784FDC7
:1031B4008327C4FEB304F7001305F00F8533AA87F1
:1031C4002380F4008327C4FE85072326F4FE032707
:1031D400C4FE832744FDE36BF7FC613E238601EEC6
:1031E40021A0010011A00100B25022549254456163
:1031F4008280411122C60008B70705200D4798D3E5
:103204000100324441018280011122CE00102326A4
:10321400A4FE2324B4FE2322C4FE032744FE8547D0
:103224006318F7008327C4FE032784FED8D731A090
:103234008327C4FE032784FE98DB010072440561E2
:103244008280011122CE00102326A4FE2324B4FE82
:103254002322C4FE032744FE85476318F70083270F
:10326400C4FE032784FED8DB31A08327C4FE0327D2
:1032740084FE98DF0100724405618280011122CE30
:1032840000102326A4FE2324B4FE8327C4FE9843FF
:10329400832784FEF98F99C3854711A081473E8512
:1032A400724405618280011122CE00102326A4FEFF
:1032B4002324B4FE8327C4FE032784FE98C7010099
:1032C400724405618280011122CE00102326A4FEDF
:1032D4002324B4FE8327C4FE032784FED8C7010039
:1032E400724405618280011122CE00102326A4FEBF
:1032F4002324B4FE2322C4FE032744FE8547631817
:10330400F7008327C4FE032784FEF8CB31A083276C
:10331400C4FE032784FEB8CF010072440561828095
:10332400011122CE00102326A4FE2324B4FE8327F9
:10333400C4FE032784FEF8CF010072440561828035
:10334400011122CE00102326A4FE2324B4FE23223E
:10335400C4FE032744FE85476318F7008327C4FE91
:10336400032784FEF8C731A08327C4FE032784FE05
:10337400B8CB0100724405618280011122CE001095
:103384002326A4FE2324B4FE2322C4FE032744FEE2
:1033940085476318F7008327C4FE032784FEF8C318
:1033A40031A08327C4FE032784FEB8C701007244FA
:1033B40005618280011122CE00102326A4FE23245D
:1033C400B4FE2322C4FE032744FE85476318F70096
:1033D4008327C4FE032784FEB8D731A08327C4FE05
:1033E400032784FEF8D7010072440561828001112D
:1033F40022CE00102326A4FE2324B4FE2322C4FEDE
:10340400032744FE85476318F7008327C4FE032778
:1034140084FEB8DB31A08327C4FE032784FEF8DBD7
:103424000100724405618280011122CE001023261E
:10343400A4FE2324B4FE2322C4FE032744FE8547AE
:103444006318F7008327C4FE032784FEB8DF31A086
:103454008327C4FE032784FEF8DF0100724405615C
:103464008280011122CE00102326A4FE2324B4FE60
:103474002322C4FE032744FE85476318F7008327ED
:10348400C4FE032784FEB8D331A08327C4FE0327D8
:1034940084FEF8D30100724405618280011122CEBA
:1034A40000102326A4FE2324B4FE8327C4FE03278E
:1034B40084FE23A0E70801007244056182800111A3
:1034C40006CE22CC00102326A4FE2324B4FE0146FB
:1034D400832584FE0325C4FE053B832584FE032542
:1034E400C4FED5330146832584FE0325C4FE913BE7
:1034F4000146832584FE0325C4FEEF10304D0146AA
:10350400832584FE0325C4FEEF10704701468325FE
:1035140084FE0325C4FEEF1070430146832584FE18
:103524000325C4FE3D3F832584FE0325C4FEBD3729
:103534000146832584FE0325C4FE193501468325EF
:1035440084FE0325C4FE153D0100F240624405617A
:103554008280397106DE22DC80002326A4FC232429
:10356400B4FCB287A303F4FC832584FC0325C4FCC8
:10357400B937930784FD3E85EF10105D832784FCE3
:10358400232CF4FC8547232EF4FC232004FE232261
:1035940004FE232404FE232604FE930784FDBE8533
:1035A4000325C4FCEF10D051834774FC99C78325CD
:1035B40084FC0325C4FCC53931A0832584FC032580
:1035C400C4FC11330100F2506254216182803971CC
:1035D40006DE22DC80002326A4FC2324B4FC232260
:1035E400C4FC832584FC0325C4FCD13D930784FDDE
:1035F4003E85EF107055832784FC232CF4FC232E86
:1036040004FC232004FE232204FE232404FE832737
:1036140044FC2326F4FE930784FDBE850325C4FCE5
:10362400EF10104A0546832584FC0325C4FCB133FE
:1036340083C7E1EE89EB9305803E0325C4FCCD31BD
:1036440005472387E1EE0546832584FC0325C4FC56
:1036540059390546832584FC0325C4FCD531010072
:10366400F250625421618280011106CE22CC0010F6
:103674002326A4FE2324B4FE2322C4FE2320D4FE46
:10368400032644FE832584FE0325C4FE89370546AC
:10369400832584FE0325C4FE313B0146832584FE35
:1036A4000325C4FEA9330546832584FE0325C4FEF1
:1036B400A53B832584FE0325C4FECD33832704FE66
:1036C40085C3832584FE0325C4FE4D3EAA87B337F4
:1036D400F00093F7F70F3E87832704FE2380E7006B
:1036E4000546832584FE0325C4FEA53B0100F24064
:1036F400624405618280011122CE00102326A4FEBB
:10370400B7E700300327C4FE058B1377F70F058B4B
:10371400220783A6070B93F6F6EF558F23A8E70A33
:103724000100724405618280011122CE001023261B
:10373400A4FE2324B4FEB7070130DC430327C4FEF0
:1037440085463397E6001347F7FFB3F6E700832770
:10375400C4FE032784FE3317F700B7070130558FE3
:10376400D8C30100724405618280011122CE001089
:103774002326A4FE2324B4FEB7070130DC4F03271D
:10378400C4FE0A07BD463397E6001347F7FFB3F6B6
:10379400E7008327C4FE8A07032784FE3317F70054
:1037A400B7070130558FD8CF01007244056182807C
:1037B400011122CE00102326A4FE2324B4FE3706D2
:1037C4000130832784FE9D8B93F6F70F0327C4FEF5
:1037D400BA879207998F8A07B29713F7760083D630
:1037E4008705E19A558F239CE70401007244056123
:1037F4008280011122CE00102326A4FE2324B4FECD
:1038040037060130832784FE9D8B93F6F70F032739
:10381400C4FEBA879207998F8A07B29713F7760086
:103824001316970003D78705BA867D771307F71F0A
:10383400758FBA863287558F239CE7040100724442
:1038440005618280011122CE00102326A4FE2324C8
:10385400B4FE37060130832784FE858B93F6F70F79
:103864000327C4FEBA879207998F8A07B29713F782
:103874001600220783D6870593F6F6EF558F239C0F
:10388400E7040100724405618280011122CE001018
:103894002326A4FE2324B4FE37060130832784FEA6
:1038A4009D8B93F6F70F0327C4FEBA879207998F6F
:1038B4008A07B29713F77600220783D6070693F692
:1038C400F68F558F2390E7060100724405618280CC
:1038D400011122CE00102326A4FE2324B4FE3706B1
:1038E4000130832784FE858B93F6F70F0327C4FEEC
:1038F400BA879207998F8A07B29713F7160083D66F
:103904000706F99A558F2390E70601007244056172
:103914008280011122CE00102326A4FE2324B4FEAB
:1039240037060130832784FE93F6F70F0327C4FE7E
:10393400BA879207998F8A07B2972382D706010024
:10394400724405618280011122CE00102326A4FE58
:103954002324B4FE37060130832784FE858B93F637
:10396400F70F0327C4FEBA879207998F8A07B29785
:1039740013F716002207F45393F6F6EF558FF8D396
:103984000100724405618280011122CE00102326B9
:10399400A4FE2324B4FE2322C4FEB7060130032769
:1039A400C4FEBA879207998F8A07B697FC570327F4
:1039B40084FE85463397E6001347F7FF7D8F832700
:1039C40084FE832644FEB397F60037060130B366BF
:1039D400F7000327C4FEBA879207998F8A07B29724
:1039E400F4D70100724405618280011122CE0010D7
:1039F4002326A4FE2324B4FE37060130032784FEC5
:103A0400B7070001FD17B376F7000327C4FEBA8792
:103A14009207998F8A07B297370700017D17758F30
:103A2400B05BB70600FFF18E558FB8DB010072441E
:103A340005618280011122CE00102326A4FE2324D6
:103A4400B4FE37060130832784FE858B93F6F70F87
:103A54000327C4FEBA878607BA978A07B29713F773
:103A64001600320703A60740FD76FD16F18E558F2A
:103A740023A0E7400100724405618280011122CE37
:103A840000102326A4FE2324B4FE37060130832726
:103A940084FE858B93F6F70F0327C4FEBA87860747
:103AA400BA978A07B29713F71600620703A607406E
:103AB400B70600FFFD16F18E558F23A0E7400100E5
:103AC400724405618280011122CE00102326A4FED7
:103AD4002324B4FE37060130832784FE9D8B93F69E
:103AE400F70F0327C4FEBA878607BA978A07B297E7
:103AF40013F77600420703A60740B706F9FFFD1641
:103B0400F18E558F23A0E740010072440561828045
:103B1400011122CE00102326A4FE2324B4FE232266
:103B2400C4FEB70601300327C4FEBA878607BA97D6
:103B34008A07B69703A70740FD779387F70F7D8F12
:103B4400832784FE93968700832744FEAA07D58F94
:103B540037060130B366F7000327C4FEBA87860729
:103B6400BA978A07B29723A0D7400100724405612F
:103B74008280011122CE00102326A4FE2324B4FE49
:103B840037060130832784FE3E878567FD17F98F4A
:103B940093960701C1820327C4FEBA878607BA97A2
:103BA4008A07B29705677D17758F03A64740FD7690
:103BB400F18E558F23A2E740010072440561828093
:103BC400011122CE00102326A4FE2324B4FE3706BE
:103BD4000130832784FE3E878567FD17F98F93960E
:103BE4000701C1820327C4FEBA878607BA978A07EA
:103BF400B29705677D17758F420703A64740B7063E
:103C040001F0FD16F18E558F23A2E74001007244A6
:103C140005618280797122D60018232EA4FC232CFE
:103C2400B4FC232AC4FC832784FD8A072326F4FEDC
:103C3400B70601300327C4FDBA879207998F8A0714
:103C4400B697BC430327C4FEBD463397E60013472B
:103C5400F7FF7D8F8327C4FE832644FDB397F600C8
:103C640037060130B366F7000327C4FDBA8792070D
:103C7400998F8A07B297B4C3010032544561828098
:103C8400411106C622C400080145B5340545A534D2
:103C94000100B240224441018280797106D622D4C7
:103CA4000018232EA4FC232CB4FC832784FD9C43FE
:103CB400BE850325C4FD553C832784FDDC43BE85B6
:103CC4000325C4FD9534232604FE1DA0032784FD8B
:103CD4008327C4FE8A07BA979C473E868325C4FE81
:103CE4000325C4FD053F8327C4FE85072326F4FE70
:103CF4000327C4FE9D47E3FBE7FC832784FD9C5711
:103D0400BE850325C4FD6D34832784FDDC57BE8541
:103D14000325C4FDF93C832784FD9C5BBE850325F4
:103D2400C4FD0D36832784FDDC5BBE850325C4FDFD
:103D3400CD36832784FD9C5FBE850325C4FD2131D8
:103D4400832784FDDC5FBE850325C4FD79392324E4
:103D540004FE25A0032784FD832784FEC1078A0768
:103D6400BA979C433E86832584FE0325C4FD2939E6
:103D7400832784FE85072324F4FE032784FE9D47BE
:103D8400E3FAE7FC832784FDBC53BE850325C4FD09
:103D9400ED3C832784FDFC53BE850325C4FD0D3E05
:103DA4000100B250225445618280797122D60018F4
:103DB400232EA4FC8327C4FD23A007008327C4FD6E
:103DC40023A20700232604FE31A80327C4FD83276A
:103DD400C4FE8A07BA9723A407008327C4FE850775
:103DE4002326F4FE0327C4FE9D47E3F0E7FE832762
:103DF400C4FD23A407028327C4FD0547D8D783271E
:103E0400C4FD23A807028327C4FD23AA070283272E
:103E1400C4FD23AC07028327C4FD23AE0702232479
:103E240004FE39A80327C4FD832784FEC1078A073B
:103E3400BA9723A00700832784FE85072324F4FE72
:103E4400032784FE9D47E3FFE7FC8327C4FD054762
:103E5400B8D38327C4FD23A2070601003254456169
:103E64008280011106CE22CC00102326A4FE232436
:103E7400B4FE832784FE9C43BE850325C4FE5D3EB9
:103E8400832784FEDC43BE850325C4FEDD318327FE
:103E940084FE9C47BE850325C4FE1D33832784FE10
:103EA400DC47BE850325C4FED13E832784FE9C4B9C
:103EB400BE850325C4FE0139832784FED84B83279E
:103EC40084FE9C4F3E86BA850325C4FE91310100D1
:103ED400F240624405618280011122CE0010232643
:103EE400A4FE8327C4FE23A007008327C4FE23A2C5
:103EF40007008327C4FE23A407008327C4FE23A648
:103F040007008327C4FE23A807008327C4FE23AA2F
:103F140007008327C4FE23AC070001007244056137
:103F24008280011122CE00102326A4FEB7E70030C0
:103F34000327C4FE058B1377F70F058B220783A68F
:103F4400470B93F6F6EF558F23AAE70A0100724454
:103F540005618280011122CE00102326A4FEB7271A
:103F640001309843B707F9FFFD17B376F7008327AD
:103F7400C4FE13970701B7270130558F98C301007A
:103F8400724405618280011122CE00102326A4FE12
:103F9400B72701309843E577FD17B376F7008327F9
:103FA400C4FE1397C700B7270130558F98C301008B
:103FB400724405618280011122CE00102326A4FEE2
:103FC400B72701309C4393F6F7CF8327C4FE13979A
:103FD4008700B7270130558F98C3010072440561EB
:103FE4008280011122CE00102326A4FE2324B4FED5
:103FF400B7270130D8438327C4FE8A078D46B39779
:10400400F60093C7F7FFB376F7008327C4FE8A0749
:10401400032784FE3317F700B7270130558FD8C321
:104024000100724405618280011122CE0010232612
:10403400A4FE2324B4FEB727013098478327C4FE87
:104044008A079D46B397F60093C7F7FFB376F70048
:104054008327C4FE8A07032784FE3317F700B72794
:104064000130558F98C70100724405618280411167
:1040740006C622C4000801456D3505455D350100BD
:10408400B240224441018280011106CE22CC0010AC
:104094002326A4FE8327C4FE9C433E85653D8327D7
:1040A400C4FEDC433E85C5358327C4FE9C473E855C
:1040B40019370100F240624405618280011122CE69
:1040C40000102326A4FE8327C4FE23A2070083270F
:1040D400C4FE23A407008327C4FE23A00700010015
:1040E400724405618280011106CE22CC0010232681
:1040F400A4FE2324B4FE832784FE9C43BE850325AB
:10410400C4FEC535832784FEDC43BE850325C4FE77
:10411400213F0100F240624405618280011122CEF8
:1041240000102326A4FE8327C4FE23A207008327AE
:10413400C4FE054798C301007244056182800111E1
:1041440022CE00102326A4FE2324B4FEB7E70030B9
:10415400984B8327C4FE93C7F7FFB376F7008327F2
:1041640084FE81C78327C4FE11A0814737E700304E
:10417400D58F1CCB0100724405618280011122CECF
:1041840000102326A4FE2324B4FE8327C4FE9C47E8
:1041940013F7E7FF832784FE5D8F8327C4FE98C748
:1041A4000100724405618280011122CE0010232691
:1041B400A4FE2324B4FE8327C4FE9C4713F7D7FF31
:1041C400832784FE86075D8F8327C4FE98C701007A
:1041D400724405618280011122CE00102326A4FEC0
:1041E4002324B4FE8327C4FE9C4713F7B7FF832719
:1041F40084FE8A075D8F8327C4FE98C7010072443A
:1042040005618280011122CE00102326A4FE2324FE
:10421400B4FE8327C4FE9C4713F777FE832784FEEE
:104224008E075D8F8327C4FE98C701007244056121
:104234008280011122CE00102326A4FE2324B4FE82
:104244008327C4FE9C4713F7F7F9832784FE960758
:104254005D8F8327C4FE98C7010072440561828084
:10426400011122CE00102326A4FE2324B4FE8327AA
:10427400C4FE9C4713F7F7F7832784FE9E075D8FE0
:104284008327C4FE98C7010072440561828001112E
:1042940022CE00102326A4FE2324B4FE8327C4FECA
:1042A400032784FED8C7010072440561828001118E
:1042B40022CE00102326A4FE2324B4FE8327C4FEAA
:1042C400032784FE98CB01007244056182807971D2
:1042D40006D622D40018232EA4FC85450325C4FD4C
:1042E400713D81450325C4FD513D0327C4FDB70736
:1042F40003206314F700856711A089672326F4FE61
:1043040081450325C4FE253D85450325C4FE053DA1
:104314000100B250225445618280011106CE22CCA4
:1043240000102326A4FE2324B4FE832784FE9C438A
:10433400BE850325C4FEA13F832784FEDC43BE85DE
:104344000325C4FEFD35832784FE9C47BE850325D3
:10435400C4FE3937832784FEDC47BE850325C4FEAB
:10436400A135832784FE9C4BBE850325C4FEA53559
:10437400832784FEDC4BBE850325C4FE6135832779
:1043840084FE9C4FBE850325C4FE15370100F24010
:10439400624405618280011122CE00102326A4FE0E
:1043A4008327C4FE23A007008327C4FE23A207009B
:1043B4008327C4FE23A407008327C4FE23A6070083
:1043C4008327C4FE23A807008327C4FE23AA07006B
:1043D4008327C4FE3727C104130777DB98CF010076
:1043E400724405618280011122CE00102326A4FEAE
:1043F4002324B4FEB7E70030984B8327C4FE93C749
:10440400F7FFB376F700832784FE81C78327C4FEB2
:1044140011A0814737E70030D58F1CCB01007244CF
:1044240005618280011122CE00102326A4FEB70765
:104434000220FC4393F6E7FFB70702200327C4FEDC
:10444400558FF8C30100724405618280011122CEA8
:1044540000102326A4FEB7070220FC4393F6B7FFFF
:104464008327C4FE13972700B7070220558FF8C38C
:104474000100724405618280011122CE00102326BE
:10448400A4FEB7070220FC4393F677FE8327C4FEFD
:1044940013973700B7070220558FF8C30100724401
:1044A40005618280011122CE00102326A4FEB707E5
:1044B4000220FC4393F6F7F98327C4FE13975700B1
:1044C400B7070220558FF8C301007244056182804A
:1044D400011122CE00102326A4FEB7070220FC43BC
:1044E40093F6F7EF8327C4FE13978700B7070220DC
:1044F400558FF8C30100724405618280011122CEF8
:1045040000102326A4FE2324B4FE370702208327A9
:10451400C4FEA1078A07BA97032784FE98C3010043
:10452400724405618280011122CE00102326A4FE6C
:10453400B70702200327C4FEB8C70100724405610F
:104544008280411122C60008B7070220F847B70746
:10455400022013671700F8C701003244410182802A
:10456400011122CE00102326A4FEB7070220FC4727
:1045740093F6D7FF8327C4FE13971700B7070220CB
:10458400558FF8C70100724405618280011122CE63
:1045940000102326A4FEB7070220FC4793F6B7FFBA
:1045A4008327C4FE13972700B7070220558FF8C747
:1045B4000100724405618280411106C622C40008CC
:1045C400814511450D3585451145313D0100B24008
:1045D400224441018280011106CE22CC0010232600
:1045E400A4FE8327C4FE9C433E858D358327C4FEE9
:1045F400DC433E8551358327C4FE9C473E855D35AB
:104604008327C4FEDC473E85E1358327C4FE9C4BEB
:104614003E85093D0100F24062440561828001113A
:1046240022CE00102326A4FE8327C4FE23A0070065
:104634008327C4FE0547D8C38327C4FE0D4798C704
:104644008327C4FE0547D8C78327C4FE054798CBF4
:104654008327C4FE23AA07000100724405618280F7
:10466400011122CE00102326A4FE2324B4FE8327A6
:10467400C4FE23A007008327C4FE23A207008327C8
:10468400C4FE032784FED8CB8327C4FE054798C7FE
:104694008327C4FE23A607008327C4FE23A807009C
:1046A4008327C4FE23AE07008327C4FE23A007028A
:1046B4008327C4FEDC5323A607008327C4FE23A25A
:1046C40007020100724405618280011106CE22CCEA
:1046D40000102326A4FE8327C4FEDC4B984B8327BB
:1046E400C4FEDC53058B1377F70F058B9443F99ABB
:1046F400558F98C38327C4FE98478327C4FEDC5391
:10470400058B1377F70F058B06079443F59A558F9E
:1047140098C38327C4FEDC4B98438327C4FEDC5331
:10472400058B1377F70F058B0A079443ED9A558F82
:1047340098C38327C4FEDC4BD8438327C4FEDC53D1
:104744000D8B1377F70F0D8B0E0794439D9A558F9E
:1047540098C38327C4FEDC4B98478327C4FEDC53ED
:104764000D8B1377F70F0D8B1607944393F6F6F919
:10477400558F98C38327C4FEDC4BD84B8327C4FED4
:10478400DC530D8B1377F70F0D8B36079043E976C7
:10479400FD16F18E558F98C38327C4FED84783270F
:1047A400C4FEDC53058B1377F70F058B3E0790434C
:1047B400E176FD16F18E558F98C38327C4FE984B7E
:1047C4008327C4FEDC53BA8605677D17758F93165D
:1047D4000701C18205677D17758F42079043B706AD
:1047E40001F0FD16F18E558F98C38327C4FED84F70
:1047F4008327C4FEDC53D8C38327C4FE985383277E
:10480400C4FEDC5398C78327C4FE9C4781EB8327EF
:10481400C4FE9C4F3E85553D2A8711A0014783273E
:10482400C4FEDC53D8C78327C4FEDC533E85F24064
:10483400624405618280011106CE22CC0010232639
:10484400A4FE8327C4FE9C433E85193B8327C4FEF4
:10485400DC433E85253B0325C4FE853DAA873E8572
:10486400D931C5310100F240624405618280797119
:1048740006D622D40018232EA4FC232CB4FC232611
:1048840004FE0DA00327C4FE930717002326F4FE9D
:104894008327C4FD93864700232ED4FC9C43BE8506
:1048A4003A85A9390327C4FE832784FDE36CF7FC0A
:1048B40001000100B250225445618280011122CED0
:1048C40000102326A4FEB7C70030DC4393F687FF0D
:1048D4008327C4FE98438327C4FEDC4386075D8F89
:1048E4008327C4FE9C478A075D8FB7C70030558F66
:1048F400D8C30100724405618280011122CE0010E8
:104904002326A4FE2324B4FE032784FE85476318CC
:10491400F700B7C700300327C4FE98CF31A0B7C74C
:1049240000300327C4FED8CF0100724405618280A1
:10493400011122CE00102326A4FE2324B4FE032753
:1049440084FE85476318F700B7C700300327C4FE09
:1049540098D331A0B7C700300327C4FED8D30100D1
:10496400724405618280011122CE00102326A4FE28
:104974002324B4FE032784FE85476318F700B7C7D2
:1049840000300327C4FE98D731A0B7C700300327EF
:10499400C4FED8D70100724405618280011122CE81
:1049A40000102326A4FE2324B4FE032784FE854797
:1049B4006318F700B7C700300327C4FE98DB31A0A3
:1049C400B7C700300327C4FED8DB01007244056179
:1049D4008280011122CE00102326A4FE2324B4FEDB
:1049E400032784FE85476318F700B7C70030032701
:1049F400C4FE98DF31A0B7C700300327C4FED8DF58
:104A04000100724405618280011122CE0010232628
:104A1400A4FE8327C4FE23A007008327C4FE23A289
:104A240007008327C4FE23A4070001007244056124
:104A34008280011122CE00102326A4FE2324B4FE7A
:104A4400832784FE9C433E878327C4FE98C3832721
:104A540084FE9C5B8D8B13F7F70F8327C4FE0D8BAD
:104A640046079047B706FAFFFD16F18E558F98C793
:104A7400832784FE9C5F8D8B13F7F70F8327C4FE77
:104A84000D8B3E079047A176FD16F18E558F98C782
:104A9400832784FEDC4F858B13F7F70F8327C4FE2F
:104AA400058B6E079047B70600F8FD16F18E558FFB
:104AB40098C7832784FE9C4F858B13F7F70F8327B2
:104AC400C4FE058B6A079047B70600FCFD16F18EFD
:104AD400558F98C7832784FE9C53858B13F7F70F54
:104AE4008327C4FE058B72079047B70600F0FD16B6
:104AF400F18E558F98C7832784FEDC433E87832736
:104B0400C4FED8C3832784FEDC5B8D8B13F7F70FB9
:104B14008327C4FE0D8B56079047B706A0FFFD16EA
:104B2400F18E558F98C7832784FEDC5F8D8B13F736
:104B3400F70F8327C4FE0D8B4E079047B706E8FF97
:104B4400FD16F18E558F98C7832784FE9C57858B5D
:104B540013F7F70F8327C4FE058B62079047B70648
:104B640000FFFD16F18E558F98C7832784FEDC5312
:104B7400858B13F7F70F8327C4FE058B5E079047D9
:104B8400B70680FFFD16F18E558F98C7832784FEE4
:104B9400DC57858B13F7F70F8327C4FE058B660755
:104BA4009047B70600FEFD16F18E558F98C78327F0
:104BB40084FEDC47858B13F7F70F8327C4FE058B30
:104BC4009447F99A558F98C7832784FEDC4BBD8B95
:104BD40013F7F70F8327C4FE3D8B06079447859A86
:104BE400558F98C7832784FE9C4BC207C183FD174A
:104BF400C207C18393F7F73F1397070141838327C4
:104C0400C4FE1377F73F16079047E176FD06F18E51
:104C1400558F98C7832784FE9C479D8B13F7F70F06
:104C24008327C4FE76079047B7060020FD16F18E51
:104C3400558F98C70100724405618280011122CE0C
:104C440000102326A4FE8327C4FE23A00700832785
:104C5400C4FE23A807028327C4FE0D4798DF8327D9
:104C6400C4FE23AE07008327C4FE23AC07008327BA
:104C7400C4FE23A007028327C4FE23A207008327C0
:104C8400C4FE23AA07028327C4FE0D47D8DF832767
:104C9400C4FE23A407028327C4FE23A2070283279A
:104CA400C4FE23A607028327C4FE23A60700832786
:104CB400C4FE23AA07008327C4FE054798CB832795
:104CC400C4FE23A4070001007244056182804111DF
:104CD40022C60008B7C7003023A20700B7C70030B8
:104CE40023A40700B7C70030370700017D17D8D7C2
:104CF400B7C70030370700017D17D8DFB7C70030CA
:104D0400370700017D17D8DBB7C70030370700012C
:104D14007D17D8D3B7C70030370700017D17D8CF28
:104D24000100324441018280011106CE22CC0010E0
:104D34002326A4FE8327C4FE91073E85413683279C
:104D4400C4FE98438327C4FE9C4BBE853A857536C2
:104D54008327C4FE98438327C4FE9C4FBE853A85AF
:104D640035398327C4FE98438327C4FEDC4FBE85B0
:104D74003A8585318327C4FE98438327C4FEDC4BE0
:104D8400BE853A8575368327C4FE98438327C4FEBF
:104D94009C53BE853A85C13E0100F24062440561E0
:104DA4008280011122CE00102326A4FE8327C4FE94
:104DB400370700017D1798C38327C4FE23A0070289
:104DC4008327C4FE23AE07008327C4FE23AC070059
:104DD4008327C4FE23AA07008327C4FE23A8070051
:104DE4008327C4FE23A407008327C4FE23A6070049
:104DF4008327C4FE23A20700010072440561828058
:104E0400411122C6000801000100324441018280A0
:104E1400011122CE00102326A4FEB7D700300327A9
:104E2400C4FE98C30100724405618280011122CE40
:104E340000102326A4FE2324B4FE37D70030832792
:104E4400C4FE8A07BA97032784FED8C301007244BC
:104E540005618280011122CE00102326A4FE37D7DB
:104E640000308327C4FE8A07BA97DC433E85724428
:104E740005618280011122CE00102326A4FE232482
:104E8400B4FE032784FE8327C4FEB366F700B7D7B6
:104E940000303707DEC0558FF8C301007244056146
:104EA4008280411122C60008B7D70030BC47858BE9
:104EB4003E85324441018280797106D622D426D2BD
:104EC4000018232EA4FC232CB4FC232AC4FC0325A1
:104ED400C4FD3D3F832544FD0545693F15370D3726
:104EE4000537393F313F01006D3FAA87F5FF23267F
:104EF40004FE15A08327C4FE8A07032784FDB30498
:104F0400F7000325C4FEB937AA879CC08327C4FED3
:104F140085072326F4FE0327C4FEBD47E3FCE7FC14
:104F240001000100B250225492544561828079718B
:104F340006D622D40018232EA4FC232CB4FC232A46
:104F4400C4FC0325C4FDE935232604FE0DA08327F4
:104F5400C4FE8A07032784FDBA979C43BE850325B4
:104F6400C4FEE9358327C4FE85072326F4FE032700
:104F7400C4FEBD47E3FDE7FC832544FD0945DD3D53
:104F84004135BD3DB53DAD3DA53D0100193FAA8765
:104F9400F5FF01000100B2502254456182800111E5
:104FA40006CE22CC00102326A4FE2324B4FE03251F
:104FB400C4FEB93D832584FE11456D3D9135893587
:104FC40081353D3D353D0100E93DAA87F5FF0100EE
:104FD4000100F240624405618280011106CE22CCB8
:104FE40000102326A4FE8325C4FE31456135093D06
:104FF400013D39353135293501006535AA87F5FF7D
:1050040001000100F240624405618280011122CE58
:1050140000102326A4FE2324B4FEB7E70030984BE7
:105024008327C4FE93C7F7FFB376F700832784FE74
:1050340081C78327C4FE11A0814737E70030D58F8D
:105044001CCB0100724405618280011122CE001044
:105054002326A4FE2324B4FE2322C4FE032744FEF5
:1050640085476318F7008327C4FE032784FED8D737
:1050740031A08327C4FE032784FE98DB0100724419
:1050840005618280011122CE00102326A4FE232470
:10509400B4FE2322C4FE032744FE85476318F700A9
:1050A4008327C4FE032784FED8DB31A08327C4FEF4
:1050B400032784FE98DF01007244056182807971C0
:1050C40022D60018232EA4FC232CB4FC232AC4FCCF
:1050D4008327C4FD9C432326F4FE232404FE89A8CD
:1050E400832784FE0547B317F7003E87832784FD93
:1050F400F98F95CB832784FE86070D47B317F700F6
:1051040093C7F7FF0327C4FEF98F2326F4FE8327F2
:1051140084FE8607032744FDB317F7000327C4FE64
:10512400D98F2326F4FE832784FE85072324F4FEE7
:10513400032784FEBD47E3F5E7FA8327C4FD03276D
:10514400C4FE98C30100325445618280011106CE29
:1051540022CC00102326A4FE2324B4FE2322C4FE62
:105164008327C4FE93874702032644FE832584FED7
:105174003E85B1370100F24062440561828001112D
:1051840022CE00102326A4FE2324B4FE2322C4FE30
:10519400032744FE8547631CF7008327C4FE985306
:1051A400832784FE5D8F8327C4FE98D321A8832799
:1051B400C4FE9853832784FE93C7F7FF7D8F83270C
:1051C400C4FE98D30100724405618280797122D6AD
:1051D4000018232EA4FC232CB4FC232AC4FC83270C
:1051E400C4FDDC5F2326F4FE232404FE89A8832760
:1051F40084FE0547B317F7003E87832784FDF98FA4
:1052040095CB832784FE86070D47B317F70093C712
:10521400F7FF0327C4FEF98F2326F4FE832784FEB9
:105224008607032744FDB317F7000327C4FED98F6D
:105234002326F4FE832784FE85072324F4FE032714
:1052440084FEBD47E3F5E7FA8327C4FD0327C4FEC4
:10525400D8DF0100325445618280797106D622D4A8
:105264000018232EA4FC0327C4FDB70700286317E6
:10527400F700930700102326F4FE35A00327C4FD8E
:10528400B71700286317F700930700202326F4FEBE
:1052940019A80327C4FDB72700286316F70093074E
:1052A40000402326F4FE81450325C4FE853385454D
:1052B4000325C4FEA13B0100B25022544561828003
:1052C400011106CE22CC00102326A4FE2324B4FE12
:1052D400832784FE9843832784FEDC433E86BA8575
:1052E4000325C4FE9D33832784FE9843832784FECD
:1052F400DC473E86BA850325C4FEC93D832784FE68
:105304009843832784FE9C473E86BA850325C4FEC2
:10531400953B832784FE9843832784FE9C4B3E86DB
:10532400BA850325C4FE1D35832784FE984383274D
:1053340084FEDC4B3E86BA850325C4FE8935010014
:10534400F240624405618280011122CE00102326BE
:10535400A4FE8327C4FE41677D1798C38327C4FE38
:1053640023A207008327C4FE23A607008327C4FEC5
:1053740023A407008327C4FE23A807008327C4FEB1
:1053840023AA07000100724405618280011122CE24
:1053940000102326A4FE2324B4FEB7E7003098436C
:1053A4008327C4FE93C7F7FFB376F700832784FEF1
:1053B40081C78327C4FE11A0814737E70030D58F0A
:1053C4001CC30100724405618280011122CE0010C9
:1053D4002326A4FE2324B4FEB7E70030984B83278A
:1053E400C4FE93C7F7FFB376F700832784FE81C713
:1053F4008327C4FE11A0814737E70030D58F1CCB2B
:105404000100724405618280011122CE001023261E
:10541400A4FEB72703209C4393F6E7FFB727032096
:105424000327C4FE558F98C301007244056182802E
:10543400011122CE00102326A4FEB72703209C438B
:1054440093F6D7FF8327C4FE13971700B7270320CB
:10545400558F98C30100724405618280011122CEE8
:1054640000102326A4FEB72703209C4393F6B7FF1E
:105474008327C4FE13972700B7270320558F98C3AB
:105484000100724405618280011122CE001023269E
:10549400A4FEB72703209C4393F677FF8327C4FE1B
:1054A40013973700B7270320558F98C30100724420
:1054B40005618280011122CE00102326A4FEB727A5
:1054C40003209C4393F6F7FC8327C4FE13974700FD
:1054D400B7270320558F98C3010072440561828069
:1054E400011122CE00102326A4FEB72703209C43DB
:1054F40093F6F7FB8327C4FE13976700B7270320AF
:10550400558F98C30100724405618280011122CE37
:1055140000102326A4FEB72703209C4393F6F7F735
:105524008327C4FE13977700B7270320558F98C3AA
:105534000100724405618280011122CE00102326ED
:10554400A4FEB72703209843D177FD17B376F7005D
:105554008327C4FE1397E700B7270320558F98C30A
:105564000100724405618280411122C60008B727F8
:1055740003209C43B9838D8B3E8532444101828054
:10558400011122CE00102326A4FEB72703200327EF
:10559400C4FED8C30100724405618280011122CE89
:1055A40000102326A4FE372703208327C4FEC10747
:1055B4008A07BA979C433E85724405618280011133
:1055C40006CE22CC00102326A4FE793FAA870D47DD
:1055D4006386E7020D476365F7020947638EE700B8
:1055E4000947636FF70089C705476385E70009A882
:1055F400954701A8914731A09D4721A0A14711A03B
:1056040081473E85F240624405618280797106D605
:1056140022D426D20018232EA4FC232604FE2324FD
:1056240004FE9937AA873E85593F2324A4FE832785
:1056340084FE2326F4FE15A08327C4FEFD1723262B
:10564400F4FE8327C4FE8A070327C4FDB304F700CE
:105654000325C4FEA137AA879CC08327C4FEE9FFA3
:10566400832784FE3E85B250225492544561828041
:10567400797106D622D40018232EA4FC232CB4FC62
:10568400232604FE39A88327C4FE8A070327C4FD02
:10569400BA979C433E85ED358327C4FE85072326B0
:1056A400F4FE0327C4FE832784FDE36EF7FC0100A8
:1056B4000100B250225445618280411106C622C4C1
:1056C4000008014591338145214501338545214534
:1056D400ED390100B240224441018280011106CE1D
:1056E40022CC00102326A4FE85452145453185455D
:1056F4002145E1398327C4FE9C4B3E85D53383275E
:10570400C4FEDC433E85993B8327C4FEDC4B3E85C7
:10571400F53B8327C4FE9C4F3E85393D8327C4FE59
:10572400DC473E85413B8327C4FE9C433E850933C9
:105734008327C4FE9C473E85813B0545F13101002A
:10574400F240624405618280011122CE00102326BA
:10575400A4FE8327C4FE23A807008327C4FE23A234
:1057640007008327C4FE23AA07008327C4FE23ACB3
:1057740007008327C4FE23A607008327C4FE23A0B3
:1057840007008327C4FE23A40700010072440561B7
:105794008280011122CE00102326A4FEB7570030C8
:1057A4000327C4FE1377F7071377F70F060783C69B
:1057B4004701858A558F238AE700010072440561F9
:1057C4008280011122CE00102326A4FEB757003098
:1057D4000327C4FE1377F70F2380E7020100724406
:1057E40005618280011122CE00102326A4FEB75742
:1057F40000300327C4FE3D8B1377F70F120783C6CF
:10580400C701BD8A558F238EE700010072440561EC
:105814008280011122CE00102326A4FEB757003047
:105824000327C4FE1377F70F2382E70201007244B3
:1058340005618280797106D622D40018232EA4FC37
:10584400232CB4FC8327C4FD8A07032784FDB357A4
:10585400F7022326F4FE8327C4FE93F7F7073E8559
:105864000D3F8327C4FE9D833E85A13F0100B250B6
:10587400225445618280797106D622D40018232EE1
:10588400A4FC232CB4FC0327C4FDBA878607BA976B
:10589400032784FDB357F7022326F4FE8327C4FEAF
:1058A400BD8B3E8581378327C4FE91833E85953722
:1058B4000100B250225445618280011122CE0010B1
:1058C4002326A4FE2324B4FEB7E70030984B832795
:1058D400C4FE93C7F7FFB376F700832784FE81C71E
:1058E4008327C4FE11A0814737E70030D58F1CCB36
:1058F4000100724405618280011122CE001023262A
:10590400A4FEB70704200327C4FE1D8B1377F70FEB
:105914001D8B4207D043B706F9FFFD16F18E558F54
:10592400D8C30100724405618280011122CE0010A7
:105934002326A4FEB70704200327C4FE1377F70F1A
:10594400A382E7000100724405618280011122CE26
:1059540000102326A4FEB70704200327C4FE1377F0
:10596400F7031377F70F1377F70383D6C70093F67C
:1059740006FC558F2396E70001007244056182807E
:10598400011122CE00102326A4FEB707042003270A
:10599400C4FE058B1377F70F058B1E0783D6C7004C
:1059A40093F6F6F7558F2396E700010072440561DC
:1059B4008280011122CE00102326A4FEB707042002
:1059C4000327C4FE058B1377F70F058B220783D6B5
:1059D400C70093F6F6EF558F2396E7000100724453
:1059E40005618280011122CE00102326A4FEB70790
:1059F40004200327C4FE058B1377F70F058B2607B6
:105A040083D6C70093F6F6DF558F2396E70001008F
:105A1400724405618280011122CE00102326A4FE67
:105A2400B70704200327C4FE0D8B1377F70F0D8BE4
:105A34001316A70003D7C700BA867D771307F73F6D
:105A4400758FBA863287558F2396E700010072441A
:105A540005618280011122CE0010AA87A307F4FEFB
:105A6400B70704200347F4FE238CE70001007244C7
:105A740005618280011122CE00102326A4FEB707FF
:105A840004200327C4FE0D8B1377F70F0D8B220719
:105A9400944F93F6F6CF558F98CF01007244056169
:105AA4008280011122CE00102326A4FEB707042011
:105AB4000327C4FE0D8B1377F70F0D8B2A07904F26
:105AC400FD769386F63FF18E558F98CF0100724490
:105AD40005618280011122CE00102326A4FEB7079F
:105AE40004200327C4FE0D8B1377F70F0D8B3207A9
