:0200000480007A
:1000000073100030B714013823A40400B701004076
:1000100093810178B70200809382021C7390523062
:1000200073104030731040347325103013758502FF
:100030006308050037250000732005307310300079
:10004000732540F1631405043701044013010100D6
:100050001302010073100134B70200809382E20B97
:10006000E7800200B70200809382420AE780020024
:100070001305000093050000B72200809382026CF4
:10008000B70000809380C0096780020073F00730DA
:1000900073104030730050106FF0DFFF130000004A
:1000A0006FF0DFFE6780000000000000000000002D
:1000B000411122C600080100324441018280011131
:1000C00006CE22CC0010138781F7938781E1B30716
:1000D000F7403E868145138581E1EF9020741387B8
:1000E00081E193870189B307F7403E86B7A7008077
:1000F0009385C72013850189EF90E0701387C1882D
:1001000093870188B307F7403E86B7A700809385A1
:10011000072013850188EF90006F1387018893876C
:100120000188B307F7403E86B7A700809385C7BD17
:1001300013850188EF90206D1387018893870188CC
:10014000B307F7403E86B7A700809385C7BD1385E8
:100150000188EF90406B232604FE39A88327C4FE54
:100160001397270093870188BA979C438297832728
:10017000C4FE85072326F4FE138701889387018830
:10018000B307F74089830327C4FEE369F7FC010046
:100190000100F2406244056182800000000000001E
:1001C000232E51FE93020100130101F8137101FF68
:1001D000232211002324510083A2C2FF23263100D1
:1001E00023284100232A5100232C6100232E710073
:1001F00023208102232291022324A1022326B1027B
:100200002328C102232AD102232CE102232EF1024A
:10021000232001052322110523242105232631054E
:1002200023284105232A5105232C6105232E71051E
:1002300023208107232291072324A1072326B10726
:100240002328C107232AD107232CE107232EF107F6
:100250007322003473231034232061007324003090
:1002600073252034F325103413060100B701004034
:1002700093810178B71200809382E29CE7800200AC
:100280007310043003230100731013348321C10061
:100290000322010183224101032381018323C10140
:1002A0000324010283244102032581028325C10224
:1002B0000326010383264103032781038327C10308
:1002C0000328010483284104032981048329C104EC
:1002D000032A0105832A4105032B8105832BC105D0
:1002E000032C0106832C4106032D8106832DC106B4
:1002F000032E0107832E4107032F8107832FC10798
:1003000083204100032181007300203000000000A1
:1003100000000000000000000000000000000000DD
:1003200000000000000000000000000000000000CD
:1003300000000000000000000000000000000000BD
:0403400000000000B9
:10034400411122C60008B7E7003003D7070013673E
:1003540007102390E700B7E7003003D707011367BE
:1003640007102398E700B70700283D67D8D7B707D9
:1003740000283D6798C70100324441018280011181
:1003840022CE00102326A4FEB70700280327C4FEAC
:1003940098CB0100724405618280011122CE0010C5
:1003A4002326A4FEB70700280327C4FED8C70100EC
:1003B400724405618280011122CE00102326A4FE1E
:1003C400B70700280327C4FE98C7010072440561DB
:1003D4008280411106C622C40008B7E7003003D763
:1003E4000700136707102390E700B7E7003003D72F
:1003F4000701136707102398E700B707002805676C
:100404001307078098DBB7070028056713070780E1
:10041400B8D7B7070028056713070780B8DBB70705
:100424000028056713070780B8D3B7070080138631
:10043400074795450145E1248545154539269545E8
:1004440001450D2E0100B240224441018280411138
:1004540022C6000883A7C1E289C723A601E2854713
:1004640011A081473E85324441018280411122C658
:100474000008B707002805671307078023A0E708CB
:10048400054723A6E1E201003244410182807971EB
:1004940006D622D44AD24ED00018232CA4FC232EF4
:1004A400B4FCAD20032684FD8326C4FD3307A600D7
:1004B4003A883338C800B387B600B306F800B68765
:1004C4002324E4FE2326F4FEB74700022322F4FE8D
:1004D400B747000291072320F4FE832744FE7D578B
:1004E40098C38327C4FE13D9070081494A87832709
:1004F40004FE98C3032784FE832744FE98C30100A7
:10050400B25022541259825945618280011122CE7F
:10051400001037C300026113232664FE37C30002B0
:100524007113232464FE032384FE03230300232284
:1005340064FE0323C4FE03230300232064FE032379
:1005440084FE03230300032E44FEE31E6EFC0323F8
:1005540044FE1A888148931708000147032804FEC3
:10056400428681463365C700B3E5D7002A87AE8744
:100574003A85BE85724405618280397106DE22DCCB
:100584004ADA4ED852D656D45AD25ED080002326A8
:10059400A4FCAD3F2A8AAE8A8327C4FC3E898149E4
:1005A400B7F7FA02938707083387F9028147B3073D
:1005B400F9023E97B7F7FA0293870708B306F902E0
:1005C400B33BF902368BB3077701BE8B1306803E2B
:1005D40081465A85DE85EF9020252A87AE873A86A4
:1005E400BE863307CA00BA85B3B54501B387DA00BE
:1005F400B386F500B687232CE4FC232EF4FC01001B
:1006040031372A87AE878326C4FD3E86E36AD6FE49
:100614008326C4FD3E866397C600832684FDBA877D
:10062400E3E0D7FE0100F25062545259C259325AE3
:10063400A25A125B825B21618280397106DE22DC60
:100644004ADA4ED852D656D45AD25ED080002326E7
:10065400A4FC6D3D2A8AAE8A8327C4FC3E89814965
:10066400B7F7FA02938707083387F9028147B3077C
:10067400F9023E97B7F7FA0293870708B306F9021F
:10068400B33BF902368BB3077701BE8B37460F00B5
:100694001306062481465A85DE85EF90E0182A87E2
:1006A400AE873A86BE863307CA00BA85B3B545011C
:1006B400B387DA00B386F500B687232CE4FC232E37
:1006C400F4FC0100A1352A87AE878326C4FD3E864B
:1006D400E36AD6FE8326C4FD3E866397C60083265E
:1006E40084FDBA87E3E0D7FE0100F2506254525908
:1006F400C259325AA25A125B825B21618280011173
:1007040022CE0010AA872324B4FE2322C4FEA3070A
:10071400F4FE8347F4FE89EFB7070040138707010F
:10072400832784FE8A07BA97032744FE98C311A837
:1007340013870191832784FE8A07BA97032744FE0F
:1007440098C30100724405618280011122CE001019
:100754002326A4FEAE87A305F4FEB706000C0347C8
:10076400B4FE8327C4FE8A07B69798C30100724477
:1007740005618280797122D60018AA87232CB4FCE3
:10078400A30FF4FC8347F4FD9DEB3707000C896746
:10079400BA979C432326F4FE832784FD0547B317A9
:1007A400F7003E878327C4FED98F2326F4FE37073C
:1007B400000C8967BA970327C4FE98C325A8370796
:1007C400000C8967BA9783A707082326F4FE8327BA
:1007D40084FD0547B317F7003E878327C4FED98FEE
:1007E4002326F4FE3707000C8967BA970327C4FE53
:1007F40023A0E7080100325445618280011106CE2E
:1008040022CC00102326A4FE2324B4FEB287A30323
:10081400F4FE032684FE8325C4FE0145CD358347BB
:1008240074FEBE850325C4FE0D378325C4FE014531
:1008340091370100F240624405618280797122D6C9
:100844000018AA87232CB4FCA30FF4FC8347F4FDFF
:100854008DEF3707000C8967BA979C432326F4FE73
:10086400832784FD0547B317F70093C7F7FF3E8737
:100874008327C4FEF98F2326F4FE3707000C89670B
:10088400BA970327C4FE98C335A83707000C8967B5
:10089400BA9783A707082326F4FE832784FD054718
:1008A400B317F70093C7F7FF3E878327C4FEF98F7A
:1008B4002326F4FE3707000C8967BA970327C4FE82
:1008C40023A0E7080100325445618280011122CE41
:1008D4000010AA87A307F4FE8347F4FE81EB3707D1
:1008E400000CB7072000BA97DC4339A03707000C87
:1008F400B7172000BA97DC433E85724405618280B5
:10090400011122CE0010AA872324B4FEA307F4FE0B
:100914008347F4FE91EB3707000CB7072000BA9722
:10092400032784FED8C309A83707000CB717200093
:10093400BA97032784FED8C30100724405618280FC
:10094400011122CE0010AA872324B4FEA307F4FECB
:100954008347F4FE91EB3707000CB7072000BA97E2
:10096400032784FE98C309A83707000CB717200093
:10097400BA97032784FE98C30100724405618280FC
:10098400011106CE22CC0010014589372326A4FE8E
:10099400B7070040138707018327C4FE8A07BA9765
:1009A4009C4399CFB7070040138707018327C4FEF0
:1009B4008A07BA979C4382978325C4FE01458937E9
:1009C4000100F240624405618280797106D622D426
:1009D4000018F32720342326F4FE8327C4FE23249F
:1009E400F4FEF32710342322F4FE832744FE23204D
:1009F400F4FE832784FE63CE0702832784FEBD8B27
:100A04002D476365F70213972700B7A700809387E4
:100A1400C7BDBA979C438287832704FE9107232E80
:100A2400F4FC8327C4FD7390173411A00100010066
:100A3400FDBFB9370100B2502254456182800111D3
:100A440006CE22CC0010AA87A307F4FE8347F4FE47
:100A54003E85EF0090340100F240624405618280DB
:100A6400011122CE00102326A4FEAE87A305F4FEB6
:100A74008327C4FE0347B4FE2380E70085473E85F1
:100A8400724405618280797122D60018232EA4FC59
:100A9400232CB4FC232604FE35A0032784FD9307EE
:100AA4001700232CF4FC8327C4FD93861700232E00
:100AB400D4FC034707002380E7008327C4FE85078F
:100AC4002326F4FE832784FD83C70700F9F78327D1
:100AD400C4FE3E85325445618280797106D622D4A3
:100AE4000018232EA4FCAE87232AC4FC2328D4FC9C
:100AF400A30DF4FC232604FE832744FDFD17232ABB
:100B0400F4FC032704FDA54763FFE704032704FD62
:100B1400A9473357F7028347B4FDBA86032644FD39
:100B2400BE850325C4FD553F2326A4FE8327C4FEAA
:100B34000327C4FDBA97232EF4FC15A88347B4FDFC
:100B4400BE850325C4FD293F8327C4FD8507232EC5
:100B5400F4FC8327C4FE85072326F4FE832744FD83
:100B6400FD17232AF4FC832744FDE349F0FC032703
:100B740004FDA947B377F70293F7F70F93870703A9
:100B840093F7F70FBE850325C4FDD93D2A87832734
:100B9400C4FEBA972326F4FE8327C4FE3E85B250D2
:100BA400225445618280797106D622D40018232EFE
:100BB400A4FCAE87232AC4FC2328D4FCA30DF4FC94
:100BC400232604FE832704FD63D90700832704FD3D
:100BD400B307F0402324F4FE29A0832704FD232433
:100BE400F4FE832744FDFD17232AF4FC032784FE27
:100BF400A54763F3E706832704FD63D607020327AB
:100C040084FEA947B357F702B307F0403E878347F2
:100C1400B4FDBA86032644FDBE850325C4FD6137B1
:100C24002326A4FE15A0032784FEA947B357F70281
:100C34003E878347B4FDBA86032644FDBE8503255B
:100C4400C4FD95372326A4FE8327C4FE0327C4FDD1
:100C5400BA97232EF4FC85A8832704FD63DD0702DD
:100C6400832744FDFD17232AF4FC35A08347B4FDF4
:100C7400BE850325C4FDED338327C4FD8507232EDC
:100C8400F4FC8327C4FE85072326F4FE832744FD52
:100C9400FD17232AF4FC832744FDE349F0FC832752
:100CA40004FD63D207029305D0020325C4FD4D3B26
:100CB4002A878327C4FEBA972326F4FE8327C4FD1C
:100CC4008507232EF4FC032784FEA947B377F70294
:100CD40093F7F70F9387070393F7F70FBE85032561
:100CE400C4FDBD3B2A878327C4FEBA972326F4FE9E
:100CF4008327C4FE3E85B2502254456182807971B7
:100D040006D622D40018232EA4FCAE87232AC4FCC2
:100D14002328E4FCA30DF4FCB687230DF4FC23265E
:100D240004FE832744FDFD17232AF4FC832704FDD6
:100D34009183B5C3832704FD13D747008346A4FDDD
:100D44008347B4FD032644FDBE850325C4FD453F0A
:100D54002A878327C4FEBA972326F4FE8327C4FE7A
:100D64000327C4FDBA97232EF4FC15A88347B4FDCA
:100D7400BE850325C4FDED318327C4FD8507232EDD
:100D8400F4FC8327C4FE85072326F4FE832744FD51
:100D9400FD17232AF4FC832744FDE349F0FC832751
:100DA40004FD13F7F700A54763E2E702832704FD78
:100DB40093F7F70FBD8B93F7F70F9387070393F719
:100DC400F70FBE850325C4FD613999A08347A4FDAF
:100DD4008DC3832704FD93F7F70FBD8B93F7F70FAC
:100DE4009387770393F7F70FBE850325C4FD8D39E9
:100DF40005A0832704FD93F7F70FBD8B93F7F70F37
:100E04009387770593F7F70FBE850325C4FD8939CA
:100E14008327C4FE85072326F4FE8327C4FE3E856C
:100E2400B250225445618280797106D622D40018CA
:100E3400232EA4FC232CB4FC232AC4FC2328D4FC96
:100E4400232404FE232204FE8327C4FD6381072692
:100E54008327C4FD2380070099AC832744FD03C77F
:100E64000700930750026308F702032744FD930722
:100E74001700232AF4FC8327C4FD93861700232E2E
:100E8400D4FC034707002380E700832744FE85073B
:100E94002322F4FE29AC832744FD850703C70700FA
:100EA400930750026317F7028327C4FD13871700C3
:100EB400232EE4FC130750022380E700832744FD1C
:100EC4008907232AF4FC832744FE85072322F4FEA2
:100ED400F9AA93070002A307F4FE230704FE83275D
:100EE40044FD8507232AF4FC832744FD03C7070038
:100EF400930700036315F70493070003A307F4FEA5
:100F0400832744FD8507232AF4FC15A88347E4FEC0
:100F14003E87BA878A07BA97860713F7F70F83279E
:100F240044FD83C70700BA9793F7F70F938707FD2C
:100F34002307F4FE832744FD8507232AF4FC832733
:100F440044FD03C707009307F00263FAE700832711
:100F540044FD03C7070093079003E3F9E7FA034747
:100F6400E4FE832744FEBA973E87832784FD63FE0D
:100F7400E700832784FD13F7F70F832744FE93F7D5
:100F8400F70FB307F7402307F4FE832744FD83C715
:100F94000700938787FA130700026365F70E139718
:100FA4002700B7A700809387C7C0BA979C4382875E
:100FB4000346E4FE832704FD138747002328E4FC4B
:100FC40098438347F4FEBA86BE850325C4FDE13EFB
:100FD4002324A4FE55A80346E4FE832704FD1387B7
:100FE40047002328E4FC98438347F4FEBA86BE8571
:100FF4000325C4FDDD342324A4FE79A00346E4FEC6
:10100400832704FD138747002328E4FC9843834780
:10101400F4FE8146BE850325C4FDD5312324A4FEF8
:10102400A5A00346E4FE832704FD13874700232875
:10103400E4FC98438347F4FE8546BE850325C4FD3E
:101044007D392324A4FE89A0832704FD1387470048
:101054002328E4FC9C43BE850325C4FD2D342324AE
:10106400A4FE1DA0832704FD138747002328E4FC66
:101074009C4393F7F70FBE850325C4FDD532232483
:10108400A4FE19A0FD5795A8832744FD8507232AAC
:10109400F4FC832784FE0327C4FDBA97232EF4FCB3
:1010A400032744FE832784FEBA972322F4FE832772
:1010B40044FD83C7070099C7832744FE032784FDA3
:1010C400E3EDE7D8832744FE032784FD63F7E700B5
:1010D4008327C4FD2380070039A88327C4FDFD1797
:1010E400232EF4FC8327C4FD23800700832744FEBA
:1010F400FD172322F4FE832744FE3E85B25022547A
:10110400456182805D7106D622D40018232EA4FC8A
:10111400232CB4FC232AC4FC54C418C85CC8232C54
:101124000401232E1401930704022328F4FC8327CB
:1011340004FDB1172324F4FE832784FEBE86032610
:1011440044FD832584FD0325C4FDF9392326A4FE2B
:101154008327C4FE3E85B25022546161828001110E
:1011640006CE22CC00102326A4FE2324B4FE232280
:10117400C4FE832644FE032684FE9305E01503255E
:10118400C4FE5D31AA873E85F240624405618280D7
:1011940061712326111A2324811A001B232EA4E42F
:1011A400232CB4E4232AC4E4B7A70080938707C997
:1011B40003A3070083A8470003A88700C8478C4BF4
:1011C400D04B944FD84F9C53232664E6232814E72E
:1011D400232A04E7232CA4E6232EB4E62320C4E820
:1011E4002322D4E82324E4E82326F4E8930704E93B
:1011F400032644E5832584E53E8595372A879307AE
:10120400D01563DCE70083A78188D8479307C4E639
:10121400BA853E85F1220100FDBF930704E98325C9
:10122400C4E53E85752AAA873E858320C11A032416
:10123400811A5D618280011106CE22CC0010232622
:10124400A4FE2324B4FE83A781889C47032684FE3E
:101254008325C4FE3E852D3FAA873E85F240624425
:10126400056182805D7106D622D40018232EA4FC69
:10127400232CB4FC10C454C418C85CC8232C040127
:10128400232E140193070402232AF4FC832744FD2C
:10129400A1172324F4FE832784FE3E86832584FD40
:1012A4000325C4FDF5352326A4FE8327C4FE3E850D
:1012B400B2502254616182805D7106D622D4001836
:1012C400232EA4FC4CC010C454C418C85CC8232CDE
:1012D4000401232E140193070402232CF4FC832716
:1012E40084FD91172324F4FE832784FEBE85032501
:1012F400C4FD91372326A4FE8327C4FE3E85B25045
:101304002254616182805D7106D622D40018232E96
:10131400A4FC232CB4FC10C454C418C85CC8232CEB
:101324000401232E140193070402232AF4FC8327C7
:1013340044FDA1172324F4FE832784FE3E868325DF
:1013440084FD0325C4FD213D2326A4FE8327C4FE7A
:101354003E85B250225461618280797106D622D4CE
:101364000018232EA4FC83A781889C47BE850325EF
:10137400C4FDBD202326A4FE83A781889C47BE8587
:10138400294509288327C4FE85073E85B250225487
:1013940045618280011106CE22CC00102326A4FED2
:1013A4002324B4FE83A781889C47032784FE630912
:1013B400F70083A78188DC47032784FE631CF700BA
:1013C4008327C4FE93F7F70F3E85EFF04FE783279B
:1013D400C4FE11A0FD573E85F2406244056182803F
:1013E400797106D622D40018232EA4FC232CB4FC35
:1013F400232604FE0DA88327C4FD83C70700832585
:1014040084FD3E85413F2A87FD576314F700FD574D
:1014140015A08327C4FE85072326F4FE8327C4FD75
:101424008507232EF4FC8327C4FD83C70700E1F757
:101434008327C4FE3E85B250225445618280011147
:1014440022CE0010A1472324F4FE832784FED3F781
:1014540017D0B7A7008007A747CB5377F708B7A7DC
:10146400008087A787CB5377F710B7A7008087A79B
:10147400C7CBD377F700D39717C02326F4FEB7E77B
:10148400003003D70700136707102390E700B7E77E
:10149400003003D70701136707102398E700B7E765
:1014A400003098471367074098C7B7E70030984F54
:1014B4001367074098CFB7070028D45F3707F4FFB6
:1014C4007D17F98E37070400558FD8DFB70700283A
:1014D400D45F3707FDFF7D17F98E4167558FD8DF3D
:1014E400B707002813070030D8DBB7E7003083A61E
:1014F40007083707FDFF7D17F98E4167558F23A035
:10150400E708B7E7003083A607083707F0FF7D1721
:10151400758F23A0E708B7E7003003A70708136710
:10152400071023A0E708B7E7003003A707081367ED
:10153400170023A0E708B7A70030032784FED8D3F9
:10154400B7A700300327C4FE98D7B7A70030130706
:101554000007D8D7B7A7003023AA0702B7A70030DF
:101564001307103098DB0100724405618280411139
:1015740022C600080100B7A700309C4F9183858BD9
:1015840093F7F70FEDFBB7A7003083C7070093F776
:10159400F70F3E85324441018280011122CE0010B2
:1015A4002326A4FE0100B7A700309C4F8D83858BB2
:1015B40093F7F70FEDFBB7A700300327C4FE98C3DA
:1015C40081473E857244056182800000011122CE6C
:1015D40000102326A4FE8327C4FE73A00730010055
:1015E4007244056182800100011122CE001023267D
:1015F400A4FE8327C4FE73B0073001007244056162
:1016040082800100011122CE00102326A4FE83272C
:10161400C4FE73905730010072440561828001005A
:10162400011122CE00102326A4FE8327C4FE73A03A
:10163400473001007244056182800100011122CE0D
:1016440000102326A4FE8327C4FE73B04730010094
:101654007244056182800100011122CE0010F3273B
:1016640020342326F4FE8327C4FE3E85724405619C
:1016740082800100411106C622C400085520B71714
:1016840000809387C7733E85B53FBD280100B240F3
:101694002244410182800100011106CE22CC0010B7
:1016A4002326A4FE8327C4FE0547B317F7003E850F
:1016B400853F0100F240624405618280011106CE3B
:1016C40022CC00102326A4FE8327C4FE0547B317AB
:1016D400F7003E85A5370100F2406244056182802F
:1016E400011122CE00102326A4FE2324B4FE138766
:1016F40001E38327C4FE8A07BA97032784FE98C3AD
:101704000100724405618280411106C622C40008AA
:1017140021456D3D0100B240224441018280010017
:10172400411106C622C4000821457D3D0100B24096
:101734002244410182800100717106D716D51AD363
:101744001ED122CF2ACD2ECB32C936C73AC53EC3CD
:1017540042C1C6DEF2DCF6DAFAD8FED682EE86ECB8
:101764008AEA8EE892E696E49AE29EE02AFE2EFC4D
:1017740032FA36F83AF63EF442F246F072EE76EC7D
:101784007AEA7EE80019C93D232EA4F48327C4F520
:1017940063C907020327C4F5B7070040F98F21473F
:1017A400636BF70013972700B7A70080938707CCD4
:1017B400BA979C438287010019A00100010001002F
:1017C400FDBF8327C4F593F7F70F232EF4F4138793
:1017D40001E38327C4F58A07BA979C4391CB138707
:1017E40001E38327C4F58A07BA979C43829711A023
:1017F40001A0BA50AA521A538A537A446A45DA4568
:101804004A46BA462A479A470A48F658665ED65E5A
:10181400465FB65F7660E6605661C6613662A66270
:10182400166386637275E2755276C2763277A27752
:1018340012788278726EE26E526FC26F4D617300DD
:1018440020300000757106C722C54AC34EC1D2DEDE
:10185400D6DCDADADED8E2D6E6D4EAD2EED0000973
:1018640023AC01E023AE01E023A001E223A201E2C4
:10187400B7E70030BC4B9D8393F7F70393F7F70F5B
:10188400A307F4FCB7E70030BC4BB5839D8B93F7FB
:10189400F70F85072307F4FCB7E70030BC4BC1837F
:1018A40093F7F70393F7F70F8507A306F4FCB7E75D
:1018B4000030BC4BD9839D8B93F7F70F8507230624
:1018C400F4FCB7E70030BC4BE58393F7F70393F7D9
:1018D400F70F8507A305F4FCB7E70030BC4B858BF5
:1018E40093F7F70F63820720B7E70030BC4B91836F
:1018F400858B93F7F70F63820718B7E70030BC4F67
:101904003E878567FD17F98FC207C183E207232C41
:10191400F4FAFD87232EF4FAB7E70030F84BB70743
:101924000001FD17F98F232AF4FA0347F4FCB727C3
:10193400F40093870740B3C7E7023E8EFD87BE8E4F
:10194400832744FB3E8F814F032784FB8327C4FBFB
:101954003305EF00AA86B3B6E601B385FF00B3876B
:10196400B600BE852A87AE873386EE02B386C703E8
:10197400B2963306EE02B338EE023288B38716010C
:10198400BE88939788001353880133E3670093D389
:1019940088010347E4FC8347D4FCB307F702232CF4
:1019A400F4F8FD87232EF4F8032684F98326C4F97A
:1019B4001A859E85EF7050672A87AE8723AEE1E0D3
:1019C4008347F4FC3727F40013070740B347F702B3
:1019D4002328F4F8FD87232AF4F8832744FB2324DF
:1019E400F4F8232604F8032684FB8326C4FB032887
:1019F40084F88328C4F8C2853387C500BA85428534
:101A0400B3B5A5004685B307D500B386F500B68700
:101A1400032504F9832544F9AE863386E602AA86B3
:101A2400B386D702B2962A863306E602AA85B3BAEB
:101A3400E502328AB3875601BE8A93978A00135C03
:101A44008A0133EC870193DC8A010347C4FC834792
:101A5400B4FCB307F7022320F4F8FD872322F4F83B
:101A6400032604F8832644F86285E685EF70D05B8C
:101A74002A87AE8723A0E1E285A8B7E70030BC4FF0
:101A84003E878567FD17F98FC207C1832322F4FCC3
:101A9400032744FCB727F40093870740B307F702F2
:101AA4008346F4FC0347E4FCB386E6020347D4FC14
:101AB4003387E60233D7E70223AEE1E0032744FC91
:101AC400B727F40093870740B307F7028346F4FC73
:101AD4000347C4FCB386E6020347B4FC3387E6023B
:101AE40033D7E70223A0E1E2B7E70030DC5F8D8B58
:101AF40093F7F70F0D476389E7020D476348F70033
:101B04000547638CE70009476384E70237470F0002
:101B14001307072423ACE1E00DA03727F4001307D3
:101B2400074023ACE1E011A8216723ACE1E031A038
:101B340003A7C1E123ACE1E00100B7E700309C4B0F
:101B44008583858B93F7F70F638B071A370701207B
:101B54008567BA9783A7C780E183858B93F7F70FCF
:101B6400639B0718370701208567BA9783A7078007
:101B74009D8393F7F70393F7F70FA307F4FC370755
:101B840001208567BA9783A70780B5839D8B93F758
:101B9400F70F85072307F4FC370701208567BA97F9
:101BA40083A70780C18393F7F70393F7F70F85079C
:101BB400A306F4FC370701208567BA9783A707803B
:101BC4009183858B93F7F70FF5C33707012085675A
:101BD400BA9783A787803E878567FD17F98FC20769
:101BE400C183E2072324F4FAFD872326F4FA370796
:101BF40001208567BA9703A74780B7070001FD173F
:101C0400F98F2322F4FA8347F4FC3727F4001307EF
:101C14000740B347F7023E8DFD87BE8D832744FA04
:101C2400232CF4F6232E04F6032684FA8326C4FA1E
:101C3400032884F78328C4F7C2853387C500BA858F
:101C44004285B3B5A5004685B307D500B386F50034
:101C5400B6873386ED02B386A703B2963306ED0248
:101C6400B339ED023289B3873601BE89939789006F
:101C7400135B890133EB670193DB89010347E4FCC0
:101C84008347D4FCB307F7022328F4F6FD87232AFD
:101C9400F4F6032604F7832644F75A85DE85EF70AD
:101CA400B0382A87AE8723A2E1E291A83707012042
:101CB4008567BA9783A787803E878567FD17F98F65
:101CC400C207C1832328F4FA032704FBB727F400CF
:101CD40093870740B307F7028346F4FC0347E4FC09
:101CE400B386E6020347D4FC3387E60233D7E70220
:101CF40023A2E1E229A003A781E123A2E1E20100FA
:101D0400BA402A441A498A49765AE65A565BC65B4F
:101D1400365CA65C165D865D49618280011122CE27
:101D24000010232604FEB7E7003003D7070013672B
:101D340007402390E700B7E7003003D70701136794
:101D440007402398E700B7270028D45F3167558FF1
:101D5400D8DFB727002803D7470313670708239A58
:101D6400E702B7E7003045671307171223AEE70A07
:101D7400B7E70030985B719B98DBB7E70030054705
:101D840098DB232604FE31A08327C4FE850723267F
:101D9400F4FEB7E70030DC5F8D8B13F7F70FB7E77E
:101DA40000309C5B8D8B93F7F70F6308F7000327D4
:101DB400C4FE93073006E3F9E7FCB7E7003037E7E2
:101DC400C31E13077708B8CBB7E7003023AA07046C
:101DD400B7E7003013074006B8CFB7E70030B84B79
:101DE4001377F7F913670702B8CB9307803E2326CE
:101DF400F4FE31A08327C4FEFD172326F4FE8327B7
:101E0400C4FEEDFB0100B7E70030BC53858B13F72C
:101E1400F70F8547E319F7FEB7E70030B84B659B2A
:101E240013674700B8CB89472324F4FEB7D70030A3
:101E3400F4473707F1FF7D17F98E37070300558FF5
:101E4400F8C7B7D70030F84713672700F8C7B7E7D4
:101E54000030032784FE98DB232604FE31A0832769
:101E6400C4FE85072326F4FEB7E70030DC5F8D8BC4
:101E740013F7F70FB7E700309C5B8D8B93F7F70FE1
:101E84006308F7000327C4FE93073006E3F9E7FC71
:101E94000100724405618280011106CE22CC00103B
:101EA40081450145EFE0DFA9930700082326F4FEEE
:101EB4008327C4FEF3B747302326F4FE8567938750
:101EC40007802324F4FE832784FEF3A747302324CA
:101ED400F4FEA1472322F4FE832744FEF3A7073030
:101EE4002322F4FE0100F240624405618280011164
:101EF40006CE22CC00109D450145EFE07FA4856706
:101F0400938707802326F4FE8327C4FEF3B7473064
:101F14002326F4FEA1472324F4FE832784FEF3B78B
:101F240007302324F4FE0100F240624405618280FC
:101F3400411106C622C40008D5330100B240224430
:101F440041018280011122CE00102326A4FEB7078E
:101F540000309C4393F6F7FC8327C4FE1397470095
:101F6400B7070030558F98C3010072440561828021
:101F7400011122CE00102326A4FEB70700309C4393
:101F840093F6F7F38327C4FE13976700B70700306F
:101F9400558F98C30100724405618280011122CEDD
:101FA40000102326A4FEB70700309C4393F6F7EFF6
:101FB4008327C4FE13978700B7070030558F98C353
:101FC4000100724405618280011122CE0010232693
:101FD400A4FEB70700300327C4FED8C3010072442F
:101FE40005618280011122CE00102326A4FE232441
:101FF400B4FEB707003098478327C4FE93C7F7FFA2
:10200400B376F700032784FE8327C4FE3307F70261
:10201400B7070030558F98C701007244056182806C
:10202400011122CE00102326A4FEB7070030D44BA2
:10203400B70700300327C4FE558FD8CB0100724484
:1020440005618280011122CE00102326A4FE2324E0
:10205400B4FE370700308327C4FE89078E07BA977A
:10206400032784FED8C701007244056182800111F0
:1020740022CE00102326A4FE2324B4FE8327C4FE0C
:102084009843832784FEF98F99C3854711A081471C
:102094003E85724405618280011122CE0010232600
:1020A400A4FE2324B4FE8327C4FE03A707088327C2
:1020B40084FEF98F99C3854711A081473E857244F8
:1020C40005618280011122CE00102326A4FE232460
:1020D400B4FE8327C4FE032784FE23A0E70801007F
:1020E400724405618280011122CE0010A14723268B
:1020F400F4FE8327C4FED3F717D0B7A7008007A741
:1021040047D55377F708B7A7008087A787D55377B4
:10211400F710B7A7008087A7C7D5D377F700D39761
:1021240017C02324F4FEB7E7003003D70700136772
:1021340007102390E700B7E7003003D707011367C0
:1021440007102398E700B7E7003098471367074064
:1021540098C7B7E70030984F1367074098CFB70781
:102164000028D45F3707FDFF7D17F98E4167558F2F
:10217400D8DFB7070028D45F3707F4FF7D17F98E3F
:1021840037070400558FD8DFB7070028130700303E
:10219400D8DBB7E7003083A607083707FDFF7D17B4
:1021A400F98E4167558F23A0E708B7E7003083A66F
:1021B40007083707F0FF7D17758F23A0E708B7E7F7
:1021C400003003A707081367071023A0E708B7E741
:1021D400003003A707081367170023A0E708B7A771
:1021E40000300327C4FED8D3B7A70030032784FEEA
:1021F40098D7B7A7003013070007D8D7B7A7003080
:1022040023AA0702B7A700301307103098DB010098
:10221400724405618280411106C622C40008093B4C
:10222400EFF04FE2EFF0AFA1EF001002EF104059D2
:102234002122F92E9528812A8531EF30E05F01288B
:10224400EF00501C0100B240224441018280411140
:1022540006C622C40008B7A70080138547CEEFF056
:10226400CF8F138581E7EF104029138581E7EF10A5
:10227400A044938781E783C70700BE86938781E7DD
:1022840098432183DC4393F7F70FE207D98F3E8607
:10229400B685B7A70080138547D0EFF0EF81010022
:1022A400B240224441018280411106C622C4000882
:1022B400B7A700301307007DF8C3B7A70030985FB5
:1022C400B7A700301367077D98DF85456945EFE0C0
:1022D400CFC7B72700801386872FE9450145EFE074
:1022E4000FC2E9450145EFE0EFC80100B2402244C6
:1022F40041018280011106CE22CC001021A8B7A78B
:10230400003083C70700A307F4FE8347F4FE3E852D
:10231400EF30405DB7A700309C4F9183858B93F7D6
:10232400F70FF1DFB7A700301307007DF8C30100F2
:10233400F240624405618280411122C60008B7E779
:10234400003003D70700136707102390E700B7E7AF
:10235400003003D70701136707102398E700B7E796
:10236400003003D70700136707402390E700B7E75F
:10237400003003D70701136707402398E7000100E3
:10238400324441018280411106C622C4000893866A
:1023940001880546854537050028EF10305093869F
:1023A40011880546894537050028EF10304F93867C
:1023B40021880546854537250028EF10304E938641
:1023C40031880546914537250028EF10304D854565
:1023D4001545EFE08FB7B72700801386C73F9545B3
:1023E4000145EFE0CFB195450145EFE0AFB80100FD
:1023F400B240224441018280397106DE22DC800031
:1024040083A781E22324F4FEB7A70080938747D2F1
:102414009043D4439847DC47232AC4FC232CD4FCA0
:10242400232EE4FC2320F4FEB7A70080938747D330
:102434009043D4439847DC472322C4FC2324D4FC90
:102444002326E4FC2328F4FCA30704FE7DA283478F
:10245400F4FE8A07C117A29703A747FE8347F4FE39
:102464008A07C117A29783A747FDBE853A852D31F8
:102474002A878547631EF7168347F4FE8A07C11728
:10248400A29703A747FE8347F4FE8A07C117A297C2
:1024940083A747FDBE853A85D93EAA87B337F000A6
:1024A40093F7F70FA303F4FE8347F4FE138741E683
:1024B4008A07BA979C43032784FE1D8F93076009FC
:1024C4006374F7028347F4FE8A07C117A29703A730
:1024D40047FE8347F4FE8A07C117A29783A747FDE7
:1024E400BE853A85C53629A20347F4FE9387018841
:1024F400BA9783C7070013F7F70F85476310F708E8
:10250400834774FEA5EF8347F4FE0D47638CE7020F
:102514000D476342F70409476382E7020947634CA6
:10252400F70289C705476387E70035A00545EF0033
:10253400504A15A00945EF00D04931A82945EF00BC
:10254400504911A883C7418891C73D45EF007048A1
:102554002382018801008347F4FE138741E68A073A
:10256400BA97032784FE98C30347F4FE9387018830
:10257400BA97034774FE2380E70091A80347F4FE4B
:1025840093870188BA9783C7070093F7F70FA1E3EE
:10259400034774FE8547631CF7020347F4FE8D4727
:1025A4006315F70005472382E1880347F4FE938708
:1025B4000188BA97034774FE2380E7008347F4FE3B
:1025C400138741E68A07BA97032784FE98C3834793
:1025D400F4FE8A07C117A29703A747FE8347F4FEB8
:1025E4008A07C117A29783A747FDBE853A85D93CC0
:1025F4008347F4FE8507A307F4FE0347F4FE8D47E3
:10260400E3F7E7E401000100F250625421618280A3
:10261400011106CE22CC0010B7E7003098471367AB
:10262400170098C7B7E70030984F1367170098CF83
:102634000145AD320D452D3A0545293203A781E107
:102644008967938707F4B357F7022326F4FE832799
:10265400C4FE81E785472326F4FE8325C4FE014595
:10266400D5320145953285450545AD3A854519452F
:10267400EFE0AF8DB72700801386A7699945014520
:10268400EFE0EF8799450145EFE0CF8E0100F2407E
:10269400624405618280411106C622C4000883A7F2
:1026A40081E21387170023A4E1E2EF20902E054571
:1026B400853A0100B240224441018280011106CED4
:1026C40022CC0010893E930744FE3E85B123AA879D
:1026D400ADC70347C4FE83C751886308F7040347A3
:1026E400C4FE83C76188630BF7000347C4FE2383DA
:1026F400E18803A781E223AAE1E681A003A781E29E
:1027040083A741E71D8F930720036368F70283477C
:10271400C4FEBE85B7A70080138547D4EFE0DFB9B8
:102724000347C4FEA382E18809A80347C4FE2383A8
:10273400E18803A781E223AAE1E67300501061B7A0
:10274400011122CE00102326A4FE2324B4FEB707D1
:102754000130DC430327C4FE85463397E600134764
:10276400F7FFB3F6E7008327C4FE032784FE33177D
:10277400F700B7070130558FD8C3010072440561D3
:102784008280411122C60008B7070130D4433707BD
:102794000080558FD8C30100324441018280011169
:1027A40022CE00102326A4FE8327C4FE0547331738
:1027B400F700B707013098C70100724405618280B1
:1027C400011122CE00102326A4FE8327C4FEA107F4
:1027D40005473317F700B707013098C70100724463
:1027E40005618280011122CE00102326A4FE232439
:1027F400B4FEB7070130DC4F0327C4FE0A07BD4609
:102804003397E6001347F7FFB3F6E7008327C4FEC8
:102814008A07032784FE3317F700B7070130558F63
:10282400D8CF0100724405618280011122CE0010CC
:102834002326A4FEB70601300327C4FEBA879207F5
:10284400998F8A07B697FC5B93F7F70393F7F70F13
:102854003E85724405618280011122CE0010232638
:10286400A4FEB70601300327C4FEBA879207998FE6
:102874008A07B697BC5F3E878567FD17F98FC20745
:10288400C1833E85724405618280011122CE00100D
:102894002326A4FE2324B4FEB7070130DC53032708
:1028A400C4FE85463397E6001347F7FFB3F6E70007
:1028B4008327C4FE032784FE3317F700B7070130CC
:1028C400558FD8D30100724405618280011122CE54
:1028D40000102326A4FE2324B4FE2322C4FE3706BC
:1028E4000130832784FE93F6F70F0327C4FEBA87CB
:1028F4009207998F8A07B2972383D706B7070130C7
:102904009C4F0327C4FE85463397E6001347F7FF21
:10291400B3F6E7008327C4FE032744FE3317F7000A
:10292400B7070130558F98CF01007244056182804A
:10293400011122CE00102326A4FE8327C4FE0547DE
:102944003317F700B7070130D8D701007244056187
:102954008280011122CE0010AA872317F4FE0357A8
:10296400E4FE9307100363E5E7009307400591A88D
:102974000357E4FE9307000F63F5E7009307300560
:1029840089A00357E4FE9307100363FBE700035792
:10299400E4FE9307800763E5E7009307100415A09E
:1029A4000357E4FE9307800763FBE7000357E4FE45
:1029B4009307000F63E5E7009307E00419A093076A
:1029C40050053E85724405618280011106CE22CCF9
:1029D4000010AA872317F4FE8357E4FE3E85953F33
:1029E400AA873E85F240624405618280011122CEAD
:1029F4000010AA87A307F4FE8347F4FE13074005DB
:102A04006387E70213074005634BF702130730059A
:102A14006385E702130730056343F70213071004C5
:102A24006389E7001307E0046387E70009A8854783
:102A340001A8894731A08D4721A0914711A0814762
:102A44003E85724405618280011106CE22CC0010BD
:102A5400B7F7003003C70701136717002388E7009F
:102A6400B7F7003003C70701759B2388E700B7E772
:102A7400003083A6070B3707FDFF7D17F98E4167EA
:102A8400558F23A8E70AB7E7003083A6070B37075B
:102A940000C17D17F98E37070002558F23A8E70A76
:102AA400B7E7003083A6070B37071000558F23A81C
:102AB400E70AB7E7003094474167558F98C7B7E7EF
:102AC4000030944F4167558F98CFB7E7003003A784
:102AD400070B1367170023A8E70AB7E7003003A71B
:102AE400070B1367071023A8E70AB707013003A7EA
:102AF40007541377F7FC1367070123A0E754B707BC
:102B0400013003A707541367071023A0E754B7073E
:102B1400013003A707541367170023A0E754B7072E
:102B2400013003C7C701419B238EE700B70701307B
:102B340003D78705619B239CE704B7070130B8439B
:102B4400419BB8C3B707013003C7070013671700D9
:102B54002380E70081450145713185450145CD3626
:102B6400B7470F00938707242326F4FE0100B70715
:102B7400013083A707548583858B93F7F70F81EB87
:102B84008327C4FE1387F7FF2326E4FEEDF3B7077C
:102B94000130D84313671700D8C3B7070130D443B3
:102BA40037070080558FD8C3054681450145393B19
:102BB40085450145D9390145A53B0145CD3601453A
:102BC4000131B7370080138667CBF5450145EFD057
:102BD4001FB385457545EFD05FB7F5450145EFD087
:102BE4007FB981450145EFD0BFD519A00145AD316D
:102BF40001452539AA87FDFB01000100F24062442A
:102C040005618280411106C622C400089D3E010070
:102C1400B240224441018280797106D622D4001840
:102C2400232EA4FC83C7F1E893F7F70F99E38147B8
:102C3400A5A8A38701E80145CD3E2326A4FE83274A
:102C4400C4FE99E381478DA0014539312324A4FEB4
:102C540019A0014511310145C93EAA87FDFB83270F
:102C640084FEC207C1833E85ED31AA87A303F4FE27
:102C74008327C4FD85CB832784FE139707014183F3
:102C84008327C4FD2390E7008327C4FD034774FE14
:102C94002384E700834774FE3E85893B2A87832784
:102CA400C4FDD8C3F93C85473E85B25022544561E2
:102CB4008280411106C622C40008014595390547A2
:102CC400A387E1E80100B24022444101828001115E
:102CD40022CE0010AA87A307F4FE0347F4FE93074D
:102CE400B0026308F7000347F4FE9307D0026314AD
:102CF400F700854705A00347F4FE9307A002630885
:102D0400F7000347F4FE9307F0026314F7008947C2
:102D140011A081473E85724405618280597186D62F
:102D2400A2D4A6D28018232EA4F8232CB4F8232AE4
:102D3400C4F8232604FE232404FE832744F923A095
:102D4400070029AC832784FE0327C4F9BA9783C7F5
:102D54000700A301F4FE034734FE93070002630750
:102D6400F700034734FEA5476318F700832784FE62
:102D740085072324F4FEDDA2034734FE9307F00203
:102D840063FAE70C034734FE9307900363E4E70C0C
:102D9400232204FE0DA8032744FEBA878A07BA97A4
:102DA4008607BE86832784FE0327C4F9BA9783C7A0
:102DB4000700938707FDB6972322F4FE832784FE3A
:102DC40085072324F4FE832784FE0327C4F9BA97D6
:102DD40003C707009307F00263FDE700832784FE1F
:102DE4000327C4F9BA9703C7070093079003E3F4D2
:102DF400E7FA832744F998439307F00363D4E70081
:102E0400FD57F5A2832744F99C433E87BA8786077A
:102E1400BA978A073E87832784F9BA971307E0068F
:102E24002380E700832744F99C433E87BA878607BB
:102E3400BA978A073E87832784F9BA97032744FE03
:102E4400D8C3832744F99C4313871700832744F985
:102E540098C329A2034734FE9307B002630FF7080F
:102E6400034734FE9307D0026309F708034734FE8F
:102E74009307A0026303F708034734FE9307F002A5
:102E8400631CF70C9DA8832744F998439307F00328
:102E940063D4E700FD57A1AA832744F99C433E87E6
:102EA400BA878607BA978A073E87832784F9BA9731
:102EB4001307F0062380E7008327C4FEFD172326AB
:102EC400F4FE832744F99C433E87BA878607BA9762
:102ED4008A073E87832784F9BA970327C4FE4117DC
:102EE4002297034707FB2384E700832744F99C4385
:102EF40013871700832744F998C38327C4FE6353B9
:102F0400F0028327C4FEFD17C117A29783C707FBEE
:102F14003E85753BAA84834734FE3E854D3BAA8794
:102F2400E3D3F4F60327C4FE9307F00363D4E70066
:102F3400F95775A88327C4FE138717002326E4FED8
:102F4400C117A297034734FE2388E7FA832784FE38
:102F540085072324F4FE19A0F55751A8832784FE7E
:102F64000327C4F9BA9783C70700E39D07DC9DA82C
:102F7400832744F998439307F00363D4E700FD578C
:102F8400BDA0832744F99C433E87BA878607BA9736
:102F94008A073E87832784F9BA971307F0062380AC
:102FA400E7008327C4FEFD172326F4FE832744F994
:102FB4009C433E87BA878607BA978A073E8783274A
:102FC40084F9BA970327C4FE41172297034707FBE6
:102FD4002384E700832744F99C431387170083273E
:102FE40044F998C38327C4FEE344F0F881473E853F
:102FF400B65026549654656182802971232E81121D
:1030040080022326A4EC2324B4EC2322C4EC23263C
:1030140004FE232404FE71A2032784FEBA878607D4
:10302400BA978A073E878327C4ECBA9703C7070079
:103034009307E0066311F7040327C4FE9307F00324
:1030440063D4E700FD5749A2032784FEBA878607A5
:10305400BA978A073E878327C4EC3E978327C4FE2A
:10306400938617002326D4FE58438A07C117A297D4
:1030740023A6E7EE15A2032784FEBA878607BA972C
:103084008A073E878327C4ECBA9703C707009307D0
:10309400F0066311F7100327C4FE854763C4E700F5
:1030A400F9571DA28327C4FEFD172326F4FE8327A8
:1030B400C4FE8A07C117A29783A7C7EE2320F4FE94
:1030C4008327C4FEFD172326F4FE8327C4FE8A0744
:1030D400C117A29783A7C7EE232EF4FC032784FE0F
:1030E400BA878607BA978A073E878327C4ECBA97BC
:1030F40083C787001307F0026380E7061307F00213
:10310400634AF7061307D0026386E7021307D00267
:103114006342F7061307A0026387E7021307B002AE
:10312400639AE7040327C4FD832704FEBA97232286
:10313400F4FE99A00327C4FD832704FEB307F740D8
:103144002322F4FE15A80327C4FD832704FEB30736
:10315400F7022322F4FE0DA0832704FE99E3F5571A
:10316400A5A00327C4FD832704FEB347F702232247
:10317400F4FE19A0F15789A88327C4FE138717000A
:103184002326E4FE8A07C117A297032744FE23A639
:10319400E7EE19A0ED570DA8832784FE85072324A5
:1031A400F4FE032784FE832784ECE347F7E6032732
:1031B400C4FE85476304F700E95739A00327C4ED2B
:1031C400832744EC98C381473E850324C1133161AE
:1031D4008280130101CC232E1132232C81328006EC
:1031E4002326A4CC0327C4CCBD476302F71A0327C4
:1031F400C4CCBD4763E5E72E0327C4CCB947630EAF
:10320400F7140327C4CCB94763EBE72C0327C4CCDA
:10321400A54763FAE7008327C4CC138767FF8D476C
:1032240063EFE72AA1A88327C4CC93F7F70F93870A
:103234000703230FF4FC03A701ED9307E00363C620
:10324400E70283A701ED9386170023A8D1EC138727
:1032540001E9BA970347E4FD2380E70083A701ED62
:10326400138701E9BA9723800700938501E9B7A77B
:103274000080138507D6EFE02F848DAC83A701ED82
:103284006381072683A701EDFD17138701E9BA9728
:1032940083C70700A30FF4FC0347F4FD9307B002B0
:1032A4006306F7240347F4FD9307D0026300F72471
:1032B4000347F4FD9307A002630AF7220347F4FDD2
:1032C4009307F0026304F722A30704FE0327C4CC88
:1032D400A9476316F7009307B002A307F4FE032778
:1032E400C4CCAD476316F7009307D002A307F4FEDE
:1032F4000327C4CCB1476316F7009307A002A307C2
:10330400F4FE0327C4CCB5476316F7009307F00215
:10331400A307F4FE03A701ED9307E00363C6E702E6
:1033240083A701ED9386170023A8D1EC138701E945
:10333400BA970347F4FE2380E70083A701ED1387C0
:1033440001E9BA9723800700938501E9B7A70080B4
:10335400138507D6EFD05FF651AA83A701ED635F0B
:10336400F00083A701ED1387F7FF23A8E1EC83A7FF
:1033740001ED138701E9BA9723800700938501E9DA
:10338400B7A70080138507D6EFD01FF385A283A7C4
:1033940001ED638A071483A701EDFD17138701E983
:1033A400BA9783C70700A303F4FE034774FE930789
:1033B400B002630AF712034774FE9307D002630452
:1033C400F712034774FE9307A002630EF710034736
:1033D40074FE9307F0026308F710230704FE232406
:1033E40004FEB5A0138701E9832784FEBA9703C7B7
:1033F40007009307B0026303F704138701E98327E7
:1034040084FEBA9703C707009307D0026308F70244
:10341400138701E9832784FEBA9703C7070093073C
:10342400A002630DF700138701E9832784FEBA978E
:1034340003C707009307F0026316F70085472307C5
:10344400F4FE21A8832784FE85072324F4FE83A7A2
:1034540001ED032784FEE347F7F88347E4FED1C771
:10346400130784FD930744CD3A86BE85138501E98D
:1034740075302320A4FE832704FE91CB832504FE0C
:10348400B7A700801385C7D6EFD01FE385A0032715
:1034940084FD930644FD930744CD3686BA853E8564
:1034A400A93E2320A4FE832704FE91CB832504FE9A
:1034B400B7A70080138507D8EFD01FE005A883279E
:1034C40044FDBE85B7A70080138547D9EFD0DFDE62
:1034D40023A801EC938701E92380070001A80100D8
:1034E40031A0010021A0010011A001008320C133FB
:1034F40003248133130101348280011106CE22CCCE
:1035040000102326A4FE8327C4FEB9C7554681456F
:103514000325C4FEEF6040308327C4FE05472380A3
:10352400E7008327C4FE03C71700018BA380E700CD
:1035340003C72700018B136727FC2381E70003C718
:103544003700018B13671700A381E70003C7470007
:10355400018B2382E70011A00100F240624405615F
:1035640082805D7186C6A2C48008232EA4FA8327B4
:10357400C4FB99E3814725AA930744FC554681453A
:103584003E85EF606029930744FC5546BE8501459E
:10359400FD2383A781E22320F4FE21A803A781E26F
:1035A400832704FE1D8F9307200363F4E7008147FC
:1035B400FDA87D22AA87FDF37D2AAA8799C38147A6
:1035C400FDA08547A307F4FE232404FE0DA01307E2
:1035D40044FC832784FEBA9783C7070081C7A307E7
:1035E40004FE19A8832784FE85072324F4FE0327F9
:1035F40084FED147E3FDE7FC8347F4FEC9CF83A7EC
:1036040081E12322F4FE832744FE99E7B727F400DF
:10361400938707402322F4FE032744FEBA878A07D0
:103624003E979307803EB357F702232EF4FC2320E2
:1036340004FC39A00100832704FC85072320F4FC43
:10364400832704FC0327C4FDE3E6E7FE930744FC59
:10365400554681453E85EF60201C930744FC554642
:10366400BE850145292B83A781E22320F4FE21A8EE
:1036740003A781E2832704FE1D8F9307200363F4CD
:10368400E70081472DA0E928AA87FDF3ED20AA874A
:1036940099C3814729A88327C4FBBE86930744FCAA
:1036A40055473A86BE853685EF60A01585473E8529
:1036B400B640264461618280397106DE22DC8000D6
:1036C4002326A4FC8327C4FCA9C70327C4FC9307AF
:1036D40044FDBA8655473A86B6853E85EF6060124A
:1036E400930744FD5546BE850145A52683A781E27F
:1036F4002326F4FE11A803A781E28327C4FE1D8FAD
:103704009307200363E9E700A128AA87EDF7A52022
:1037140021A0010011A00100F250625421618280B5
:10372400011122CE00102326A4FE2324B4FE8327F5
:10373400C4FE032784FE98C7010072440561828099
:10374400011122CE00102326A4FE2324B4FE8327D5
:10375400C4FE032784FED8C7010072440561828039
:10376400411122C6000883C741ED93F7F70F3E8548
:10377400324441018280411122C6000883C751EDC1
:1037840093F7F70F3E85324441018280411106C60A
:1037940022C400088945371500285D370100B2406E
:1037A400224441018280411106C622C40008894591
:1037B40037150028B5370100B24022444101828008
:1037C400411106C622C4000831200100B24022443F
:1037D40041018280411106C622C40008B7E70030C7
:1037E40003D70700136707202390E700B7E70030EB
:1037F40003D70701136707202398E700B7E70030D2
:1038040003D70700136707022390E700B7E70030E8
:1038140003D70701136707022398E700B7E70030CF
:1038240083A647093707FDFF7D17F98E4167558F3A
:1038340023AAE708B7E7003003A74709136717006F
:1038440023AAE708B7E7003003A74709136707105F
:1038540023AAE708B707052021472388E700B7070D
:1038640005200547A380E700B707052003D7070015
:103874001377F7FB2390E700B707052003D707006A
:103884001377F7F72390E700B707052003D707005E
:103894001377F7FC2390E700B707052003D7070049
:1038A400419B136777002390E700B707052003D7F0
:1038B40047006D9B2392E7009120B7070520054739
:1038C400D8CBB74700801386A7C2AD450145EFC0EA
:1038D4001FE385452D45EFC05FE7AD450145EFC0CA
:1038E4007FE9B707052003D7470013672700239212
:1038F400E7000100B240224441018280797106D67A
:1039040022D40018B71700283547D8DBB71700288A
:1039140013071005D8DF930784FD3E85EF4020048C
:103924008547232EF4FC232004FE8947232CF4FC32
:10393400930784FDBE8537150028EF30D07989457B
:1039440037150028F13B0100B250225445618280B2
:10395400011122CE0010AA87A307F4FE0100B707C5
:103964000520DC47898BE5DFB70705200347F4FE14
:1039740098C70100B7070520DC47918BE5DFB7073F
:1039840005209C4793F7F70F3E85724405618280BA
:10399400011106CE22CC0010D53B1545553F130529
:1039A400F00F7D37AA87A307F4FEF53B8347F4FEA7
:1039B4003E85F240624405618280397106DE22DC74
:1039C40080002326A4FC83A781E12324F4FEF94785
:1039D4002322F4FE032784FE9307803EB357F702A5
:1039E4000327C4FCB307F7022320F4FE032704FED5
:1039F400832744FEB357F7022326F4FE8327C4FE2D
:103A040099EF85472326F4FE19A85937AA87A30FEF
:103A1400F4FC8347F4FD858B99E3854709A8832744
:103A2400C4FE1387F7FF2326E4FEE5F381473E85B2
:103A3400F250625421618280411106C622C40008FA
:103A4400B1331945313785330100B2402244410175
:103A54008280797106D622D40018AA87232CB4FC5C
:103A6400232AC4FC231FF4FC832784FD63820710EC
:103A7400832744FD638E070E83C741ED93F7F70F49
:103A8400639A070EA38A01EC0547238AE1ECD1A8C7
:103A94008357E4FD93F7F7032322F4FE130700048E
:103AA400832744FEB307F7402326F4FE0327C4FE0E
:103AB400832744FD63F6E700832744FD2326F4FEB1
:103AC400A53FE931094569358357E4FDA183C20760
:103AD400C18393F7F70F3E85A53D8357E4FD93F724
:103AE400F70F3E85B535232404FE39A8032784FD4A
:103AF400832784FEBA9783C707003E85913D8327B9
:103B040084FE85072324F4FE032784FE8327C4FE52
:103B1400E36EF7FC493951454D35AA8793C7170021
:103B240093F7F70F99C70547A38AE1EC238A01ECC1
:103B340099A08327C4FEC207C1830357E4FDBA9743
:103B4400231FF4FC032784FD8327C4FEBA97232C88
:103B5400F4FC032744FD8327C4FEB307F740232A5C
:103B6400F4FC832744FDE39507F2238A01EC21A0AA
:103B7400010011A00100B250225445618280797184
:103B840006D622D426D20018AA87232CB4FC232AD2
:103B9400C4FC231FF4FC832784FDB5CF832744FD95
:103BA400BDCB83C741ED93F7F70FA5EBA38A01ECD7
:103BB4000547238AE1ECD93E0D45593B8357E4FD83
:103BC400A183C207C18393F7F70F3E85513383570F
:103BD400E4FD93F7F70F3E85A53B232604FE15A0CD
:103BE400032784FD8327C4FEB304F7001305F00FF5
:103BF4008533AA872380F4008327C4FE8507232600
:103C0400F4FE0327C4FE832744FDE36BF7FC613E07
:103C1400238A01EC21A0010011A00100B25022541A
:103C2400925445618280411122C60008B7070520DD
:103C34000D4798D30100324441018280011122CE04
:103C440000102326A4FE2324B4FE2322C4FE03274B
:103C540044FE85476318F7008327C4FE032784FEC8
:103C6400D8D731A08327C4FE032784FE98DB010044
:103C7400724405618280011122CE00102326A4FE25
:103C84002324B4FE2322C4FE032744FE854763187D
:103C9400F7008327C4FE032784FED8DB31A08327E3
:103CA400C4FE032784FE98DF01007244056182800C
:103CB400011122CE00102326A4FE2324B4FE832760
:103CC400C4FE9843832784FEF98F99C3854711A0C6
:103CD40081473E85724405618280011122CE001025
:103CE4002326A4FE2324B4FE8327C4FE032784FED4
:103CF40098C70100724405618280011122CE001030
:103D04002326A4FE2324B4FE8327C4FE032784FEB3
:103D1400D8C70100724405618280011122CE0010CF
:103D24002326A4FE2324B4FE2322C4FE032744FE38
:103D340085476318F7008327C4FE032784FEF8CB66
:103D440031A08327C4FE032784FEB8CF0100724448
:103D540005618280011122CE00102326A4FE2324B3
:103D6400B4FE8327C4FE032784FEF8CF0100724407
:103D740005618280011122CE00102326A4FE232493
:103D8400B4FE2322C4FE032744FE85476318F700CC
:103D94008327C4FE032784FEF8C731A08327C4FE0B
:103DA400032784FEB8CB01007244056182800111AF
:103DB40022CE00102326A4FE2324B4FE2322C4FE14
:103DC400032744FE85476318F7008327C4FE0327AF
:103DD40084FEF8C331A08327C4FE032784FEB8C73A
:103DE4000100724405618280011122CE0010232655
:103DF400A4FE2324B4FE2322C4FE032744FE8547E5
:103E04006318F7008327C4FE032784FEB8D731A0C4
:103E14008327C4FE032784FEF8D70100724405619A
:103E24008280011122CE00102326A4FE2324B4FE96
:103E34002322C4FE032744FE85476318F700832723
:103E4400C4FE032784FEB8DB31A08327C4FE032706
:103E540084FEF8DB0100724405618280011122CEE8
:103E640000102326A4FE2324B4FE2322C4FE032729
:103E740044FE85476318F7008327C4FE032784FEA6
:103E8400B8DF31A08327C4FE032784FEF8DF0100D6
:103E9400724405618280011122CE00102326A4FE03
:103EA4002324B4FE2322C4FE032744FE854763185B
:103EB400F7008327C4FE032784FEB8D331A08327E9
:103EC400C4FE032784FEF8D3010072440561828096
:103ED400011122CE00102326A4FE2324B4FE83273E
:103EE400C4FE032784FE23A0E70801007244056191
:103EF4008280011106CE22CC00102326A4FE2324A6
:103F0400B4FE0146832584FE0325C4FE053B8325B8
:103F140084FE0325C4FED5330146832584FE032590
:103F2400C4FE913B0146832584FE0325C4FEEF3085
:103F3400500B0146832584FE0325C4FEEF30900513
:103F44000146832584FE0325C4FEEF30900101461B
:103F5400832584FE0325C4FE3D3F832584FE03257B
:103F6400C4FEBD370146832584FE0325C4FE1935EE
:103F74000146832584FE0325C4FE153D0100F2405D
:103F8400624405618280397106DE22DC80002326CA
:103F9400A4FC2324B4FCB287A303F4FC832584FC8F
:103FA4000325C4FCB937930784FD3E85EF30301BED
:103FB400832784FC232CF4FC8547232EF4FC232044
:103FC40004FE232204FE232404FE232604FE930776
:103FD40084FDBE850325C4FCEF30F00F834774FCD9
:103FE40099C7832584FC0325C4FCC53931A08325E6
:103FF40084FC0325C4FC11330100F2506254216196
:104004008280397106DE22DC80002326A4FC23246E
:10401400B4FC2322C4FC832584FC0325C4FCD13DC9
:10402400930784FD3E85EF309013832784FC232C73
:10403400F4FC232E04FC232004FE232204FE232468
:1040440004FE832744FC2326F4FE930784FDBE85E7
:104054000325C4FCEF3030080546832584FC032582
:10406400C4FCB13383C761ED89EB9305803E03251E
:10407400C4FCCD310547238BE1EC0546832584FC44
:104084000325C4FC59390546832584FC0325C4FC57
:10409400D5310100F250625421618280011106CEB3
:1040A40022CC00102326A4FE2324B4FE2322C4FE23
:1040B4002320D4FE032644FE832584FE0325C4FE68
:1040C40089370546832584FE0325C4FE313B01461A
:1040D400832584FE0325C4FEA9330546832584FE77
:1040E4000325C4FEA53B832584FE0325C4FECD33EE
:1040F400832704FE85C3832584FE0325C4FE4D3E29
:10410400AA87B337F00093F7F70F3E87832704FE9F
:104114002380E7000546832584FE0325C4FEA53BD2
:104124000100F240624405618280011122CE001038
:10413400AA872E872317F4FEBA87A306F4FE8357B3
:10414400E4FEA2071397070141878357E4FEA18386
:10415400C207C183BE868347D4FEB58F93F7F70F9A
:10416400B7A60080938646DA8607B69783D70700FA
:10417400C207C187B98FC207C1872317F4FE8357CB
:10418400E4FE3E85724405618280797122D600186E
:10419400AA87232CB4FC3287231FF4FCBA87231E7E
:1041A400F4FC8357E4FD2317F4FE231604FE99A8B8
:1041B4008357E4FEA2071397070141878357E4FE60
:1041C400A183C207C1833E868357C4FE832684FD30
:1041D400B69783C70700B18F93F7F70FB7A6008090
:1041E400938646DA8607B69783D70700C207C18746
:1041F400B98FC207C1872317F4FE8357C4FE85070E
:104204002316F4FE0357C4FE8357C4FDE362F7FA92
:104214008357E4FE3E85325445618280797106D627
:1042240022D40018232EA4FCAE87231DF4FC0357CC
:10423400A4FD854763E4E7008147ADA08357A4FD4F
:10424400FD170327C4FDBA9783C70700A207139776
:10425400070141878357A4FDF9178326C4FDB69748
:1042640083C70700C207C187D98FC207C187231735
:10427400F4FE8357A4FDF917C207C1833E86832544
:10428400C4FD89671385F7D00937AA872316F4FE7E
:104294000357E4FE8357C4FEB307F74093B71700F0
:1042A40093F7F70F3E85B250225445618280011185
:1042B40022CE00102326A4FE2324B4FE8327C4FEAA
:1042C4009843832784FEF98F99C3854711A08147BA
:1042D4003E85724405618280011122CE001023269E
:1042E400A4FE2324B4FE8327C4FE032784FE98C7B8
:1042F4000100724405618280011122CE0010232640
:10430400A4FE2324B4FE8327C4FE032784FED8C757
:104314000100724405618280797106D622D40018A6
:104324000547238CE1EC71671307072023AEE1EC0A
:10433400930784FD3E85EFF0CFA2AA87ADCB8347D8
:1043440084FD99CB834784FDE207E18763C60700B8
:10435400034784FD238CE1EC832784FDA183032799
:10436400C4FD1377F70F6207D98F3E878967938758
:10437400F75763FEE702832784FDA1830327C4FD67
:104384001377F70F6207D98F3E87B7470F009387DC
:10439400072463EEE700832784FDA1830327C4FD7C
:1043A4001377F70F6207D98F3E8723AEE1EC010044
:1043B400B250225445618280797122D60018232E8E
:1043C400A4FCAE87231DF4FC231704FE15A80100EA
:1043D400B7A700309C4F9583858B93F7F70FEDFBC0
:1043E4008357E4FE0327C4FD3E97B7A70030034775
:1043F40007002380E7008357E4FE85072317F4FEB4
:104404000357E4FE8357A4FDE363F7FC0100B7A759
:1044140000309C4F9D83858B93F7F70FEDDB0100F4
:104424000100325445618280797122D60018232E0E
:10443400A4FCAE873287231DF4FCBA87A30CF4FCDA
:10444400231704FE8357E4FE138717002317E4FEA3
:104454003E878327C4FDBA97130730052380E700FE
:1044640003C781ED8357E4FE938617002317D4FE18
:10447400BE868327C4FDB697136707F81377F70F33
:104484002380E7008357E4FE138717002317E4FE15
:104494003E878327C4FDBA970357A4FD1377F70F0C
:1044A4002380E7008357A4FDA18393960701C1826B
:1044B4008357E4FE138717002317E4FE3E87832700
:1044C400C4FDBA9713F7F60F2380E700830794FD22
:1044D4008D8BE207E18793E7470093968701E18696
:1044E4008357E4FE138717002317E4FE3E878327D0
:1044F400C4FDBA9713F7F60F2380E7008357E4FE51
:104504003E85325445618280797106D622D40018E2
:10451400232EA4FCAE87231DF4FC8357A4FD3E8602
:104524008325C4FD89671385F7D0EFF01FC6AA87DA
:104534002317F4FE8357A4FD13871700231DE4FCFF
:104544003E878327C4FDBA970357E4FE1377F70F1A
:104554002380E7008357E4FEA18393960701C18279
:104564008357A4FD13871700231DE4FC3E8783278C
:10457400C4FDBA9713F7F60F2380E7008357A4FD11
:10458400BE850325C4FD0D3D0100B2502254456192
:104594008280397106DE22DC8000AA87A307F4FC3E
:1045A400A1472317F4FE231604FE8346F4FC0357A5
:1045B400E4FE9307C4FD3686BA853E85B535AA87E1
:1045C4002316F4FE8357C4FE138717002316E4FE54
:1045D400C117A297130700042386E7FE0357C4FEFE
:1045E4009307C4FDBA853E8505370100F250625435
:1045F40021618280397106DE22DC8000AA872E8741
:10460400A307F4FCBA872307F4FCA5472317F4FE99
:10461400231604FE8346F4FC0357E4FE9307C4FD0B
:104624003686BA853E850935AA872316F4FE835754
:10463400C4FE138717002316E4FEC117A2971307BD
:1046440010042386E7FE8357C4FE1387170023163E
:10465400E4FEC117A2970347E4FC2386E7FE035751
:10466400C4FE9307C4FDBA853E85793D0100F2502E
:10467400625421618280597186D6A2D48018AA8797
:10468400A30FF4F8231704FEB757530193870725A4
:104694002320F4FA930710102322F4FAB707010138
:1046A400938707102324F4FAD1472316F4FE834694
:1046B400F4F90357C4FE9307C4FA3686BA853E85D7
:1046C400A533AA872317F4FE8357E4FE1387170044
:1046D4002317E4FEC117A29713075004238EE7FAA9
:1046E4008357E4FE1307C4FABA97034704FABA8F50
:1046F400034714FA3A8F034724FABA8E034734FA6D
:104704003A8E034744FA3A83034754FABA88034774
:1047140064FA3A88034774FA3A85034784FABA85F7
:10472400034794FA3A860347A4FABA860347B4FACD
:104734002380F701A380E7012381D701A381C70167
:1047440023826700A382170123830701A383A700A1
:104754002384B700A384C7002385D700A385E7007B
:104764008357E4FEB1072317F4FE0357E4FE9307CF
:10477400C4FABA853E85493B0100B65026546561AA
:104784008280357106CF22CD0011AA87A307F4F6E3
:10479400231704FEB7A70080938747FA03AF0700E7
:1047A40083AE470003AE870003A3C70083A80701B5
:1047B40003A84701884FCC4F9053D4539857DC57E4
:1047C400232EE4F72320D4F92322C4F9232464F804
:1047D400232614F9232804F9232AA4F8232CB4F853
:1047E400232EC4F82320D4FA2322E4FA2324F4FA4F
:1047F400930780032316F4FE8346F4F60357C4FE9E
:104804009307C4FA3686BA853E853939AA872317B1
:10481400F4FE8357E4FE138717002317E4FEC11741
:10482400A29713076004238EE7FA8357E4FE130765
:10483400C4FABA97BE869307C4F7130700033A86EF
:10484400BE853685EF40F07B8357E4FE93870703EC
:104854002317F4FE0357E4FE9307C4FABA853E8592
:1048640065310100FA406A440D6182805D7186C63B
:10487400A2C48008AA872E87232CC4FAA30FF4FAB3
:10488400BA87230FF4FA231704FEB5472316F4FE60
:104894008346F4FB0357C4FE9307C4FD3686BA85EA
:1048A4003E855936AA872317F4FE8357E4FE1387FF
:1048B40017002317E4FEC117A29713075006238697
:1048C400E7FE8357E4FE138717002317E4FE03472C
:1048D400E4FB1377F7071377F70FC117A297238623
:1048E400E7FE8357E4FE138717002317E4FE03272C
:1048F40084FB1377F70FC117A2972386E7FE83275C
:1049040084FB93D687008357E4FE1387170023178D
:10491400E4FE13F7F60FC117A2972386E7FE832759
:1049240084FB93D607018357E4FE138717002317EC
:10493400E4FE13F7F60FC117A2972386E7FE832739
:1049440084FB93D687018357E4FE1387170023174C
:10495400E4FE13F7F60FC117A2972386E7FE035769
:10496400E4FE9307C4FDBA853E85793E930744FC73
:104974003E85EFE01FBFAA8793C7170093F7F70F91
:1049840091C7930744FC3E85EFE03FB78347E4FBC0
:1049940093F7F70793F7F70F2302F4FC832784FBBD
:1049A40093F7F70F034754FC018BD98FA302F4FC50
:1049B400832784FBA18393F7F70F034764FC018BE0
:1049C400D98F2303F4FC832784FBC18393F7F70F68
:1049D400034774FC018BD98FA303F4FC832784FB66
:1049E400E183034784FC018BD98F2304F4FC9307F0
:1049F40044FC3E85EFE05FCC034744FC238CE1ECB0
:104A0400832744FCA183032784FC1377F70F6207F1
:104A1400D98F3E8723AEE1EC0100B64026446161A4
:104A24008280011106CE22CC0010AA87A307F4FECF
:104A34008347F4FE8DC793050008370500286938BD
:104A44009305000437050028413893050002370513
:104A540000285930C14537050028BD3825A09305E5
:104A64000008370500284938930500043705002855
:104A740061309305000237050028BD38C14537056C
:104A840000289D380100F24062440561828039713A
:104A940006DE22DC8000AA87A307F4FC231704FEA9
:104AA400A5472316F4FE8346F4FC0357C4FE93077C
:104AB40084FD3686BA853E85853AAA872317F4FE97
:104AC4008357E4FE138717002317E4FEC117A29748
:104AD400130790042384E7FEA30504FE85453705E8
:104AE4000028EFF0CFFCAA8793B7170093F7F70FCE
:104AF40093F7F70F0347B4FED98FA305F4FE894556
:104B040037050028EFF0AFFAAA8799E3894711A087
:104B1400814793F7F70F0347B4FED98FA305F4FE3B
:104B2400914537050028EFF08FF8AA8799E391475C
:104B340011A0814793F7F70F0347B4FED98FA3055C
:104B4400F4FEA14537050028EFF06FF6AA8799E334
:104B5400A14711A0814793F7F70F0347B4FED98FFC
:104B6400A305F4FE8357E4FE138717002317E4FE1E
:104B7400C117A2970347B4FE2384E7FE0357E4FE5C
:104B8400930784FDBA853E8541320100F250625498
:104B940021618280397106DE22DC8000AA87A307A6
:104BA400F4FC231704FEA5472316F4FE8346F4FC05
:104BB4000357C4FE930784FD3686BA853E85AD301F
:104BC400AA872317F4FE8357E4FE138717002317DD
:104BD400E4FEC117A2971307A0042384E7FEA305EC
:104BE40004FEC14537050028EFF06FECAA8799C38E
:104BF400854711A0814793F7F70F0347B4FED98F78
:104C0400A305F4FE9305000237050028EFF02FEA10
:104C1400AA8799C3894711A0814793F7F70F0347E0
:104C2400B4FED98FA305F4FE9305000437050028CC
:104C3400EFF0EFE7AA8799C3914711A0814793F753
:104C4400F70F0347B4FED98FA305F4FE93050008BC
:104C540037050028EFF0AFE5AA8799C3A14711A053
:104C6400814793F7F70F0347B4FED98FA305F4FEEA
:104C74008357E4FE138717002317E4FEC117A29796
:104C84000347B4FE2384E7FE0357E4FE930784FD41
:104C9400BA853E8595380100F250625421618280C4
:104CA400397106DE22DC80002326A4FCAE8723159E
:104CB400F4FCB7A70080938747FD9043D4439847FB
:104CC400DC472328C4FC232AD4FC232CE4FC232E15
:104CD400F4FC8357A4FC8D8BC207C183639F073800
:104CE4000357A4FC8D4763FAE7388357A4FC8983F0
:104CF4002316F4FE231704FE95AE8357E4FE8A07B9
:104D04000327C4FCBA972324F4FE832784FE83C7B5
:104D14000700A303F4FE832784FE83C7170023033D
:104D2400F4FE832784FE890783C7070013970701CE
:104D34004187832784FE8D0783C70700A207C20724
:104D4400C187D98FC207C1872312F4FE034774FEBB
:104D54008D4763EFE72E834774FE8A07C117A29736
:104D640083A707FE2320F4FE834764FE1947636389
:104D7400F72E13972700B7A70080938747FEBA97AB
:104D84009C438287034774FE938681F2BA87860721
:104D9400BA978A07B69723800700034774FE938661
:104DA40081F2BA878607BA978A07B697A380070065
:104DB400034774FE938681F2BA878607BA978A07F7
:104DC400B69723A20700832504FE37050028EFF0D9
:104DD400AFD241AC034774FE938681F2BA8786074B
:104DE400BA978A07B69705472380E700034774FEFE
:104DF400938681F2BA878607BA978A07B697A38003
:104E04000700034774FE938681F2BA878607BA9730
:104E14008A07B69723A20700832504FE37050028D6
:104E2400EFF08FCB3DAC034774FE938681F2BA87D3
:104E34008607BA978A07B69723800700034774FE4C
:104E4400938681F2BA878607BA978A07B697054789
:104E54002384E700034774FE938681F2BA878607AA
:104E6400BA978A07B69783C717006399071E8325E5
:104E740004FE37050028EFF02FC8CDA2034774FEC7
:104E8400938681F2BA878607BA978A07B697054749
:104E94002380E700034774FE938681F2BA8786076E
:104EA400BA978A07B69705472384E700034774FE39
:104EB400938681F2BA878607BA978A07B69783C71B
:104EC4001700639F0718832504FE37050028EFF0B9
:104ED400AFC079A2034774FE938681F2BA8786072E
:104EE400BA978A07B6970547A380E700034774FE7D
:104EF400938681F2BA878607BA978A07B6970547D9
:104F04002381E700034774FE938681F2BA878607FC
:104F1400BA978A07B69723840700835744FEA1E70C
:104F2400034774FE938681F2BA878607BA978A0785
:104F3400B69705472380E700034774FE938681F202
:104F4400BA878607BA978A07B697A38007000347EC
:104F540074FE938681F2BA878607BA978A07B69752
:104F640023A207000DA0835644FE034774FE930753
:104F74004006B386F602138681F2BA878607BA978B
:104F84008A07B297D4C3832504FE37050028EFF0BF
:104F9400AFB4C1A8034774FE938681F2BA8786072B
:104FA400BA978A07B6970547A380E700034774FEBC
:104FB400938681F2BA878607BA978A07B6972381C0
:104FC4000700034774FE938681F2BA878607BA976F
:104FD4008A07B69723840700835744FEB9E303473F
:104FE40074FE938681F2BA878607BA978A07B697C2
:104FF40023800700034774FE938681F2BA878607ED
:10500400BA978A07B697A3800700034774FE93866E
:1050140081F2BA878607BA978A07B69723A2070050
:105024000DA0835644FE034774FE93074006B386DF
:10503400F602138681F2BA878607BA978A07B2976F
:10504400D4C3832504FE37050028EFF0EFAA11A886
:10505400010001A8010031A0010021A0010011A05C
:1050640001008357E4FE85072317F4FE0357E4FE8B
:105074008357C4FEE363F7C811A00100F2506254E1
:1050840021618280397122DE80002326A4FC8327DB
:10509400C4FC92073727F40013070740B357F702FD
:1050A4002326F4FE8327C4FC53F717D0B7A7008048
:1050B40087A78709D377F710B7A7008007A7C70981
:1050C4005377F7188327C4FED3F717D0D377F7089D
:1050D4002724F4FE072784FEB7A7008087A7070AC2
:1050E4005377F710B7A7008087A7470AD377F7004D
:1050F400D39717C02322F4FEB7A700309C5B23206C
:10510400F4FEB7A70030DC57232EF4FCB7A7003019
:105114009C5F232CF4FC0100B7A700309C4F8D83C7
:10512400858B93F7F70FEDFBB7A7003023A8070291
:10513400B7A700300327C4FED8D3B7A7003003278E
:1051440044FE98D7B7A7003013070007D8D7B7A7EE
:1051540000301307F07FF8C329A0B7A7003083C736
:105164000700B7A700309C4F9183858B93F7F70F07
:10517400EDD7B7A70030032784FD98DFB7A7003029
:10518400032704FE1367173098DB01007254216172
:105194008280797106D622D40018B7A7008093873D
:1051A40047FD9043D4439847DC47232EC4FC232077
:1051B400D4FE2322E4FE2324F4FEA30704FEE1A884
:1051C4000347F4FE938681F2BA878607BA978A0763
:1051D400B69783C71700DDCB0347F4FE938681F2AD
:1051E400BA878607BA978A07B697DC43C5C30347CD
:1051F400F4FE938681F2BA878607BA978A07B69730
:10520400DC439386F7FF138681F2BA878607BA9741
:105214008A07B297D4C30347F4FE938681F2BA8710
:105224008607BA978A07B697DC43ADE30347F4FED3
:10523400938681F2BA878607BA978A07B697A380BE
:1052440007000347F4FE938681F2BA878607BA976C
:105254008A07B69783C7070091CF8347F4FE8A076E
:10526400C117A29783A7C7FEBE8537050028EFF0B4
:10527400AF8629A88347F4FE8A07C117A29783A79C
:10528400C7FEBE8537050028EFF00F878347F4FE7D
:105294008507A307F4FE0347F4FE8D47E3F2E7F224
:1052A400938781F59C4B91CB938781F59C4B138716
:1052B400F7FF938781F598CB85AA938781F583C7F8
:1052C4000700638A070E938781F583C727009DC76C
:1052D400938781F523810700938781F583C7D701DD
:1052E400B337F00093F7F70F3E85EFF08FF3938712
:1052F40081F59847938781F598CB3DA2938781F5F3
:1053040005472381E700938781F583C7C701B33736
:10531400F00093F7F70F3E85EFF0AFF0938781F538
:10532400D843938781F598CB938781F583D7C700BA
:10533400638C070E938781F583D7C700FD171397F6
:1053440007014183938781F52396E700938781F5CD
:1053540083D7C700639A070C938781F523800700DE
:10536400938781F5DC4B85CF938781F59C4F85CB63
:10537400938781F505472381E700938781F583C7E8
:10538400E701B337F00093F7F70F3E85EFF06FE9CD
:10539400938781F5D84B938781F598CB71A0938738
:1053A40081F583C717003E85EFF0AFE7938781F55A
:1053B40023A8070095A8938781F5DC4BB5C793878D
:1053C40081F59C4FB5C3938781F583C727009DC79B
:1053D400938781F523810700938781F583C7F701BC
:1053E400B337F00093F7F70F3E85EFF08FE3938721
:1053F40081F5984F938781F598CB3DA0938781F5EC
:1054040005472381E700938781F583C7E701B33715
:10541400F00093F7F70F3E85EFF0AFE0938781F547
:10542400D84B938781F598CBB25022544561828042
:105434001D7186CEA2CC80102326A4FAAE87231534
:10544400F4FA0357A4FAB54763F3E73E0357A4FA03
:10545400B947B357F7022311F4FE231704FEC9A674
:105464000357E4FEBA878E07998F86073E87832702
:10547400C4FABA97232EF4FC8327C4FD83C707001C
:10548400A30DF4FC8327C4FD83C71700230DF4FC8C
:105494008347B4FD639007388347A4FD639C0736B4
:1054A4008327C4FD83C72700A30CF4FC8327C4FD12
:1054B40083C73700230CF4FC8327C4FD83C747004C
:1054C400A30BF4FC8327C4FD83C75700230BF4FC10
:1054D4008327C4FD83C76700A30AF4FC8327C4FDA4
:1054E4009D0783C707001397070141878327C4FDDE
:1054F400A10783C70700A207C207C187D98FC207C4
:10550400C1872319F4FC8327C4FD83C79700A3082C
:10551400F4FC8327C4FD83C7A7002308F4FC832776
:10552400C4FD83C7B700A307F4FC8327C4FD83C766
:10553400C7002307F4FC8327C4FD83C7D700A30651
:10554400F4FC034714FD8547631DF70E034704FD70
:1055540093074006B307F7022324F4FC0347F4FC43
:1055640093074006B307F7022322F4FC938781F5DF
:10557400032784FCD8CB938781F5032744FC98CF79
:105584008347E4FCB337F00093F7F70F3E87938724
:1055940081F5238FE7008347D4FCB337F00093F7FA
:1055A400F70F3E87938781F5A38FE700832784FC59
:1055B40085C3832744FC89EF8347E4FCB337F000B9
:1055C40093F7F70F3E87938781F5A380E70015A033
:1055D400832784FC99EF832744FC81CF8347D4FC41
:1055E400B337F00093F7F70F3E87938781F5A380D5
:1055F400E700938781F583C70700A1E7832784FC2D
:1056040095CB832744FC9DC7938781F50547238168
:10561400E700938781F583C7E701B337F00093F779
:10562400F70F3E85EFF0EFBF938781F5032784FCE6
:1056340098CB01A8938781F583C717003E85EFF0C7
:105644004FBE834794FD6388071C034794FD854739
:105654006319F706938781F523800700938781F503
:10566400DC4B85CF938781F59C4F85CB938781F560
:1056740005472381E700938781F583C7E701B337A3
:10568400F00093F7F70F3E85EFF0AFB9938781F5FC
:10569400D84B938781F598CBBDAA938781F503C72F
:1056A4001700938781F52381E700938781F583C7EA
:1056B40017003E85EFF0EFB6938781F523A8070026
:1056C40099AA034794FD89476317F714034784FD98
:1056D40093074006B307F7022320F4FC034774FD45
:1056E40093074006B307F702232EF4FA938781F554
:1056F400032704FCD8C3938781F50327C4FB98C709
:10570400834764FDB337F00093F7F70F3E87938721
:1057140081F5238EE700834754FDB337F00093F7F8
:10572400F70F3E87938781F5A38EE700835724FD07
:1057340091E7938781F523960700BDA0938781F5B0
:10574400D843938781F59C47BA972324F4FE832793
:1057540084FE89E7930740062324F4FE035724FDBF
:1057640093074006B307F702232CF4FA032784FBBC
:10577400832784FEB357F7022322F4FE832744FED3
:1057840081E785472322F4FE032744FEC16763773C
:10579400F700832744FEC207C18319A0C167FD1720
:1057A400138781F52316F700938781F5DC4385CBB6
:1057B400938781F505472381E700938781F583C7A4
:1057C400C701B337F00093F7F70F3E85EFF06FA5ED
:1057D400938781F5D843938781F598CB35A0938738
:1057E40081F523810700938781F583C7D701B337F8
:1057F400F00093F7F70F3E85EFF0AFA2938781F5A2
:105804009847938781F598CB938781F50547238043
:10581400E70011A001008357E4FE85072317F4FE77
:105824000357E4FE835724FEE36CF7C211A0010082
:10583400F640664425618280011106CE22CC001018
:10584400EFE09FAD23A001EE239201EE239301EE3E
:10585400A30704FEADA80347F4FE938681F2BA873A
:105864008607BA978A07B697238007000347F4FE92
:10587400938681F2BA878607BA978A07B697A38078
:1058840007000347F4FE938681F2BA878607BA9726
:105894008A07B697238107000347F4FE938681F2B3
:1058A400BA878607BA978A07B69723A207000347E1
:1058B400F4FE938681F2BA878607BA978A07B69769
:1058C400238407008347F4FE8507A307F4FE0347F8
:1058D400F4FE8D47E3F1E7F801000100F240624471
:1058E400056182805D7186C6A2C48008AA87A30F61
:1058F400F4FA83A701EE1147636FF73E139727006D
:10590400B7A7008093870700BA979C438287034711
:10591400F4FB930730056313F73E239301EE83D71B
:1059240061EE1387170093160701C1822393D1EE0A
:105934003E87938781EEBA970347F4FB2380E70001
:10594400054723A0E1EE5DAE83D761EE1387170010
:1059540093160701C1822393D1EE3E87938781EE8C
:10596400BA970347F4FB2380E700094723A0E1EE3D
:1059740049AE83D761EE1387170093160701C182DE
:105984002393D1EE3E87938781EEBA970347F4FBC6
:105994002380E7008347F4FB139707014183239295
:1059A400E1EE0D4723A0E1EEA9AE83D761EE1387A4
:1059B400170093160701C1822393D1EE3E87938784
:1059C40081EEBA970347F4FB2380E7008347F4FB97
:1059D400A20713970701418783D741EEC207C18706
:1059E400D98FC207C1871397070141832392E1EE40
:1059F40003D741EE9D4763F8E70003D741EE9307D1
:105A0400000463F5E70023A001EEE5AC114723A0F1
:105A1400E1EEC5AC83D761EE138717009316070137
:105A2400C1822393D1EE3E87938781EEBA970347D1
:105A3400F4FB2380E70003D761EE83D741EE636173
:105A4400F72C83D741EEBE85138581EEEFE00FFD81
:105A5400AA87638C0722938781EE83C7170093F785
:105A6400F7072306F4FE83C781ED0347C4FE630CE6
:105A7400F7000347C4FE9307F0076306F700834764
:105A8400C4FE63970726938781EE83C74700A30567
:105A9400F4FE8347B4FE8D8B2305F4FE938781EED9
:105AA40083C75700A304F4FE8347C4FE938717F803
:105AB400B337F00093F7F70F2304F4FE834794FE03
:105AC400938707FA130700026367F71A13972700EF
:105AD400B7A7008093874701BA979C43828783477F
:105AE40084FE6384071E8347A4FE3E85EFE07FAAFD
