:0200000480007A
:1000000073100030B701004093810178B70200807F
:100010009382021473905230731040307310403446
:10002000732510301375850263080500372500001D
:100030007320053073103000732540F163140504FC
:100040003701044013010100130201007310013451
:10005000B70200809382E20AE7800200B7020080C4
:100060009382C209E7800200130500009305000097
:10007000B72200809382429DB700008093804009A0
:100080006780020073F00730731040307300501027
:100090006FF0DFFF130000006FF0DFFE67800000ED
:1000A000411122C600080100324441018280411101
:1000B00006C622C40008138741F7938701E1B307FE
:1000C000F7403E868145138501E1EF60304E13878E
:1000D00001E193878188B307F7403E86B7770080B8
:1000E0009385871713858188EF60F04A138781888D
:1000F00093870188B307F7403E86B77700809385E2
:10010000071713850188EF6010490100B2402244AF
:0401100041018280A7
:10014000232E51FE93020100130101F8137101FFE8
:10015000232211002324510083A2C2FF2326310051
:1001600023284100232A5100232C6100232E7100F3
:1001700023208102232291022324A1022326B102FB
:100180002328C102232AD102232CE102232EF102CB
:1001900023200105232211052324210523263105CF
:1001A00023284105232A5105232C6105232E71059F
:1001B00023208107232291072324A1072326B107A7
:1001C0002328C107232AD107232CE107232EF10777
:1001D0007322003473231034232061007324003011
:1001E00073252034F325103413060100B7010040B5
:1001F00093810178B702008093820255E780020064
:100200007310043003230100731013348321C100E1
:100210000322010183224101032381018323C101C0
:100220000324010283244102032581028325C102A4
:100230000326010383264103032781038327C10388
:100240000328010483284104032981048329C1046C
:10025000032A0105832A4105032B8105832BC10550
:10026000032C0106832C4106032D8106832DC10634
:10027000032E0107832E4107032F8107832FC10718
:100280008320410003218100730020300000000022
:10029000000000000000000000000000000000005E
:1002A000000000000000000000000000000000004E
:1002B000000000000000000000000000000000003E
:0402C000000000003A
:1002C400011122CE0010AA872324B4FE2322C4FEE7
:1002D400A307F4FE8347F4FE89EFB70700401387B2
:1002E4008700832784FE8A07BA97032744FE98C3AE
:1002F40011A813878190832784FE8A07BA9703275E
:1003040044FE98C30100724405618280011122CE2B
:1003140000102326A4FEAE87A305F4FEB706000C46
:100324000347B4FE8327C4FE8A07B69798C3010027
:10033400724405618280797122D60018AA87232C21
:10034400B4FCA30FF4FC8347F4FD9DEB3707000CCA
:100354008967BA979C432326F4FE832784FD0547C7
:10036400B317F7003E878327C4FED98F2326F4FEF4
:100374003707000C8967BA970327C4FE98C325A8DA
:100384003707000C8967BA9783A707082326F4FE6A
:10039400832784FD0547B317F7003E878327C4FEF0
:1003A400D98F2326F4FE3707000C8967BA970327F1
:1003B400C4FE23A0E70801003254456182807971AC
:1003C40022D60018AA87232CB4FCA30FF4FC83477D
:1003D400F4FD8DEF3707000C8967BA979C432326F9
:1003E400F4FE832784FD0547B317F70093C7F7FF8F
:1003F4003E878327C4FEF98F2326F4FE3707000CBB
:100404008967BA970327C4FE98C335A83707000C39
:100414008967BA9783A707082326F4FE832784FDF8
:100424000547B317F70093C7F7FF3E878327C4FE3A
:10043400F98F2326F4FE3707000C8967BA97032740
:10044400C4FE23A0E70801003254456182800111F3
:1004540022CE0010AA87A307F4FE8347F4FE81EBA3
:100464003707000CB7072000BA97DC4339A03707D9
:10047400000CB7172000BA97DC433E85724405612F
:100484008280011122CE0010AA872324B4FEA30780
:10049400F4FE8347F4FE91EB3707000CB707200006
:1004A400BA97032784FED8C309A83707000CB717E7
:1004B4002000BA97032784FED8C301007244056163
:1004C4008280011122CE0010AA872324B4FEA30740
:1004D400F4FE8347F4FE91EB3707000CB7072000C6
:1004E400BA97032784FE98C309A83707000CB717E7
:1004F4002000BA97032784FE98C301007244056163
:100504008280011106CE22CC0010014589372326B2
:10051400A4FEB7070040138787008327C4FE8A0719
:10052400BA979C4399CFB707004013878700832766
:10053400C4FE8A07BA979C4382978325C4FE01456B
:1005440089370100F240624405618280011106CEC0
:1005540022CC0010F32720342326F4FE8327C4FE84
:100564002324F4FE832784FE63C40702832784FEC6
:10057400BD8B2D47636BF70013972700B777008077
:100584009387C7DBBA979C43828701000100FDBFB4
:100594008D3F0100F240624405618280011106CE64
:1005A40022CC0010AA87A307F4FE8347F4FE3E85FD
:1005B400EF00D0320100F2406244056182800111F3
:1005C40022CE00102326A4FEAE87A305F4FE8327C3
:1005D400C4FE0347B4FE2380E70085473E8572448A
:1005E40005618280797122D60018232EA4FC232C65
:1005F400B4FC232604FE35A0032784FD93071700CB
:10060400232CF4FC8327C4FD93861700232ED4FCEB
:10061400034707002380E7008327C4FE85072326BA
:10062400F4FE832784FD83C70700F9F78327C4FEFC
:100634003E85325445618280797106D622D40018F1
:10064400232EA4FCAE87232AC4FC2328D4FCA30DA8
:10065400F4FC232604FE832744FDFD17232AF4FC1F
:10066400032704FDA54763FFE704032704FDA94707
:100674003357F7028347B4FDBA86032644FDBE858B
:100684000325C4FD553F2326A4FE8327C4FE032768
:10069400C4FDBA97232EF4FC15A88347B4FDBE8588
:1006A4000325C4FD293F8327C4FD8507232EF4FCBD
:1006B4008327C4FE85072326F4FE832744FDFD1704
:1006C400232AF4FC832744FDE349F0FC032704FDBB
:1006D400A947B377F70293F7F70F9387070393F7C5
:1006E400F70FBE850325C4FDD93D2A878327C4FEA1
:1006F400BA972326F4FE8327C4FE3E85B2502254C3
:1007040045618280797106D622D40018232EA4FC78
:10071400AE87232AC4FC2328D4FCA30DF4FC23268F
:1007240004FE832704FD63D90700832704FDB30770
:10073400F0402324F4FE29A0832704FD2324F4FE9F
:10074400832744FDFD17232AF4FC032784FEA547D1
:1007540063F3E706832704FD63D60702032784FEB9
:10076400A947B357F702B307F0403E878347B4FD68
:10077400BA86032644FDBE850325C4FD61372326BE
:10078400A4FE15A0032784FEA947B357F7023E87AA
:100794008347B4FDBA86032644FDBE850325C4FD04
:1007A40095372326A4FE8327C4FE0327C4FDBA97E6
:1007B400232EF4FC85A8832704FD63DD0702832729
:1007C40044FDFD17232AF4FC35A08347B4FDBE8500
:1007D4000325C4FDED338327C4FD8507232EF4FCD4
:1007E4008327C4FE85072326F4FE832744FDFD17D3
:1007F400232AF4FC832744FDE349F0FC832704FD0A
:1008040063D207029305D0020325C4FD4D3B2A871A
:100814008327C4FEBA972326F4FE8327C4FD8507E5
:10082400232EF4FC032784FEA947B377F70293F73A
:10083400F70F9387070393F7F70FBE850325C4FDCE
:10084400BD3B2A878327C4FEBA972326F4FE832759
:10085400C4FE3E85B250225445618280797106D629
:1008640022D40018232EA4FCAE87232AC4FC2328F8
:10087400E4FCA30DF4FCB687230DF4FC232604FE4C
:10088400832744FDFD17232AF4FC832704FD918369
:10089400B5C3832704FD13D747008346A4FD8347CC
:1008A400B4FD032644FDBE850325C4FD453F2A87C8
:1008B4008327C4FEBA972326F4FE8327C4FE0327A6
:1008C400C4FDBA97232EF4FC15A88347B4FDBE8556
:1008D4000325C4FDED318327C4FD8507232EF4FCD5
:1008E4008327C4FE85072326F4FE832744FDFD17D2
:1008F400232AF4FC832744FDE349F0FC832704FD09
:1009040013F7F700A54763E2E702832704FD93F793
:10091400F70FBD8B93F7F70F9387070393F7F70F41
:10092400BE850325C4FD613999A08347A4FD8DC309
:10093400832704FD93F7F70FBD8B93F7F70F938786
:10094400770393F7F70FBE850325C4FD8D3905A002
:10095400832704FD93F7F70FBD8B93F7F70F938766
:10096400770593F7F70FBE850325C4FD89398327DF
:10097400C4FE85072326F4FE8327C4FE3E85B250B9
:10098400225445618280797106D622D40018232E20
:10099400A4FC232CB4FC232AC4FC2328D4FC232445
:1009A40004FE232204FE8327C4FD638107268327D4
:1009B400C4FD2380070099AC832744FD03C70700C7
:1009C400930750026308F702032744FD93071700B7
:1009D400232AF4FC8327C4FD93861700232ED4FC1A
:1009E400034707002380E700832744FE850723226B
:1009F400F4FE29AC832744FD850703C7070093074A
:100A040050026317F7028327C4FD13871700232EB0
:100A1400E4FC130750022380E700832744FD890781
:100A2400232AF4FC832744FE85072322F4FEF9AA33
:100A340093070002A307F4FE230704FE832744FD63
:100A44008507232AF4FC832744FD03C70700930783
:100A540000036315F70493070003A307F4FE832739
:100A640044FD8507232AF4FC15A88347E4FE3E874A
:100A7400BA878A07BA97860713F7F70F832744FDC7
:100A840083C70700BA9793F7F70F938707FD2307E8
:100A9400F4FE832744FD8507232AF4FC832744FDC1
:100AA40003C707009307F00263FAE700832744FDB6
:100AB40003C7070093079003E3F9E7FA0347E4FE4B
:100AC400832744FEBA973E87832784FD63FEE700AD
:100AD400832784FD13F7F70F832744FE93F7F70F5B
:100AE400B307F7402307F4FE832744FD83C70700B9
:100AF400938787FA130700026365F70E139727009D
:100B0400B77700809387C7DEBA979C4382870346F2
:100B1400E4FE832704FD138747002328E4FC98435D
:100B24008347F4FEBA86BE850325C4FDE13E232433
:100B3400A4FE55A80346E4FE832704FD138747005B
:100B44002328E4FC98438347F4FEBA86BE85032534
:100B5400C4FDDD342324A4FE79A00346E4FE8327E8
:100B640004FD138747002328E4FC98438347F4FEDD
:100B74008146BE850325C4FDD5312324A4FEA5A04A
:100B84000346E4FE832704FD138747002328E4FC7F
:100B940098438347F4FE8546BE850325C4FD7D390D
:100BA4002324A4FE89A0832704FD13874700232858
:100BB400E4FC9C43BE850325C4FD2D342324A4FEFC
:100BC4001DA0832704FD138747002328E4FC9C43CE
:100BD40093F7F70FBE850325C4FDD5322324A4FE65
:100BE40019A0FD5795A8832744FD8507232AF4FC03
:100BF400832784FE0327C4FDBA97232EF4FC03271E
:100C040044FE832784FEBA972322F4FE832744FDFF
:100C140083C7070099C7832744FE032784FDE3EDB8
:100C2400E7D8832744FE032784FD63F7E70083277F
:100C3400C4FD2380070039A88327C4FDFD17232E94
:100C4400F4FC8327C4FD23800700832744FEFD179B
:100C54002322F4FE832744FE3E85B250225445618C
:100C640082805D7106D622D40018232EA4FC232C86
:100C7400B4FC232AC4FC54C418C85CC8232C040143
:100C8400232E1401930704022328F4FC832704FD74
:100C9400B1172324F4FE832784FEBE86032644FD75
:100CA400832584FD0325C4FDF9392326A4FE832767
:100CB400C4FE3E85B250225461618280011106CE89
:100CC40022CC00102326A4FE2324B4FE2322C4FE37
:100CD400832644FE032684FE9305E0150325C4FE03
:100CE4005D31AA873E85F24062440561828061716C
:100CF4002326111A2324811A001B232EA4E4232C57
:100D0400B4E4232AC4E4B7770080938707E703A3F6
:100D1400070083A8470003A88700C8478C4BD04B23
:100D2400944FD84F9C53232664E6232814E7232AA0
:100D340004E7232CA4E6232EB4E62320C4E82322CC
:100D4400D4E82324E4E82326F4E8930704E90326FB
:100D540044E5832584E53E8595372A879307D01596
:100D640063DCE70083A74188D8479307C4E6BA85C4
:100D74003E85F1220100FDBF930704E98325C4E504
:100D84003E85752AAA873E858320C11A0324811AC9
:100D94005D618280011106CE22CC00102326A4FEC0
:100DA4002324B4FE83A741889C47032684FE83251D
:100DB400C4FE3E852D3FAA873E85F240624405610C
:100DC40082805D7106D622D40018232EA4FC232C25
:100DD400B4FC10C454C418C85CC8232C0401232ECA
:100DE400140193070402232AF4FC832744FDA1176A
:100DF4002324F4FE832784FE3E86832584FD032575
:100E0400C4FDF5352326A4FE8327C4FE3E85B250D7
:100E14002254616182805D7106D622D40018232E8B
:100E2400A4FC4CC010C454C418C85CC8232C0401CE
:100E3400232E140193070402232CF4FC832784FD3E
:100E440091172324F4FE832784FEBE850325C4FD65
:100E540091372326A4FE8327C4FE3E85B250225434
:100E6400616182805D7106D622D40018232EA4FC11
:100E7400232CB4FC10C454C418C85CC8232C04012B
:100E8400232E140193070402232AF4FC832744FD30
:100E9400A1172324F4FE832784FE3E86832584FD44
:100EA4000325C4FD213D2326A4FE8327C4FE3E85DD
:100EB400B250225461618280797106D622D400181E
:100EC400232EA4FC83A741889C47BE850325C4FD2B
:100ED400BD202326A4FE83A741889C47BE852945BF
:100EE40009288327C4FE85073E85B25022544561F4
:100EF4008280011106CE22CC00102326A4FE2324D6
:100F0400B4FE83A741889C47032784FE6309F70046
:100F140083A74188DC47032784FE631CF7008327EB
:100F2400C4FE93F7F70F3E85EFF04FE78327C4FE27
:100F340011A0FD573E85F2406244056182807971BB
:100F440006D622D40018232EA4FC232CB4FC23267A
:100F540004FE0DA88327C4FD83C70700832584FDF1
:100F64003E85413F2A87FD576314F700FD5715A0BE
:100F74008327C4FE85072326F4FE8327C4FD850743
:100F8400232EF4FC8327C4FD83C70700E1F78327DE
:100F9400C4FE3E85B250225445618280011122CEA6
:100FA4000010A1472326F4FE8327C4FED3F717D0ED
:100FB400B777008007A747E95377F708B77700802A
:100FC40087A787E95377F710B777008087A7C7E922
:100FD400D377F700D39717C02324F4FEB7E7003084
:100FE40003D70700136707102390E700B7E7003023
:100FF40003D70701136707102398E700B7E700300A
:1010040098471367070898C7B7E70030984F1367E6
:10101400070898CFB7070028D85F1377F7FC136742
:101024000701D8DFB7070028D85F1377F7F31367F2
:101034000704D8DFB70700283147D8DBB7E700300B
:10104400F45B3707FDFF7D17F98E4167558FF8DB99
:10105400B7E70030F45B3707F0FF7D17758FF8DBD7
:10106400B7E70030F85B13670710F8DBB7E7003029
:10107400F85B13671700F8DBB77700300327C4FE6B
:10108400D8D3B7770030032784FE98D7B7770030DA
:1010940013070007D8D7B777003023AA0702B7771A
:1010A40000301307103098DB010072440561828020
:1010B400411122C600080100B77700309C4F91838C
:1010C400858B93F7F70FEDFBB777003083C70700E5
:1010D40093F7F70F3E85324441018280011122CEFD
:1010E40000102326A4FE0100B77700309C4F8D83A7
:1010F400858B93F7F70FEDFBB77700300327C4FE1A
:1011040098C381473E85724405618280397122DE2D
:10111400800085472324F4FEB7E70030DC5F8D8B25
:1011240093F7F70F2322F4FEB727F40093870740C1
:101134002320F4FEB7E70030BC4F3E878567FD17D8
:10114400F98FC207C183232EF4FCB7E70030BC4BF0
:101154009D8393F7F70393F7F70F232CF4FCB7E77A
:101164000030BC4BB5839D8B93F7F70F232AF4FC17
:10117400B7E70030BC4BC18393F7F70393F7F70F3E
:101184002328F4FCB7E70030BC4BD9839D8B93F73D
:10119400F70F2326F4FCB7E70030BC4BE58393F745
:1011A400F70393F7F70F2324F4FEB7E70030BC4BA3
:1011B4009183858B93F7F70F99CBB7E70030F84B02
:1011C400B7070001FD17F98F2326F4FE19A0232683
:1011D40004FE8327C4FE13D787018327C4FD3E97EB
:1011E400832704FE3307F702832744FD9386170001
:1011F400832784FDB386F602832704FD8507B3871E
:10120400F6023357F70223AAE1E08327C4FE13D77B
:1012140087018327C4FD3E97832704FE3307F70223
:101224008327C4FC93861700832784FDB386F602C4
:10123400832784FE8507B387F6023357F70223AC6E
:10124400E1E0032744FE8D47630DF704032744FEC2
:101254008D4763ECE704032744FE8947630EF702D6
:10126400032744FE894763E2E704832744FE99C7C2
:10127400032744FE8547630AF70005A837470F0094
:101284001307072423A8E1E00DA03727F400130770
:10129400074023A8E1E011A803A741E123A8E1E066
:1012A40029A0216723A8E1E0010001007254216113
:1012B4008280011122CE0010232604FEB7E70030FD
:1012C40003D70700136707402390E700B7E7003010
:1012D40003D70701136707402398E700B7270028BF
:1012E400D45F3167558FD8DFB727002803D747036A
:1012F40013670708239AE702B7E700304567130727
:10130400171223AEE70AB7E700303767C10F130798
:101314007710B8CBB7E7003023AA0704B7E700304B
:1013240013072003B8CFB7E70030B84B1377F7F9AA
:1013340013670702B8CB9307803E2326F4FE31A03F
:101344008327C4FEFD172326F4FE8327C4FEEDFB8A
:101354000100B7E70030BC53858B13F7F70F8547BF
:10136400E319F7FEB7E70030B84B659B13674700F6
:10137400B8CB89472324F4FEB7D70030F4473707A6
:10138400F1FF7D17F98E37070300558FF8C7B7D7DC
:101394000030F84713672700F8C7B7E70030032782
:1013A40084FE98DB232604FE31A08327C4FE850730
:1013B4002326F4FEB7E70030DC5F8D8B13F7F70FBD
:1013C400B7E700309C5B8D8B93F7F70F6308F7004A
:1013D4000327C4FE93073006E3F9E7FC01007244D7
:1013E40005618280011106CE22CC001081450145A1
:1013F400EFF02F8D8567938707802326F4FE8327DC
:10140400C4FEF3A747302326F4FEA1472324F4FEA9
:10141400832784FEF3A707302324F4FE0100F2405F
:10142400624405618280411106C622C40008513518
:101434000100B240224441018280011122CE0010F9
:101444002326A4FEB70700309C4393F6F7FC8327BA
:10145400C4FE13974700B7070030558F98C30100A7
:10146400724405618280011122CE00102326A4FE5D
:10147400B70700309C4393F6F7F38327C4FE139712
:101484006700B7070030558F98C3010072440561A7
:101494008280011122CE00102326A4FEB70700305B
:1014A4009C4393F6F7EF8327C4FE13978700B7078F
:1014B4000030558F98C30100724405618280011188
:1014C40022CE00102326A4FEB70700300327C4FE53
:1014D400D8C30100724405618280011122CE00103C
:1014E4002326A4FE2324B4FEB7070030984783279D
:1014F400C4FE93C7F7FFB376F700032784FE832760
:10150400C4FE3307F702B7070030558F98C70100B0
:10151400724405618280011122CE00102326A4FEAC
:10152400B7070030D44BB70700300327C4FE558FEC
:10153400D8CB0100724405618280011122CE0010D3
:101544002326A4FE2324B4FE370700308327C4FED9
:1015540089078E07BA97032784FED8C7010072440F
:1015640005618280011122CE00102326A4FE2324CB
:10157400B4FE8327C4FE9843832784FEF98F99C35E
:10158400854711A081473E8572440561828001111F
:1015940022CE00102326A4FE2324B4FE8327C4FEF7
:1015A400032784FE98C701007244056182800111FB
:1015B40022CE00102326A4FE2324B4FE8327C4FED7
:1015C400032784FED8C7010072440561828001119B
:1015D40022CE00102326A4FE2324B4FE2322C4FE1C
:1015E400032744FE85476318F7008327C4FE0327B7
:1015F40084FEF8CB31A08327C4FE032784FEB8CF32
:101604000100724405618280011122CE001023265C
:10161400A4FE2324B4FE8327C4FE032784FEF8CF4C
:101624000100724405618280011122CE001023263C
:10163400A4FE2324B4FE2322C4FE032744FE8547CC
:101644006318F7008327C4FE032784FEF8C731A07C
:101654008327C4FE032784FEB8CB010072440561CE
:101664008280011122CE00102326A4FE2324B4FE7E
:101674002322C4FE032744FE85476318F70083270B
:10168400C4FE032784FEF8C331A08327C4FE0327C6
:1016940084FEB8C70100724405618280011122CE24
:1016A4000010A1472326F4FE8327C4FED3F717D0E6
:1016B400B777008007A747EC5377F708B777008020
:1016C40087A787EC5377F710B777008087A7C7EC15
:1016D400D377F700D39717C02324F4FEB7E700307D
:1016E40003D70700136707102390E700B7E700301C
:1016F40003D70701136707102398E700B7E7003003
:1017040098471367070898C7B7E70030984F1367DF
:10171400070898CFB7070028D85F1377F7FC13673B
:101724000701D8DFB7070028D85F1377F7F31367EB
:101734000704D8DFB70700283147D8DBB7E7003004
:10174400F45B3707FDFF7D17F98E4167558FF8DB92
:10175400B7E70030F45B3707F0FF7D17758FF8DBD0
:10176400B7E70030F85B13670710F8DBB7E7003022
:10177400F85B13671700F8DBB77700300327C4FE64
:10178400D8D3B7770030032784FE98D7B7770030D3
:1017940013070007D8D7B777003023AA0702B77713
:1017A40000301307103098DB010072440561828019
:1017B400411106C622C40008BD31893AEFF00FFE7C
:1017C400F13D0545EF10002B7D20A92A2928193960
:1017D400B7770080138507EAEFF00FEE0100B240FF
:1017E400224441018280411106C622C40008B77711
:1017F40000301307007DF8C3B7770030985FB777E0
:1018040000301367077D98DF85455D45EFE01FB025
:10181400B727008013866783DD450145EFE05FAAA3
:10182400DD450145EFE03FB10100B24022444101F2
:101834008280011106CE22CC001021A8B777003097
:1018440083C70700A307F4FE8347F4FE3E85EF1029
:101854006025B77700309C4F9183858B93F7F70F02
:10186400F1DFB77700301307007DF8C30100F240C1
:10187400624405618280797106D622D400189307E8
:1018840004FD3E85EF30B03C85472328F4FC8547B2
:10189400232AF4FC232C04FC232E04FC232204FE20
:1018A400232404FE232604FE930704FDBE85370586
:1018B4000028EF30F02F854537050028CD399307F0
:1018C40004FD3E85EF30B03889472328F4FC232AF1
:1018D40004FC232C04FC232E04FC232404FE85474F
:1018E4002326F4FE930704FDBE8537050028EF3058
:1018F400302C0546894537050028A5339305803EDD
:101904003705002811330546894537050028C131BC
:101914000546894537050028013B0100B250225491
:1019240045618280011106CE22CC0010B7E7003059
:1019340098471367170098C7B7E70030984F1367A5
:10194400170098CF0145B1360D45313E0545F534B4
:1019540003A701E18967938707F4B357F7022326A6
:10196400F4FE8327C4FE81E785472326F4FE8325FE
:10197400C4FE0145D9360145993685450545B13E34
:1019840085451945EFE09F98B72700801386E79AAD
:1019940099450145EFE0DF9299450145EFE0BF9994
:1019A4000100F240624405618280411106C622C4EE
:1019B400000883A741E41387170023A2E1E4EF00A2
:1019C400F0320545893E0100B24022444101828043
:1019D400011106CE22CC0010E13B894537050028D1
:1019E4005136AA87B337F00093F7F70FA307F4FE35
:1019F400930740062324F4FE83C711E4D9E303C705
:101A040001888547631BF70A8347F4FEDDE783A754
:101A140041E42320F4FE83A781E4032704FEB307F3
:101A2400F740032784FE63EAE70883C701E493F7DA
:101A3400F70F93C7170013F7F70F2380E1E483C769
:101A440001E493F7F70F81CF8545370500288136E8
:101A5400B7770080138507EBEFF00FC619A885450B
:101A640037050028A936B7770080138587EBEFF098
:101A7400AFC40547A380E1E4032704FE23A4E1E403
:101A84002DA883C7018895EB0347F4FE85476316A9
:101A9400F70283A741E42322F4FE83A781E403270A
:101AA40044FEB307F740032784FE63E8E700A380FE
:101AB40001E4032744FE23A4E1E40347F4FE238066
:101AC400E18821BF011122CE0010AA872E87231797
:101AD400F4FEBA87A306F4FE8357E4FEA207139725
:101AE400070141878357E4FEA183C207C183BE86F1
:101AF4008347D4FEB58F93F7F70FB77600809386AC
:101B040006ED8607B69783D70700C207C187B98F4A
:101B1400C207C1872317F4FE8357E4FE3E8572444F
:101B240005618280797122D60018AA87232CB4FC1F
:101B34003287231FF4FCBA87231EF4FC8357E4FD89
:101B44002317F4FE231604FE99A88357E4FEA20784
:101B54001397070141878357E4FEA183C207C1831A
:101B64003E868357C4FE832684FDB69783C7070049
:101B7400B18F93F7F70FB7760080938606ED86074B
:101B8400B69783D70700C207C187B98FC207C18739
:101B94002317F4FE8357C4FE85072316F4FE035768
:101BA400C4FE8357C4FDE362F7FA8357E4FE3E851F
:101BB400325445618280797106D622D40018232ECE
:101BC400A4FCAE87231DF4FC0357A4FD854763E4FE
:101BD400E7008147ADA08357A4FDFD170327C4FD8B
:101BE400BA9783C70700A207139707014187835752
:101BF400A4FDF9178326C4FDB69783C70700C2075F
:101C0400C187D98FC207C1872317F4FE8357A4FD68
:101C1400F917C207C1833E868325C4FD89671385EE
:101C2400F7D00937AA872316F4FE0357E4FE835737
:101C3400C4FEB307F74093B7170093F7F70F3E8539
:101C4400B250225445618280011122CE0010232615
:101C5400A4FE2324B4FE8327C4FE9843832784FE72
:101C6400F98F99C3854711A081473E857244056168
:101C74008280011122CE00102326A4FE2324B4FE68
:101C84008327C4FE032784FE98C7010072440561BC
:101C94008280011122CE00102326A4FE2324B4FE48
:101CA4008327C4FE032784FED8C70100724405615C
:101CB4008280797122D60018232EA4FCAE87231DBE
:101CC400F4FC231704FE15A80100B77700309C4FDD
:101CD4009583858B93F7F70FEDFB8357E4FE03277A
:101CE400C4FD3E97B7770030034707002380E70021
:101CF4008357E4FE85072317F4FE0357E4FE835756
:101D0400A4FDE363F7FC0100B77700309C4F9D838B
:101D1400858B93F7F70FEDDB010001003254456129
:101D24008280797122D60018232EA4FCAE873287D4
:101D3400231DF4FCBA87A30CF4FC231704FE835779
:101D4400E4FE138717002317E4FE3E878327C4FDB0
:101D5400BA97130730052380E70003C71188835718
:101D6400E4FE938617002317D4FEBE868327C4FDA2
:101D7400B697136707F81377F70F2380E7008357A5
:101D8400E4FE138717002317E4FE3E878327C4FD70
:101D9400BA970357A4FD1377F70F2380E7008357FF
:101DA400A4FDA18393960701C1828357E4FE1387A0
:101DB40017002317E4FE3E878327C4FDBA9713F761
:101DC400F60F2380E700830794FD8D8BE207E187FC
:101DD40093E7470093968701E1868357E4FE1387D0
:101DE40017002317E4FE3E878327C4FDBA9713F731
:101DF400F60F2380E7008357E4FE3E8532544561A5
:101E04008280797106D622D40018232EA4FCAE87D2
:101E1400231DF4FC8357A4FD3E868325C4FD8967F6
:101E24001385F7D00133AA872317F4FE8357A4FD43
:101E340013871700231DE4FC3E878327C4FDBA974C
:101E44000357E4FE1377F70F2380E7008357E4FE7C
:101E5400A18393960701C1828357A4FD13871700BA
:101E6400231DE4FC3E878327C4FDBA9713F7F60FBE
:101E74002380E7008357A4FDBE850325C4FD153DDB
:101E84000100B250225445618280397106DE22DCA1
:101E94008000AA87A307F4FCA1472317F4FE2316A6
:101EA40004FE8346F4FC0357E4FE9307C4FD368620
:101EB400BA853E85BD35AA872316F4FE8357C4FE32
:101EC400138717002316E4FEC117A2971307000413
:101ED4002386E7FE0357C4FE9307C4FDBA853E85F7
:101EE4000D370100F250625421618280397106DE9F
:101EF40022DC8000AA872E87A307F4FCBA87230775
:101F0400F4FCA5472317F4FE231604FE8346F4FCD1
:101F14000357E4FE9307C4FD3686BA853E85113522
:101F2400AA872316F4FE8357C4FE138717002316CB
:101F3400E4FEC117A297130710042386E7FE835714
:101F4400C4FE138717002316E4FEC117A2970347A4
:101F5400E4FC2386E7FE0357C4FE9307C4FDBA8559
:101F64003E8545350100F2506254216182805971E9
:101F740086D6A2D48018AA87A30FF4F8231704FEE8
:101F8400B7474301938717242320F4FAB717111195
:101F9400938717102322F4FAB707010193871711C7
:101FA4002324F4FAD1472316F4FE8346F4F90357A5
:101FB400C4FE9307C4FA3686BA853E859D33AA8744
:101FC4002317F4FE8357E4FE138717002317E4FE58
:101FD400C117A29713075004238EE7FA8357E4FE30
:101FE4001307C4FABA97034704FABA8F034714FADB
:101FF4003A8F034724FABA8E034734FA3A8E0347DA
:1020040044FA3A83034754FABA88034764FA3A888D
:10201400034774FA3A85034784FABA85034794FA66
:102024003A860347A4FABA860347B4FA2380F70131
:10203400A380E7012381D701A381C701238267001D
:10204400A382170123830701A383A7002384B70076
:10205400A384C7002385D700A385E7008357E4FE44
:10206400B1072317F4FE0357E4FE9307C4FABA85B5
:102074003E85413B0100B65026546561828035712E
:1020840006CF22CD0011AA87A307F4F6231704FE76
:10209400B77700809387070D03AF070083AE47002F
:1020A40003AE870003A3C70083A8070103A8470161
:1020B400884FCC4F9053D4539857DC57232EE4F7D2
:1020C4002320D4F92322C4F9232464F8232614F901
:1020D400232804F9232AA4F8232CB4F8232EC4F8C3
:1020E4002320D4FA2322E4FA2324F4FA9307800366
:1020F4002316F4FE8346F4F60357C4FE9307C4FA8A
:102104003686BA853E853139AA872317F4FE83576C
:10211400E4FE138717002317E4FEC117A2971307E1
:102124006004238EE7FA8357E4FE1307C4FABA97D0
:10213400BE869307C4F7130700033A86BE85368527
:10214400EF4030458357E4FE938707032317F4FEDB
:102154000357E4FE9307C4FABA853E855D31010056
:10216400FA406A440D618280397106DE22DC800007
:10217400AA872E872324C4FCA307F4FCBA87230769
:10218400F4FC231704FEB5472316F4FE8346F4FC3F
:102194000357C4FE9307C4FD3686BA853E8551367F
:1021A400AA872317F4FE8357E4FE13871700231727
:1021B400E4FEC117A297130750062386E7FE835750
:1021C400E4FE138717002317E4FE0347E4FC1377A8
:1021D400F7071377F70FC117A2972386E7FE8357F4
:1021E400E4FE138717002317E4FE032784FC137708
:1021F400F70FC117A2972386E7FE832784FC93D6A3
:1022040087008357E4FE138717002317E4FE13F7B0
:10221400F60FC117A2972386E7FE832784FC93D683
:1022240007018357E4FE138717002317E4FE13F70F
:10223400F60FC117A2972386E7FE832784FC93D663
:1022440087018357E4FE138717002317E4FE13F76F
:10225400F60FC117A2972386E7FE0357E4FE930700
:10226400C4FDBA853E85713E0100F250625421617D
:102274008280011106CE22CC0010AA87A307F4FEA7
:102284008347F4FE91C7854537050028DD3229A030
:10229400854537050028F53A0100F240624405619E
:1022A4008280397106DE22DC8000AA87A307F4FC51
:1022B400231704FEA5472316F4FE8346F4FC0357B4
:1022C400C4FE930784FD3686BA853E85993CAA8769
:1022D4002317F4FE8357E4FE138717002317E4FE45
:1022E400C117A297130790042384E7FEA30504FEF5
:1022F400894537050028893AAA8793B7170093F7C9
:10230400F70F93F7F70F0347B4FED98FA305F4FE35
:102314008357E4FE138717002317E4FEC117A2971F
:102324000347B4FE2384E7FE0357E4FE930784FDCA
:10233400BA853E85F9340100F250625421618280ED
:10234400397106DE22DC8000AA87A307F4FC231778
:1023540004FEA5472316F4FE8346F4FC0357C4FE8B
:10236400930784FD3686BA853E85653AAA87231786
:10237400F4FE8357E4FE138717002317E4FEC11706
:10238400A2971307A0042384E7FEA30504FE854552
:10239400370500285538AA8799C3854711A0814776
:1023A40093F7F70F0347B4FED98FA305F4FE8357C1
:1023B400E4FE138717002317E4FEC117A29703470F
:1023C400B4FE2384E7FE0357E4FE930784FDBA8535
:1023D4003E85053C0100F2506254216182803971CE
:1023E40022DE80002326A4FC8327C4FC920737271F
:1023F400F40013070740B357F7022326F4FE83279C
:10240400C4FC53F717D0B777008087A70715D37795
:10241400F710B777008007A747155377F718832776
:10242400C4FED3F717D0D377F7082724F4FE072781
:1024340084FEB777008087A787155377F710B7779F
:10244400008087A7C715D377F700D39717C0232237
:10245400F4FEB77700309C5B2320F4FEB77700309E
:10246400DC57232EF4FCB77700309C5F232CF4FC5C
:102474000100B77700309C4F8D83858B93F7F70F5E
:10248400EDFBB777003023A80702B77700300327A6
:10249400C4FED8D3B7770030032744FE98D7B77764
:1024A400003013070007D8D7B77700301307F07F41
:1024B400F8C329A0B777003083C70700B777003087
:1024C4009C4F9183858B93F7F70FEDD7B777003047
:1024D400032784FD98DFB7770030032704FE1367D2
:1024E400173098DB0100725421618280411106C6C5
:1024F40022C40008938741F59C4B91CB938741F507
:102504009C4B1387F7FF938741F598CB95A293874C
:1025140041F583C707006386070E938741F583C798
:10252400270095C7938741F523810700938741F5D9
:1025340083C7D701B337F00093F7F70F3E85153BF8
:10254400938741F59847938741F598CB15A29387D4
:1025540041F505472381E700938741F583C7C70108
:10256400B337F00093F7F70F3E852133938741F596
:10257400D843938741F598CB938741F583D7C70018
:102584006388070E938741F583D7C700FD17139718
:1025940007014183938741F52396E700938741F52B
:1025A40083D7C7006396070C938741F52380070000
:1025B400938741F5DC4B9DCB938741F59C4F9DC799
:1025C400938741F505472381E700938741F583C746
:1025D400E701B337F00093F7F70F3E855939938736
:1025E40041F5D84B938741F598CB59A0938741F592
:1025F40083C717003E85B539938741F523A80700A3
:1026040085A8938741F5DC4BA5C7938741F59C4F7B
:10261400A5C3938741F583C7270095C7938741F5E1
:1026240023810700938741F583C7F701B337F0008F
:1026340093F7F70F3E853539938741F5984F938784
:1026440041F598CB35A0938741F505472381E700F1
:10265400938741F583C7E701B337F00093F7F70F8A
:102664003E850139938741F5D84B938741F598CB43
:10267400B2402244410182801D7186CEA2CC8010DA
:102684002326A4FAAE872315F4FA0357A4FAB54710
:1026940063FDE73C0357A4FAB947B357F702231184
:1026A400F4FE231704FE5DAE0357E4FEBA878E07DB
:1026B400998F86073E878327C4FABA97232EF4FCA2
:1026C4008327C4FD83C70700A30DF4FC8327C4FD3F
:1026D40083C71700230DF4FC8347B4FD639A0736C0
:1026E4008347A4FD639607368327C4FD83C7270069
:1026F400A30CF4FC8327C4FD83C73700230CF4FC2C
:102704008327C4FD83C74700A30BF4FC8327C4FDC0
:1027140083C75700230BF4FC8327C4FD83C76700DA
:10272400A30AF4FC8327C4FD9D0783C707001397FE
:10273400070141878327C4FDA10783C70700A207B8
:10274400C207C187D98FC207C1872319F4FC832725
:10275400C4FD83C79700A308F4FC8327C4FD83C783
:10276400A7002308F4FC8327C4FD83C7B700A3078D
:10277400F4FC8327C4FD83C7C7002307F4FC832725
:10278400C4FD83C7D700A306F4FC034714FD8547A3
:10279400631BF70E034704FD93074006B307F702D4
:1027A4002324F4FC0347F4FC93074006B307F70221
:1027B4002322F4FC938741F5032784FCD8CB938729
:1027C40041F5032744FC98CF8347E4FCB337F0007A
:1027D40093F7F70F3E87938741F5238FE7008347ED
:1027E400D4FCB337F00093F7F70F3E87938741F596
:1027F400A38FE700832784FC85C3832744FC89EFE8
:102804008347E4FCB337F00093F7F70F3E879387D1
:1028140041F5A380E70015A0832784FC99EF832763
:1028240044FC81CF8347D4FCB337F00093F7F70F10
:102834003E87938741F5A380E700938741F583C7DB
:102844000700B1E3832784FC8DCB832744FC95C721
:10285400938741F505472381E700938741F583C7B3
:10286400E701B337F00093F7F70F3E8519349387E8
:1028740041F5032784FC98CB39A0938741F583C79E
:1028840017003E85FD32834794FD6384071C03478C
:1028940094FD85476317F706938741F52380070066
:1028A400938741F5DC4B9DCB938741F59C4F9DC7A6
:1028B400938741F505472381E700938741F583C753
:1028C400E701B337F00093F7F70F3E855D32938746
:1028D40041F5D84B938741F598CBA5AA938741F549
:1028E40003C71700938741F52381E700938741F5D8
:1028F40083C717003E85B53A938741F523A807009F
:1029040089AA034794FD89476315F714034784FD97
:1029140093074006B307F7022320F4FC034774FD32
:1029240093074006B307F702232EF4FA938741F581
:10293400032704FCD8C3938741F50327C4FB98C736
:10294400834764FDB337F00093F7F70F3E8793870F
:1029540041F5238EE700834754FDB337F00093F726
:10296400F70F3E87938741F5A38EE700835724FD35
:1029740091E7938741F523960700BDA0938741F51E
:10298400D843938741F59C47BA972324F4FE8327C1
:1029940084FE89E7930740062324F4FE035724FDAD
:1029A40093074006B307F702232CF4FA032784FBAA
:1029B400832784FEB357F7022322F4FE832744FEC1
:1029C40081E785472322F4FE032744FEC16763772A
:1029D400F700832744FEC207C18319A0C167FD170E
:1029E400138741F52316F700938741F5DC439DC710
:1029F400938741F505472381E700938741F583C712
:102A0400C701B337F00093F7F70F3E859D309387E6
:102A140041F5D843938741F598CB2DA0938741F591
:102A240023810700938741F583C7D701B337F000AB
:102A340093F7F70F3E853538938741F59847938789
:102A440041F598CB938741F505472380E70011A012
:102A540001008357E4FE85072317F4FE0357E4FEC1
:102A6400835724FEE362F7C411A00100F6406644D4
:102A740025618280011122CE0010AA87A307F4FEEB
:102A84008347F4FE93F7F70713F7F70FA380E18862
:102A940023A601E4239801E4239901E4010072448C
:102AA40005618280397106DE22DC8000AA87A307D3
:102AB400F4FC83A7C1E411476367F73A139727002F
:102AC400B777008093870710BA979C4382870347A0
:102AD400F4FC93073005631BF738239901E483D78B
:102AE40021E51387170093160701C1822399D1E4C6
:102AF4003E87938741E5BA970347F4FC2380E700B8
:102B0400054723A6E1E49DA683D721E51387170093
:102B140093160701C1822399D1E43E87938741E547
:102B2400BA970347F4FC2380E700094723A6E1E4AE
:102B340089A683D721E51387170093160701C1825D
:102B44002399D1E43E87938741E5BA970347F4FC80
:102B54002380E7008347F4FC1397070141832398FC
:102B6400E1E40D4723A6E1E429A683D721E51387F1
:102B7400170093160701C1822399D1E43E879387F6
:102B840041E5BA970347F4FC2380E7008347F4FC4C
:102B9400A20713970701418783D701E5C207C187BD
:102BA400D98FC207C1871397070141832398E1E4B2
:102BB40003D701E59D4763F8E70003D701E59307D1
:102BC400001063F5E70023A601E465A4114723A6DA
:102BD400E1E445A483D721E5138717009316070181
:102BE400C1822399D1E43E87938741E5BA9703478D
:102BF400F4FC2380E70003D721E583D701E563696B
:102C0400F72683D701E5BE85138541E5EFE0BFFADA
:102C1400AA876388071E938741E583C7170093F744
:102C2400F7072306F4FE83C711880347C4FE630C29
:102C3400F7000347C4FE9307F0076306F7008347D2
:102C4400C4FE639F0720938741E583C74700A3051C
:102C5400F4FE8347B4FE8D8B2305F4FE938741E590
:102C640083C75700A304F4FE8347C4FE938717F871
:102C7400B337F00093F7F70F2304F4FE834794FE71
:102C8400938707FA39476364F71613972700B777D2
:102C9400008093874711BA979C438287834784FEB9
:102CA4006381071A8347A4FE3E85EFF00F9E51AA65
:102CB400834784FE638907188347A4FE3E85EFF0AB
:102CC4000FAB51A2834784FE638107188347A4FE98
:102CD4003E85EFF0CFBA95AA834784FE6389071631
:102CE4008347A4FE3E85EFF0CFDB95A2834784FEA5
:102CF400638107168347A4FE3E85EFF06FE491AA33
:102D040083D701E5E1172313F4FE035764FE9547C7
:102D1400631DF7089387A1E52320F4FE832704FEAF
:102D240083C7070093F7F707A30FF4FC832704FE78
:102D3400850783C707003E87832704FE890783C767
:102D44000700A2075D8F832704FE8D0783C7070052
:102D5400C2075D8F832704FE910783C70700E2073C
:102D6400D98F232CF4FC834784FE99CB0347F4FDCD
:102D74008347A4FE032684FDBA853E85EFF0CFBECB
:102D84000347F4FDA380E188032784FD9307F04AF9
:102D940063F3E70C032784FDB7170E0063EDE70A1E
:102DA400032584FDEFF0AFE37DA0834784FEC5C710
:102DB4008347A4FE89453E85EFF04F9369A883D7E6
:102DC40001E5E117231BF4FC9387A1E52328F4FC18
:102DD400835764FDBE85032504FD7938834784FE4B
:102DE400ADCF8347A4FE3E85EFF02F8ABDA0834775
:102DF40084FEB5C78347A4FE8D453E85EFF00F8F53
:102E0400B9A8938741E583C7170093F7F707A3078A
:102E1400F4FE0347F4FE9307F0076303F704938774
:102E240041E583C747002307F4FE8347E4FE8D8B07
:102E3400A306F4FE8347D4FE85453E85EFF00F8B51
:102E440005A0010031A8010021A8010011A801007A
:102E540001A8010031A0010021A0010011A001007E
:102E640023A601E431A023A601E421A0010011A0BE
:102E740001000100F250625421618280011122CECE
:102E840000102326A4FEB7E700300327C4FE058BF9
:102E94001377F70F058B220783A6070B93F6F6EF3C
:102EA400558F23A8E70A010072440561828001114D
:102EB40022CE00102326A4FE2324B4FEB70701303B
:102EC400DC430327C4FE85463397E6001347F7FF28
:102ED400B3F6E7008327C4FE032784FE3317F70005
:102EE400B7070130558FD8C3010072440561828051
:102EF400011122CE00102326A4FE2324B4FEB7071A
:102F04000130DC4F0327C4FE0A07BD463397E600B1
:102F14001347F7FFB3F6E7008327C4FE8A070327A6
:102F240084FE3317F700B7070130558FD8CF01005F
:102F3400724405618280011122CE00102326A4FE72
:102F44002324B4FEB7060130832784FE9D8B13F738
:102F5400F70F8327C4FE9A07B6971D8B83D6870580
:102F6400E19A558F239CE704010072440561828035
:102F7400011122CE00102326A4FE2324B4FEB7069A
:102F84000130832784FE9D8B13F7F70F8327C4FE3C
:102F94009A07B6971D8B1316970003D78705BA8631
:102FA4007D771307F71F758FBA863287558F239C59
:102FB400E7040100724405618280011122CE0010F1
:102FC4002326A4FE2324B4FEB7060130832784FEFF
:102FD400858B13F7F70F8327C4FE9A07B697058BE3
:102FE400220783D6870593F6F6EF558F239CE704D3
:102FF4000100724405618280011122CE0010232653
:10300400A4FE2324B4FEB7060130832784FE9D8BDF
:1030140013F7F70F8327C4FE9A07B6971D8B220771
:1030240083D6070693F6F68F558F2390E7060100A3
:10303400724405618280011122CE00102326A4FE71
:103044002324B4FEB7060130832784FE858B13F74F
:10305400F70F8327C4FE9A07B697058B83D6070616
:10306400F99A558F2390E706010072440561828026
:10307400011122CE00102326A4FE2324B4FEB70699
:103084000130832784FE13F7F70F8327C4FE9A07C2
:10309400B6972382E706010072440561828001111C
:1030A40022CE00102326A4FE2324B4FEB70601304A
:1030B400832784FE858B13F7F70F8327C4FE9A07B3
:1030C400B697058B2207F45393F6F6EF558FF8D392
:1030D4000100724405618280011122CE0010232672
:1030E400A4FE2324B4FE2322C4FE37070130832721
:1030F400C4FE9A07BA97FC57032784FE8546339784
:10310400E6001347F7FF7D8F832784FE832644FE62
:10311400B397F600B70601305D8F8327C4FE9A0784
:10312400B697F8D70100724405618280011122CE5E
:1031340000102326A4FE2324B4FE3707013083267F
:1031440084FEB7070001FD17FD8E8327C4FE9A078E
:10315400BA97370700017D17758FB05BB70600FF7C
:10316400F18E558FB8DB0100724405618280011134
:1031740022CE00102326A4FE2324B4FE37060130F9
:10318400832784FE858B93F6F70F0327C4FEBA8743
:103194008607BA978A07B29713F71600320703A671
:1031A4000740FD76FD16F18E558F23A0E740010000
:1031B400724405618280011122CE00102326A4FEF0
:1031C4002324B4FE37060130832784FE858B93F6CF
:1031D400F70F0327C4FEBA878607BA978A07B29700
:1031E40013F71600620703A60740B70600FFFD1693
:1031F400F18E558F23A0E74001007244056182805F
:10320400011122CE00102326A4FE2324B4FE370687
:103214000130832784FE9D8B93F6F70F0327C4FEAA
:10322400BA878607BA978A07B29713F776004207D8
:1032340003A60740B706F9FFFD16F18E558F23A0AC
:10324400E7400100724405618280011122CE001022
:103254002326A4FE2324B4FE2322C4FEB706013091
:103264000327C4FEBA878607BA978A07B69703A7C7
:103274000740FD779387F70F7D8F832784FE93960E
:103284008700832744FEAA07D58F37060130B3662B
:10329400F7000327C4FEBA878607BA978A07B2974E
:1032A40023A0D7400100724405618280011122CE1F
:1032B40000102326A4FE2324B4FE370601308327FE
:1032C40084FE3E878567FD17F98F93960701C182B7
:1032D4000327C4FEBA878607BA978A07B297056799
:1032E4007D17758F03A64740FD76F18E558F23A277
:1032F400E7400100724405618280011122CE001072
:103304002326A4FE2324B4FE37060130832784FE3B
:103314003E878567FD17F98F93960701C1820327BE
:10332400C4FEBA878607BA978A07B29705677D17DE
:10333400758F420703A64740B70601F0FD16F18ECC
:10334400558F23A2E74001007244056182807971A0
:1033540022D60018232EA4FC232CB4FC232AC4FC5C
:10336400832784FD8D8B8E072326F4FE032784FD9B
:103374009D4763F3E704370701308327C4FD8507BE
:103384009A07BA979C430327C4FE9306F003339726
:10339400E6001347F7FF7D8F8327C4FE832644FD91
:1033A400B397F600B70601305D8F8327C4FD850708
:1033B4009A07B69798C379A0032784FD8D4763F3D2
:1033C400E704370701308327C4FD85079A07BA97B6
:1033D4009C430327C4FE9306F0033397E600134788
:1033E400F7FF7D8F8327C4FE832644FDB397F60041
:1033F400B70601305D8F8327C4FD85079A07B6970A
:1034040098C389A0370701308327C4FD85079A072D
:10341400BA979C430327C4FE9306F0033397E60050
:103424001347F7FF7D8F8327C4FE832644FDB3979C
:10343400F600B70601305D8F8327C4FD85079A0720
:10344400B69798C30100325445618280411106C683
:1034540022C4000801451D3405450D340100B24065
:10346400224441018280797106D622D40018232E89
:10347400A4FC232CB4FC832784FD9C43BE85032534
:10348400C4FDBD34832784FDDC43BE850325C4FD10
:10349400393C232604FE1DA0032784FD8327C4FE94
:1034A4008A07BA979C473E868325C4FE0325C4FD3C
:1034B400793D8327C4FE85072326F4FE0327C4FE33
:1034C4009D47E3FBE7FC832784FD9C57BE850325CA
:1034D400C4FD9534832784FDDC57BE850325C4FDD4
:1034E400413C832784FD9C5BBE850325C4FDF134E8
:1034F400832784FDDC5BBE850325C4FD953E8327BD
:1035040084FD9C5FBE850325C4FD513E832784FD55
:10351400DC5FBE850325C4FD1139232404FE25A0E8
:10352400032784FD832784FEC1078A07BA979C4337
:103534003E86832584FE0325C4FD793E832784FECD
:1035440085072324F4FE032784FE9D47E3FAE7FC62
:10355400832784FDBC53BE850325C4FD713C8327AA
:1035640084FDFC53BE850325C4FDF1340100B25033
:10357400225445618280797122D60018232EA4FC3E
:103584008327C4FD23A007008327C4FD23A20700CB
:10359400232604FE31A80327C4FD8327C4FE8A071B
:1035A400BA9723A407008327C4FE85072326F4FEC5
:1035B4000327C4FE9D47E3F0E7FE8327C4FD23A44D
:1035C40007028327C4FD0547D8D78327C4FD23A852
:1035D40007028327C4FD23AA07028327C4FD23AC63
:1035E40007028327C4FD23AE0702232404FE39A85F
:1035F4000327C4FD832784FEC1078A07BA9723A043
:103604000700832784FE85072324F4FE032784FE12
:103614009D47E3FFE7FC8327C4FD0547B8D3832711
:10362400C4FD23A2070601003254456182800111C2
:1036340006CE22CC00102326A4FE2324B4FE832726
:1036440084FE9C43BE850325C4FE1536832784FE71
:10365400DC43BE850325C4FE9139832784FE9C4741
:10366400BE850325C4FE5139832784FEDC47BE850D
:103674000325C4FE8936832784FE9C4BBE8503251F
:10368400C4FEBD3E832784FED84B832784FE9C4F13
:103694003E86BA850325C4FE4D3E0100F2406244D5
:1036A40005618280011122CE00102326A4FE832707
:1036B400C4FE23A007008327C4FE23A20700832798
:1036C400C4FE23A407008327C4FE23A60700832780
:1036D400C4FE23A807008327C4FE23AA0700832768
:1036E400C4FE23AC0700010072440561828001110D
:1036F40022CE00102326A4FEB7E700300327C4FE21
:10370400058B1377F70F058B220783A6470B93F6D8
:10371400F6EF558F23AAE70A0100724405618280FF
:10372400011122CE00102326A4FEB72701309843AE
:10373400B707F9FFFD17B376F7008327C4FE139785
:103744000701B7270130558F98C301007244056102
:103754008280011122CE00102326A4FEB727013057
:103764009843E577FD17B376F7008327C4FE1397D4
:10377400C700B7270130558F98C301007244056113
:103784008280011122CE00102326A4FEB727013027
:103794009C4393F6F7CF8327C4FE13978700B7277C
:1037A4000130558F98C30100724405618280011174
:1037B40022CE00102326A4FE2324B4FEB727013012
:1037C400D8438327C4FE8A078D46B397F60093C770
:1037D400F7FFB376F7008327C4FE8A07032784FE26
:1037E4003317F700B7270130558FD8C3010072444F
:1037F40005618280011122CE00102326A4FE232419
:10380400B4FEB727013098478327C4FE8A079D4634
:10381400B397F60093C7F7FFB376F7008327C4FE88
:103824008A07032784FE3317F700B7270130558F23
:1038340098C70100724405618280411106C622C402
:10384400000801456D3505455D350100B24022444F
:1038540041018280011106CE22CC00102326A4FE51
:103864008327C4FE9C433E85653D8327C4FEDC4319
:103874003E85C5358327C4FE9C473E851937010024
:10388400F240624405618280011122CE0010232699
:10389400A4FE8327C4FE23A207008327C4FE23A417
:1038A40007008327C4FE23A00700010072440561BA
:1038B4008280011106CE22CC00102326A4FE2324EC
:1038C400B4FE832784FE9C43BE850325C4FEC53510
:1038D400832784FEDC43BE850325C4FE213F01000B
:1038E400F240624405618280011122CE0010232639
:1038F400A4FE8327C4FE23A207008327C4FE054732
:1039040098C30100724405618280011122CE001027
:103914002326A4FE2324B4FEB7E70030984B832764
:10392400C4FE93C7F7FFB376F700832784FE81C7ED
:103934008327C4FE11A0814737E70030D58F1CCB05
:103944000100724405618280011122CE00102326F9
:10395400A4FE2324B4FE8327C4FEDC4713F7E7FF49
:10396400832784FE5D8F8327C4FED8C70100724479
:1039740005618280011122CE00102326A4FE232497
:10398400B4FE8327C4FEDC4713F7D7FF832784FEE6
:1039940086075D8F8327C4FED8C701007244056182
:1039A4008280011122CE00102326A4FE2324B4FE1B
:1039B4008327C4FEDC4713F7B7FF832784FE8A07F7
:1039C4005D8F8327C4FED8C70100724405618280DD
:1039D400011122CE00102326A4FE2324B4FE832743
:1039E400C4FEDC4713F777FE832784FE8E075D8FC2
:1039F4008327C4FED8C70100724405618280011187
:103A040022CE00102326A4FE2324B4FE8327C4FE62
:103A1400DC4713F7F7F9832784FE96075D8F832726
:103A2400C4FED8C70100724405618280011122CE10
:103A340000102326A4FE2324B4FE8327C4FEDC47FF
:103A440013F7F7F7832784FE9E075D8F8327C4FE51
:103A5400D8C70100724405618280011122CE001092
:103A64002326A4FE2324B4FE8327C4FE032784FE56
:103A740098CB0100724405618280011122CE0010AE
:103A84002326A4FE2324B4FE8327C4FE032784FE36
:103A9400D8CB0100724405618280797106D622D4A4
:103AA4000018232EA4FC85450325C4FD713D8145E2
:103AB4000325C4FD513D0327C4FDB7070320631448
:103AC400F700856711A089672326F4FE8145032545
:103AD400C4FE253D85450325C4FE053D0100B250C5
:103AE400225445618280011106CE22CC0010232687
:103AF400A4FE2324B4FE832784FE9C43BE850325B1
:103B0400C4FEA13F832784FEDC43BE850325C4FE97
:103B1400FD35832784FE9C47BE850325C4FE3937C3
:103B2400832784FEDC47BE850325C4FEA135832795
:103B340084FE9C4BBE850325C4FEA535832784FEE5
:103B4400DC4BBE850325C4FE6135832784FE9C4F70
:103B5400BE850325C4FE15370100F24062440561A9
:103B64008280011122CE00102326A4FE8327C4FEE6
:103B740023A007008327C4FE23A207008327C4FED3
:103B840023A407008327C4FE23A607008327C4FEBB
:103B940023A807008327C4FE23AA07008327C4FEA3
:103BA4003727C104130777DB98CF010072440561FE
:103BB4008280011122CE00102326A4FE2324B4FE09
:103BC400B7E70030984B8327C4FE93C7F7FFB3765B
:103BD400F700832784FE81C78327C4FE11A0814791
:103BE40037E70030D58F1CCB010072440561828019
:103BF400011122CE00102326A4FEB7070220FC43A5
:103C040093F6E7FFB70702200327C4FE558FF8C3D6
:103C14000100724405618280411122C60008B70781
:103C24000220F843B707022013672700F8C30100F6
:103C3400324441018280011122CE00102326A4FEC9
:103C4400B7070220FC4393F6B7FF8327C4FE1397FC
:103C54002700B7070220558FF8C30100724405619D
:103C64008280011122CE00102326A4FEB707022071
:103C7400FC4393F677FE8327C4FE13973700B707F8
:103C84000220558FF8C3010072440561828001113E
:103C940022CE00102326A4FEB7070220FC4393F68D
:103CA400F7F98327C4FE13975700B7070220558FEF
:103CB400F8C30100724405618280011122CE001014
:103CC4002326A4FEB7070220FC4393F6F79F83271D
:103CD400C4FE13979700B7070220558FF8C301005D
:103CE400724405618280011122CE00102326A4FEB5
:103CF400B7070220FC4393F6F7EF8327C4FE13971C
:103D04008700B7070220558FF8C30100724405618C
:103D14008280011122CE00102326A4FE2324B4FEA7
:103D2400370702208327C4FE8A07BA97032784FE35
:103D340098C30100724405618280011122CE0010F3
:103D44002326A4FE2324B4FE370702208327C4FEBF
:103D540091078A07BA97032784FE98C30100724427
:103D640005618280011122CE00102326A4FE2324A3
:103D7400B4FE370702208327C4FEA1078A07BA9737
:103D8400032784FE98C301007244056182800111F7
:103D940022CE00102326A4FE370702208327C4FE68
:103DA400F1078A07BA979C433E8572440561828075
:103DB400011122CE00102326A4FE370702208327F8
:103DC400C4FE938787028A07BA979C433E85724450
:103DD40005618280411122C60008B707022083A72B
:103DE4000708858B3E85324441018280011122CE31
:103DF40000102326A4FEB70702200327C4FEB8C779
:103E04000100724405618280411122C60008B7078F
:103E14000220F847B707022013671700F8C701000C
:103E2400324441018280011122CE00102326A4FED7
:103E3400B7070220FC4793F6D7FF8327C4FE1397E6
:103E44001700B7070220558FF8C7010072440561B7
:103E54008280011122CE00102326A4FEB70702207F
:103E6400FC4793F6B7FF8327C4FE13972700B707D1
:103E74000220558FF8C70100724405618280411108
:103E840022C60008B707022083A7070893F7071084
:103E940099C3854711A081473E8532444101828000
:103EA400411106C622C400088145114519338545D0
:103EB400114501330100B2402244410182800111C5
:103EC40006CE22CC00102326A4FE8327C4FE9C43E6
:103ED4003E8595338327C4FEDC433E8559338327CF
:103EE400C4FE9C473E8565338327C4FEDC473E857C
:103EF400DD3B8327C4FE9C4B3E85DD398327C4FE0E
:103F0400DC4B3E855D3B0100F240624405618280EA
:103F1400011122CE00102326A4FE8327C4FE23A071
:103F240007008327C4FE0547D8C38327C4FE0D4773
:103F340098C78327C4FE0547D8C78327C4FE05470F
:103F440098CB8327C4FE23AA0700010072440561AD
:103F54008280011122CE00102326A4FE2324B4FE65
:103F64008327C4FE23A007008327C4FE23A20700DF
:103F74008327C4FE032784FED8CB8327C4FE0547CA
:103F840098C78327C4FE23A607008327C4FE23A85B
:103F940007008327C4FE23AE07008327C4FE23A0A3
:103FA40007020100724405618280011106CE22CC11
:103FB40000102326A4FE8327C4FEDC4B984B8327E2
:103FC400C4FEDC53058B1377F70F058B9443F99AE2
:103FD400558F98C38327C4FE98478327C4FEDC53B8
:103FE400058B1377F70F058B06079443F59A558FC6
:103FF40098C38327C4FEDC4B98438327C4FEDC5359
:10400400058B1377F70F058B0A079443ED9A558FA9
:1040140098C38327C4FEDC4BD8438327C4FEDC53F8
:104024000D8B1377F70F0D8B0E0794439D9A558FC5
:1040340098C38327C4FEDC4B98478327C4FEDC5314
:104044000D8B1377F70F0D8B1607944393F6F6F940
:10405400558F98C38327C4FEDC4BD84B8327C4FEFB
:10406400DC530D8B1377F70F0D8B36079043E976EE
:10407400FD16F18E558F98C38327C4FED847832736
:10408400C4FEDC53058B1377F70F058B3E07904373
:10409400E176FD16F18E558F98C38327C4FE984BA5
:1040A4008327C4FEDC53BA8605677D17758F931684
:1040B4000701C18205677D17758F42079043B706D4
:1040C40001F0FD16F18E558F98C38327C4FED84F97
:1040D4008327C4FEDC53D8C38327C4FE98538327A5
:1040E400C4FEDC5398C78327C4FE9C4781EB832717
:1040F400C4FE9C4F3E85553D2A8711A00147832766
:10410400C4FEDC53D8C78327C4FEDC533E85F2408B
:10411400624405618280011106CE22CC0010232660
:10412400A4FE8327C4FE9C433E85F5398327C4FE41
:10413400DC433E85393B0325C4FE853DAA873E8585
:104144007531D9310100F240624405618280797190
:1041540006D622D40018232EA4FC232CB4FC232638
:1041640004FE0DA00327C4FE930717002326F4FEC4
:104174008327C4FD93864700232ED4FC9C43BE852D
:104184003A85CD360327C4FE832784FDE36CF7FC10
:1041940001000100B250225445618280797106D633
:1041A40022D40018232EA4FC232CB4FC232604FEC2
:1041B40089A88327C4FD8D0783C707003E8783270B
:1041C400C4FD890783C70700A2073E978327C4FD60
:1041D400850783C70700C2073E978327C4FD83C7AB
:1041E4000700E207BA97BE850325C4FEB9368327C4
:1041F400C4FD9107232EF4FC8327C4FE85072326E0
:10420400F4FE0327C4FE832784FDE364F7FA010068
:104214000100B250225445618280797106D622D4BD
:104224000018232EA4FC232CB4FC8327C4FDDC43F8
:1042340099E3914711A0A1472324F4FE232604FE09
:10424400A1A8832784FD8D0783C707003E878327A2
:1042540084FD890783C70700A2073E97832784FD4F
:10426400850783C70700C2073E97832784FD83C75A
:104274000700E207BA972322F4FE832544FE0325B0
:10428400C4FECD34832784FD9107232CF4FC8327BB
:10429400C4FE85072326F4FE0327C4FE832784FE79
:1042A400E361F7FA01000100B250225445618280B3
:1042B400397106DE22DC8000232EA4FC232CB4FCFE
:1042C400232AC4FC2328D4FC2326E4FC0325C4FDB0
:1042D400FD36832784FD91C7832584FD0325C4FD12
:1042E4002D3F832704FD81C7032504FD052483276F
:1042F400C4FDD84389476314F700894711A0914747
:104304002322F4FE832544FE032544FD413D0100A0
:10431400D134AA87F5DF09320100B707022083A749
:104324000708898BFDDB0100B707022083A7070874
:10433400858BFDDB8327C4FD98478547631CF70005
:104344008327C4FD984385476316F7000145E5308C
:104354000145353A232604FEC9A00325C4FE053CC5
:104364002324A4FE832784FE13D78701832784FE96
:1043740093D68700C167938707F0F58F3E9783270D
:1043840084FE93968700B707FF00F58F3E97832737
:1043940084FEE207BA972324F4FE8327C4FD9847DA
:1043A4008547631DF7048327C4FD98438547631736
:1043B400F704832704FD8D0783C707003E878327FF
:1043C40004FD890783C70700A2073E97832704FDDE
:1043D400850783C70700C2073E97832704FD83C769
:1043E4000700E207BA973E87832784FEB98F232408
:1043F400F4FE832704FD91072328F4FC8327C4FCDF
:10440400032784FE98C38327C4FC91072326F4FC66
:104414008327C4FE85072326F4FE0327C4FE8327CF
:1044240044FEE36CF7F201000100F2506254216192
:104434008280517186D7A2D5A6D380192326A4F2EF
:104444002324B4F22322C4F22320D4F2232EE4F052
:10445400232CF4F0930704FF232AF4F0832744F178
:10446400938707F49387F7079D839394770023A09A
:104474000400832784F291C7832584F20325C4F2C0
:10448400693B8327C4F181C70325C4F14120930705
:1044940084FC8325C4F23E856D3C832704F28D831E
:1044A400232CF4FC8327C4F2D84389476307F7001D
:1044B400832784FD8583232CF4FC832784FDFD1747
:1044C400232CF4FC85472324F4FC232694FE832721
:1044D40044F22322F4FE832784F12324F4FE010012
:1044E400D538AA87F5DF930784FC3E852D3101007A
:1044F4007932AA87F5FF0100F138AA87F5DF0100B8
:104504000100BE502E549E546D618280797106D68E
:1045140022D40018232EA4FC232604FE99A8832663
:10452400C4FE8327C4FD8D0783C707003E87832706
:10453400C4FD890783C70700A2073E978327C4FDEC
:10454400850783C70700C2073E978327C4FD83C737
:104554000700E207BA97BE853685EFF08FFB832705
:10456400C4FD9107232EF4FC8327C4FE850723266C
:10457400F4FE0327C4FE8D47E3D3E7FA01000100EC
:10458400B250225445618280011106CE22CC001023
:104594002326A4FE2324B4FE2322C4FE0325C4FE42
:1045A400853A832784FED8438327C4FED8C3832750
:1045B40084FE98438327C4FE98C38327C4FE0D4713
:1045C40098C78327C4FE032744FED8CB0100F240DA
:1045D400624405618280797106D622D400182326AC
:1045E400A4FE2324B4FE2322C4FE2320D4FE232EBF
:1045F400E4FC232CF4FC232A04FD832584FE0325F8
:10460400C4FE813A8327C4FE032704FED8D383273C
:10461400C4FE0327C4FDD8CF8327C4FE032744FD6B
:1046240098D38327C4FE054798C3832784FD91C785
:10463400832784FD9183FD1711A081470327C4FEBE
:104644001CCB832744FE93B7170093F7F70F3E87DD
:104654008327C4FE98C78327C4FE032744FE98CF4C
:104664000100B250225445618280130101C92326FE
:1046740011362324813623229136801E232EA4CA88
:10468400232CB4CA232AC4CA2328D4CA2326E4CA9E
:104694002324F4CA232204CB232014CB930704FF3E
:1046A400232EF4C88327C4C9938707CD9387F707BC
:1046B4009D83939477008327C4CBD843894763149D
:1046C400F70085475DA223A0041823A0041023A0AB
:1046D40004088327C4CB0547D8C7930704FD0146C4
:1046E4008325C4CB3E854D35930704FA09468325BB
:1046F400C4CB3E85513D930784F80D468325C4CB36
:104704003E855935832784CB91C7832584CB0325E4
:10471400C4CB21368327C4CA81C70325C4CAFD3349
:10472400832744CA8E072326F4FE832704CB8E07EF
:104734002324F4FE232C04EC8327C4FE139787015F
:104744008327C4FE93968700B707FF00F58F3E9733
:104754008327C4FE93D68700C167938707F0F58F3C
:104764003E978327C4FEE183BA97232EF4EC2320DB
:1047740004EE832784FE13978701832784FE939690
:104784008700B707FF00F58F3E97832784FE93D6F3
:104794008700C167938707F0F58F3E97832784FED0
:1047A400E183BA972322F4EE832744CA99C7832767
:1047B40084CA81C7130684F319A0130604F19386EF
:1047C4000418930504FD130504F6014881470147C5
:1047D4001935832744CA95CB832784CA9DC723A050
:1047E4000400930784FB05468325C4CB3E85693BBF
:1047F400130604F1930584FB130584F3014883270E
:1048040044CA032784CAA686F93393860410130680
:1048140084EE930504FA130504F1032804CA8327DC
:1048240004CB032744CB453B130784ED938604084C
:10483400930584F8130584EE032804008147014698
:10484400593B0100EFF00FD9AA87EDDF930704F677
:104854003E85D1300100EFF08FE2AA87EDFF010021
:10486400EFF04FD7AA87EDDF81473E858320C1361D
:1048740003248136832441361301013782800111D8
:1048840006CE22CC00102326A4FE2324B4FE8327C4
:10489400C4FED84389476314F70085472DA8032530
:1048A40084FEAD318327C4FE23AA07008327C4FEF8
:1048B4000547D8C70325C4FEEFF06FE00100EFF011
:1048C4006FD1AA87EDDFEFF02FB50100EFF08FD0A5
:1048D400AA87EDDF81473E85F2406244056182800C
:1048E400797106D622D40018232EA4FC232CB4FC00
:1048F400232AC4FC8327C4FDD84389476314F700E3
:104904008547B9A00545EFF04FBB232604FE15A843
:10491400032784FD8327C4FEBA9791453E85BD389D
:104924000100EFF02FCBAA87EDDFEFF0EFAE01002F
:10493400EFF04FCAAA87EDDF8327C4FEC107232601
:10494400F4FE0327C4FE832744FDE363F7FC814799
:104954003E85B250225445618280797106D622D4B4
:104964000018232EA4FC232CB4FC232AC4FC2328E3
:10497400D4FC8327C4FDD84389476314F7008547D3
:1049840021A20945EFF06FB3232604FEFDA00327FF
:1049940084FD8327C4FEBA9791453E85EFF01F80BE
:1049A4000100EFF02FC3AA87EDDFEFF0EFA60100BF
:1049B400EFF04FC2AA87EDDF232404FE6DA0032588
:1049C40084FEEFF0CFBC2322A4FE832784FE13973A
:1049D40027008327C4FEBA97032704FDBA97032749
:1049E40044FE1377F70F2380E700832744FE93D612
:1049F4008700832784FE139727008327C4FEBA9772
:104A04008507032704FDBA9713F7F60F2380E70001
:104A1400832744FE93D60701832784FE1397270038
:104A24008327C4FEBA978907032704FDBA9713F7AF
:104A3400F60F2380E700832744FE93D6870183275C
:104A440084FE139727008327C4FEBA978D07032794
:104A540004FDBA9713F7F60F2380E700832784FE3B
:104A640085072324F4FE032784FE8D47E3F9E7F446
:104A74008327C4FEC1072326F4FE0327C4FE83272D
:104A840044FDE366F7F081473E85B2502254456108
:104A94008280797106D622D40018232EA4FC232CFC
:104AA400B4FC232AC4FC2328D4FC8327C4FDD843A4
:104AB40089476314F7008547CDA00D45EFF0EF9FBC
:104AC40081450145EFF06FA781450945EFF0EFA659
:104AD400832784FD8E07BE850545EFF00FA6832747
:104AE40044FD8E07BE850D45EFF02FA50100EFF0C4
:104AF4006FAEAA87EDDFEFF02F920100EFF08FADDC
:104B0400AA87EDDF232604FE59A08327C4FE8983E8
:104B14003E85EFF0EFA92324A4FE032704FD832799
:104B2400C4FEBA97032784FE1377F70F2380E700A8
:104B3400832784FE93D687008327C4FE8507032733
:104B440004FDBA9713F7F60F2380E700832784FE4A
:104B540093D607018327C4FE8907032704FDBA9768
:104B640013F7F60F2380E700832784FE93D687018B
:104B74008327C4FE8D07032704FDBA9713F7F60FA6
:104B84002380E7008327C4FE91072326F4FE03272E
:104B9400C4FEBD47E3FBE7F681473E85B25022548D
:104BA40045618280011122CE00102326A4FEB7C7DE
:104BB4000030DC4393F687FF8327C4FE98438327A2
:104BC400C4FEDC4386075D8F8327C4FE9C478A07A7
:104BD4005D8FB7C70030558FD8C30100724405619B
:104BE4008280011122CE00102326A4FE2324B4FEC9
:104BF400032784FE85476318F700B7C700300327EF
:104C0400C4FE98CF31A0B7C700300327C4FED8CF65
:104C14000100724405618280011122CE0010232616
:104C2400A4FE2324B4FE032784FE85476318F700FB
:104C3400B7C700300327C4FE98D331A0B7C70030EC
:104C44000327C4FED8D30100724405618280011198
:104C540022CE00102326A4FE2324B4FE032784FEC0
:104C640085476318F700B7C700300327C4FE98D7F9
:104C740031A0B7C700300327C4FED8D7010072445F
:104C840005618280011122CE00102326A4FE232474
:104C9400B4FE032784FE85476318F700B7C70030C6
:104CA4000327C4FE98DB31A0B7C700300327C4FE36
:104CB400D8DB0100724405618280011122CE00100C
:104CC4002326A4FE2324B4FE032784FE8547631809
:104CD400F700B7C700300327C4FE98DF31A0B7C779
:104CE40000300327C4FED8DF0100724405618280CE
:104CF400011122CE00102326A4FE8327C4FE23A084
:104D040007008327C4FE23A207008327C4FE23A42D
:104D140007000100724405618280011122CE001057
:104D24002326A4FE2324B4FE832784FE9C433E87CB
:104D34008327C4FE98C3832784FE9C5B8D8B13F763
:104D4400F70F8327C4FE0D8B46079047B706FAFF7B
:104D5400FD16F18E558F98C7832784FE9C5F8D8B3B
:104D640013F7F70F8327C4FE0D8B3E079047A176F8
:104D7400FD16F18E558F98C7832784FEDC4F858BF3
:104D840013F7F70F8327C4FE058B6E079047B7060A
:104D940000F8FD16F18E558F98C7832784FE9C4F2B
:104DA400858B13F7F70F8327C4FE058B6A0790479B
:104DB400B70600FCFD16F18E558F98C7832784FE35
:104DC4009C53858B13F7F70F8327C4FE058B72075B
:104DD4009047B70600F0FD16F18E558F98C78327CC
:104DE40084FEDC433E878327C4FED8C3832784FE26
:104DF400DC5B8D8B13F7F70F8327C4FE0D8B5607EF
:104E04009047B706A0FFFD16F18E558F98C78327EC
:104E140084FEDC5F8D8B13F7F70F8327C4FE0D8BA5
:104E24004E079047B706E8FFFD16F18E558F98C7D9
:104E3400832784FE9C57858B13F7F70F8327C4FEC3
:104E4400058B62079047B70600FFFD16F18E558F5C
:104E540098C7832784FEDC53858B13F7F70F8327CA
:104E6400C4FE058B5E079047B70680FFFD16F18EE2
:104E7400558F98C7832784FEDC57858B13F7F70F6C
:104E84008327C4FE058B66079047B70600FEFD1610
:104E9400F18E558F98C7832784FEDC47858B13F7E3
:104EA400F70F8327C4FE058B9447F99A558F98C74B
:104EB400832784FEDC4BBD8B13F7F70F8327C4FED7
:104EC4003D8B06079447859A558F98C7832784FEA0
:104ED4009C4BC207C183FD17C207C18393F7F73FF9
:104EE4001397070141838327C4FE1377F73F1607FF
:104EF4009047E176FD06F18E558F98C7832784FE8F
:104F04009C479D8B13F7F70F8327C4FE76079047C2
:104F1400B7060020FD16F18E558F98C70100724424
:104F240005618280011122CE00102326A4FE83276E
:104F3400C4FE23A007008327C4FE23A807028327F7
:104F4400C4FE0D4798DF8327C4FE23AE07008327E2
:104F5400C4FE23AC07008327C4FE23A007028327D3
:104F6400C4FE23A207008327C4FE23AA07028327C3
:104F7400C4FE0D47D8DF8327C4FE23A4070283277A
:104F8400C4FE23A207028327C4FE23A607028327A5
:104F9400C4FE23A607008327C4FE23AA0700832791
:104FA400C4FE054798CB8327C4FE23A40700010051
:104FB400724405618280411122C60008B7C70030DF
:104FC40023A20700B7C7003023A40700B7C70030E7
:104FD400370700017D17D8D7B7C70030370700015E
:104FE4007D17D8DFB7C70030370700017D17D8DB3E
:104FF400B7C70030370700017D17D8D3B7C70030D3
:10500400370700017D17D8CF010032444101828067
:10501400011106CE22CC00102326A4FE8327C4FE51
:1050240091073E8541368327C4FE98438327C4FEF7
:105034009C4BBE853A8575368327C4FE98438327E7
:10504400C4FE9C4FBE853A8535398327C4FE9843F8
:105054008327C4FEDC4FBE853A8585318327C4FE91
:1050640098438327C4FEDC4BBE853A857536832777
:10507400C4FE98438327C4FE9C53BE853A85C13E33
:105084000100F240624405618280011122CE0010C9
:105094002326A4FE8327C4FE370700017D1798C387
:1050A4008327C4FE23A007028327C4FE23AE070080
:1050B4008327C4FE23AC07008327C4FE23AA07006A
:1050C4008327C4FE23A807008327C4FE23A4070064
:1050D4008327C4FE23A607008327C4FE23A2070058
:1050E4000100724405618280011122CE0010232642
:1050F400A4FE2324B4FEB7E70030984B8327C4FEF4
:1051040093C7F7FFB376F700832784FE81C783270D
:10511400C4FE11A0814737E70030D58F1CCB0100B6
:10512400724405618280011122CE00102326A4FE60
:105134002324B4FE2322C4FE032744FE85476318B8
:10514400F7008327C4FE032784FED8D731A0832722
:10515400C4FE032784FE98DB01007244056182804B
:10516400011122CE00102326A4FE2324B4FE232200
:10517400C4FE032744FE85476318F7008327C4FE53
:10518400032784FED8DB31A08327C4FE032784FED3
:1051940098DF0100724405618280797122D600187B
:1051A400232EA4FC232CB4FC232AC4FC8327C4FD93
:1051B4009C432326F4FE232404FE89A8832784FE2B
:1051C4000547B317F7003E87832784FDF98F95CBF6
:1051D400832784FE86070D47B317F70093C7F7FFAD
:1051E4000327C4FEF98F2326F4FE832784FE860753
:1051F400032744FDB317F7000327C4FED98F2326E2
:10520400F4FE832784FE85072324F4FE032784FE0B
:10521400BD47E3F5E7FA8327C4FD0327C4FE98C31B
:105224000100325445618280011106CE22CC001067
:105234002326A4FE2324B4FE2322C4FE8327C4FE13
:1052440093874702032644FE832584FE3E85B137B7
:105254000100F240624405618280011106CE22CC35
:1052640000102326A4FE2324B4FE2322C4FE832795
:10527400C4FEF107032644FE832584FE3E85313FA8
:105284000100F240624405618280011106CE22CC05
:1052940000102326A4FE2324B4FE2322C4FE832765
:1052A400C4FE93870702032644FE832584FE3E85BD
:1052B400ED350100F240624405618280797122D6A5
:1052C4000018232EA4FC232CB4FC232AC4FC83271B
:1052D400C4FDDC5F2326F4FE232404FE89A883276F
:1052E40084FE0547B317F7003E87832784FDF98FB3
:1052F40095CB832784FE86070D47B317F70093C722
:10530400F7FF0327C4FEF98F2326F4FE832784FEC8
:105314008607032744FDB317F7000327C4FED98F7C
:105324002326F4FE832784FE85072324F4FE032723
:1053340084FEBD47E3F5E7FA8327C4FD0327C4FED3
:10534400D8DF0100325445618280797106D622D4B7
:105354000018232EA4FC0327C4FDB70700286317F5
:10536400F700930700102326F4FE35A00327C4FD9D
:10537400B71700286317F700930700202326F4FECD
:1053840019A80327C4FDB72700286316F70093075D
:1053940000402326F4FE81450325C4FEB133854530
:1053A4000325C4FE91330100B2502254456182802A
:1053B400011106CE22CC00102326A4FE2324B4FE21
:1053C400832784FE9843832784FEDC433E86BA8584
:1053D4000325C4FE893B832784FE9843832784FEE8
:1053E400DC473E86BA850325C4FEC93D832784FE77
:1053F4009843832784FE9C473E86BA850325C4FED2
:105404008533832784FE9843832784FEDC4B3E86C2
:10541400BA850325C4FE093D832784FE9843832768
:1054240084FE9C4F3E86BA850325C4FE3D35832702
:1054340084FE9843832784FEDC4F3E86BA85032589
:10544400C4FEA1350100F24062440561828001116D
:1054540022CE00102326A4FE8327C4FE41677D17B5
:1054640098C38327C4FE23A207008327C4FE23A670
:1054740007008327C4FE23A407008327C4FE23AAAE
:1054840007008327C4FE23AC07008327C4FE23AE92
:1054940007008327C4FE23A80700010072440561A6
:1054A4008280011122CE00102326A4FE2324B4FE00
:1054B400B7E7003098438327C4FE93C7F7FFB3765A
:1054C400F700832784FE81C78327C4FE11A0814788
:1054D40037E70030D58F1CC3010072440561828018
:1054E400011122CE00102326A4FE2324B4FEB7E724
:1054F4000030984B8327C4FE93C7F7FFB376F700B9
:10550400832784FE81C78327C4FE11A0814737E720
:105514000030D58F1CCB01007244056182800111DB
:1055240022CE00102326A4FEB72703209C4393F623
:10553400E7FFB72703200327C4FE558F98C3010054
:10554400724405618280011122CE00102326A4FE3C
:10555400B72703209C4393F6D7FF8327C4FE1397F2
:105564001700B7270320558F98C3010072440561C3
:105574008280011122CE00102326A4FEB727032027
:105584009C4393F6B7FF8327C4FE13972700B727DE
:105594000320558F98C30100724405618280011174
:1055A40022CE00102326A4FEB72703209C4393F6A3
:1055B40077FF8327C4FE13973700B7270320558F3F
:1055C40098C30100724405618280011122CE00104B
:1055D4002326A4FEB72703209C4393F6F7FC8327D6
:1055E400C4FE13974700B7270320558F98C30100C3
:1055F400724405618280011122CE00102326A4FE8C
:10560400B72703209C4393F6F7FB8327C4FE139725
:105614006700B7270320558F98C3010072440561C2
:105624008280011122CE00102326A4FEB727032076
:105634009C4393F6F7F78327C4FE13977700B727A5
:105644000320558F98C301007244056182800111C3
:1056540022CE00102326A4FEB72703209843D17737
:10566400FD17B376F7008327C4FE1397E700B72727
:105674000320558F98C30100724405618280411153
:1056840022C60008B72703209C43B9838D8B3E852F
:10569400324441018280011122CE00102326A4FE4F
:1056A400B72703200327C4FED8C301007244056151
:1056B4008280011122CE00102326A4FE3727032066
:1056C4008327C4FEC1078A07BA979C433E85724468
:1056D40005618280011106CE22CC00102326A4FE8F
:1056E400793FAA870D476386E7020D476365F70292
:1056F4000947638EE7000947636FF70089C70547C9
:105704006385E70009A8954701A8914731A09D4703
:1057140021A0A14711A081473E85F2406244056162
:105724008280797106D622D426D20018232EA4FCB6
:10573400232604FE232404FE9937AA873E85593F75
:105744002324A4FE832784FE2326F4FE15A08327A6
:10575400C4FEFD172326F4FE8327C4FE8A0703270D
:10576400C4FDB304F7000325C4FEA137AA879CC077
:105774008327C4FEE9FF832784FE3E85B25022546A
:10578400925445618280797106D622D40018232E62
:10579400A4FC232CB4FC232604FE39A88327C4FECE
:1057A4008A070327C4FDBA979C433E85ED358327BA
:1057B400C4FE85072326F4FE0327C4FE832784FD45
:1057C400E36EF7FC01000100B2502254456182806F
:1057D400411106C622C40008014591338145214583
:1057E400013385452145ED390100B2402244410190
:1057F4008280011106CE22CC00102326A4FE85450A
:105804002145453185452145E1398327C4FE9C4B1B
:105814003E85D5338327C4FEDC433E85993B8327ED
:10582400C4FEDC4B3E85F53B8327C4FE9C4F3E857E
:10583400393D8327C4FEDC473E85413B8327C4FEB4
:105844009C433E8509338327C4FE9C473E85813BA8
:105854000545F1310100F240624405618280011185
:1058640022CE00102326A4FE8327C4FE23A807000B
:105874008327C4FE23A207008327C4FE23AA0700AC
:105884008327C4FE23AC07008327C4FE23A6070096
:105894008327C4FE23A007008327C4FE23A4070094
:1058A4000100724405618280011122CE001023267A
:1058B400A4FEB75700300327C4FE1377F707137706
:1058C400F70F060783C64701858A558F238AE700A9
:1058D4000100724405618280011122CE001023264A
:1058E400A4FEB75700300327C4FE1377F70F2380B5
:1058F400E7020100724405618280011122CE00108A
:105904002326A4FEB75700300327C4FE3D8B13772C
:10591400F70F120783C6C701BD8A558F238EE70090
:105924000100724405618280011122CE00102326F9
:10593400A4FEB75700300327C4FE1377F70F238262
:10594400E7020100724405618280797106D622D48F
:105954000018232EA4FC232CB4FC8327C4FD8A073F
:10596400032784FDB357F7022326F4FE8327C4FEDE
:1059740093F7F7073E850D3F8327C4FE9D833E853D
:10598400A13F0100B250225445618280797106D64C
:1059940022D40018232EA4FC232CB4FC0327C4FD1A
:1059A400BA878607BA97032784FDB357F7022326DD
:1059B400F4FE8327C4FEBD8B3E8581378327C4FE56
:1059C40091833E8595370100B2502254456182800F
:1059D400011122CE00102326A4FE2324B4FEB7E72F
:1059E4000030984B8327C4FE93C7F7FFB376F700C4
:1059F400832784FE81C78327C4FE11A0814737E72C
:105A04000030D58F1CCB01007244056182800111E6
:105A140022CE00102326A4FEB70704200327C4FEC9
:105A24001D8B1377F70F1D8B4207D043B706F9FF81
:105A3400FD16F18E558FD8C3010072440561828032
:105A4400011122CE00102326A4FEB7070420032749
:105A5400C4FE1377F70FA382E700010072440561C7
:105A64008280011122CE00102326A4FEB707042051
:105A74000327C4FE1377F7031377F70F1377F7039E
:105A840083D6C70093F606FC558F2396E7000100E2
:105A9400724405618280011122CE00102326A4FEE7
:105AA400B70704200327C4FE058B1377F70F058B74
:105AB4001E0783D6C70093F6F6F7558F2396E700A3
:105AC4000100724405618280011122CE0010232658
:105AD400A4FEB70704200327C4FE058B1377F70F32
:105AE400058B220783D6C70093F6F6EF558F2396CE
:105AF400E7000100724405618280011122CE00108A
