:0200000480007A
:1000000073100030B701004093810178B70200807F
:100010009382021473905230731040307310403446
:10002000732510301375850263080500372500001D
:100030007320053073103000732540F163140504FC
:100040003701044013010100130201007310013451
:10005000B70200809382E20AE7800200B7020080C4
:100060009382C209E7800200130500009305000097
:10007000B722008093820203B7000080938040097A
:100080006780020073F00730731040307300501027
:100090006FF0DFFF130000006FF0DFFE67800000ED
:1000A000411122C600080100324441018280411101
:1000B00006C622C400081387C1EF938781E1B30706
:1000C000F7403E868145138581E1EF70D01013879C
:1000D00081E193870189B307F7403E86B7870080A7
:1000E0009385C7E013850189EF70900D1387C18850
:1000F00093870188B307F7403E86B78700809385D2
:1001000007E013850188EF70B00B0100B240224474
:0401100041018280A7
:10014000232E51FE93020100130101F8137101FFE8
:10015000232211002324510083A2C2FF2326310051
:1001600023284100232A5100232C6100232E7100F3
:1001700023208102232291022324A1022326B102FB
:100180002328C102232AD102232CE102232EF102CB
:1001900023200105232211052324210523263105CF
:1001A00023284105232A5105232C6105232E71059F
:1001B00023208107232291072324A1072326B107A7
:1001C0002328C107232AD107232CE107232EF10777
:1001D0007322003473231034232061007324003011
:1001E00073252034F325103413060100B7010040B5
:1001F00093810178B702008093820255E780020064
:100200007310043003230100731013348321C100E1
:100210000322010183224101032381018323C101C0
:100220000324010283244102032581028325C102A4
:100230000326010383264103032781038327C10388
:100240000328010483284104032981048329C1046C
:10025000032A0105832A4105032B8105832BC10550
:10026000032C0106832C4106032D8106832DC10634
:10027000032E0107832E4107032F8107832FC10718
:100280008320410003218100730020300000000022
:10029000000000000000000000000000000000005E
:1002A000000000000000000000000000000000004E
:1002B000000000000000000000000000000000003E
:0402C000000000003A
:1002C400011122CE0010AA872324B4FE2322C4FEE7
:1002D400A307F4FE8347F4FE89EFB70700401387B2
:1002E4000701832784FE8A07BA97032744FE98C32D
:1002F40011A813870191832784FE8A07BA970327DD
:1003040044FE98C30100724405618280011122CE2B
:1003140000102326A4FEAE87A305F4FEB706000C46
:100324000347B4FE8327C4FE8A07B69798C3010027
:10033400724405618280797122D60018AA87232C21
:10034400B4FCA30FF4FC8347F4FD9DEB3707000CCA
:100354008967BA979C432326F4FE832784FD0547C7
:10036400B317F7003E878327C4FED98F2326F4FEF4
:100374003707000C8967BA970327C4FE98C325A8DA
:100384003707000C8967BA9783A707082326F4FE6A
:10039400832784FD0547B317F7003E878327C4FEF0
:1003A400D98F2326F4FE3707000C8967BA970327F1
:1003B400C4FE23A0E70801003254456182807971AC
:1003C40022D60018AA87232CB4FCA30FF4FC83477D
:1003D400F4FD8DEF3707000C8967BA979C432326F9
:1003E400F4FE832784FD0547B317F70093C7F7FF8F
:1003F4003E878327C4FEF98F2326F4FE3707000CBB
:100404008967BA970327C4FE98C335A83707000C39
:100414008967BA9783A707082326F4FE832784FDF8
:100424000547B317F70093C7F7FF3E878327C4FE3A
:10043400F98F2326F4FE3707000C8967BA97032740
:10044400C4FE23A0E70801003254456182800111F3
:1004540022CE0010AA87A307F4FE8347F4FE81EBA3
:100464003707000CB7072000BA97DC4339A03707D9
:10047400000CB7172000BA97DC433E85724405612F
:100484008280011122CE0010AA872324B4FEA30780
:10049400F4FE8347F4FE91EB3707000CB707200006
:1004A400BA97032784FED8C309A83707000CB717E7
:1004B4002000BA97032784FED8C301007244056163
:1004C4008280011122CE0010AA872324B4FEA30740
:1004D400F4FE8347F4FE91EB3707000CB7072000C6
:1004E400BA97032784FE98C309A83707000CB717E7
:1004F4002000BA97032784FE98C301007244056163
:100504008280011106CE22CC0010014589372326B2
:10051400A4FEB7070040138707018327C4FE8A0798
:10052400BA979C4399CFB7070040138707018327E5
:10053400C4FE8A07BA979C4382978325C4FE01456B
:1005440089370100F240624405618280011106CEC0
:1005540022CC0010F32720342326F4FE8327C4FE84
:100564002324F4FE832784FE63C40702832784FEC6
:10057400BD8B2D47636BF70013972700B787008067
:100584009387879EBA979C43828701000100FDBF31
:100594008D3F0100F240624405618280011106CE64
:1005A40022CC0010AA87A307F4FE8347F4FE3E85FD
:1005B400EF0090340100F240624405618280011131
:1005C40022CE00102326A4FEAE87A305F4FE8327C3
:1005D400C4FE0347B4FE2380E70085473E8572448A
:1005E40005618280797122D60018232EA4FC232C65
:1005F400B4FC232604FE35A0032784FD93071700CB
:10060400232CF4FC8327C4FD93861700232ED4FCEB
:10061400034707002380E7008327C4FE85072326BA
:10062400F4FE832784FD83C70700F9F78327C4FEFC
:100634003E85325445618280797106D622D40018F1
:10064400232EA4FCAE87232AC4FC2328D4FCA30DA8
:10065400F4FC232604FE832744FDFD17232AF4FC1F
:10066400032704FDA54763FFE704032704FDA94707
:100674003357F7028347B4FDBA86032644FDBE858B
:100684000325C4FD553F2326A4FE8327C4FE032768
:10069400C4FDBA97232EF4FC15A88347B4FDBE8588
:1006A4000325C4FD293F8327C4FD8507232EF4FCBD
:1006B4008327C4FE85072326F4FE832744FDFD1704
:1006C400232AF4FC832744FDE349F0FC032704FDBB
:1006D400A947B377F70293F7F70F9387070393F7C5
:1006E400F70FBE850325C4FDD93D2A878327C4FEA1
:1006F400BA972326F4FE8327C4FE3E85B2502254C3
:1007040045618280797106D622D40018232EA4FC78
:10071400AE87232AC4FC2328D4FCA30DF4FC23268F
:1007240004FE832704FD63D90700832704FDB30770
:10073400F0402324F4FE29A0832704FD2324F4FE9F
:10074400832744FDFD17232AF4FC032784FEA547D1
:1007540063F3E706832704FD63D60702032784FEB9
:10076400A947B357F702B307F0403E878347B4FD68
:10077400BA86032644FDBE850325C4FD61372326BE
:10078400A4FE15A0032784FEA947B357F7023E87AA
:100794008347B4FDBA86032644FDBE850325C4FD04
:1007A40095372326A4FE8327C4FE0327C4FDBA97E6
:1007B400232EF4FC85A8832704FD63DD0702832729
:1007C40044FDFD17232AF4FC35A08347B4FDBE8500
:1007D4000325C4FDED338327C4FD8507232EF4FCD4
:1007E4008327C4FE85072326F4FE832744FDFD17D3
:1007F400232AF4FC832744FDE349F0FC832704FD0A
:1008040063D207029305D0020325C4FD4D3B2A871A
:100814008327C4FEBA972326F4FE8327C4FD8507E5
:10082400232EF4FC032784FEA947B377F70293F73A
:10083400F70F9387070393F7F70FBE850325C4FDCE
:10084400BD3B2A878327C4FEBA972326F4FE832759
:10085400C4FE3E85B250225445618280797106D629
:1008640022D40018232EA4FCAE87232AC4FC2328F8
:10087400E4FCA30DF4FCB687230DF4FC232604FE4C
:10088400832744FDFD17232AF4FC832704FD918369
:10089400B5C3832704FD13D747008346A4FD8347CC
:1008A400B4FD032644FDBE850325C4FD453F2A87C8
:1008B4008327C4FEBA972326F4FE8327C4FE0327A6
:1008C400C4FDBA97232EF4FC15A88347B4FDBE8556
:1008D4000325C4FDED318327C4FD8507232EF4FCD5
:1008E4008327C4FE85072326F4FE832744FDFD17D2
:1008F400232AF4FC832744FDE349F0FC832704FD09
:1009040013F7F700A54763E2E702832704FD93F793
:10091400F70FBD8B93F7F70F9387070393F7F70F41
:10092400BE850325C4FD613999A08347A4FD8DC309
:10093400832704FD93F7F70FBD8B93F7F70F938786
:10094400770393F7F70FBE850325C4FD8D3905A002
:10095400832704FD93F7F70FBD8B93F7F70F938766
:10096400770593F7F70FBE850325C4FD89398327DF
:10097400C4FE85072326F4FE8327C4FE3E85B250B9
:10098400225445618280797106D622D40018232E20
:10099400A4FC232CB4FC232AC4FC2328D4FC232445
:1009A40004FE232204FE8327C4FD638107268327D4
:1009B400C4FD2380070099AC832744FD03C70700C7
:1009C400930750026308F702032744FD93071700B7
:1009D400232AF4FC8327C4FD93861700232ED4FC1A
:1009E400034707002380E700832744FE850723226B
:1009F400F4FE29AC832744FD850703C7070093074A
:100A040050026317F7028327C4FD13871700232EB0
:100A1400E4FC130750022380E700832744FD890781
:100A2400232AF4FC832744FE85072322F4FEF9AA33
:100A340093070002A307F4FE230704FE832744FD63
:100A44008507232AF4FC832744FD03C70700930783
:100A540000036315F70493070003A307F4FE832739
:100A640044FD8507232AF4FC15A88347E4FE3E874A
:100A7400BA878A07BA97860713F7F70F832744FDC7
:100A840083C70700BA9793F7F70F938707FD2307E8
:100A9400F4FE832744FD8507232AF4FC832744FDC1
:100AA40003C707009307F00263FAE700832744FDB6
:100AB40003C7070093079003E3F9E7FA0347E4FE4B
:100AC400832744FEBA973E87832784FD63FEE700AD
:100AD400832784FD13F7F70F832744FE93F7F70F5B
:100AE400B307F7402307F4FE832744FD83C70700B9
:100AF400938787FA130700026365F70E139727009D
:100B0400B7870080938787A1BA979C43828703465F
:100B1400E4FE832704FD138747002328E4FC98435D
:100B24008347F4FEBA86BE850325C4FDE13E232433
:100B3400A4FE55A80346E4FE832704FD138747005B
:100B44002328E4FC98438347F4FEBA86BE85032534
:100B5400C4FDDD342324A4FE79A00346E4FE8327E8
:100B640004FD138747002328E4FC98438347F4FEDD
:100B74008146BE850325C4FDD5312324A4FEA5A04A
:100B84000346E4FE832704FD138747002328E4FC7F
:100B940098438347F4FE8546BE850325C4FD7D390D
:100BA4002324A4FE89A0832704FD13874700232858
:100BB400E4FC9C43BE850325C4FD2D342324A4FEFC
:100BC4001DA0832704FD138747002328E4FC9C43CE
:100BD40093F7F70FBE850325C4FDD5322324A4FE65
:100BE40019A0FD5795A8832744FD8507232AF4FC03
:100BF400832784FE0327C4FDBA97232EF4FC03271E
:100C040044FE832784FEBA972322F4FE832744FDFF
:100C140083C7070099C7832744FE032784FDE3EDB8
:100C2400E7D8832744FE032784FD63F7E70083277F
:100C3400C4FD2380070039A88327C4FDFD17232E94
:100C4400F4FC8327C4FD23800700832744FEFD179B
:100C54002322F4FE832744FE3E85B250225445618C
:100C640082805D7106D622D40018232EA4FC232C86
:100C7400B4FC232AC4FC54C418C85CC8232C040143
:100C8400232E1401930704022328F4FC832704FD74
:100C9400B1172324F4FE832784FEBE86032644FD75
:100CA400832584FD0325C4FDF9392326A4FE832767
:100CB400C4FE3E85B250225461618280011106CE89
:100CC40022CC00102326A4FE2324B4FE2322C4FE37
:100CD400832644FE032684FE9305E0150325C4FE03
:100CE4005D31AA873E85F24062440561828061716C
:100CF4002326111A2324811A001B232EA4E4232C57
:100D0400B4E4232AC4E4B78700809387C7A903A364
:100D1400070083A8470003A88700C8478C4BD04B23
:100D2400944FD84F9C53232664E6232814E7232AA0
:100D340004E7232CA4E6232EB4E62320C4E82322CC
:100D4400D4E82324E4E82326F4E8930704E90326FB
:100D540044E5832584E53E8595372A879307D01596
:100D640063DCE70083A78188D8479307C4E6BA8584
:100D74003E85F1220100FDBF930704E98325C4E504
:100D84003E85752AAA873E858320C11A0324811AC9
:100D94005D618280011106CE22CC00102326A4FEC0
:100DA4002324B4FE83A781889C47032684FE8325DD
:100DB400C4FE3E852D3FAA873E85F240624405610C
:100DC40082805D7106D622D40018232EA4FC232C25
:100DD400B4FC10C454C418C85CC8232C0401232ECA
:100DE400140193070402232AF4FC832744FDA1176A
:100DF4002324F4FE832784FE3E86832584FD032575
:100E0400C4FDF5352326A4FE8327C4FE3E85B250D7
:100E14002254616182805D7106D622D40018232E8B
:100E2400A4FC4CC010C454C418C85CC8232C0401CE
:100E3400232E140193070402232CF4FC832784FD3E
:100E440091172324F4FE832784FEBE850325C4FD65
:100E540091372326A4FE8327C4FE3E85B250225434
:100E6400616182805D7106D622D40018232EA4FC11
:100E7400232CB4FC10C454C418C85CC8232C04012B
:100E8400232E140193070402232AF4FC832744FD30
:100E9400A1172324F4FE832784FE3E86832584FD44
:100EA4000325C4FD213D2326A4FE8327C4FE3E85DD
:100EB400B250225461618280797106D622D400181E
:100EC400232EA4FC83A781889C47BE850325C4FDEB
:100ED400BD202326A4FE83A781889C47BE8529457F
:100EE40009288327C4FE85073E85B25022544561F4
:100EF4008280011106CE22CC00102326A4FE2324D6
:100F0400B4FE83A781889C47032784FE6309F70006
:100F140083A78188DC47032784FE631CF7008327AB
:100F2400C4FE93F7F70F3E85EFF04FE78327C4FE27
:100F340011A0FD573E85F2406244056182807971BB
:100F440006D622D40018232EA4FC232CB4FC23267A
:100F540004FE0DA88327C4FD83C70700832584FDF1
:100F64003E85413F2A87FD576314F700FD5715A0BE
:100F74008327C4FE85072326F4FE8327C4FD850743
:100F8400232EF4FC8327C4FD83C70700E1F78327DE
:100F9400C4FE3E85B250225445618280011122CEA6
:100FA4000010A1472324F4FE832784FED3F717D02F
:100FB400B787008007A707AC5377F708B787008087
:100FC40087A747AC5377F710B787008087A787AC0C
:100FD400D377F700D39717C02326F4FEB7E7003082
:100FE40003D70700136707102390E700B7E7003023
:100FF40003D70701136707102398E700B7E700300A
:1010040098471367074098C7B7E70030984F1367AE
:10101400074098CFB7070028D45F3707F4FF7D1740
:10102400F98E37070400558FD8DFB7070028D45F3F
:101034003707FDFF7D17F98E4167558FD8DFB70756
:10104400002813070030D8DBB7E7003083A6070871
:101054003707FDFF7D17F98E4167558F23A0E708F9
:10106400B7E7003083A607083707F0FF7D17758FB1
:1010740023A0E708B7E7003003A7070813670710A2
:1010840023A0E708B7E7003003A707081367170092
:1010940023A0E708B7A70030032784FED8D3B7A757
:1010A40000300327C4FE98D7B7A700301307000702
:1010B400D8D7B7A7003023AA0702B7A70030130771
:1010C400103098DB0100724405618280411122C610
:1010D40000080100B7A700309C4F9183858B93F7DC
:1010E400F70FEDFBB7A7003083C7070093F7F70F9F
:1010F4003E85324441018280011122CE0010232614
:10110400A4FE0100B7A700309C4F8D83858B93F715
:10111400F70FEDFBB7A700300327C4FE98C3814740
:101124003E85724405618280397122DE80008547E4
:101134002324F4FEB7E70030DC5F8D8B93F7F70FC1
:101144002322F4FEB727F400938707402320F4FEFC
:10115400B7E70030BC4F3E878567FD17F98FC2079C
:10116400C183232EF4FCB7E70030BC4B9D8393F777
:10117400F70393F7F70F232CF4FCB7E70030BC4BCD
:10118400B5839D8B93F7F70F232AF4FCB7E7003060
:10119400BC4BC18393F7F70393F7F70F2328F4FCB1
:1011A400B7E70030BC4BD9839D8B93F7F70F232609
:1011B400F4FCB7E70030BC4BE58393F7F70393F7F0
:1011C400F70F2324F4FEB7E70030BC4B9183858BE3
:1011D40093F7F70F99CBB7E70030F84BB707000147
:1011E400FD17F98F2326F4FE19A0232604FE832776
:1011F400C4FE13D787018327C4FD3E97832704FECB
:101204003307F702832744FD93861700832784FD61
:10121400B386F602832704FD8507B387F6023357A6
:10122400F70223AEE1E08327C4FE13D787018327A7
:10123400C4FD3E97832704FE3307F7028327C4FCCB
:1012440093861700832784FDB386F602832784FEE2
:101254008507B387F6023357F70223A0E1E2032799
:1012640044FE8D47630DF704032744FE8D4763EC6A
:10127400E704032744FE8947630EF702032744FE6D
:10128400894763E2E704832744FE99C7032744FEA2
:101294008547630AF70005A837470F00130707249B
:1012A40023ACE1E00DA03727F4001307074023AC7B
:1012B400E1E011A803A7C1E123ACE1E029A0216783
:1012C40023ACE1E00100010072542161828001112C
:1012D40022CE0010232604FEB7E7003003D7070010
:1012E400136707402390E700B7E7003003D70701EF
:1012F400136707402398E700B7270028D45F3167B6
:10130400558FD8DFB727002803D74703136707088B
:10131400239AE702B7E7003045671307171223AE95
:10132400E70AB7E700303767C10F13077710B8CB68
:10133400B7E7003023AA0704B7E7003013072003F8
:10134400B8CFB7E70030B84B1377F7F91367070244
:10135400B8CB9307803E2326F4FE31A08327C4FE36
:10136400FD172326F4FE8327C4FEEDFB0100B7E737
:101374000030BC53858B13F7F70F8547E319F7FE4D
:10138400B7E70030B84B659B13674700B8CB894774
:101394002324F4FEB7D70030F4473707F1FF7D1755
:1013A400F98E37070300558FF8C7B7D70030F847D1
:1013B40013672700F8C7B7E70030032784FE98DBDC
:1013C400232604FE31A08327C4FE85072326F4FECA
:1013D400B7E70030DC5F8D8B13F7F70FB7E700300A
:1013E4009C5B8D8B93F7F70F6308F7000327C4FE0C
:1013F40093073006E3F9E7FC01007244056182803B
:10140400011106CE22CC001081450145EFF06F8B0F
:101414008567938707802326F4FE8327C4FEF3A7FA
:1014240047302326F4FEA1472324F4FE832784FEB9
:10143400F3A707302324F4FE0100F240624405615F
:101444008280411106C622C4000851350100B24011
:10145400224441018280011122CE00102326A4FEE1
:10146400B70700309C4393F6F7FC8327C4FE139719
:101474004700B7070030558F98C3010072440561D7
:101484008280011122CE00102326A4FEB70700306B
:101494009C4393F6F7F38327C4FE13976700B707BB
:1014A4000030558F98C30100724405618280011198
:1014B40022CE00102326A4FEB70700309C4393F6E7
:1014C400F7EF8327C4FE13978700B7070030558FC3
:1014D40098C30100724405618280011122CE00107C
:1014E4002326A4FEB70700300327C4FED8C3010097
:1014F400724405618280011122CE00102326A4FECD
:101504002324B4FEB707003098478327C4FE93C74B
:10151400F7FFB376F700032784FE8327C4FE33075F
:10152400F702B7070030558F98C701007244056170
:101534008280011122CE00102326A4FEB7070030BA
:10154400D44BB70700300327C4FE558FD8CB010016
:10155400724405618280011122CE00102326A4FE6C
:101564002324B4FE370700308327C4FE89078E077F
:10157400BA97032784FED8C70100724405618280AC
:10158400011122CE00102326A4FE2324B4FE23221C
:10159400C4FE032744FE85476318F7008327C4FE6F
:1015A400032784FED8D731A08327C4FE032784FEF3
:1015B40098DB0100724405618280011122CE001083
:1015C4002326A4FE2324B4FE2322C4FE032744FEC0
:1015D40085476318F7008327C4FE032784FED8DBFE
:1015E40031A08327C4FE032784FE98DF01007244E0
:1015F40005618280011122CE00102326A4FE23243B
:10160400B4FE8327C4FE9843832784FEF98F99C3CD
:10161400854711A081473E8572440561828001118E
:1016240022CE00102326A4FE2324B4FE8327C4FE66
:10163400032784FE98C7010072440561828001116A
:1016440022CE00102326A4FE2324B4FE8327C4FE46
:10165400032784FED8C7010072440561828001110A
:1016640022CE00102326A4FE2324B4FE2322C4FE8B
:10167400032744FE85476318F7008327C4FE032726
:1016840084FEF8CB31A08327C4FE032784FEB8CFA1
:101694000100724405618280011122CE00102326CC
:1016A400A4FE2324B4FE8327C4FE032784FEF8CFBC
:1016B4000100724405618280011122CE00102326AC
:1016C400A4FE2324B4FE2322C4FE032744FE85473C
:1016D4006318F7008327C4FE032784FEF8C731A0EC
:1016E4008327C4FE032784FEB8CB0100724405613E
:1016F4008280011122CE00102326A4FE2324B4FEEE
:101704002322C4FE032744FE85476318F70083277A
:10171400C4FE032784FEF8C331A08327C4FE032735
:1017240084FEB8C70100724405618280011122CE93
:1017340000102326A4FE2324B4FE2322C4FE032780
:1017440044FE85476318F7008327C4FE032784FEFD
:10175400B8D731A08327C4FE032784FEF8D701003D
:10176400724405618280011122CE00102326A4FE5A
:101774002324B4FE2322C4FE032744FE85476318B2
:10178400F7008327C4FE032784FEB8DB31A0832738
:10179400C4FE032784FEF8DB0100724405618280E5
:1017A400011122CE00102326A4FE2324B4FE2322FA
:1017B400C4FE032744FE85476318F7008327C4FE4D
:1017C400032784FEB8DF31A08327C4FE032784FEE9
:1017D400F8DF0100724405618280011122CE0010FD
:1017E4002326A4FE2324B4FE2322C4FE032744FE9E
:1017F40085476318F7008327C4FE032784FEB8D304
:1018040031A08327C4FE032784FEF8D30100724469
:1018140005618280011122CE00102326A4FE232418
:10182400B4FE8327C4FE03A70708832784FEF98F29
:1018340099C3854711A081473E8572440561828022
:10184400011122CE00102326A4FE2324B4FE8327F4
:10185400C4FE032784FE23A0E70801007244056147
:101864008280011122CE0010A1472326F4FE832793
:10187400C4FED3F717D0B787008007A747B25377C2
:10188400F708B787008087A787B25377F710B78721
:10189400008087A7C7B2D377F700D39717C0232454
:1018A400F4FEB7E7003003D707001367071023904F
:1018B400E700B7E7003003D7070113670710239841
:1018C400E700B7E7003098471367074098C7B7E7C2
:1018D4000030984F1367074098CFB7070028D45FAC
:1018E4003707FDFF7D17F98E4167558FD8DFB7079E
:1018F4000028D45F3707F4FF7D17F98E37070400FB
:10190400558FD8DFB707002813070030D8DBB7E7B7
:10191400003083A607083707FDFF7D17F98E41675E
:10192400558F23A0E708B7E7003083A607083707D9
:10193400F0FF7D17758F23A0E708B7E7003003A7F2
:1019440007081367071023A0E708B7E7003003A7C9
:1019540007081367170023A0E708B7A70030032779
:10196400C4FED8D3B7A70030032784FE98D7B7A7FF
:10197400003013070007D8D7B7A7003023AA0702FF
:10198400B7A700301307103098DB010072440561DB
:101994008280411106C622C400086534EFF0CFF8F6
:1019A400EFF0CFDF7D3D0545EF105043E924D1230F
:1019B4003128392EB134B78700801385C7ACEFF0D6
:1019C400AFCF0100B240224441018280411106C6DA
:1019D40022C40008B7A700301307007DF8C3B7A7D7
:1019E4000030985FB7A700301367077D98DF8545FF
:1019F4006945EFE0BF91B72700801386C7A1E94589
:101A04000145EFE0FF8BE9450145EFE0DF9201007E
:101A1400B240224441018280011106CE22CC001042
:101A240021A8B7A7003083C70700A307F4FE8347A4
:101A3400F4FE3E85EF103046B7A700309C4F9183EB
:101A4400858B93F7F70FF1DFB7A700301307007DFD
:101A5400F8C30100F240624405618280011106CEA0
:101A640022CC00102326A4FE2324B4FE01468325A1
:101A740084FE0325C4FE2936832584FE0325C4FE83
:101A84007D3E0146832584FE0325C4FE3D36014682
:101A9400832584FE0325C4FEEF40E0440100F240A8
:101AA400624405618280397106DE22DC80002326CF
:101AB400A4FC2324B4FCB287A303F4FC832584FC94
:101AC4000325C4FC613F930704FD3E85EF40C05AE3
:101AD400832784FC2328F4FC8547232AF4FC232C45
:101AE40004FC232E04FC232204FE232604FE930775
:101AF40004FDBE850325C4FCEF40204E834774FCDF
:101B040099C7832584FC0325C4FC113E31A0832599
:101B140084FC0325C4FC25360100F2506254216183
:101B240082805D7186C6A2C48008232EA4FA232C69
:101B3400B4FA232AC4FA832584FB0325C4FB393F62
:101B44009307C4FC3E85EF402053832784FB232660
:101B5400F4FC232804FC232A04FC232C04FC232265
:101B640004FE832744FB2324F4FE9307C4FCBE85B0
:101B74000325C4FBEF4060460546832584FB03250B
:101B8400C4FB853EA30704FE0327C4FBB707002854
:101B94006315F7008547A307F4FE83C701E60347EF
:101BA400F4FEF98F93F7F70F99EF9305803E032521
:101BB400C4FBDD3483C701E60347F4FED98F13F772
:101BC400F70F2380E1E60546832584FB0325C4FB48
:101BD40079340546832584FB0325C4FBF13C0100CD
:101BE400B640264461618280011106CE22CC0010E9
:101BF4002326A4FE2324B4FE2322C4FE2320D4FEE1
:101C0400032644FE832584FE0325C4FE193F0546AE
:101C1400832584FE0325C4FE113E0146832584FEEC
:101C24000325C4FE89360546832584FE0325C4FEA8
:101C3400853E832584FE0325C4FE1931832704FED3
:101C440085C3832584FE0325C4FE6D32AA87B3377A
:101C5400F00093F7F70F3E87832704FE2380E70005
:101C64000546832584FE0325C4FE853E0100F2401B
:101C7400624405618280411106C622C40008B7E7A8
:101C8400003003D70700136707102390E700B7E776
:101C9400003003D70701136707102398E7000146B4
:101CA4008565370500280135014689653705002813
:101CB400DD3B0146916537050028F5330146A165F2
:101CC40037050028CD330100B2402244410182800F
:101CD400411106C622C4000893860188054685453D
:101CE400370500281137938611880546894537053D
:101CF4000028DD3D93862188054691453705002857
:101D0400E535938631880546A14537050028E93D28
:101D140085451545EFE08FDFB72700801386E7D3AD
:101D240095450145EFE0CFD995450145EFE0AFE09A
:101D34000100B240224441018280397106DE22DC76
:101D4400800083A7C1E52324F4FEB787008093872E
:101D540047B09043D4439847DC47232AC4FC232C40
:101D6400D4FC232EE4FC2320F4FEB7870080938761
:101D740047B19043D4439847DC472322C4FC23242F
:101D8400D4FC2326E4FC2328F4FCA30704FEF9A2D4
:101D94008347F4FE8A07C117A29783A747FEBE852F
:101DA40037050028853C2A8785476314F71A83473B
:101DB400F4FE8A07C117A29783A747FEBE8537059D
:101DC40000280D38AA87B337F00093F7F70FA30361
:101DD400F4FE0347F4FE93870188BA9783C707008C
:101DE40013F7F70F8547631CF70E834774FE639858
:101DF400070E8347F4FE1387C1E48A07BA979C430E
:101E0400032784FE1D8F930720036369F71203479A
:101E1400F4FE938781E4BA9783C7070093F7F70F1B
:101E24008346F4FE93C7170013F7F70F938781E4F3
:101E3400B6972380E7000347F4FE938781E4BA97BB
:101E440083C7070093F7F70F8DCF8347F4FE8A0704
:101E5400C117A29783A747FDBE8537050028EFF079
:101E64000FFC8347F4FE138717008347F4FEB10782
:101E74003E86BA85B78700801385C7ADEFE0BFF90A
:101E840025A88347F4FE8A07C117A29783A747FDB5
:101E9400BE8537050028EFF08FFA8347F4FE1387D9
:101EA40017008347F4FEB1073E86BA85B7870080E2
:101EB400138507AFEFE03FF68347F4FE1387C1E4D1
:101EC4008A07BA97032784FE98C30347F4FE9387CF
:101ED4000188BA97034774FE2380E70085A003476F
:101EE400F4FE93870188BA9783C7070093F7F70F27
:101EF400B1E7034774FE85476312F7048347F4FE92
:101F04001387C1E48A07BA979C43032784FE1D8F75
:101F1400930720036364F7020347F4FE9387018861
:101F2400BA97034774FE2380E7008347F4FE1387C0
:101F3400C1E48A07BA97032784FE98C38347F4FE53
:101F44008A07C117A29783A747FEBE8537050028D5
:101F5400C5388347F4FE8507A307F4FE0347F4FE60
:101F64008D47E3F7E7E201000100F250625421617A
:101F74008280011106CE22CC0010B7E700309847CA
:101F84001367170098C7B7E70030984F1367170017
:101F940098CF0145EFF0AFD10D45EFF08FCE054559
:101FA400EFF06FCB03A781E18967938707F4B357F9
:101FB400F7022326F4FE8327C4FE81E78547232600
:101FC400F4FE8325C4FE0145EFF0EFD80145EFF0A0
:101FD400CFD085450545EFF00FD285451945EFE093
:101FE400EFB2B72700801386870099450145EFE0DB
:101FF4002FAD99450145EFE00FB40100F240624472
:1020040005618280411106C622C4000883A7C1E588
:102014001387170023AEE1E4EF00F0710545EFF0FC
:102024004FD10100B240224441018280411106C6D1
:1020340022C40008B93A0100FDBF011122CE0010EC
:10204400AA872E872317F4FEBA87A306F4FE8357C4
:10205400E4FEA2071397070141878357E4FEA18397
:10206400C207C183BE868347D4FEB58F93F7F70FAB
:10207400B7860080938606B38607B69783D7070092
:10208400C207C187B98FC207C1872317F4FE8357DC
:10209400E4FE3E85724405618280797122D600187F
:1020A400AA87232CB4FC3287231FF4FCBA87231E8F
:1020B400F4FC8357E4FD2317F4FE231604FE99A8C9
:1020C4008357E4FEA2071397070141878357E4FE71
:1020D400A183C207C1833E868357C4FE832684FD41
:1020E400B69783C70700B18F93F7F70FB7860080C1
:1020F400938606B38607B69783D70700C207C187BE
:10210400B98FC207C1872317F4FE8357C4FE85071E
:102114002316F4FE0357C4FE8357C4FDE362F7FAA3
:102124008357E4FE3E85325445618280797106D638
:1021340022D40018232EA4FCAE87231DF4FC0357DD
:10214400A4FD854763E4E7008147ADA08357A4FD60
:10215400FD170327C4FDBA9783C70700A207139787
:10216400070141878357A4FDF9178326C4FDB69759
:1021740083C70700C207C187D98FC207C187231746
:10218400F4FE8357A4FDF917C207C1833E86832555
:10219400C4FD89671385F7D00937AA872316F4FE8F
:1021A4000357E4FE8357C4FEB307F74093B7170001
:1021B40093F7F70F3E85B250225445618280011196
:1021C40022CE00102326A4FE2324B4FE8327C4FEBB
:1021D4009843832784FEF98F99C3854711A08147CB
:1021E4003E85724405618280011122CE00102326AF
:1021F400A4FE2324B4FE8327C4FE032784FE98C7C9
:102204000100724405618280011122CE0010232650
:10221400A4FE2324B4FE8327C4FE032784FED8C768
:102224000100724405618280797122D60018232E40
:10223400A4FCAE87231DF4FC231704FE15A801009B
:10224400B7A700309C4F9583858B93F7F70FEDFB71
:102254008357E4FE0327C4FD3E97B7A70030034726
:1022640007002380E7008357E4FE85072317F4FE65
:102274000357E4FE8357A4FDE363F7FC0100B7A70B
:1022840000309C4F9D83858B93F7F70FEDDB0100A6
:102294000100325445618280797122D60018232EC0
:1022A400A4FCAE873287231DF4FCBA87A30CF4FC8C
:1022B400231704FE8357E4FE138717002317E4FE55
:1022C4003E878327C4FDBA97130730052380E700B0
:1022D40003C741888357E4FE938617002317D4FE6F
:1022E400BE868327C4FDB697136707F81377F70FE5
:1022F4002380E7008357E4FE138717002317E4FEC7
:102304003E878327C4FDBA970357A4FD1377F70FBD
:102314002380E7008357A4FDA18393960701C1821C
:102324008357E4FE138717002317E4FE3E878327B1
:10233400C4FDBA9713F7F60F2380E700830794FDD3
:102344008D8BE207E18793E7470093968701E18647
:102354008357E4FE138717002317E4FE3E87832781
:10236400C4FDBA9713F7F60F2380E7008357E4FE02
:102374003E85325445618280797106D622D4001894
:10238400232EA4FCAE87231DF4FC8357A4FD3E86B4
:102394008325C4FD89671385F7D00133AA872317E2
:1023A400F4FE8357A4FD13871700231DE4FC3E8726
:1023B4008327C4FDBA970357E4FE1377F70F2380EE
:1023C400E7008357E4FEA18393960701C1828357F4
:1023D400A4FD13871700231DE4FC3E878327C4FD57
:1023E400BA9713F7F60F2380E7008357A4FDBE8541
:1023F4000325C4FD153D0100B2502254456182807D
:10240400397106DE22DC8000AA87A307F4FCA14709
:102414002317F4FE231604FE8346F4FC0357E4FE5C
:102424009307C4FD3686BA853E85BD35AA87231633
:10243400F4FE8357C4FE138717002316E4FEC11766
:10244400A297130700042386E7FE0357C4FE9307ED
:10245400C4FDBA853E850D370100F25062542161F6
:102464008280397106DE22DC8000AA872E87A307CA
:10247400F4FCBA872307F4FCA5472317F4FE2316BC
:1024840004FE8346F4FC0357E4FE9307C4FD36863A
:10249400BA853E851135AA872316F4FE8357C4FEF8
:1024A400138717002316E4FEC117A297130710041D
:1024B4002386E7FE8357C4FE138717002316E4FE22
:1024C400C117A2970347E4FC2386E7FE0357C4FE23
:1024D4009307C4FDBA853E8545350100F250625428
:1024E40021618280597186D6A2D48018AA87A30F4D
:1024F400F4F8231704FEB7474301938717242320D6
:10250400F4FA930710102322F4FAB7070101938712
:1025140007102324F4FAD1472316F4FE8346F4F972
:102524000357C4FE9307C4FA3686BA853E85AD3395
:10253400AA872317F4FE8357E4FE13871700231793
:10254400E4FEC117A29713075004238EE7FA8357BA
:10255400E4FE1307C4FABA97034704FABA8F034791
:1025640014FA3A8F034724FABA8E034734FA3A8EA0
:10257400034744FA3A83034754FABA88034764FA90
:102584003A88034774FA3A85034784FABA850347BD
:1025940094FA3A860347A4FABA860347B4FA238026
:1025A400F701A380E7012381D701A381C701238217
:1025B4006700A382170123830701A383A700238451
:1025C400B700A384C7002385D700A385E7008357FA
:1025D400E4FEB1072317F4FE0357E4FE9307C4FA9D
:1025E400BA853E85513B0100B65026546561828010
:1025F400357106CF22CD0011AA87A307F4F623175D
:1026040004FEB7870080938707D303AF070083AE28
:10261400470003AE870003A3C70083A8070103A8EC
:102624004701884FCC4F9053D4539857DC57232EEF
:10263400E4F72320D4F92322C4F9232464F82326BD
:1026440014F9232804F9232AA4F8232CB4F8232EFC
:10265400C4F82320D4FA2322E4FA2324F4FA9307B7
:1026640080032316F4FE8346F4F60357C4FE93074F
:10267400C4FA3686BA853E850531AA872317F4FE47
:102684008357E4FE138717002317E4FEC117A297AC
:1026940013076004238EE7FA8357E4FE1307C4FA92
:1026A400BA97BE869307C4F7130700033A86BE851C
:1026B4003685EF50A0308357E4FE93870703231732
:1026C400F4FE0357E4FE9307C4FABA853E856D31E0
:1026D4000100FA406A440D618280397106DE22DC11
:1026E4008000AA872E872324C4FCA307F4FCBA879E
:1026F4002307F4FC231704FEB5472316F4FE834690
:10270400F4FC0357C4FE9307C4FD3686BA853E85A0
:102714006136AA872317F4FE8357E4FE1387170054
:102724002317E4FEC117A297130750062386E7FE7A
:102734008357E4FE138717002317E4FE0347E4FCE2
:102744001377F7071377F70FC117A2972386E7FECE
:102754008357E4FE138717002317E4FE032784FC42
:102764001377F70FC117A2972386E7FE832784FC0C
:1027740093D687008357E4FE138717002317E4FEDC
:1027840013F7F60FC117A2972386E7FE832784FC6D
:1027940093D607018357E4FE138717002317E4FE3B
:1027A40013F7F60FC117A2972386E7FE832784FC4D
:1027B40093D687018357E4FE138717002317E4FE9B
:1027C40013F7F60FC117A2972386E7FE0357E4FE1B
:1027D4009307C4FDBA853E8545360100F250625424
:1027E40021618280011106CE22CC0010AA87A307A2
:1027F400F4FE8347F4FE95C3A16537050028ED3246
:10280400916537050028CD32896537050028E93AF6
:10281400856537050028C93A0DA0A165370500284C
:10282400E532916537050028C532896537050028EA
:10283400E13A856537050028C13A0100F240624457
:1028440005618280397106DE22DC8000AA87A30735
:10285400F4FC231704FEA5472316F4FE8346F4FC78
:102864000357C4FE930784FD3686BA853E852D340E
:10287400AA872317F4FE8357E4FE13871700231750
:10288400E4FEC117A297130790042384E7FEA3056F
:1028940004FE8545370500281D32AA8793B7170023
:1028A40093F7F70F93F7F70F0347B4FED98FA305F8
:1028B400F4FE8945370500281932AA8799E3894728
:1028C40011A0814793F7F70F0347B4FED98FA305EF
:1028D400F4FE914537050028DD30AA8799E3914736
:1028E40011A0814793F7F70F0347B4FED98FA305CF
:1028F400F4FEA14537050028D930AA8799E3A147FA
:1029040011A0814793F7F70F0347B4FED98FA305AE
:10291400F4FE8357E4FE138717002317E4FEC11760
:10292400A2970347B4FE2384E7FE0357E4FE93070C
:1029340084FDBA853E8589340100F25062542161D8
:102944008280397106DE22DC8000AA87A307F4FCAA
:10295400231704FEA5472316F4FE8346F4FC03570D
:10296400C4FE930784FD3686BA853E853532AA8730
:102974002317F4FE8357E4FE138717002317E4FE9E
:10298400C117A2971307A0042384E7FEA30504FE3E
:102994008565370500282530AA8799C3854711A086
:1029A400814793F7F70F0347B4FED98FA305F4FECD
:1029B4008965370500282130AA8799C3894711A062
:1029C400814793F7F70F0347B4FED98FA305F4FEAD
:1029D400916537050028EFF08FFEAA8799C39147C8
:1029E40011A0814793F7F70F0347B4FED98FA305CE
:1029F400F4FEA16537050028EFF06FFCAA8799C3A0
:102A0400A14711A0814793F7F70F0347B4FED98F6D
:102A1400A305F4FE8357E4FE138717002317E4FE8F
:102A2400C117A2970347B4FE2384E7FE0357E4FECD
:102A3400930784FDBA853E8581320100F2506254C9
:102A440021618280397106DE22DC80002326A4FC09
:102A5400AE872315F4FCB7870080938707D690438D
:102A6400D4439847DC472328C4FC232AD4FC232CD2
:102A7400E4FC232EF4FC8357A4FC8D8BC207C18392
:102A8400639F07380357A4FC8D4763FAE7388357DD
:102A9400A4FC89832316F4FE231704FE95AE835702
:102AA400E4FE8A070327C4FCBA972324F4FE832791
:102AB40084FE83C70700A303F4FE832784FE83C731
:102AC40017002303F4FE832784FE890783C70700C6
:102AD400139707014187832784FE8D0783C7070067
:102AE400A207C207C187D98FC207C1872312F4FE88
:102AF400034774FE8D4763EFE72E834774FE8A070E
:102B0400C117A29783A707FE2320F4FE834764FE20
:102B140019476363F72E13972700B78700809387BD
:102B240007D7BA979C438287034774FE9386C1EA0A
:102B3400BA878607BA978A07B697238007000347A0
:102B440074FE9386C1EABA878607BA978A07B6974E
:102B5400A3800700034774FE9386C1EABA878607F9
:102B6400BA978A07B69723A20700832504FE370580
:102B74000028EFF06FE941AC034774FE9386C1EA85
:102B8400BA878607BA978A07B69705472380E7006E
:102B9400034774FE9386C1EABA878607BA978A0701
:102BA400B697A3800700034774FE9386C1EABA87E9
:102BB4008607BA978A07B69723A20700832504FEDF
:102BC40037050028EFF04FE23DAC034774FE9386CF
:102BD400C1EABA878607BA978A07B697238007009F
:102BE400034774FE9386C1EABA878607BA978A07B1
:102BF400B69705472384E700034774FE9386C1EA2A
:102C0400BA878607BA978A07B69783C71700639966
:102C1400071E832504FE37050028EFF0EFDECDA262
:102C2400034774FE9386C1EABA878607BA978A0770
:102C3400B69705472380E700034774FE9386C1EAED
:102C4400BA878607BA978A07B69705472384E700A9
:102C5400034774FE9386C1EABA878607BA978A0740
:102C6400B69783C71700639F0718832504FE3705AB
:102C74000028EFF06FD779A2034774FE9386C1EA68
:102C8400BA878607BA978A07B6970547A380E700ED
:102C9400034774FE9386C1EABA878607BA978A0700
:102CA400B69705472381E700034774FE9386C1EA7C
:102CB400BA878607BA978A07B6972384070083578B
:102CC40044FEA1E7034774FE9386C1EABA878607E8
:102CD400BA978A07B69705472380E700034774FE2F
:102CE4009386C1EABA878607BA978A07B697A380FC
:102CF4000700034774FE9386C1EABA878607BA972A
:102D04008A07B69723A207000DA0835644FE034703
:102D140074FE93074006B386F6021386C1EABA87A7
:102D24008607BA978A07B297D4C3832504FE37056A
:102D34000028EFF06FCBC1A8034774FE9386C1EA65
:102D4400BA878607BA978A07B6970547A380E7002C
:102D5400034774FE9386C1EABA878607BA978A073F
:102D6400B69723810700034774FE9386C1EABA87A6
:102D74008607BA978A07B69723840700835744FEC9
:102D8400B9E3034774FE9386C1EABA878607BA9704
:102D94008A07B69723800700034774FE9386C1EA27
:102DA400BA878607BA978A07B697A38007000347AE
:102DB40074FE9386C1EABA878607BA978A07B697DC
:102DC40023A207000DA0835644FE034774FE930715
:102DD4004006B386F6021386C1EABA878607BA9715
:102DE4008A07B297D4C3832504FE37050028EFF081
:102DF400AFC111A8010001A8010031A0010021A068
:102E0400010011A001008357E4FE85072317F4FE97
:102E14000357E4FE8357C4FEE363F7C811A001001F
:102E2400F250625421618280397122DE80002326AF
:102E3400A4FC8327C4FC92073727F4001307074038
:102E4400B357F7022326F4FE8327C4FC53F717D0A5
:102E5400B787008087A7C7DDD377F710B7870080CF
:102E640007A707DE5377F7188327C4FED3F717D0D5
:102E7400D377F7082724F4FE072784FEB78700805A
:102E840087A747DE5377F710B787008087A787DEC9
:102E9400D377F700D39717C02322F4FEB7A70030E7
:102EA4009C5B2320F4FEB7A70030DC57232EF4FCF0
:102EB400B7A700309C5F232CF4FC0100B7A70030B7
:102EC4009C4F8D83858B93F7F70FEDFBB7A70030ED
:102ED40023A80702B7A700300327C4FED8D3B7A797
:102EE4000030032744FE98D7B7A700301307000724
:102EF400D8D7B7A700301307F07FF8C329A0B7A726
:102F0400003083C70700B7A700309C4F9183858B9F
:102F140093F7F70FEDD7B7A70030032784FD98DFA9
:102F2400B7A70030032704FE1367173098DB0100AE
:102F3400725421618280797106D622D40018B78731
:102F44000080938707D69043D4439847DC47232EC9
:102F5400C4FC2320D4FE2322E4FE2324F4FEA3078E
:102F640004FEE1A80347F4FE9386C1EABA87860704
:102F7400BA978A07B69783C71700DDCB0347F4FED9
:102F84009386C1EABA878607BA978A07B697DC435D
:102F9400C5C30347F4FE9386C1EABA878607BA9786
:102FA4008A07B697DC439386F7FF1386C1EABA878C
:102FB4008607BA978A07B297D4C30347F4FE938669
:102FC400C1EABA878607BA978A07B697DC43ADE3A6
:102FD4000347F4FE9386C1EABA878607BA978A073D
:102FE400B697A38007000347F4FE9386C1EABA8725
:102FF4008607BA978A07B69783C7070091CF834796
:10300400F4FE8A07C117A29783A7C7FEBE853705BA
:103014000028EFF06F9D29A88347F4FE8A07C117A3
:10302400A29783A7C7FEBE8537050028EFF0CF9D82
:103034008347F4FE8507A307F4FE0347F4FE8D4798
:10304400E3F2E7F29387C1ED9C4B91CB9387C1EDFB
:103054009C4B1387F7FF9387C1ED98CB85AA938781
:10306400C1ED83C70700638A070E9387C1ED83C749
:1030740027009DC79387C1ED238107009387C1ED86
:1030840083C7D701B337F00093F7F70F3E85EFF00E
:103094006FF59387C1ED98479387C1ED98CB3DA217
:1030A4009387C1ED05472381E7009387C1ED83C76B
:1030B400C701B337F00093F7F70F3E85EFF08FF2B7
:1030C4009387C1EDD8439387C1ED98CB9387C1ED26
:1030D40083D7C700638C070E9387C1ED83D7C700DE
:1030E400FD171397070141839387C1ED2396E700EA
:1030F4009387C1ED83D7C700639A070C9387C1ED0B
:10310400238007009387C1EDDC4B85CF9387C1ED06
:103114009C4F85CB9387C1ED05472381E7009387B7
:10312400C1ED83C7E701B337F00093F7F70F3E858E
:10313400EFF04FEB9387C1EDD84B9387C1ED98CB5C
:1031440071A09387C1ED83C717003E85EFF08FE927
:103154009387C1ED23A8070095A89387C1EDDC4BA5
:10316400B5C79387C1ED9C4FB5C39387C1ED83C7A2
:1031740027009DC79387C1ED238107009387C1ED85
:1031840083C7F701B337F00093F7F70F3E85EFF0ED
:103194006FE59387C1ED984F9387C1ED98CB3DA020
:1031A4009387C1ED05472381E7009387C1ED83C76A
:1031B400E701B337F00093F7F70F3E85EFF08FE2A6
:1031C4009387C1EDD84B9387C1ED98CBB25022546D
:1031D400456182801D7186CEA2CC80102326A4FA7C
:1031E400AE872315F4FA0357A4FAB54763F3E73E11
:1031F4000357A4FAB947B357F7022311F4FE231770
:1032040004FEC9A60357E4FEBA878E07998F860782
:103214003E878327C4FABA97232EF4FC8327C4FD80
:1032240083C70700A30DF4FC8327C4FD83C71700DD
:10323400230DF4FC8347B4FD639007388347A4FD52
:10324400639C07368327C4FD83C72700A30CF4FCC3
:103254008327C4FD83C73700230CF4FC8327C4FDF4
:1032640083C74700A30BF4FC8327C4FD83C757001F
:10327400230BF4FC8327C4FD83C76700A30AF4FC73
:103284008327C4FD9D0783C7070013970701418760
:103294008327C4FDA10783C70700A207C207C1870C
:1032A400D98FC207C1872319F4FC8327C4FD83C7C0
:1032B4009700A308F4FC8327C4FD83C7A700230851
:1032C400F4FC8327C4FD83C7B700A307F4FC83275A
:1032D400C4FD83C7C7002307F4FC8327C4FD83C749
:1032E400D700A306F4FC034714FD8547631DF70EBE
:1032F400034704FD93074006B307F7022324F4FCB5
:103304000347F4FC93074006B307F7022322F4FCB7
:103314009387C1ED032784FCD8CB9387C1ED0327A2
:1033240044FC98CF8347E4FCB337F00093F7F70FDE
:103334003E879387C1ED238FE7008347D4FCB337DF
:10334400F00093F7F70F3E879387C1EDA38FE70053
:10335400832784FC85C3832744FC89EF8347E4FCEB
:10336400B337F00093F7F70F3E879387C1EDA3803F
:10337400E70015A0832784FC99EF832744FC81CFC1
:103384008347D4FCB337F00093F7F70F3E87938756
:10339400C1EDA380E7009387C1ED83C70700A1E7D0
:1033A400832784FC95CB832744FC9DC79387C1ED79
:1033B40005472381E7009387C1ED83C7E701B3374E
:1033C400F00093F7F70F3E85EFF0CFC19387C1ED7F
:1033D400032784FC98CB01A89387C1ED83C717000A
:1033E4003E85EFF02FC0834794FD6388071C034795
:1033F40094FD85476319F7069387C1ED2380070081
:103404009387C1EDDC4B85CF9387C1ED9C4F85CB72
:103414009387C1ED05472381E7009387C1ED83C7F7
:10342400E701B337F00093F7F70F3E85EFF08FBB5A
:103434009387C1EDD84B9387C1ED98CBBDAA9387F1
:10344400C1ED03C717009387C1ED2381E70093877C
:10345400C1ED83C717003E85EFF0CFB89387C1ED68
:1034640023A8070099AA034794FD89476317F71413
:10347400034784FD93074006B307F7022320F4FCB7
:10348400034774FD93074006B307F702232EF4FAAB
:103494009387C1ED032704FCD8C39387C1ED0327A9
:1034A400C4FB98C7834764FDB337F00093F7F70F65
:1034B4003E879387C1ED238EE700834754FDB337DE
:1034C400F00093F7F70F3E879387C1EDA38EE700D3
:1034D400835724FD91E79387C1ED23960700BDA090
:1034E4009387C1EDD8439387C1ED9C47BA972324B2
:1034F400F4FE832784FE89E7930740062324F4FE21
:10350400035724FD93074006B307F702232CF4FA6C
:10351400032784FB832784FEB357F7022322F4FE98
:10352400832744FE81E785472322F4FE032744FED4
:10353400C1676377F700832744FEC207C18319A0DC
:10354400C167FD171387C1ED2316F7009387C1EDFB
:10355400DC4385CB9387C1ED05472381E70093873F
:10356400C1ED83C7C701B337F00093F7F70F3E856A
:10357400EFF04FA79387C1EDD8439387C1ED98CB64
:1035840035A09387C1ED238107009387C1ED83C7DD
:10359400D701B337F00093F7F70F3E85EFF08FA410
:1035A4009387C1ED98479387C1ED98CB9387C1ED7D
:1035B40005472380E70011A001008357E4FE850737
:1035C4002317F4FE0357E4FE835724FEE36CF7C28B
:1035D40011A00100F640664425618280797122D6EB
:1035E4000018AA87A30FF4FC8347F4FD93F7F707A9
:1035F40013F7F70F2382E18823A201E6239401E65F
:10360400239501E6A30704FEADA80347F4FE9386C1
:10361400C1EABA878607BA978A07B6972380070054
:103624000347F4FE9386C1EABA878607BA978A07E6
:10363400B697A38007000347F4FE9386C1EABA87CE
:103644008607BA978A07B697238107000347F4FED3
:103654009386C1EABA878607BA978A07B69723A2E0
:1036640007000347F4FE9386C1EABA878607BA9730
:103674008A07B697238407008347F4FE8507A307C8
:10368400F4FE0347F4FE8D47E3F1E7F8010001007F
:103694003254456182805D7186C6A2C48008AA87BF
:1036A400A30FF4FA83A741E611476363F73E139728
:1036B4002700B78700809387C7D8BA979C4382872F
:1036C4000347F4FB930730056317F73C239501E6A2
:1036D40083D7A1E61387170093160701C1822395A8
:1036E400D1E63E879387C1E6BA970347F4FB23806C
:1036F400E700054723A2E1E679AE83D7A1E6138765
:10370400170093160701C1822395D1E63E8793875C
:10371400C1E6BA970347F4FB2380E700094723A2D5
:10372400E1E6ADAE83D7A1E6138717009316070130
:10373400C1822395D1E63E879387C1E6BA970347B2
:10374400F4FB2380E7008347F4FB139707014183CD
:103754002394E1E60D4723A2E1E689A683D7A1E6F7
:103764001387170093160701C1822395D1E63E877C
:103774009387C1E6BA970347F4FB2380E7008347A6
:10378400F4FBA20713970701418783D781E6C20799
:10379400C187D98FC207C187139707014183239437
:1037A400E1E603D781E69D4763F8E70003D781E6A6
:1037B4009307000463F5E70023A201E6C5A41147BB
:1037C40023A2E1E6E1AC83D7A1E6138717009316A1
:1037D4000701C1822395D1E63E879387C1E6BA9754
:1037E4000347F4FB2380E70003D7A1E683D781E6F0
:1037F4006365F72A83D781E6BE851385C1E6EFE0CA
:10380400FF92AA87638207229387C1E683C71700C2
:1038140093F7F7072306F4FE83C741880347C4FEE2
:10382400630CF7000347C4FE9307F0076306F70031
:103834008347C4FE639B07249387C1E683C747007D
:10384400A305F4FE8347B4FE8D8B2305F4FE938712
:10385400C1E683C75700A304F4FE8347C4FE9387DD
:1038640017F8B337F00093F7F70F2304F4FE8347F8
:1038740094FE938707FA3947636EF7181397270066
:10388400B7870080938707DABA979C438287834778
:1038940084FE638B071C8347A4FE3E85EFE05FB67E
:1038A400E1A2834784FE6383071C8347A4FE3E850D
:1038B400EFE05FC365AA834784FE638B071A8347DF
:1038C400A4FE3E85EFE0DFD265A2834784FE6383D6
:1038D400071A8347A4FE3E85EFE0DFF661AA83471B
:1038E40084FE638B07188347A4FE3E85EFF06F8543
:1038F40061A283D781E6E1172313F4FE035764FE24
:103904009547631DF708938721E72320F4FE832757
:1039140004FE83C7070093F7F707A30FF4FC83277C
:1039240004FE850783C707003E87832704FE8907B3
:1039340083C70700A2075D8F832704FE8D0783C713
:103944000700C2075D8F832704FE910783C7070022
:10395400E207D98F232CF4FC834784FE99CB0347D9
:10396400F4FD8347A4FE032684FDBA853E85EFE07B
:10397400DFD60347F4FD2382E188032784FD930700
:10398400F04A63FDE70E032784FDB7170E0063E7D3
:10399400E70E032584FDEFF02FC9CDA0834784FEF5
:1039A400638E070C8347A4FE89453E85EFE07FAB19
:1039B400F1A083D781E6E117231BF4FC938721E769
:1039C4002328F4FC835764FDBE85032504FD1930C8
:1039D400834784FED5C78347A4FE3E85EFE05FA2FC
:1039E40045A083D781E6E1172317F4FC938721E7E9
:1039F4002324F4FC8357E4FCBE85032584FCEFF008
:103A04006F84834784FEBDCF8347A4FE3E85EFE0E9
:103A14003F9F8DA8834784FEA5CB8347A4FE8D4595
:103A24003E85EFE01FA48DA09387C1E683C71700EE
:103A340093F7F707A307F4FE0347F4FE9307F00791
:103A44006305F7049387C1E683C747002307F4FEA1
:103A54008347E4FE8D8BA306F4FE8347D4FE85459D
:103A64003E85EFE01FA015A0010005A0010031A8CC
:103A7400010021A8010011A8010001A8010031A042
:103A8400010021A0010011A0010023A201E631A040
:103A940023A201E621A0010011A001000100B6400B
:103AA400264461618280011122CE00102326A4FEE7
:103AB400B7E700300327C4FE058B1377F70F058B98
:103AC400220783A6070B93F6F6EF558F23A8E70A80
:103AD4000100724405618280011122CE0010232668
:103AE400A4FE2324B4FEB7070130DC430327C4FE3D
:103AF40085463397E6001347F7FFB3F6E7008327BD
:103B0400C4FE032784FE3317F700B7070130558F2F
:103B1400D8C30100724405618280011122CE0010D5
:103B24002326A4FE2324B4FEB7070130DC4F032769
:103B3400C4FE0A07BD463397E6001347F7FFB3F602
:103B4400E7008327C4FE8A07032784FE3317F700A0
:103B5400B7070130558FD8CF0100724405618280C8
:103B6400011122CE00102326A4FE2324B4FEB7069E
:103B74000130832784FE9D8B13F7F70F8327C4FE40
:103B84009A07B6971D8B83D68705E19A558F239C98
:103B9400E7040100724405618280011122CE001005
:103BA4002326A4FE2324B4FEB7060130832784FE13
:103BB4009D8B13F7F70F8327C4FE9A07B6971D8BC7
:103BC4001316970003D78705BA867D771307F71F67
:103BD400758FBA863287558F239CE704010072449F
:103BE40005618280011122CE00102326A4FE232425
:103BF400B4FEB7060130832784FE858B13F7F70FD5
:103C04008327C4FE9A07B697058B220783D68705B8
:103C140093F6F6EF558F239CE70401007244056187
:103C24008280011122CE00102326A4FE2324B4FE98
:103C3400B7060130832784FE9D8B13F7F70F832784
:103C4400C4FE9A07B6971D8B220783D6070693F600
:103C5400F68F558F2390E706010072440561828038
:103C6400011122CE00102326A4FE2324B4FEB7069D
:103C74000130832784FE858B13F7F70F8327C4FE57
:103C84009A07B697058B83D60706F99A558F239022
:103C9400E7060100724405618280011122CE001002
:103CA4002326A4FE2324B4FEB7060130832784FE12
:103CB40013F7F70F8327C4FE9A07B6972382E70604
:103CC4000100724405618280011122CE0010232676
:103CD400A4FE2324B4FEB7060130832784FE858B1B
:103CE40013F7F70F8327C4FE9A07B697058B2207AD
:103CF400F45393F6F6EF558FF8D30100724405613F
:103D04008280011122CE00102326A4FE2324B4FEB7
:103D14002322C4FE370701308327C4FE9A07BA97CB
:103D2400FC57032784FE85463397E6001347F7FFC5
:103D34007D8F832784FE832644FEB397F600B7065F
:103D440001305D8F8327C4FE9A07B697F8D7010028
:103D5400724405618280011122CE00102326A4FE44
:103D64002324B4FE37070130832684FEB7070001FD
:103D7400FD17FD8E8327C4FE9A07BA973707000103
:103D84007D17758FB05BB70600FFF18E558FB8DBDA
:103D94000100724405618280011122CE00102326A5
:103DA400A4FE2324B4FE37060130832784FE858BCA
:103DB40093F6F70F0327C4FEBA878607BA978A07D4
:103DC400B29713F71600320703A60740FD76FD16D7
:103DD400F18E558F23A0E740010072440561828073
:103DE400011122CE00102326A4FE2324B4FE37069C
:103DF4000130832784FE858B93F6F70F0327C4FED7
:103E0400BA878607BA978A07B29713F7160062072C
:103E140003A60740B70600FFFD16F18E558F23A0B9
:103E2400E7400100724405618280011122CE001036
:103E34002326A4FE2324B4FE37060130832784FE00
:103E44009D8B93F6F70F0327C4FEBA878607BA97AC
:103E54008A07B29713F77600420703A60740B7060E
:103E6400F9FFFD16F18E558F23A0E740010072443F
:103E740005618280011122CE00102326A4FE232492
:103E8400B4FE2322C4FEB70601300327C4FEBA875A
:103E94008607BA978A07B69703A70740FD779387E3
:103EA400F70F7D8F832784FE93968700832744FE34
:103EB400AA07D58F37060130B366F7000327C4FE7F
:103EC400BA878607BA978A07B29723A0D74001001A
:103ED400724405618280011122CE00102326A4FEC3
:103EE4002324B4FE37060130832784FE3E8785678A
:103EF400FD17F98F93960701C1820327C4FEBA8781
:103F04008607BA978A07B29705677D17758F03A648
:103F14004740FD76F18E558F23A2E740010072449D
:103F240005618280011122CE00102326A4FE2324E1
:103F3400B4FE37060130832784FE3E878567FD176C
:103F4400F98F93960701C1820327C4FEBA878607B7
:103F5400BA978A07B29705677D17758F420703A63C
:103F64004740B70601F0FD16F18E558F23A2E740B6
:103F74000100724405618280797122D60018232ED3
:103F8400A4FC232CB4FC232AC4FC832784FD8D8B3E
:103F94008E072326F4FE032784FD9D4763F3E7047D
:103FA400370701308327C4FD85079A07BA979C43D6
:103FB4000327C4FE9306F0033397E6001347F7FF85
:103FC4007D8F8327C4FE832644FDB397F600B7068E
:103FD40001305D8F8327C4FD85079A07B69798C380
:103FE40079A0032784FD8D4763F3E7043707013085
:103FF4008327C4FD85079A07BA979C430327C4FE09
:104004009306F0033397E6001347F7FF7D8F83276A
:10401400C4FE832644FDB397F600B70601305D8FD6
:104024008327C4FD85079A07B69798C389A03707E5
:1040340001308327C4FD85079A07BA979C43032759
:10404400C4FE9306F0033397E6001347F7FF7D8F12
:104054008327C4FE832644FDB397F600B7060130D8
:104064005D8F8327C4FD85079A07B69798C301001F
:10407400325445618280411106C622C400080145BC
:104084001D3405450D340100B240224441018280B3
:10409400797106D622D40018232EA4FC232CB4FC58
:1040A400832784FD9C43BE850325C4FDBD3483273B
:1040B40084FDDC43BE850325C4FD393C232604FE70
:1040C4001DA0032784FD8327C4FE8A07BA979C4753
:1040D4003E868325C4FE0325C4FD793D8327C4FEA3
:1040E40085072326F4FE0327C4FE9D47E3FBE7FC74
:1040F400832784FD9C57BE850325C4FD95348327FF
:1041040084FDDC57BE850325C4FD413C832784FD23
:104114009C5BBE850325C4FDF134832784FDDC5BF1
:10412400BE850325C4FD953E832784FD9C5FBE8523
:104134000325C4FD513E832784FDDC5FBE85032532
:10414400C4FD1139232404FE25A0032784FD8327FD
:1041540084FEC1078A07BA979C433E86832584FE62
:104164000325C4FD793E832784FE85072324F4FEBA
:10417400032784FE9D47E3FAE7FC832784FDBC53B1
:10418400BE850325C4FD713C832784FDFC53BE8595
:104194000325C4FDF1340100B250225445618280EC
:1041A400797122D60018232EA4FC8327C4FD23A0F2
:1041B40007008327C4FD23A20700232604FE31A899
:1041C4000327C4FD8327C4FE8A07BA9723A40700E4
:1041D4008327C4FE85072326F4FE0327C4FE9D47D8
:1041E400E3F0E7FE8327C4FD23A407028327C4FD6D
:1041F4000547D8D78327C4FD23A807028327C4FD16
:1042040023AA07028327C4FD23AC07028327C4FD26
:1042140023AE0702232404FE39A80327C4FD832701
:1042240084FEC1078A07BA9723A00700832784FE68
:1042340085072324F4FE032784FE9D47E3FFE7FC60
:104244008327C4FD0547B8D38327C4FD23A20706EB
:104254000100325445618280011106CE22CC001047
:104264002326A4FE2324B4FE832784FE9C43BE8518
:104274000325C4FE1536832784FEDC43BE8503254F
:10428400C4FE9139832784FE9C47BE850325C4FE62
:104294005139832784FEDC47BE850325C4FE893655
:1042A400832784FE9C4BBE850325C4FEBD3E832725
:1042B40084FED84B832784FE9C4F3E86BA85032513
:1042C400C4FE4D3E0100F24062440561828001114A
:1042D40022CE00102326A4FE8327C4FE23A00700B9
:1042E4008327C4FE23A207008327C4FE23A4070058
:1042F4008327C4FE23A607008327C4FE23A8070040
:104304008327C4FE23AA07008327C4FE23AC070027
:104314000100724405618280011122CE001023261F
:10432400A4FEB7E700300327C4FE058B1377F70F0D
:10433400058B220783A6470B93F6F6EF558F23AA26
:10434400E70A0100724405618280011122CE001047
:104354002326A4FEB72701309843B707F9FFFD17BA
:10436400B376F7008327C4FE13970701B7270130FC
:10437400558F98C30100724405618280011122CED9
:1043840000102326A4FEB72701309843E577FD17D4
:10439400B376F7008327C4FE1397C700B72701300D
:1043A400558F98C30100724405618280011122CEA9
:1043B40000102326A4FEB72701309C4393F6F7CFC1
:1043C4008327C4FE13978700B7270130558F98C3FE
:1043D4000100724405618280011122CE001023265F
:1043E400A4FE2324B4FEB7270130D8438327C4FE98
:1043F4008A078D46B397F60093C7F7FFB376F700A5
:104404008327C4FE8A07032784FE3317F700B727E0
:104414000130558FD8C301007244056182800111B7
:1044240022CE00102326A4FE2324B4FEB727013095
:1044340098478327C4FE8A079D46B397F60093C71F
:10444400F7FFB376F7008327C4FE8A07032784FEA9
:104454003317F700B7270130558F98C7010072440E
:1044640005618280411106C622C4000801456D35EC
:1044740005455D350100B2402244410182800111AD
:1044840006CE22CC00102326A4FE8327C4FE9C4320
:104494003E85653D8327C4FEDC433E85C5358327C1
:1044A400C4FE9C473E8519370100F2406244056111
:1044B4008280011122CE00102326A4FE8327C4FE8D
:1044C40023A207008327C4FE23A407008327C4FE76
:1044D40023A007000100724405618280011106CE09
:1044E40022CC00102326A4FE2324B4FE832784FEBA
:1044F4009C43BE850325C4FEC535832784FEDC4367
:10450400BE850325C4FE213F0100F24062440561DB
:104514008280011122CE00102326A4FE8327C4FE2C
:1045240023A207008327C4FE054798C301007244F1
:1045340005618280011122CE00102326A4FE2324CB
:10454400B4FEB7E70030984B8327C4FE93C7F7FF48
:10455400B376F700832784FE81C78327C4FE11A0A6
:10456400814737E70030D58F1CCB010072440561C9
:104574008280011122CE00102326A4FE2324B4FE3F
:104584008327C4FEDC4713F7E7FF832784FE5D8F90
:104594008327C4FED8C701007244056182800111DB
:1045A40022CE00102326A4FE2324B4FE8327C4FEB7
:1045B400DC4713F7D7FF832784FE86075D8F8327A5
:1045C400C4FED8C70100724405618280011122CE65
:1045D40000102326A4FE2324B4FE8327C4FEDC4754
:1045E40013F7B7FF832784FE8A075D8F8327C4FEF2
:1045F400D8C70100724405618280011122CE0010E7
:104604002326A4FE2324B4FE8327C4FEDC4713F729
:1046140077FE832784FE8E075D8F8327C4FED8C769
:104624000100724405618280011122CE001023260C
:10463400A4FE2324B4FE8327C4FEDC4713F7F7F952
:10464400832784FE96075D8F8327C4FED8C70100A5
:10465400724405618280011122CE00102326A4FE3B
:104664002324B4FE8327C4FEDC4713F7F7F783271C
:1046740084FE9E075D8F8327C4FED8C70100724461
:1046840005618280011122CE00102326A4FE23247A
:10469400B4FE8327C4FE032784FE98CB0100724432
:1046A40005618280011122CE00102326A4FE23245A
:1046B400B4FE8327C4FE032784FED8CB01007244D2
:1046C40005618280797106D622D40018232EA4FCB9
:1046D40085450325C4FD713D81450325C4FD513D38
:1046E4000327C4FDB70703206314F700856711A0EF
:1046F40089672326F4FE81450325C4FE253D8545AF
:104704000325C4FE053D0100B25022544561828058
:10471400011106CE22CC00102326A4FE2324B4FECD
:10472400832784FE9C43BE850325C4FEA13F8327C3
:1047340084FEDC43BE850325C4FEFD35832784FE49
:104744009C47BE850325C4FE3937832784FEDC4796
:10475400BE850325C4FEA135832784FE9C4BBE85FC
:104764000325C4FEA535832784FEDC4BBE850325C3
:10477400C4FE6135832784FE9C4FBE850325C4FE99
:1047840015370100F240624405618280011122CE96
:1047940000102326A4FE8327C4FE23A0070083273A
:1047A400C4FE23A207008327C4FE23A40700832793
:1047B400C4FE23A607008327C4FE23A8070083277B
:1047C400C4FE23AA07008327C4FE3727C1041307A6
:1047D40077DB98CF0100724405618280011122CEFB
:1047E40000102326A4FE2324B4FEB7E70030984B20
:1047F4008327C4FE93C7F7FFB376F700832784FEAD
:1048040081C78327C4FE11A0814737E70030D58FC5
:104814001CCB0100724405618280011122CE00107C
:104824002326A4FEB7070220FC4393F6E7FFB7074D
:1048340002200327C4FE558FF8C3010072440561AA
:104844008280411122C60008B7070220F843B70747
:10485400022013672700F8C301003244410182801B
:10486400011122CE00102326A4FEB7070220FC4328
:1048740093F6B7FF8327C4FE13972700B7070220D8
:10488400558FF8C30100724405618280011122CE64
:1048940000102326A4FEB7070220FC4393F677FEFC
:1048A4008327C4FE13973700B7070220558FF8C338
:1048B4000100724405618280011122CE001023267A
:1048C400A4FEB7070220FC4393F6F7F98327C4FE3E
:1048D40013975700B7070220558FF8C3010072449D
:1048E40005618280011122CE00102326A4FEB707A1
:1048F4000220FC4393F6F79F8327C4FE1397970087
:10490400B7070220558FF8C3010072440561828005
:10491400011122CE00102326A4FEB7070220FC4377
:1049240093F6F7EF8327C4FE13978700B707022097
:10493400558FF8C30100724405618280011122CEB3
:1049440000102326A4FE2324B4FE37070220832765
:10495400C4FE8A07BA97032784FE98C301007244F1
:1049640005618280011122CE00102326A4FE232497
:10497400B4FE370702208327C4FE91078A07BA973B
:10498400032784FE98C301007244056182800111EB
:1049940022CE00102326A4FE2324B4FE37070220CF
:1049A4008327C4FEA1078A07BA97032784FE98C306
:1049B4000100724405618280011122CE0010232679
:1049C400A4FE370702208327C4FEF1078A07BA979B
:1049D4009C433E85724405618280011122CE001001
:1049E4002326A4FE370702208327C4FE9387870269
:1049F4008A07BA979C433E857244056182804111BF
:104A040022C60008B707022083A70708858B3E85C6
:104A1400324441018280011122CE00102326A4FEDB
:104A2400B70702200327C4FEB8C70100724405611A
:104A34008280411122C60008B7070220F847B70751
:104A4400022013671700F8C7010032444101828035
:104A5400011122CE00102326A4FEB7070220FC4732
:104A640093F6D7FF8327C4FE13971700B7070220D6
:104A7400558FF8C70100724405618280011122CE6E
:104A840000102326A4FEB7070220FC4793F6B7FFC5
:104A94008327C4FE13972700B7070220558FF8C752
:104AA4000100724405618280411122C60008B707E3
:104AB400022083A7070893F7071099C3854711A01D
:104AC40081473E85324441018280411106C622C499
:104AD400000881451145193385451145013301000D
:104AE400B240224441018280011106CE22CC001042
:104AF4002326A4FE8327C4FE9C433E859533832747
:104B0400C4FEDC433E8559338327C4FE9C473E855F
:104B140065338327C4FEDC473E85DD3B8327C4FE23
:104B24009C4B3E85DD398327C4FEDC4B3E855D3BD3
:104B34000100F240624405618280011122CE00101E
:104B44002326A4FE8327C4FE23A007008327C4FED4
:104B54000547D8C38327C4FE0D4798C78327C4FEDF
:104B64000547D8C78327C4FE054798CB8327C4FECF
:104B740023AA07000100724405618280011122CE3C
:104B840000102326A4FE2324B4FE8327C4FE23A0FE
:104B940007008327C4FE23A207008327C4FE03273C
:104BA40084FED8CB8327C4FE054798C78327C4FE59
:104BB40023A607008327C4FE23A807008327C4FE77
:104BC40023AE07008327C4FE23A00702010072441A
:104BD40005618280011106CE22CC00102326A4FE9A
:104BE4008327C4FEDC4B984B8327C4FEDC53058B20
:104BF4001377F70F058B9443F99A558F98C383273E
:104C0400C4FE98478327C4FEDC53058B1377F70F44
:104C1400058B06079443F59A558F98C38327C4FEE2
:104C2400DC4B98438327C4FEDC53058B1377F70FC3
:104C3400058B0A079443ED9A558F98C38327C4FEC6
:104C4400DC4BD8438327C4FEDC530D8B1377F70F5B
:104C54000D8B0E0794439D9A558F98C38327C4FEEA
:104C6400DC4B98478327C4FEDC530D8B1377F70F77
:104C74000D8B1607944393F6F6F9558F98C3832743
:104C8400C4FEDC4BD84B8327C4FEDC530D8B137757
:104C9400F70F0D8B36079043E976FD16F18E558F8D
:104CA40098C38327C4FED8478327C4FEDC53058BEF
:104CB4001377F70F058B3E079043E176FD16F18ECF
:104CC400558F98C38327C4FE984B8327C4FEDC53B7
:104CD400BA8605677D17758F93160701C18205672C
:104CE4007D17758F42079043B70601F0FD16F18ECC
:104CF400558F98C38327C4FED84F8327C4FEDC5343
:104D0400D8C38327C4FE98538327C4FEDC5398C7B3
:104D14008327C4FE9C4781EB8327C4FE9C4F3E85BA
:104D2400553D2A8711A001478327C4FEDC53D8C709
:104D34008327C4FEDC533E85F240624405618280D1
:104D4400011106CE22CC00102326A4FE8327C4FE24
:104D54009C433E85F5398327C4FEDC433E85393BBD
:104D64000325C4FE853DAA873E857531D9310100EE
:104D7400F240624405618280797106D622D400181B
:104D8400232EA4FC232CB4FC232604FE0DA003270D
:104D9400C4FE930717002326F4FE8327C4FD9386DD
:104DA4004700232ED4FC9C43BE853A85CD36032789
:104DB400C4FE832784FDE36CF7FC01000100B250BC
:104DC400225445618280797106D622D40018232E9C
:104DD400A4FC232CB4FC232604FE89A88327C4FD49
:104DE4008D0783C707003E878327C4FD890783C7D0
:104DF4000700A2073E978327C4FD850783C70700E2
:104E0400C2073E978327C4FD83C70700E207BA970A
:104E1400BE850325C4FEB9368327C4FD9107232E1E
:104E2400F4FC8327C4FE85072326F4FE0327C4FE6F
:104E3400832784FDE364F7FA01000100B250225491
:104E440045618280797106D622D40018232EA4FCF1
:104E5400232CB4FC8327C4FDDC4399E3914711A0C0
:104E6400A1472324F4FE232604FEA1A8832784FD5E
:104E74008D0783C707003E87832784FD890783C77F
:104E84000700A2073E97832784FD850783C7070091
:104E9400C2073E97832784FD83C70700E207BA97BA
:104EA4002322F4FE832544FE0325C4FECD34832748
:104EB40084FD9107232CF4FC8327C4FE8507232655
:104EC400F4FE0327C4FE832784FEE361F7FA01009E
:104ED4000100B250225445618280397106DE22DC21
:104EE4008000232EA4FC232CB4FC232AC4FC2328F6
:104EF400D4FC2326E4FC0325C4FDFD36832784FD6E
:104F040091C7832584FD0325C4FD2D3F832704FD1C
:104F140081C7032504FD05248327C4FDD84389479D
:104F24006314F700894711A091472322F4FE8325D7
:104F340044FE032544FD413D0100D134AA87F5DF39
:104F440009320100B707022083A70708898BFDDB1C
:104F54000100B707022083A70708858BFDDB8327A1
:104F6400C4FD98478547631CF7008327C4FD984315
:104F740085476316F7000145E5300145353A232698
:104F840004FEC9A00325C4FE053C2324A4FE8327F4
:104F940084FE13D78701832784FE93D68700C167D5
:104FA400938707F0F58F3E97832784FE93968700B7
:104FB400B707FF00F58F3E97832784FEE207BA9771
:104FC4002324F4FE8327C4FD98478547631DF70413
:104FD4008327C4FD984385476317F704832704FD9B
:104FE4008D0783C707003E87832704FD890783C78E
:104FF4000700A2073E97832704FD850783C70700A0
:10500400C2073E97832704FD83C70700E207BA97C8
:105014003E87832784FEB98F2324F4FE832704FD6F
:1050240091072328F4FC8327C4FC032784FE98C338
:105034008327C4FC91072326F4FC8327C4FE850739
:105044002326F4FE0327C4FE832744FEE36CF7F211
:1050540001000100F250625421618280517186D7AF
:10506400A2D5A6D380192326A4F22324B4F22322A2
:10507400C4F22320D4F2232EE4F0232CF4F093077B
:1050840004FF232AF4F0832744F1938707F49387DA
:10509400F7079D839394770023A00400832784F269
:1050A40091C7832584F20325C4F2693B8327C4F1A5
:1050B40081C70325C4F14120930784FC8325C4F2EE
:1050C4003E856D3C832704F28D83232CF4FC8327D7
:1050D400C4F2D84389476307F700832784FD858397
:1050E400232CF4FC832784FDFD17232CF4FC854733
:1050F4002324F4FC232694FE832744F22322F4FE83
:10510400832784F12324F4FE0100D538AA87F5DF30
:10511400930784FC3E852D3101007932AA87F5FF7F
:105124000100F138AA87F5DF01000100BE502E54BA
:105134009E546D618280797106D622D40018232E84
:10514400A4FC232604FE99A88326C4FE8327C4FD59
:105154008D0783C707003E878327C4FD890783C75C
:105164000700A2073E978327C4FD850783C707006E
:10517400C2073E978327C4FD83C70700E207BA9797
:10518400BE853685EFF08FFB8327C4FD9107232E60
:10519400F4FC8327C4FE85072326F4FE0327C4FEFC
:1051A4008D47E3D3E7FA01000100B2502254456170
:1051B4008280011106CE22CC00102326A4FE2324D3
:1051C400B4FE2322C4FE0325C4FE853A832784FE4D
:1051D400D8438327C4FED8C3832784FE98438327F8
:1051E400C4FE98C38327C4FE0D4798C78327C4FE13
:1051F400032744FED8CB0100F2406244056182805B
:10520400797106D622D400182326A4FE2324B4FEE2
:105214002322C4FE2320D4FE232EE4FC232CF4FCFE
:10522400232A04FD832584FE0325C4FE813A8327B3
:10523400C4FE032704FED8D38327C4FE0327C4FD7A
:10524400D8CF8327C4FE032744FD98D38327C4FE05
:10525400054798C3832784FD91C7832784FD9183E1
:10526400FD1711A081470327C4FE1CCB832744FEEE
:1052740093B7170093F7F70F3E878327C4FE98C7A9
:105284008327C4FE032744FE98CF0100B250225462
:1052940045618280130101C92326113623248136F6
:1052A40023229136801E232EA4CA232CB4CA232A77
:1052B400C4CA2328D4CA2326E4CA2324F4CA232232
:1052C40004CB232014CB930704FF232EF4C8832795
:1052D400C4C9938707CD9387F7079D839394770079
:1052E4008327C4CBD84389476314F70085475DA25D
:1052F40023A0041823A0041023A004088327C4CBEC
:105304000547D8C7930704FD01468325C4CB3E85D2
:105314004D35930704FA09468325C4CB3E85513D98
:10532400930784F80D468325C4CB3E8559358327DE
:1053340084CB91C7832584CB0325C4CB2136832713
:10534400C4CA81C70325C4CAFD33832744CA8E0750
:105354002326F4FE832704CB8E072324F4FE232C78
:1053640004EC8327C4FE139787018327C4FE939616
:105374008700B707FF00F58F3E978327C4FE93D6B7
:105384008700C167938707F0F58F3E978327C4FE94
:10539400E183BA97232EF4EC232004EE832784FEC2
:1053A40013978701832784FE93968700B707FF002E
:1053B400F58F3E97832784FE93D68700C167938732
:1053C40007F0F58F3E97832784FEE183BA97232263
:1053D400F4EE832744CA99C7832784CA81C7130676
:1053E40084F319A0130604F193860418930504FDAD
:1053F400130504F60148814701471935832744CA38
:1054040095CB832784CA9DC723A00400930784FBFC
:1054140005468325C4CB3E85693B130604F19305F9
:1054240084FB130584F30148832744CA032784CAF1
:10543400A686F93393860410130684EE930504FAC2
:10544400130504F1032804CA832704CB032744CBA0
:10545400453B130784ED93860408930584F81305EC
:1054640084EE0328040081470146593B0100EFF014
:105474000FD9AA87EDDF930704F63E85D1300100EA
:10548400EFF08FE2AA87EDFF0100EFF04FD7AA8774
:10549400EDDF81473E858320C13603248136832492
:1054A4004136130101378280011106CE22CC00104F
:1054B4002326A4FE2324B4FE8327C4FED8438947AD
:1054C4006314F70085472DA8032584FEAD31832797
:1054D400C4FE23AA07008327C4FE0547D8C70325B3
:1054E400C4FEEFF06FE00100EFF06FD1AA87EDDFAB
:1054F400EFF02FB50100EFF08FD0AA87EDDF8147E1
:105504003E85F240624405618280797106D622D4D8
:105514000018232EA4FC232CB4FC232AC4FC8327C8
:10552400C4FDD84389476314F7008547B9A00545EE
:10553400EFF04FBB232604FE15A8032784FD832721
:10554400C4FEBA9791453E85BD380100EFF02FCBDC
:10555400AA87EDDFEFF0EFAE0100EFF04FCAAA87A4
:10556400EDDF8327C4FEC1072326F4FE0327C4FE10
:10557400832744FDE363F7FC81473E85B250225400
:1055840045618280797106D622D40018232EA4FCAA
:10559400232CB4FC232AC4FC2328D4FC8327C4FD75
:1055A400D84389476314F700854721A20945EFF0E2
:1055B4006FB3232604FEFDA0032784FD8327C4FEC6
:1055C400BA9791453E85EFF01F800100EFF02FC39D
:1055D400AA87EDDFEFF0EFA60100EFF04FC2AA8734
:1055E400EDDF232404FE6DA0032584FEEFF0CFBC81
:1055F4002322A4FE832784FE139727008327C4FE57
:10560400BA97032704FDBA97032744FE1377F70FCD
:105614002380E700832744FE93D68700832784FEF4
:10562400139727008327C4FEBA978507032704FD31
:10563400BA9713F7F60F2380E700832744FE93D627
:105644000701832784FE139727008327C4FEBA9794
:105654008907032704FDBA9713F7F60F2380E700A1
:10566400832744FE93D68701832784FE139727005C
:105674008327C4FEBA978D07032704FDBA9713F74F
:10568400F60F2380E700832784FE85072324F4FE96
:10569400032784FE8D47E3F9E7F48327C4FEC1079B
:1056A4002326F4FE0327C4FE832744FDE366F7F0B4
:1056B40081473E85B250225445618280797106D675
:1056C40022D40018232EA4FC232CB4FC232AC4FCCB
:1056D4002328D4FC8327C4FDD84389476314F700E7
:1056E4008547CDA00D45EFF0EF9F81450145EFF0D3
:1056F4006FA781450945EFF0EFA6832784FD8E0748
:10570400BE850545EFF00FA6832744FD8E07BE85B1
:105714000D45EFF02FA50100EFF06FAEAA87EDDF86
:10572400EFF02F920100EFF08FADAA87EDDF232673
:1057340004FE59A08327C4FE89833E85EFF0EFA9B8
:105744002324A4FE032704FD8327C4FEBA9703275A
:1057540084FE1377F70F2380E700832784FE93D614
:1057640087008327C4FE8507032704FDBA9713F730
:10577400F60F2380E700832784FE93D6070183274F
:10578400C4FE8907032704FDBA9713F7F60F238095
:10579400E700832784FE93D687018327C4FE8D0701
:1057A400032704FDBA9713F7F60F2380E700832736
:1057B400C4FE91072326F4FE0327C4FEBD47E3FB82
:1057C400E7F681473E85B25022544561828001113B
:1057D40022CE00102326A4FEB7C70030DC4393F684
:1057E40087FF8327C4FE98438327C4FEDC438607D0
:1057F4005D8F8327C4FE9C478A075D8FB7C700303F
:10580400558FD8C30100724405618280011122CEF4
:1058140000102326A4FE2324B4FE032784FE854718
:105824006318F700B7C700300327C4FE98CF31A030
:10583400B7C700300327C4FED8CF01007244056106
:105844008280011122CE00102326A4FE2324B4FE5C
:10585400032784FE85476318F700B7C70030032782
:10586400C4FE98D331A0B7C700300327C4FED8D3F1
:105874000100724405618280011122CE00102326AA
:10588400A4FE2324B4FE032784FE85476318F7008F
:10589400B7C700300327C4FE98D731A0B7C700307C
:1058A4000327C4FED8D70100724405618280011128
:1058B40022CE00102326A4FE2324B4FE032784FE54
:1058C40085476318F700B7C700300327C4FE98DB89
:1058D40031A0B7C700300327C4FED8DB01007244EF
:1058E40005618280011122CE00102326A4FE232408
:1058F400B4FE032784FE85476318F700B7C700305A
:105904000327C4FE98DF31A0B7C700300327C4FEC5
:10591400D8DF0100724405618280011122CE00109B
:105924002326A4FE8327C4FE23A007008327C4FEE6
:1059340023A207008327C4FE23A4070001007244A6
:1059440005618280011122CE00102326A4FE2324A7
:10595400B4FE832784FE9C433E878327C4FE98C3FA
:10596400832784FE9C5B8D8B13F7F70F8327C4FE7C
:105974000D8B46079047B706FAFFFD16F18E558F3B
:1059840098C7832784FE9C5F8D8B13F7F70F8327BB
:10599400C4FE0D8B3E079047A176FD16F18E558F00
:1059A40098C7832784FEDC4F858B13F7F70F832773
:1059B400C4FE058B6E079047B70600F8FD16F18EFE
:1059C400558F98C7832784FE9C4F858B13F7F70F59
:1059D4008327C4FE058B6A079047B70600FCFD16B3
:1059E400F18E558F98C7832784FE9C53858B13F7BC
:1059F400F70F8327C4FE058B72079047B70600F0A4
:105A0400FD16F18E558F98C7832784FEDC433E87AD
:105A14008327C4FED8C3832784FEDC5B8D8B13F7F6
:105A2400F70F8327C4FE0D8B56079047B706A0FFD8
:105A3400FD16F18E558F98C7832784FEDC5F8D8B0E
:105A440013F7F70F8327C4FE0D8B4E079047B70655
:105A5400E8FFFD16F18E558F98C7832784FE9C5767
:105A6400858B13F7F70F8327C4FE058B62079047D6
:105A7400B70600FFFD16F18E558F98C7832784FE65
:105A8400DC53858B13F7F70F8327C4FE058B5E0762
:105A94009047B70680FFFD16F18E558F98C7832770
:105AA40084FEDC57858B13F7F70F8327C4FE058B21
:105AB40066079047B70600FEFD16F18E558F98C70E
:105AC400832784FEDC47858B13F7F70F8327C4FEF7
:105AD400058B9447F99A558F98C7832784FEDC4B2E
:105AE400BD8B13F7F70F8327C4FE3D8B060794473E
:105AF400859A558F98C7832784FE9C4BC207C18320
