:0200000480007A
:1000000073100030B701004093810178B70200807F
:100010009382021473905230731040307310403446
:10002000732510301375850263080500372500001D
:100030007320053073103000732540F163140504FC
:100040003701044013010100130201007310013451
:10005000B70200809382E20AE7800200B7020080C4
:100060009382C209E7800200130500009305000097
:10007000B73200809382E2E9B700008093804009A4
:100080006780020073F00730731040307300501027
:100090006FF0DFFF130000006FF0DFFE67800000ED
:1000A000411122C600080100324441018280411101
:1000B00006C622C40008138741F2938781E1B30783
:1000C000F7403E868145138581E1EF80700F1387ED
:1000D00081E193870189B307F7403E86B797008097
:1000E000938587EE13850189EF80300C1387C188D3
:1000F00093870188B307F7403E86B79700809385C2
:10010000C7ED13850188EF80500A0100B2402244F8
:0401100041018280A7
:10014000232E51FE93020100130101F8137101FFE8
:10015000232211002324510083A2C2FF2326310051
:1001600023284100232A5100232C6100232E7100F3
:1001700023208102232291022324A1022326B102FB
:100180002328C102232AD102232CE102232EF102CB
:1001900023200105232211052324210523263105CF
:1001A00023284105232A5105232C6105232E71059F
:1001B00023208107232291072324A1072326B107A7
:1001C0002328C107232AD107232CE107232EF10777
:1001D0007322003473231034232061007324003011
:1001E00073252034F325103413060100B7010040B5
:1001F00093810178B71200809382E2C4E780020005
:100200007310043003230100731013348321C100E1
:100210000322010183224101032381018323C101C0
:100220000324010283244102032581028325C102A4
:100230000326010383264103032781038327C10388
:100240000328010483284104032981048329C1046C
:10025000032A0105832A4105032B8105832BC10550
:10026000032C0106832C4106032D8106832DC10634
:10027000032E0107832E4107032F8107832FC10718
:100280008320410003218100730020300000000022
:10029000000000000000000000000000000000005E
:1002A000000000000000000000000000000000004E
:1002B000000000000000000000000000000000003E
:0402C000000000003A
:1002C400011122CE00102326A4FE2324B4FEB70776
:1002D4000130DC430327C4FE85463397E600134709
:1002E400F7FFB3F6E7008327C4FE032784FE331722
:1002F400F700B7070130558FD8C301007244056178
:100304008280411122C60008B7070130D443370761
:100314000080558FD8C3010032444101828001110D
:1003240022CE00102326A4FE8327C4FE05473317DC
:10033400F700B707013098C7010072440561828055
:10034400011122CE00102326A4FE8327C4FEA10798
:1003540005473317F700B707013098C70100724407
:1003640005618280011122CE00102326A4FE2324DD
:10037400B4FEB7070130DC4F0327C4FE0A07BD46AD
:100384003397E6001347F7FFB3F6E7008327C4FE6D
:100394008A07032784FE3317F700B7070130558F08
:1003A400D8CF0100724405618280011122CE001071
:1003B4002326A4FE370701308327C4FE9A07BA9781
:1003C400FC5B93F7F70393F7F70F3E8572440561DF
:1003D4008280011122CE00102326A4FE37070130AB
:1003E4008327C4FE9A07BA97BC5F3E878567FD17CB
:1003F400F98FC207C1833E85724405618280011171
:1004040022CE00102326A4FE2324B4FEB707013015
:10041400DC530327C4FE85463397E6001347F7FFF2
:10042400B3F6E7008327C4FE032784FE3317F700DF
:10043400B7070130558FD8D301007244056182801B
:10044400011122CE00102326A4FE2324B4FE23226D
:10045400C4FEB7060130832784FE13F7F70F832702
:10046400C4FE9A07B6972383E706B70701309C4F6B
:100474000327C4FE85463397E6001347F7FFB3F618
:10048400E7008327C4FE032744FE3317F700B707AA
:100494000130558F98CF01007244056182800111AB
:1004A40022CE00102326A4FE8327C4FE054733175B
:1004B400F700B7070130D8D7010072440561828084
:1004C400011122CE0010AA872317F4FE0357E4FE7D
:1004D4009307100363E5E7009307400591A80357CA
:1004E400E4FE9307000F63F5E7009307300589A046
:1004F4000357E4FE9307100363FBE7000357E4FE8E
:100504009307800763E5E7009307100415A00357DA
:10051400E4FE9307800763FBE7000357E4FE9307B9
:10052400000F63E5E7009307E00419A09307500563
:100534003E85724405618280011106CE22CC0010F2
:10054400AA872317F4FE8357E4FE3E85953FAA87C6
:100554003E85F240624405618280011122CE001082
:10056400AA87A307F4FE8347F4FE130740056387B5
:10057400E70213074005634BF70213073005638551
:10058400E702130730056343F70213071004638976
:10059400E7001307E0046387E70009A8854701A87B
:1005A400894731A08D4721A0914711A081473E85FD
:1005B400724405618280011106CE22CC0010B7F787
:1005C400003003C70701136717002388E700B7F754
:1005D400003003C70701759B2388E700B7E70030A5
:1005E40083A6070B3707FDFF7D17F98E4167558FEB
:1005F40023A8E70AB7E7003083A6070B370700C133
:100604007D17F98E37070002558F23A8E70AB7E74D
:10061400003083A6070B37071000558F23A8E70A7D
:10062400B7E7003094474167558F98C7B7E7003064
:10063400944F4167558F98CFB7E7003003A7070B56
:100644001367170023A8E70AB7E7003003A7070BCF
:100654001367071023A8E70AB707013003A7075455
:100664001377F7FC1367070123A0E754B70701309A
:1006740003A707541367071023A0E754B7070130F3
:1006840003A707541367170023A0E754B7070130E3
:1006940003C7C701419B238EE700B707013003D787
:1006A4008705619B239CE704B7070130B843419B4E
:1006B400B8C3B707013003C70700136717002380C7
:1006C400E70081450145793985450145D53EB74760
:1006D4000F00938707242326F4FE0100B707013097
:1006E40083A707548583858B93F7F70F81EB8327C3
:1006F400C4FE1387F7FF2326E4FEEDF3B7070130AA
:10070400D84313671700D8C3B7070130D44337075A
:100714000080558FD8C3054681450145153385456D
:100724000145F1390145A53B0145D53E014509394E
:10073400B71700801386C781F545014549248545CF
:100744007545E124F5450145F524814501458D298B
:1007540019A00145BD3901458939AA87FDFB01006E
:100764000100F240624405618280411106C622C440
:100774000008413E0100B240224441018280797167
:1007840006D622D40018232EA4FC83C781E493F751
:10079400F70F99E38147A5A8238401E4014531318A
:1007A4002326A4FE8327C4FE99E381478DA0014537
:1007B4000D312324A4FE19A0014521390145F53644
:1007C400AA87FDFB832784FEC207C1833E85CD39FA
:1007D400AA87A303F4FE8327C4FD85CB832784FE65
:1007E4001397070141838327C4FD2390E7008327E0
:1007F400C4FD034774FE2384E700834774FE3E85EB
:10080400A93B2A878327C4FDD8C3E53C85473E8599
:10081400B250225445618280411106C622C40008A8
:100824000145B53905472384E1E40100B24022447F
:1008340041018280011106CE22CC00102326A4FEA1
:1008440065468325C4FE89671385F7D0EF2080773A
:10085400AA873E85F240624405618280011106CE7A
:1008640022CC00102326A4FE8327C4FEB9C76D46FC
:1008740081450325C4FEEF8060148327C4FE054729
:100884002382E7008327C4FE03C75700018BA3829A
:10089400E70003C76700018B136727FC2383E70086
:1008A40003C77700018B13671700A383E70003C70F
:1008B4008700018B2384E70011A00100F240624409
:1008C40005618280397106DE22DC80002326A4FCC7
:1008D4008327C4FC99E381478DA0930704FD6D46EB
:1008E400BE850145EF10E073032704FDB747464377
:1008F400938717736304F700814781A0930704FD6E
:100904003E850D3FAA872317F4FE832784FEA18327
:10091400FD9BC207C1830357E4FE6304F7008147CC
:1009240029A88327C4FCBE86930704FD6D473A8635
:10093400BE853685EF80200785473E85F250625498
:1009440021618280397106DE22DC80002326A4FC2A
:100954008327C4FCA5C30327C4FC930744FDBA86BC
:100964006D473A86B6853E85EF80E003B747464338
:1009740093871773232AF4FC930744FD3E855D3D5A
:10098400AA8713F7F70F8346D4FE818A558FA306EF
:10099400E4FEA183C207C1830347E4FE018BD98F20
:1009A4002307F4FE930744FD6D46BE850145EF1011
:1009B400E05611A00100F2506254216182800111BD
:1009C40022CE0010AA872324B4FE2322C4FEA30748
:1009D400F4FE8347F4FE89EFB7070040138707014D
:1009E400832784FE8A07BA97032744FE98C311A875
:1009F40013870191832784FE8A07BA97032744FE4D
:100A040098C30100724405618280011122CE001056
:100A14002326A4FEAE87A305F4FEB706000C034705
:100A2400B4FE8327C4FE8A07B69798C301007244B4
:100A340005618280797122D60018AA87232CB4FC20
:100A4400A30FF4FC8347F4FD9DEB3707000C896783
:100A5400BA979C432326F4FE832784FD0547B317E6
:100A6400F7003E878327C4FED98F2326F4FE370779
:100A7400000C8967BA970327C4FE98C325A83707D3
:100A8400000C8967BA9783A707082326F4FE8327F7
:100A940084FD0547B317F7003E878327C4FED98F2B
:100AA4002326F4FE3707000C8967BA970327C4FE90
:100AB40023A0E7080100325445618280797122D66F
:100AC4000018AA87232CB4FCA30FF4FC8347F4FD7D
:100AD4008DEF3707000C8967BA979C432326F4FEF1
:100AE400832784FD0547B317F70093C7F7FF3E87B5
:100AF4008327C4FEF98F2326F4FE3707000C896789
:100B0400BA970327C4FE98C335A83707000C896732
:100B1400BA9783A707082326F4FE832784FD054795
:100B2400B317F70093C7F7FF3E878327C4FEF98FF7
:100B34002326F4FE3707000C8967BA970327C4FEFF
:100B440023A0E7080100325445618280011122CEBE
:100B54000010AA87A307F4FE8347F4FE81EB37074E
:100B6400000CB7072000BA97DC4339A03707000C04
:100B7400B7172000BA97DC433E8572440561828032
:100B8400011122CE0010AA872324B4FEA307F4FE89
:100B94008347F4FE91EB3707000CB7072000BA97A0
:100BA400032784FED8C309A83707000CB717200011
:100BB400BA97032784FED8C301007244056182807A
:100BC400011122CE0010AA872324B4FEA307F4FE49
:100BD4008347F4FE91EB3707000CB7072000BA9760
:100BE400032784FE98C309A83707000CB717200011
:100BF400BA97032784FE98C301007244056182807A
:100C0400011106CE22CC0010014589372326A4FE0B
:100C1400B7070040138707018327C4FE8A07BA97E2
:100C24009C4399CFB7070040138707018327C4FE6D
:100C34008A07BA979C4382978325C4FE0145893766
:100C44000100F240624405618280011106CE22CC8B
:100C54000010F32720342326F4FE8327C4FE232424
:100C6400F4FE832784FE63C40702832784FEBD8BBE
:100C74002D47636BF70013972700B797008093877E
:100C8400079DBA979C43828701000100FDBF8D3FF9
:100C94000100F240624405618280011106CE22CC3B
:100CA4000010AA87A307F4FE8347F4FE3E85EF00F5
:100CB40090340100F240624405618280011122CE29
:100CC40000102326A4FEAE87A305F4FE8327C4FEEA
:100CD4000347B4FE2380E70085473E8572440561DF
:100CE4008280797122D60018232EA4FC232CB4FC14
:100CF400232604FE35A0032784FD93071700232C25
:100D0400F4FC8327C4FD93861700232ED4FC0347E9
:100D140007002380E7008327C4FE85072326F4FE0B
:100D2400832784FD83C70700F9F78327C4FE3E8524
:100D3400325445618280797106D622D40018232E5C
:100D4400A4FCAE87232AC4FC2328D4FCA30DF4FC02
:100D5400232604FE832744FDFD17232AF4FC0327DE
:100D640004FDA54763FFE704032704FDA9473357A0
:100D7400F7028347B4FDBA86032644FDBE850325E6
:100D8400C4FD553F2326A4FE8327C4FE0327C4FDC8
:100D9400BA97232EF4FC15A88347B4FDBE8503251A
:100DA400C4FD293F8327C4FD8507232EF4FC832734
:100DB400C4FE85072326F4FE832744FDFD17232A5A
:100DC400F4FC832744FDE349F0FC032704FDA94711
:100DD400B377F70293F7F70F9387070393F7F70FA8
:100DE400BE850325C4FDD93D2A878327C4FEBA974F
:100DF4002326F4FE8327C4FE3E85B2502254456167
:100E04008280797106D622D40018232EA4FCAE87E2
:100E1400232AC4FC2328D4FCA30DF4FC232604FEBB
:100E2400832704FD63D90700832704FDB307F0403B
:100E34002324F4FE29A0832704FD2324F4FE83271E
:100E440044FDFD17232AF4FC032784FEA54763F31E
:100E5400E706832704FD63D60702032784FEA94718
:100E6400B357F702B307F0403E878347B4FDBA8611
:100E7400032644FDBE850325C4FD61372326A4FE55
:100E840015A0032784FEA947B357F7023E8783477B
:100E9400B4FDBA86032644FDBE850325C4FD9537FB
:100EA4002326A4FE8327C4FE0327C4FDBA97232E5A
:100EB400F4FC85A8832704FD63DD0702832744FD32
:100EC400FD17232AF4FC35A08347B4FDBE85032512
:100ED400C4FDED338327C4FD8507232EF4FC83274B
:100EE400C4FE85072326F4FE832744FDFD17232A29
:100EF400F4FC832744FDE349F0FC832704FD63D21B
:100F040007029305D0020325C4FD4D3B2A8783279E
:100F1400C4FEBA972326F4FE8327C4FD8507232E37
:100F2400F4FC032784FEA947B377F70293F7F70F7E
:100F34009387070393F7F70FBE850325C4FDBD3BD5
:100F44002A878327C4FEBA972326F4FE8327C4FE88
:100F54003E85B250225445618280797106D622D4EE
:100F64000018232EA4FCAE87232AC4FC2328E4FC07
:100F7400A30DF4FCB687230DF4FC232604FE83277B
:100F840044FDFD17232AF4FC832704FD9183B5C394
:100F9400832704FD13D747008346A4FD8347B4FD8C
:100FA400032644FDBE850325C4FD453F2A878327C8
:100FB400C4FEBA972326F4FE8327C4FE0327C4FD88
:100FC400BA97232EF4FC15A88347B4FDBE850325E8
:100FD400C4FDED318327C4FD8507232EF4FC83274C
:100FE400C4FE85072326F4FE832744FDFD17232A28
:100FF400F4FC832744FDE349F0FC832704FD13F745
:10100400F700A54763E2E702832704FD93F7F70F90
:10101400BD8B93F7F70F9387070393F7F70FBE85FD
:101024000325C4FD613999A08347A4FD8DC383279B
:1010340004FD93F7F70FBD8B93F7F70F93877703AF
:1010440093F7F70FBE850325C4FD8D3905A08327CB
:1010540004FD93F7F70FBD8B93F7F70F938777058D
:1010640093F7F70FBE850325C4FD89398327C4FE92
:1010740085072326F4FE8327C4FE3E85B2502254FE
:1010840045618280797106D622D40018232EA4FCEF
:10109400232CB4FC232AC4FC2328D4FC232404FEDC
:1010A400232204FE8327C4FD638107268327C4FD0E
:1010B4002380070099AC832744FD03C707009307E7
:1010C40050026308F702032744FD93071700232AFD
:1010D400F4FC8327C4FD93861700232ED4FC034716
:1010E40007002380E700832744FE85072322F4FEBC
:1010F40029AC832744FD850703C7070093075002E3
:101104006317F7028327C4FD13871700232EE4FC1B
:10111400130750022380E700832744FD8907232A0D
:10112400F4FC832744FE85072322F4FEF9AA9307DF
:101134000002A307F4FE230704FE832744FD85076A
:10114400232AF4FC832744FD03C707009307000305
:101154006315F70493070003A307F4FE832744FDF4
:101164008507232AF4FC15A88347E4FE3E87BA8743
:101174008A07BA97860713F7F70F832744FD83C7B7
:101184000700BA9793F7F70F938707FD2307F4FE39
:10119400832744FD8507232AF4FC832744FD03C7E2
:1011A40007009307F00263FAE700832744FD03C7AF
:1011B400070093079003E3F9E7FA0347E4FE832764
:1011C40044FEBA973E87832784FD63FEE7008327A6
:1011D40084FD13F7F70F832744FE93F7F70FB30744
:1011E400F7402307F4FE832744FD83C70700938752
:1011F40087FA130700026365F70E13972700B79762
:101204000080938707A0BA979C4382870346E4FE35
:10121400832704FD138747002328E4FC984383476E
:10122400F4FEBA86BE850325C4FDE13E2324A4FE54
:1012340055A80346E4FE832704FD138747002328AB
:10124400E4FC98438347F4FEBA86BE850325C4FDB7
:10125400DD342324A4FE79A00346E4FE832704FDA1
:10126400138747002328E4FC98438347F4FE814610
:10127400BE850325C4FDD5312324A4FEA5A00346C1
:10128400E4FE832704FD138747002328E4FC9843E6
:101294008347F4FE8546BE850325C4FD7D3923249A
:1012A400A4FE89A0832704FD138747002328E4FCB8
:1012B4009C43BE850325C4FD2D342324A4FE1DA018
:1012C400832704FD138747002328E4FC9C4393F7FA
:1012D400F70FBE850325C4FDD5322324A4FE19A02F
:1012E400FD5795A8832744FD8507232AF4FC83270B
:1012F40084FE0327C4FDBA97232EF4FC032744FE7F
:10130400832784FEBA972322F4FE832744FD83C7F0
:10131400070099C7832744FE032784FDE3EDE7D83C
:10132400832744FE032784FD63F7E7008327C4FD76
:101334002380070039A88327C4FDFD17232EF4FC5E
:101344008327C4FD23800700832744FEFD1723223F
:10135400F4FE832744FE3E85B250225445618280C8
:101364005D7106D622D40018232EA4FC232CB4FCD1
:10137400232AC4FC54C418C85CC8232C0401232E9B
:101384001401930704022328F4FC832704FDB117F6
:101394002324F4FE832784FEBE86032644FD83258E
:1013A40084FD0325C4FDF9392326A4FE8327C4FE46
:1013B4003E85B250225461618280011106CE22CC56
:1013C40000102326A4FE2324B4FE2322C4FE832675
:1013D40044FE032684FE9305E0150325C4FE5D3117
:1013E400AA873E85F24062440561828061712326AA
:1013F400111A2324811A001B232EA4E4232CB4E401
:10140400232AC4E4B7970080938747A803A307005F
:1014140083A8470003A88700C8478C4BD04B944F40
:10142400D84F9C53232664E6232814E7232A04E791
:10143400232CA4E6232EB4E62320C4E82322D4E8F4
:101444002324E4E82326F4E8930704E9032644E587
:10145400832584E53E8595372A879307D01563DC79
:10146400E70083A78188D8479307C4E6BA853E85F9
:10147400F1220100FDBF930704E98325C4E53E85FD
:10148400752AAA873E858320C11A0324811A5D61C7
:101494008280011106CE22CC00102326A4FE232430
:1014A400B4FE83A781889C47032684FE8325C4FE5B
:1014B4003E852D3FAA873E85F240624405618280C5
:1014C4005D7106D622D40018232EA4FC232CB4FC70
:1014D40010C454C418C85CC8232C0401232E14015E
:1014E40093070402232AF4FC832744FDA117232431
:1014F400F4FE832784FE3E86832584FD0325C4FDF4
:10150400F5352326A4FE8327C4FE3E85B25022541B
:10151400616182805D7106D622D40018232EA4FC5A
:101524004CC010C454C418C85CC8232C0401232E16
:10153400140193070402232CF4FC832784FD9117E0
:101544002324F4FE832784FEBE850325C4FD91373E
:101554002326A4FE8327C4FE3E85B2502254616133
:1015640082805D7106D622D40018232EA4FC232C7D
:10157400B4FC10C454C418C85CC8232C0401232E22
:10158400140193070402232AF4FC832744FDA117C2
:101594002324F4FE832784FE3E86832584FD0325CD
:1015A400C4FD213D2326A4FE8327C4FE3E85B250FC
:1015B400225461618280797106D622D40018232EC8
:1015C400A4FC83A781889C47BE850325C4FDBD2058
:1015D4002326A4FE83A781889C47BE852945092824
:1015E4008327C4FE85073E85B2502254456182801C
:1015F400011106CE22CC00102326A4FE2324B4FE1F
:1016040083A781889C47032784FE6309F70083A787
:101614008188DC47032784FE631CF7008327C4FE0C
:1016240093F7F70F3E85EFF04FE78327C4FE11A031
:10163400FD573E85F240624405618280797106D689
:1016440022D40018232EA4FC232CB4FC232604FE4D
:101654000DA88327C4FD83C70700832584FD3E8529
:10166400413F2A87FD576314F700FD5715A08327D0
:10167400C4FE85072326F4FE8327C4FD8507232E95
:10168400F4FC8327C4FD83C70700E1F78327C4FE66
:101694003E85B250225445618280011122CE001051
:1016A400A1472324F4FE832784FED3F717D0B797EA
:1016B400008007A787AA5377F708B797008087A702
:1016C400C7AA5377F710B797008087A707ABD377DC
:1016D400F700D39717C02326F4FEB7E7003003D7EB
:1016E4000700136707102390E700B7E7003003D71C
:1016F4000701136707102398E700B7E700309847FE
:101704001367074098C7B7E70030984F136707403F
:1017140098CFB7070028D45F3707F4FF7D17F98EF9
:1017240037070400558FD8DFB7070028D45F370781
:10173400FDFF7D17F98E4167558FD8DFB707002865
:1017440013070030D8DBB7E7003083A60708370754
:10175400FDFF7D17F98E4167558F23A0E708B7E792
:10176400003083A607083707F0FF7D17758F23A085
:10177400E708B7E7003003A707081367071023A09B
:10178400E708B7E7003003A707081367170023A08B
:10179400E708B7A70030032784FED8D3B7A70030E3
:1017A4000327C4FE98D7B7A7003013070007D8D77C
:1017B400B7A7003023AA0702B7A7003013071030D9
:1017C40098DB0100724405618280411122C6000841
:1017D4000100B7A700309C4F9183858B93F7F70FD7
:1017E400EDFBB7A7003083C7070093F7F70F3E85DB
:1017F400324441018280011122CE00102326A4FE2E
:101804000100B7A700309C4F8D83858B93F7F70FAA
:10181400EDFBB7A700300327C4FE98C381473E857C
:10182400724405618280397122DE80008547232459
:10183400F4FEB7E70030DC5F8D8B93F7F70F2322BC
:10184400F4FEB727F400938707402320F4FEB7E79C
:101854000030BC4F3E878567FD17F98FC207C183EF
:10186400232EF4FCB7E70030BC4B9D8393F7F703BA
:1018740093F7F70F232CF4FCB7E70030BC4BB58388
:101884009D8B93F7F70F232AF4FCB7E70030BC4B8A
:10189400C18393F7F70393F7F70F2328F4FCB7E713
:1018A4000030BC4BD9839D8B93F7F70F2326F4FCB0
:1018B400B7E70030BC4BE58393F7F70393F7F70FD3
:1018C4002324F4FEB7E70030BC4B9183858B93F758
:1018D400F70F99CBB7E70030F84BB7070001FD17B6
:1018E400F98F2326F4FE19A0232604FE8327C4FEC1
:1018F40013D787018327C4FD3E97832704FE33074C
:10190400F702832744FD93861700832784FDB3865B
:10191400F602832704FD8507B387F6023357F702DF
:1019240023AEE1E08327C4FE13D787018327C4FDD8
:101934003E97832704FE3307F7028327C4FC93866C
:101944001700832784FDB386F602832784FE850768
:10195400B387F6023357F70223A0E1E2032744FEDC
:101964008D47630DF704032744FE8D4763ECE704BA
:10197400032744FE8947630EF702032744FE894781
:1019840063E2E704832744FE99C7032744FE85479F
:10199400630AF70005A837470F001307072423AC91
:1019A400E1E00DA03727F4001307074023ACE1E082
:1019B40011A803A7C1E123ACE1E029A0216723AC6E
:1019C400E1E001000100725421618280011122CE04
:1019D4000010232604FEB7E7003003D7070013677F
:1019E40007402390E700B7E7003003D707011367E8
:1019F40007402398E700B7270028D45F3167558F45
:101A0400D8DFB727002803D7470313670708239AAB
:101A1400E702B7E7003045671307171223AEE70A5A
:101A2400B7E700303767C10F13077710B8CBB7E7B4
:101A3400003023AA0704B7E7003013072003B8CF08
:101A4400B7E70030B84B1377F7F913670702B8CB41
:101A54009307803E2326F4FE31A08327C4FEFD179E
:101A64002326F4FE8327C4FEEDFB0100B7E7003014
:101A7400BC53858B13F7F70F8547E319F7FEB7E7D8
:101A84000030B84B659B13674700B8CB89472324C4
:101A9400F4FEB7D70030F4473707F1FF7D17F98E0E
:101AA40037070300558FF8C7B7D70030F8471367D7
:101AB4002700F8C7B7E70030032784FE98DB232606
:101AC40004FE31A08327C4FE85072326F4FEB7E76E
:101AD4000030DC5F8D8B13F7F70FB7E700309C5BAA
:101AE4008D8B93F7F70F6308F7000327C4FE930762
:101AF4003006E3F9E7FC01007244056182800111BC
:101B040006CE22CC001081450145EFF06F8B85672E
:101B1400938707802326F4FE8327C4FEF3A7473068
:101B24002326F4FEA1472324F4FE832784FEF3A78F
:101B340007302324F4FE0100F240624405618280F0
:101B4400411106C622C4000851350100B2402244A6
:101B540041018280011122CE00102326A4FE2324F9
:101B6400B4FE8327C4FE032784FE98C70100724491
:101B740005618280011122CE00102326A4FE2324B5
:101B8400B4FE8327C4FE032784FED8C70100724431
:101B940005618280411106C622C40008A14537159B
:101BA4000028C93F0100B240224441018280411112
:101BB40006C622C40008A14537150028613F01006C
:101BC400B240224441018280411106C622C4000869
:101BD40031200100B240224441018280411106C6F5
:101BE40022C40008B7E7003003D7070013670720B3
:101BF4002390E700B7E7003003D7070113670720F6
:101C04002398E700B7E7003003D7070013670702FC
:101C14002390E700B7E7003003D7070113670702F3
:101C24002398E700B7E7003083A647093707FDFF8D
:101C34007D17F98E4167558F23AAE708B7E700306F
:101C440003A747091367170023AAE708B7E700307B
:101C540003A747091367071023AAE708B707052056
:101C640021472388E700B70705200547A380E7003D
:101C7400B707052003D70700136707042390E7007D
:101C8400B707052003D70700136707082390E70069
:101C9400B707052003D707001377F7FC2390E70065
:101CA400B707052003D70700419B136777002390EC
:101CB400E700B707052003D747006D9B2392E70091
:101CC4009120B70705200547D8CBB7270080138696
:101CD400270BAD450145EFE09FCE85452D45EFE04F
:101CE400DFD2AD450145EFE0FFD4B707052003D7A8
:101CF4004700136727002392E7000100B240224403
:101D040041018280797106D622D40018B7170028C1
:101D14001D47D8DBB71700285547D8DF930704FDC4
:101D24003E85EF5000348547232AF4FC232C04FC21
:101D3400A1472328F4FC930704FDBE85371500282A
:101D4400EF504028A1453715002829350100B2502D
:101D5400225445618280011122CE0010AA87A30774
:101D6400F4FE0100B7070520DC47898BE5DFB707E0
:101D740005200347F4FE98C70100B7070520DC4798
:101D8400918BE5DFB70705209C4793F7F70F3E8556
:101D9400724405618280011106CE22CC0010DD3B25
:101DA4001545553F1305F00F7D37AA87A307F4FEA9
:101DB400FD3B8347F4FE3E85F24062440561828028
:101DC400797106D622D40018232EA4FC19A8E13771
:101DD400AA87A307F4FE8347F4FE858B99E385471E
:101DE40009A88327C4FD1387F7FF232EE4FCE5F33A
:101DF40081473E85B250225445618280797106D66E
:101E040022D426D20018232EA4FC95679387A75AC0
:101E14002316F4FE930710F82307F4FE231404FE9C
:101E2400230504FE21A0B70705209C47B70705201A
:101E3400DC47918BEDFBA30704FE3DA08347F4FE32
:101E4400C117A29783C7C7FF8344F4FE3E85213799
:101E5400AA873E87938704FFA297238CE7FE8347D4
:101E6400F4FE8507A307F4FE0347F4FE8947E3F76E
:101E7400E7FC8327C4FD8DC7034784FE8327C4FD85
:101E84002380E7008327C4FD8507034794FE23804E
:101E9400E7008327C4FD89070347A4FE2380E700E6
:101EA400034784FE8347C4FE6310F702034794FE8E
:101EB4008347D4FE631AF7000347A4FE8347E4FE76
:101EC4006314F700854711A08147858B93F7F70FBB
:101ED4003E85B2502254925445618280011106CE4F
:101EE40022CC00104D3DAA87A307F4FE65311945A5
:101EF4009D3575394D35AA873E85F24062440561AA
:101F04008280411106C622C4000869311945A135F1
:101F140079390100B240224441018280797106D6A8
:101F240022D40018AA87232CB4FC232AC4FC231F20
:101F3400F4FC832784FD638F070C832744FD638BA4
:101F4400070CE9A08357E4FDBD8B2322F4FE41472F
:101F5400832744FEB307F7402326F4FE0327C4FE79
:101F6400832744FD63F6E700832744FD2326F4FE1C
:101F7400493F0D310945C5338357E4FDA183C207A9
:101F8400C18393F7F70F3E85F9338357E4FD93F745
:101F9400F70F3E85C933232404FE39A8032784FDA3
:101FA400832784FEBA9783C707003E856D33832752
:101FB40084FE85072324F4FE032784FE8327C4FEBE
:101FC400E36EF7FCED36B7470F0013850724CD3BCE
:101FD400AA8793C7170093F7F70F9DEF8327C4FED3
:101FE400C207C1830357E4FDBA97231FF4FC0327F8
:101FF40084FD8327C4FEBA97232CF4FC032744FDF5
:102004008327C4FEB307F740232AF4FC832744FD47
:1020140095FB21A0010011A00100B250225445619A
:102024008280797106D622D426D20018AA87232C5E
:10203400B4FC232AC4FC231FF4FC832784FDB5C30A
:10204400832744FDB9CFB9360D4531338357E4FDB9
:10205400A183C207C18393F7F70F3E85ED398357F8
:10206400E4FD93F7F70F3E85FD31232604FE15A00A
:10207400032784FD8327C4FEB304F7001305F00F80
:10208400D939AA872380F4008327C4FE8507232631
:10209400F4FE0327C4FE832744FDE36BF7FC013EF3
:1020A40011A00100B2502254925445618280411122
:1020B40022C60008B70700284167130707F098CB2A
:1020C400B70705200D4798D30100324441018280AF
:1020D400011122CE00102326A4FEB70700309C4332
:1020E40093F6F7FC8327C4FE13974700B707003025
:1020F400558F98C30100724405618280011122CE7C
:1021040000102326A4FEB70700309C4393F6F7F390
:102114008327C4FE13976700B7070030558F98C311
:102124000100724405618280011122CE0010232631
:10213400A4FEB70700309C4393F6F7EF8327C4FE51
:1021440013978700B7070030558F98C30100724476
:1021540005618280011122CE00102326A4FEB70758
:1021640000300327C4FED8C3010072440561828095
:10217400011122CE00102326A4FE2324B4FEB707A7
:10218400003098478327C4FE93C7F7FFB376F70060
:10219400032784FE8327C4FE3307F702B707003002
:1021A400558F98C70100724405618280011122CEC7
:1021B40000102326A4FEB7070030D44BB707003025
:1021C4000327C4FE558FD8CB010072440561828079
:1021D400011122CE00102326A4FE2324B4FE3707C7
:1021E40000308327C4FE89078E07BA97032784FE2D
:1021F400D8C70100724405618280011122CE00100B
:102204002326A4FE2324B4FE2322C4FE032744FE73
:1022140085476318F7008327C4FE032784FED8D7B5
:1022240031A08327C4FE032784FE98DB0100724497
:1022340005618280011122CE00102326A4FE2324EE
:10224400B4FE2322C4FE032744FE85476318F70027
:102254008327C4FE032784FED8DB31A08327C4FE72
:10226400032784FE98DF0100724405618280011116
:1022740022CE00102326A4FE2324B4FE8327C4FE0A
:102284009843832784FEF98F99C3854711A081471A
:102294003E85724405618280011122CE00102326FE
:1022A400A4FE2324B4FE8327C4FE032784FE98C718
:1022B4000100724405618280011122CE00102326A0
:1022C400A4FE2324B4FE8327C4FE032784FED8C7B8
:1022D4000100724405618280011122CE0010232680
:1022E400A4FE2324B4FE2322C4FE032744FE854710
:1022F4006318F7008327C4FE032784FEF8CB31A0BC
:102304008327C4FE032784FEB8CF0100724405610D
:102314008280011122CE00102326A4FE2324B4FEC1
:102324008327C4FE032784FEF8CF010072440561AD
:102334008280011122CE00102326A4FE2324B4FEA1
:102344002322C4FE032744FE85476318F70083272E
:10235400C4FE032784FEF8C731A08327C4FE0327E5
:1023640084FEB8CB0100724405618280011122CE43
:1023740000102326A4FE2324B4FE2322C4FE032734
:1023840044FE85476318F7008327C4FE032784FEB1
:10239400F8C331A08327C4FE032784FEB8C7010015
:1023A400724405618280011122CE00102326A4FE0E
:1023B4002324B4FE2322C4FE032744FE8547631866
:1023C400F7008327C4FE032784FEB8D731A08327F0
:1023D400C4FE032784FEF8D701007244056182809D
:1023E400011122CE00102326A4FE2324B4FE2322AE
:1023F400C4FE032744FE85476318F7008327C4FE01
:10240400032784FEB8DB31A08327C4FE032784FEA0
:10241400F8DB0100724405618280011122CE0010B4
:102424002326A4FE2324B4FE2322C4FE032744FE51
:1024340085476318F7008327C4FE032784FEB8DFAB
:1024440031A08327C4FE032784FEF8DF0100724411
:1024540005618280011122CE00102326A4FE2324CC
:10246400B4FE2322C4FE032744FE85476318F70005
:102474008327C4FE032784FEB8D331A08327C4FE78
:10248400032784FEF8D301007244056182800111A0
:1024940022CE00102326A4FE2324B4FE8327C4FEE8
:1024A40003A70708832784FEF98F99C3854711A0E2
:1024B40081473E85724405618280011122CE00105D
:1024C4002326A4FE2324B4FE8327C4FE032784FE0C
:1024D40023A0E7080100724405618280011122CE25
:1024E4000010A1472326F4FE8327C4FED3F717D098
:1024F400B797008007A787BF5377F708B79700807F
:1025040087A7C7BF5377F710B797008087A707C07F
:10251400D377F700D39717C02324F4FEB7E700302E
:1025240003D70700136707102390E700B7E70030CD
:1025340003D70701136707102398E700B7E70030B4
:1025440098471367074098C7B7E70030984F136759
:10255400074098CFB7070028D45F3707FDFF7D17E2
:10256400F98E4167558FD8DFB7070028D45F370746
:10257400F4FF7D17F98E37070400558FD8DFB707AE
:10258400002813070030D8DBB7E7003083A607081C
:102594003707FDFF7D17F98E4167558F23A0E708A4
:1025A400B7E7003083A607083707F0FF7D17758F5C
:1025B40023A0E708B7E7003003A70708136707104D
:1025C40023A0E708B7E7003003A70708136717003D
:1025D40023A0E708B7A700300327C4FED8D3B7A7C2
:1025E4000030032784FE98D7B7A7003013070007ED
:1025F400D8D7B7A7003023AA0702B7A7003013071C
:10260400103098DB0100724405618280411106C6D6
:1026140022C40008EFF0CFD2EFF0EFA0EFF0EF8785
:10262400EFD07FF9EFF04FDA553D1305F00FEF10BF
:10263400D0716129EF00C07A4522C529EFF02FCC73
:10264400B7970080138547ABEFE0FFF60100B24077
:10265400224441018280397106DE22DC8000138528
:1026640081E6EFE0AF9F938781E605472382E70089
:10267400938781E603C75700018BA382E70003C752
:102684006700018B136727FC2383E70003C77700E8
:10269400018B13671700A383E70003C78700018B2F
:1026A4002384E700B7970080138547ACEFE0BFF0C1
:1026B400EFF06FEEAA87A305F4FEEFF03F82AA873E
:1026C4002305F4FE8347B4FE0347A4FE3A86BE8581
:1026D400B79700801385C7ADEFE0DFE3EFF0AFEB12
:1026E400AA87BE85B7970080138547B0EFE09FE2C5
:1026F400138581E6EFE00FA5EFF0EFE9AA87BE8529
:10270400B7970080138547B2EFE0DFE0138581E6D9
:10271400EFE04F9BAA8785CB938781E683C7470069
:10272400BE86938781E6D84321839C4793F7F70FAE
:10273400E207D98F3E86B685B7970080138547B4E4
:10274400EFE05FDD69A0B79700801385C7B6EFE0BF
:102754009FE6232604FC232804FC232A04FC232CC0
:1027640004FC232E04FC232004FE231204FE230372
:1027740004FE9307C4FC6D46BE850145EFF07F8AD5
:10278400ED45B7970080138507B8EFE0BFD823263F
:1027940004FE1DA08327C4FEC117A29783C7C7FDEB
:1027A400BE85B7970080138547B9EFE0BFD683276E
:1027B400C4FE85072326F4FE0327C4FEE947E3FB92
:1027C400E7FCB79700801385C7B9EFE0DFDE0100AF
:1027D400F250625421618280411106C622C400086D
:1027E400B7A700301307007DF8C3B7A70030985F80
:1027F400B7A700301367077D98DF85456945EFE08B
:10280400CFA0B737008013868782E9450145EFE002
:102814000F9BE9450145EFE0EFA10100B2402244DE
:1028240041018280011106CE22CC001021A8B7A755
:10283400003083C70700A307F4FE8347F4FE3E85F8
:10284400EF10305EB7A700309C4F9183858B93F7D0
:10285400F70FF1DFB7A700301307007DF8C30100BD
:10286400F240624405618280011106CE22CC001040
:102874002326A4FE2324B4FE0146832584FE0325D7
:10288400C4FEA53A832584FE0325C4FE35340146DF
:10289400832584FE0325C4FE713A0146832584FE04
:1028A4000325C4FEEF40C0620D46832584FE032544
:1028B400C4FEEF4000560146832584FE0325C4FE72
:1028C400EF4020580146832584FE0325C4FEEF40D3
:1028D40020510146832584FE0325C4FEA53E83259D
:1028E40084FE0325C4FED13E0146832584FE0325D0
:1028F400C4FE81340146832584FE0325C4FEBD3411
:102904000100F240624405618280397106DE22DCF6
:1029140080002326A4FC2324B4FCB287A303F4FC84
:10292400832584FC0325C4FC8137930704FD3E857D
:10293400EF402073832784FC2328F4FC8547232A53
:10294400F4FC232C04FC232E04FC232204FE232663
:1029540004FE930704FDBE850325C4FCEF40806696
:10296400834774FC99C7832584FC0325C4FC2D325A
:1029740031A0832584FC0325C4FC3D3A0100F250B8
:102984006254216182805D7186C6A2C48008232EB0
:10299400A4FA232CB4FA232AC4FA832584FB03253E
:1029A400C4FBD9359307C4FC3E85EF40806B832775
:1029B40084FB2326F4FC232804FC232A04FC232C74
:1029C40004FC232204FE832744FB2324F4FE930700
:1029D400C4FCBE850325C4FBEF40C05E05468325C9
:1029E40084FB0325C4FB5932A30704FE83C741E8D3
:1029F4000347F4FEF98F93F7F70F99EF9305803EA1
:102A04000325C4FB393283C741E80347F4FED98F59
:102A140013F7F70F2382E1E80546832584FB03259A
:102A2400C4FB5D380546832584FB0325C4FB1132B2
:102A34000100B640264461618280011106CE22CC99
:102A440000102326A4FE2324B4FE2322C4FE232044
:102A5400D4FE032644FE832584FE0325C4FE2537C5
:102A64000546832584FE0325C4FE353A01468325A5
:102A740084FE0325C4FEAD320546832584FE03256A
:102A8400C4FE613A832584FE0325C4FE3D348327B6
:102A940004FE8DC3832584FE0325C4FEEFF02FFDC1
:102AA400AA87B337F00093F7F70F3E87832704FE16
:102AB4002380E7000546832584FE0325C4FE593A96
:102AC4000100F240624405618280411106C622C4BD
:102AD4000008B7E7003003D70700136707102390F7
:102AE400E700B7E7003003D70701136707102398FF
:102AF400E7000146C14537050028013D014693051D
:102B040000023705002811350146930500043705F6
:102B14000028E53B01469305000837050028F533F6
:102B24000100B240224441018280411106C622C400
:102B34000008938601880546854537050028F53D3C
:102B4400938611880546894537050028FD35938607
:102B540021880546914537050028C5359386318877
:102B64000546A14537050028C93D85451545EFD0E3
:102B7400DFE9B7370080138687B995450145EFD063
:102B84001FE495450145EFD0FFEA0100B24022441D
:102B940041018280397106DE22DC800083A701E6D0
:102BA4002324F4FEB7970080938787BC9043D443D3
:102BB4009847DC47232AC4FC232CD4FC232EE4FCB2
:102BC4002320F4FEB7970080938787BD9043D443B6
:102BD4009847DC472322C4FC2324D4FC2326E4FCAA
:102BE4002328F4FCA30704FECDA28347F4FE8A073E
:102BF400C117A29783A747FEBE8537050028413831
:102C04002A878547631EF71A8347F4FE8A07C1178C
:102C1400A29783A747FEBE8537050028EFF02FE56E
:102C2400AA87B337F00093F7F70FA303F4FE034723
:102C3400F4FE93870188BA9783C7070013F7F70F49
:102C440085476312F710834774FE639E070E83471C
:102C5400F4FE138701E58A07BA979C43032784FE91
:102C64001D8F930720036360F7140347F4FE9387D3
:102C7400C1E4BA9783C7070093F7F70F8346F4FEBE
:102C840093C7170013F7F70F9387C1E4B697238010
:102C9400E7000347F4FE9387C1E4BA9783C70700AC
:102CA40093F7F70F8DCF8347F4FE8A07C117A297D6
:102CB40083A747FDBE8537050028EFF0EFDD834786
:102CC400F4FE138717008347F4FE91073E86BA8506
:102CD400B7970080138507BAEFE0DF8325A8834701
:102CE400F4FE8A07C117A29783A747FDBE8537055F
:102CF4000028EFF06FDC8347F4FE13871700834747
:102D0400F4FE91073E86BA85B7970080138547BBCA
:102D1400EFE05F808347F4FE138701E58A07BA97E3
:102D2400032784FE98C30347F4FE93870188BA9768
:102D3400034774FE2380E7008347F4FEADE70547AD
:102D4400A381E1E88DA00347F4FE93870188BA9735
:102D540083C7070093F7F70FA1EB034774FE85477A
:102D64006314F7048347F4FE138701E58A07BA97CF
:102D74009C43032784FE1D8F930720036366F70299
:102D84000347F4FE93870188BA97034774FE2380B0
:102D9400E7008347F4FE138701E58A07BA97032700
:102DA40084FE98C311A001008347F4FE8A07C1176B
:102DB400A29783A747FEBE8537050028EFF0EFEF03
:102DC4008347F4FE8507A307F4FE0347F4FE8D470B
:102DD400E3FDE7E001000100F250625421618280CA
:102DE400011106CE22CC0010B7E7003098471367D4
:102DF400170098C7B7E70030984F1367170098CFAC
:102E04000145EFF06FB20D45EFF04FAF0545EFF020
:102E14002FAC03A781E18967938707F4B357F702BF
:102E24002326F4FE8327C4FE81E785472326F4FE88
:102E34008325C4FE0145EFF0AFB90145EFF08FB132
:102E440085450545EFF0CFB285451945EFD0FFBB69
:102E5400B7370080138667E799450145EFD03FB641
:102E640099450145EFD01FBD0100F2406244056160
:102E74008280411106C622C4000883A701E6138795
:102E8400170023A0E1E6EF10E0010545EFF00FB2D3
:102E94000100B240224441018280011106CE22CCBD
:102EA4000010EFF0AFF6EFF00FFBEFD01F8C83C7ED
:102EB40031E893F7F70F8DCBA38101E8EFE0BFED85
:102EC400AA87A307F4FEEFF06F81AA872307F4FE15
:102ED4008347F4FE0347E4FE3A86BE85B797008035
:102EE4001385C7ADEFE00FE3930704FE3E85EFD0F3
:102EF4001F89AA87ADC7034784FE83C74188630837
:102F0400F704034784FE83C75188630BF700034724
:102F140084FEA382E18803A701E623A2E1E681A05F
:102F240003A701E683A741E61D8F93072003636887
:102F3400F702834784FEBE85B7970080138587BE5A
:102F4400EFE04FDD034784FE2382E18809A80347AD
:102F540084FEA382E18803A701E623A2E1E67300CD
:102F64005010B1B7011122CE0010AA872E87231763
:102F7400F4FEBA87A306F4FE8357E4FEA207139770
:102F8400070141878357E4FEA183C207C183BE863C
:102F94008347D4FEB58F93F7F70FB79600809386D7
:102FA40046C08607B69783D70700C207C187B98F83
:102FB400C207C1872317F4FE8357E4FE3E8572449B
:102FC40005618280797122D60018AA87232CB4FC6B
:102FD4003287231FF4FCBA87231EF4FC8357E4FDD5
:102FE4002317F4FE231604FE99A88357E4FEA207D0
:102FF4001397070141878357E4FEA183C207C18366
:103004003E868357C4FE832684FDB69783C7070094
:10301400B18F93F7F70FB7960080938646C0860763
:10302400B69783D70700C207C187B98FC207C18784
:103034002317F4FE8357C4FE85072316F4FE0357B3
:10304400C4FE8357C4FDE362F7FA8357E4FE3E856A
:10305400325445618280797106D622D40018232E19
:10306400A4FCAE87231DF4FC0357A4FD854763E449
:10307400E7008147ADA08357A4FDFD170327C4FDD6
:10308400BA9783C70700A20713970701418783579D
:10309400A4FDF9178326C4FDB69783C70700C207AA
:1030A400C187D98FC207C1872317F4FE8357A4FDB4
:1030B400F917C207C1833E868325C4FD896713853A
:1030C400F7D00937AA872316F4FE0357E4FE835783
:1030D400C4FEB307F74093B7170093F7F70F3E8585
:1030E400B250225445618280011122CE0010232661
:1030F400A4FE2324B4FE8327C4FE9843832784FEBE
:10310400F98F99C3854711A081473E8572440561B3
:103114008280011122CE00102326A4FE2324B4FEB3
:103124008327C4FE032784FE98C701007244056107
:103134008280011122CE00102326A4FE2324B4FE93
:103144008327C4FE032784FED8C7010072440561A7
:103154008280011122CE00108547A307F4FE834725
:10316400F4FE89C78307F4FE63D507008547A307E8
:10317400F4FE8347F4FE3E857244056182807971D2
:1031840022D60018232EA4FCAE87231DF4FC23179B
:1031940004FE15A80100B7A700309C4F9583858BCA
:1031A40093F7F70FEDFB8357E4FE0327C4FD3E9727
:1031B400B7A70030034707002380E7008357E4FEE6
:1031C40085072317F4FE0357E4FE8357A4FDE36346
:1031D400F7FC0100B7A700309C4F9D83858B93F7C4
:1031E400F70FEDDB010001003254456182807971F3
:1031F40022D60018232EA4FCAE873287231DF4FCAC
:10320400BA87A30CF4FC231704FE8357E4FE138748
:1032140017002317E4FE3E878327C4FDBA971307DC
:1032240030052380E70003C781E88357E4FE9386D3
:1032340017002317D4FEBE868327C4FDB6971367F1
:1032440007F81377F70F2380E7008357E4FE13870B
:1032540017002317E4FE3E878327C4FDBA9703575C
:10326400A4FD1377F70F2380E7008357A4FDA18300
:1032740093960701C1828357E4FE1387170023172F
:10328400E4FE3E878327C4FDBA9713F7F60F238025
:10329400E700830794FD8D8BE207E18793E74700FE
:1032A40093968701E1868357E4FE1387170023175B
:1032B400E4FE3E878327C4FDBA9713F7F60F2380F5
:1032C400E7008357E4FE3E8532544561828079717C
:1032D40006D622D40018232EA4FCAE87231DF4FCAA
:1032E4008357A4FD3E868325C4FD89671385F7D0E3
:1032F400EFF05FCDAA872317F4FE8357A4FD13874D
:103304001700231DE4FC3E878327C4FDBA970357A7
:10331400E4FE1377F70F2380E7008357E4FEA183CD
:1033240093960701C1828357A4FD13871700231DB9
:10333400E4FC3E878327C4FDBA9713F7F60F238076
:10334400E7008357A4FDBE850325C4FD0D3D0100A0
:10335400B250225445618280397106DE22DC80003D
:10336400AA87A307F4FCA1472317F4FE231604FE3F
:103374008346F4FC0357E4FE9307C4FD3686BA85FE
:103384003E85B535AA872316F4FE8357C4FE1387FA
:1033940017002316E4FEC117A2971307000423861F
:1033A400E7FE0357C4FE9307C4FDBA853E8505377F
:1033B4000100F250625421618280397106DE22DC00
:1033C4008000AA872E87A307F4FCBA872307F4FC9E
:1033D400A5472317F4FE231604FE8346F4FC035783
:1033E400E4FE9307C4FD3686BA853E850935AA876F
:1033F4002316F4FE8357C4FE138717002316E4FE36
:10340400C117A297130710042386E7FE8357C4FE4F
:10341400138717002316E4FEC117A2970347E4FCA1
:103424002386E7FE0357C4FE9307C4FDBA853E8591
:10343400793D0100F250625421618280597186D62F
:10344400A2D48018AA87A30FF4F8231704FEB74761
:103454004301938717242320F4FA9307101023229F
:10346400F4FAB7070101938707102324F4FAD1472C
:103474002316F4FE8346F4F90357C4FE9307C4FAF3
:103484003686BA853E85A533AA872317F4FE83576B
:10349400E4FE138717002317E4FEC117A29713074E
:1034A4005004238EE7FA8357E4FE1307C4FABA974D
:1034B400034704FABA8F034714FA3A8F034724FAEE
:1034C400BA8E034734FA3A8E034744FA3A830347E1
:1034D40054FABA88034764FA3A88034774FA3A8577
:1034E400034784FABA85034794FA3A860347A4FA51
:1034F400BA860347B4FA2380F701A380E701238146
:10350400D701A381C70123826700A3821701238304
:103514000701A383A7002384B700A384C7002385DE
:10352400D700A385E7008357E4FEB1072317F4FE11
:103534000357E4FE9307C4FABA853E85493B01006C
:10354400B650265465618280357106CF22CD0011B4
:10355400AA87A307F4F6231704FEB797008093877E
:1035640047E003AF070083AE470003AE870003A321
:10357400C70083A8070103A84701884FCC4F905385
:10358400D4539857DC57232EE4F72320D4F923226D
:10359400C4F9232464F8232614F9232804F9232ADC
:1035A400A4F8232CB4F8232EC4F82320D4FA23221D
:1035B400E4FA2324F4FA930780032316F4FE8346E3
:1035C400F4F60357C4FE9307C4FA3686BA853E85DB
:1035D4003939AA872317F4FE8357E4FE13871700AB
:1035E4002317E4FEC117A29713076004238EE7FA9A
:1035F4008357E4FE1307C4FABA97BE869307C4F749
:10360400130700033A86BE853685EF50C0398357C9
:10361400E4FE938707032317F4FE0357E4FE93079E
:10362400C4FABA853E8565310100FA406A440D61E9
:103634008280397106DE22DC8000AA872E8723244B
:10364400C4FCA307F4FCBA872307F4FC231704FE85
:10365400B5472316F4FE8346F4FC0357C4FE9307D0
:10366400C4FD3686BA853E855936AA872317F4FEEB
:103674008357E4FE138717002317E4FEC117A297AC
:10368400130750062386E7FE8357E4FE13871700CB
:103694002317E4FE0347E4FC1377F7071377F70FC8
:1036A400C117A2972386E7FE8357E4FE138717000A
:1036B4002317E4FE032784FC1377F70FC117A2979F
:1036C4002386E7FE832784FC93D687008357E4FE92
:1036D400138717002317E4FE13F7F60FC117A297F9
:1036E4002386E7FE832784FC93D607018357E4FEF1
:1036F400138717002317E4FE13F7F60FC117A297D9
:103704002386E7FE832784FC93D687018357E4FE50
:10371400138717002317E4FE13F7F60FC117A297B8
:103724002386E7FE0357E4FE9307C4FDBA853E856E
:10373400793E0100F250625421618280011106CE6B
:1037440022CC0010AA87A307F4FE8347F4FE8DC79A
:1037540093050008370500286D3A930500043705E2
:103764000028453A93050002370500285D32C1451B
:1037740037050028793A25A0930500083705002865
:103784004D3A93050004370500286532930500027D
:1037940037050028793AC14537050028593A010010
:1037A400F240624405618280397106DE22DC8000C9
:1037B400AA87A307F4FC231704FEA5472316F4FEE7
:1037C4008346F4FC0357C4FE930784FD3686BA850A
:1037D4003E85313CAA872317F4FE8357E4FE138702
:1037E40017002317E4FEC117A2971307900423843C
:1037F400E7FEA30504FE854537050028F530AA87B2
:1038040093B7170093F7F70F93F7F70F0347B4FE37
:10381400D98FA305F4FE894537050028F130AA871E
:1038240099E3894711A0814793F7F70F0347B4FE43
:10383400D98FA305F4FE9145370500287530AA8772
:1038440099E3914711A0814793F7F70F0347B4FE1B
:10385400D98FA305F4FEA145370500287130AA8746
:1038640099E3A14711A0814793F7F70F0347B4FEEB
:10387400D98FA305F4FE8357E4FE1387170023179B
:10388400E4FEC117A2970347B4FE2384E7FE03575F
:10389400E4FE930784FDBA853E85153C0100F25091
:1038A400625421618280397106DE22DC8000AA879D
:1038B400A307F4FC231704FEA5472316F4FE83464E
:1038C400F4FC0357C4FE930784FD3686BA853E850F
:1038D400393AAA872317F4FE8357E4FE13871700A7
:1038E4002317E4FEC117A2971307A0042384E7FE5D
:1038F400A30504FEC14537050028EFF0EFFEAA87B3
:1039040099C3854711A0814793F7F70F0347B4FE86
:10391400D98FA305F4FE9305000237050028EFF0C4
:10392400AFFCAA8799C3894711A0814793F7F70F82
:103934000347B4FED98FA305F4FE930500043705AD
:103944000028EFF06FFAAA8799C3914711A0814725
:1039540093F7F70F0347B4FED98FA305F4FE93053D
:10396400000837050028EFF02FF8AA8799C3A1476C
:1039740011A0814793F7F70F0347B4FED98FA3052E
:10398400F4FE8357E4FE138717002317E4FEC117E0
:10399400A2970347B4FE2384E7FE0357E4FE93078C
:1039A40084FDBA853E8525320100F25062542161BE
:1039B4008280397106DE22DC80002326A4FCAE87D7
:1039C4002315F4FCB7970080938747E39043D443CF
:1039D4009847DC472328C4FC232AD4FC232CE4FC8A
:1039E400232EF4FC8357A4FC8D8BC207C183639FF1
:1039F40007380357A4FC8D4763FAE7388357A4FCC0
:103A040089832316F4FE231704FE95AE8357E4FE40
:103A14008A070327C4FCBA972324F4FE832784FE71
:103A240083C70700A303F4FE832784FE83C717001C
:103A34002303F4FE832784FE890783C707001397B3
:103A440007014187832784FE8D0783C70700A207E8
:103A5400C207C187D98FC207C1872312F4FE034767
:103A640074FE8D4763EFE72E834774FE8A07C11700
:103A7400A29783A707FE2320F4FE834764FE194719
:103A84006363F72E13972700B7970080938747E463
:103A9400BA979C438287034774FE938641EDBA87A5
:103AA4008607BA978A07B69723800700034774FEF0
:103AB400938641EDBA878607BA978A07B697A3809B
:103AC4000700034774FE938641EDBA878607BA97C9
:103AD4008A07B69723A20700832504FE370500282A
:103AE400EFF02FE541AC034774FE938641EDBA87AE
:103AF4008607BA978A07B69705472380E7000347E6
:103B040074FE938641EDBA878607BA978A07B697FB
:103B1400A3800700034774FE938641EDBA878607A6
:103B2400BA978A07B69723A20700832504FE3705B0
:103B34000028EFF00FDE3DAC034774FE938641EDA1
:103B4400BA878607BA978A07B69723800700034780
:103B540074FE938641EDBA878607BA978A07B697AB
:103B640005472384E700034774FE938641EDBA8733
:103B74008607BA978A07B69783C717006399071E03
:103B8400832504FE37050028EFF0AFDACDA2034702
:103B940074FE938641EDBA878607BA978A07B6976B
:103BA40005472380E700034774FE938641EDBA87F7
:103BB4008607BA978A07B69705472384E700034721
:103BC40074FE938641EDBA878607BA978A07B6973B
:103BD40083C71700639F0718832504FE3705002851
:103BE400EFF02FD379A2034774FE938641EDBA8791
:103BF4008607BA978A07B6970547A380E700034765
:103C040074FE938641EDBA878607BA978A07B697FA
:103C140005472381E700034774FE938641EDBA8785
:103C24008607BA978A07B69723840700835744FE0A
:103C3400A1E7034774FE938641EDBA878607BA97D6
:103C44008A07B69705472380E700034774FE9386E7
:103C540041EDBA878607BA978A07B697A38007000B
:103C6400034774FE938641EDBA878607BA978A079D
:103C7400B69723A207000DA0835644FE034774FEA3
:103C840093074006B386F602138641EDBA8786078A
:103C9400BA978A07B297D4C3832504FE3705002850
:103CA400EFF02FC7C1A8034774FE938641EDBA878E
:103CB4008607BA978A07B6970547A380E7000347A4
:103CC40074FE938641EDBA878607BA978A07B6973A
:103CD40023810700034774FE938641EDBA87860764
:103CE400BA978A07B69723840700835744FEB9E33B
:103CF400034774FE938641EDBA878607BA978A070D
:103D0400B69723800700034774FE938641EDBA8774
:103D14008607BA978A07B697A3800700034774FEFD
:103D2400938641EDBA878607BA978A07B69723A286
:103D340007000DA0835644FE034774FE9307400614
:103D4400B386F602138641EDBA878607BA978A07C7
:103D5400B297D4C3832504FE37050028EFF06FBD66
:103D640011A8010001A8010031A0010021A0010057
:103D740011A001008357E4FE85072317F4FE0357BF
:103D8400E4FE8357C4FEE363F7C811A00100F250B8
:103D9400625421618280397122DE80002326A4FCD2
:103DA4008327C4FC92073727F40013070740B3574F
:103DB400F7022326F4FE8327C4FC53F717D0B797E2
:103DC400008087A707EBD377F710B797008007A782
:103DD40047EB5377F7188327C4FED3F717D0D3776D
:103DE400F7082724F4FE072784FEB797008087A7E7
:103DF40087EB5377F710B797008087A7C7EBD37784
:103E0400F700D39717C02322F4FEB7A700309C5BBA
:103E14002320F4FEB7A70030DC57232EF4FCB7A709
:103E240000309C5F232CF4FC0100B7A700309C4FAA
:103E34008D83858B93F7F70FEDFBB7A7003023A88D
:103E44000702B7A700300327C4FED8D3B7A70030B2
:103E5400032744FE98D7B7A7003013070007D8D725
:103E6400B7A700301307F07FF8C329A0B7A7003025
:103E740083C70700B7A700309C4F9183858B93F7C6
:103E8400F70FEDD7B7A70030032784FD98DFB7A756
:103E94000030032704FE1367173098DB01007254C7
:103EA40021618280797106D622D40018B7970080E8
:103EB400938747E39043D4439847DC47232EC4FCBD
:103EC4002320D4FE2322E4FE2324F4FEA30704FECD
:103ED400E1A80347F4FE938641EDBA878607BA97B3
:103EE4008A07B69783C71700DDCB0347F4FE938692
:103EF40041EDBA878607BA978A07B697DC43C5C3EC
:103F04000347F4FE938641EDBA878607BA978A077A
:103F1400B697DC439386F7FF138641EDBA8786078D
:103F2400BA978A07B297D4C30347F4FE938641ED48
:103F3400BA878607BA978A07B697DC43ADE3034787
:103F4400F4FE938641EDBA878607BA978A07B69737
:103F5400A38007000347F4FE938641EDBA878607E2
:103F6400BA978A07B69783C7070091CF8347F4FEB1
:103F74008A07C117A29783A7C7FEBE853705002805
:103F8400EFF02F9929A88347F4FE8A07C117A29757
:103F940083A7C7FEBE8537050028EFF08F998347B6
:103FA400F4FE8507A307F4FE0347F4FE8D47E3F20E
:103FB400E7F2938741F09C4B91CB938741F09C4B64
:103FC4001387F7FF938741F098CB85AA938741F035
:103FD40083C70700638A070E938741F083C72700CE
:103FE4009DC7938741F023810700938741F083C7DE
:103FF400D701B337F00093F7F70F3E85EFF00FF4D6
:10400400938741F09847938741F098CB3DA29387DB
:1040140041F005472381E700938741F083C7C70137
:10402400B337F00093F7F70F3E85EFF02FF1938746
:1040340041F0D843938741F098CB938741F083D7DD
:10404400C700638C070E938741F083D7C700FD1721
:10405400139707014183938741F02396E7009387E1
:1040640041F083D7C700639A070C938741F02380FC
:104074000700938741F0DC4B85CF938741F09C4F39
:1040840085CB938741F005472381E700938741F06F
:1040940083C7E701B337F00093F7F70F3E85EFF0DE
:1040A400EFE9938741F0D84B938741F098CB71A007
:1040B400938741F083C717003E85EFF02FE893877D
:1040C40041F023A8070095A8938741F0DC4BB5C7BE
:1040D400938741F09C4FB5C3938741F083C7270072
:1040E4009DC7938741F023810700938741F083C7DD
:1040F400F701B337F00093F7F70F3E85EFF00FE4C5
:10410400938741F0984F938741F098CB3DA09387D4
:1041140041F005472381E700938741F083C7E70116
:10412400B337F00093F7F70F3E85EFF02FE1938755
:1041340041F0D84B938741F098CBB250225445615B
:1041440082801D7186CEA2CC80102326A4FAAE876D
:104154002315F4FA0357A4FAB54763F3E73E03576C
:10416400A4FAB947B357F7022311F4FE231704FE48
:10417400C9A60357E4FEBA878E07998F86073E8740
:104184008327C4FABA97232EF4FC8327C4FD83C77C
:104194000700A30DF4FC8327C4FD83C71700230D78
:1041A400F4FC8347B4FD639007388347A4FD639C04
:1041B40007368327C4FD83C72700A30CF4FC832799
:1041C400C4FD83C73700230CF4FC8327C4FD83C7D5
:1041D4004700A30BF4FC8327C4FD83C75700230BBC
:1041E400F4FC8327C4FD83C76700A30AF4FC832778
:1041F400C4FD9D0783C707001397070141878327E1
:10420400C4FDA10783C70700A207C207C187D98FCE
:10421400C207C1872319F4FC8327C4FD83C7970011
:10422400A308F4FC8327C4FD83C7A7002308F4FC78
:104234008327C4FD83C7B700A307F4FC8327C4FD09
:1042440083C7C7002307F4FC8327C4FD83C7D700B3
:10425400A306F4FC034714FD8547631DF70E0347CB
:1042640004FD93074006B307F7022324F4FC034735
:10427400F4FC93074006B307F7022322F4FC938768
:1042840041F0032784FCD8CB938741F0032744FCF7
:1042940098CF8347E4FCB337F00093F7F70F3E87DA
:1042A400938741F0238FE7008347D4FCB337F000B2
:1042B40093F7F70F3E87938741F0A38FE700832797
:1042C40084FC85C3832744FC89EF8347E4FCB3372C
:1042D400F00093F7F70F3E87938741F0A380E70040
:1042E40015A0832784FC99EF832744FC81CF83475F
:1042F400D4FCB337F00093F7F70F3E87938741F070
:10430400A380E700938741F083C70700A1E78327D1
:1043140084FC95CB832744FC9DC7938741F00547D4
:104324002381E700938741F083C7E701B337F000A7
:1043340093F7F70F3E85EFF06FC0938741F00327A3
:1043440084FC98CB01A8938741F083C717003E856E
:10435400EFF0CFBE834794FD6388071C034794FDA9
:1043640085476319F706938741F0238007009387F5
:1043740041F0DC4B85CF938741F09C4F85CB9387ED
:1043840041F005472381E700938741F083C7E701A4
:10439400B337F00093F7F70F3E85EFF02FBA93870A
:1043A40041F0D84B938741F098CBBDAA938741F055
:1043B40003C71700938741F02381E700938741F0F7
:1043C40083C717003E85EFF06FB7938741F023A8AA
:1043D400070099AA034794FD89476317F714034715
:1043E40084FD93074006B307F7022320F4FC034738
:1043F40074FD93074006B307F702232EF4FA93875C
:1044040041F0032704FCD8C3938741F00327C4FB7E
:1044140098C7834764FDB337F00093F7F70F3E87DF
:10442400938741F0238EE700834754FDB337F000B0
:1044340093F7F70F3E87938741F0A38EE7008357E6
:1044440024FD91E7938741F023960700BDA093874D
:1044540041F0D843938741F09C47BA972324F4FE54
:10446400832784FE89E7930740062324F4FE035739
:1044740024FD93074006B307F702232CF4FA03271D
:1044840084FB832784FEB357F7022322F4FE832799
:1044940044FE81E785472322F4FE032744FEC167D7
:1044A4006377F700832744FEC207C18319A0C1675D
:1044B400FD17138741F02316F700938741F0DC437F
:1044C40085CB938741F005472381E700938741F02B
:1044D40083C7C701B337F00093F7F70F3E85EFF0BA
:1044E400EFA5938741F0D843938741F098CB35A04B
:1044F400938741F023810700938741F083C7D70155
:10450400B337F00093F7F70F3E85EFF02FA39387AF
:1045140041F09847938741F098CB938741F0054742
:104524002380E70011A001008357E4FE85072317C9
:10453400F4FE0357E4FE835724FEE36CF7C211A094
:104544000100F640664425618280797106D622D442
:104554000018AA87A30FF4FC0347F4FD9307F00F98
:104564006319F700EFE0FFBEAA873E872384E1E8E2
:1045740009A88347F4FD93F7F70713F7F70F23848C
:10458400E1E823A601E8239801E8239901E8A307B9
:1045940004FEADA80347F4FE938641EDBA8786076F
:1045A400BA978A07B697238007000347F4FE9386D9
:1045B40041EDBA878607BA978A07B697A3800700A2
:1045C4000347F4FE938641EDBA878607BA978A07B4
:1045D400B697238107000347F4FE938641EDBA871B
:1045E4008607BA978A07B69723A207000347F4FE03
:1045F400938641EDBA878607BA978A07B6972384CC
:1046040007008347F4FE8507A307F4FE0347F4FE7F
:104614008D47E3F1E7F801000100B25022544561EF
:1046240082805D7186C6A2C48008AA87A30FF4FAAB
:1046340083A7C1E811476364F73E13972700B79730
:104644000080938707E6BA979C4382870347F4FB6D
:10465400930730056318F73C239901E883D721E9D0
:104664001387170093160701C1822399D1E83E8767
:10467400938741E9BA970347F4FB2380E700054792
:1046840023A6E1E845A683D721E9138717009316EB
:104694000701C1822399D1E83E87938741E9BA97FC
:1046A4000347F4FB2380E700094723A6E1E8B5AEFE
:1046B40083D721E91387170093160701C182239931
:1046C400D1E83E87938741E9BA970347F4FB2380F7
:1046D400E7008347F4FB1397070141832398E1E83C
:1046E4000D4723A6E1E891A683D721E91387170094
:1046F40093160701C1822399D1E83E87938741E944
:10470400BA970347F4FB2380E7008347F4FBA2072F
:1047140013970701418783D701E9C207C187D98F5E
:10472400C207C1871397070141832398E1E803D7A0
:1047340001E99D4763F8E70003D701E99307000403
:1047440063F5E70023A601E8CDA4114723A6E1E819
:10475400E9AC83D721E91387170093160701C182B7
:104764002399D1E83E87938741E9BA970347F4FB3D
:104774002380E70003D721E983D701E96366F72A99
:1047840083D701E9BE85138541E9EFE0DF8CAA8771
:1047940063830722938741E983C7170093F7F707D9
:1047A4002306F4FE83C781E80347C4FE630CF700C5
:1047B4000347C4FE9307F0076306F7008347C4FE6C
:1047C400639C0724938741E983C74700A305F4FE4C
:1047D4008347B4FE8D8B2305F4FE938741E983C799
:1047E4005700A304F4FE8347C4FE938717F8B33736
:1047F400F00093F7F70F2304F4FE834794FE9387A6
:1048040007FA3947636FF71813972700B7970080A3
:10481400938747E7BA979C438287834784FE638CD8
:10482400071C8347A4FE3E85EFE01FB3E9A283473C
:1048340084FE6384071C8347A4FE3E85EFE01FC00B
:104844006DAA834784FE638C071A8347A4FE3E85C2
:10485400EFE09FCF6DA2834784FE6384071A8347EA
:10486400A4FE3E85EFE05FF469AA834784FE638C6F
:1048740007188347A4FE3E85EFF0EF8269A283D731
:1048840001E9E1172313F4FE035764FE9547631D02
:10489400F7089387A1E92320F4FE832704FE83C746
:1048A400070093F7F707A30FF4FC832704FE85079B
:1048B40083C707003E87832704FE890783C7070051
:1048C400A2075D8F832704FE8D0783C70700C207F5
:1048D4005D8F832704FE910783C70700E207D98F02
:1048E400232CF4FC834784FE99CB0347F4FD8347D0
:1048F400A4FE032684FDBA853E85EFE09FD30347DB
:10490400F4FD2384E1E8032784FD9307F04A63FE62
:10491400E70E032784FDB7170E0063E8E70E0325AF
:1049240084FDEFF04FC7D5A0834784FE638F070C47
:104934008347A4FE89453E85EFE03FA8F9A083D7CD
:1049440001E9E117231BF4FC9387A1E92328F4FC74
:10495400835764FDBE85032504FDEFF08FFE834776
:1049640084FED5C78347A4FE3E85EFE0FF9E45A0A5
:1049740083D701E9E1172317F4FC9387A1E92324E2
:10498400F4FC8357E4FCBE85032584FCEFF06F82BE
:10499400834784FEBDCF8347A4FE3E85EFE0DF9BC3
:1049A4008DA8834784FEA5CB8347A4FE8D453E8511
:1049B400EFE0BFA08DA0938741E983C7170093F769
:1049C400F707A307F4FE0347F4FE9307F007630514
:1049D400F704938741E983C747002307F4FE83471D
:1049E400E4FE8D8BA306F4FE8347D4FE85453E8505
:1049F400EFE0BF9C15A0010005A0010031A8010053
:104A040021A8010011A8010001A8010031A00100A2
:104A140021A0010011A0010023A601E831A023A6D2
:104A240001E821A0010011A001000100B6402644C4
:104A340061618280011122CE00102326A4FEB7E713
:104A440000300327C4FE058B1377F70F058B22076D
:104A540083A6070B93F6F6EF558F23A8E70A010008
:104A6400724405618280011122CE00102326A4FE27
:104A74002324B4FEB7070130DC430327C4FE854674
:104A84003397E6001347F7FFB3F6E7008327C4FE26
:104A9400032784FE3317F700B7070130558FD8C3B7
:104AA4000100724405618280011122CE0010232688
:104AB400A4FE2324B4FEB7070130DC4F0327C4FE51
:104AC4000A07BD463397E6001347F7FFB3F6E7003E
:104AD4008327C4FE8A07032784FE3317F700B7072A
:104AE4000130558FD8CF01007244056182800111D5
:104AF40022CE00102326A4FE2324B4FEB7060130E0
:104B0400832784FE9D8B13F7F70F8327C4FE9A0730
:104B1400B6971D8B83D68705E19A558F239CE704AE
:104B24000100724405618280011122CE0010232607
:104B3400A4FE2324B4FEB7060130832784FE9D8B94
:104B440013F7F70F8327C4FE9A07B6971D8B131626
:104B5400970003D78705BA867D771307F71F758FEC
:104B6400BA863287558F239CE7040100724405619D
:104B74008280011122CE00102326A4FE2324B4FE39
:104B8400B7060130832784FE858B13F7F70F83273D
:104B9400C4FE9A07B697058B220783D6870593F63A
:104BA400F6EF558F239CE70401007244056182806F
:104BB400011122CE00102326A4FE2324B4FEB7063E
:104BC4000130832784FE9D8B13F7F70F8327C4FEE0
:104BD4009A07B6971D8B220783D6070693F6F68F9E
:104BE400558F2390E706010072440561828001110C
:104BF40022CE00102326A4FE2324B4FEB7060130DF
:104C0400832784FE858B13F7F70F8327C4FE9A0747
:104C1400B697058B83D60706F99A558F2390E70636
:104C24000100724405618280011122CE0010232606
:104C3400A4FE2324B4FEB7060130832784FE13F7B1
:104C4400F70F8327C4FE9A07B6972382E70601006D
:104C5400724405618280011122CE00102326A4FE35
:104C64002324B4FEB7060130832784FE858B13F713
:104C7400F70F8327C4FE9A07B697058B2207F453D0
:104C840093F6F6EF558FF8D30100724405618280E4
:104C9400011122CE00102326A4FE2324B4FE2322D5
:104CA400C4FE370701308327C4FE9A07BA97FC571E
:104CB400032784FE85463397E6001347F7FF7D8F6D
:104CC400832784FE832644FEB397F600B70601309B
:104CD4005D8F8327C4FE9A07B697F8D70100724404
:104CE40005618280011122CE00102326A4FE232414
:104CF400B4FE37070130832684FEB7070001FD1791
:104D0400FD8E8327C4FE9A07BA97370700017D17E3
:104D1400758FB05BB70600FFF18E558FB8DB0100CD
:104D2400724405618280011122CE00102326A4FE64
:104D34002324B4FE37060130832784FE858B93F643
:104D4400F70F0327C4FEBA878607BA978A07B29774
:104D540013F71600320703A60740FD76FD16F18E01
:104D6400558F23A0E7400100724405618280011140
:104D740022CE00102326A4FE2324B4FE37060130DD
:104D8400832784FE858B93F6F70F0327C4FEBA8727
:104D94008607BA978A07B29713F71600620703A625
:104DA4000740B70600FFFD16F18E558F23A0E7409C
:104DB4000100724405618280011122CE0010232675
:104DC400A4FE2324B4FE37060130832784FE9D8B82
:104DD40093F6F70F0327C4FEBA878607BA978A07A4
:104DE400B29713F77600420703A60740B706F9FF08
:104DF400FD16F18E558F23A0E74001007244056132
:104E04008280011122CE00102326A4FE2324B4FEA6
:104E14002322C4FEB70601300327C4FEBA878607DF
:104E2400BA978A07B69703A70740FD779387F70FCA
:104E34007D8F832784FE93968700832744FEAA07E9
:104E4400D58F37060130B366F7000327C4FEBA874F
:104E54008607BA978A07B29723A0D7400100724405
:104E640005618280011122CE00102326A4FE232492
:104E7400B4FE37060130832784FE3E878567FD171D
:104E8400F98F93960701C1820327C4FEBA87860768
:104E9400BA978A07B29705677D17758F03A64740AF
:104EA400FD76F18E558F23A2E7400100724405611F
:104EB4008280011122CE00102326A4FE2324B4FEF6
:104EC40037060130832784FE3E878567FD17F98FF7
:104ED40093960701C1820327C4FEBA878607BA974F
:104EE4008A07B29705677D17758F420703A6474067
:104EF400B70601F0FD16F18E558F23A2E74001009D
:104F0400724405618280797122D60018232EA4FC94
:104F1400232CB4FC232AC4FC832784FD8D8B8E07A9
:104F24002326F4FE032784FD9D4763F3E704370734
:104F340001308327C4FD85079A07BA979C4303274A
:104F4400C4FE9306F0033397E6001347F7FF7D8F03
:104F54008327C4FE832644FDB397F600B7060130C9
:104F64005D8F8327C4FD85079A07B69798C379A0F8
:104F7400032784FD8D4763F3E70437070130832754
:104F8400C4FD85079A07BA979C430327C4FE93067A
:104F9400F0033397E6001347F7FF7D8F8327C4FEA2
:104FA400832644FDB397F600B70601305D8F83274F
:104FB400C4FD85079A07B69798C389A037070130BF
:104FC4008327C4FD85079A07BA979C430327C4FE29
:104FD4009306F0033397E6001347F7FF7D8F83278B
:104FE400C4FE832644FDB397F600B70601305D8FF7
:104FF4008327C4FD85079A07B69798C301003254E6
:1050040045618280411106C622C4000801451D3451
:1050140005450D340100B24022444101828079717A
:1050240006D622D40018232EA4FC232CB4FC8327F8
:1050340084FD9C43BE850325C4FDBD34832784FDC4
:10504400DC43BE850325C4FD393C232604FE1DA094
:10505400032784FD8327C4FE8A07BA979C473E86AC
:105064008325C4FE0325C4FD793D8327C4FE85073B
:105074002326F4FE0327C4FE9D47E3FBE7FC8327B6
:1050840084FD9C57BE850325C4FD9534832784FD88
:10509400DC57BE850325C4FD413C832784FD9C5B0E
:1050A400BE850325C4FDF134832784FDDC5BBE8506
:1050B4000325C4FD953E832784FD9C5FBE8503259F
:1050C400C4FD513E832784FDDC5FBE850325C4FDFA
:1050D4001139232404FE25A0032784FD832784FE9D
:1050E400C1078A07BA979C433E86832584FE03251D
:1050F400C4FD793E832784FE85072324F4FE032719
:1051040084FE9D47E3FAE7FC832784FDBC53BE85F8
:105114000325C4FD713C832784FDFC53BE85032510
:10512400C4FDF1340100B25022544561828079718A
:1051340022D60018232EA4FC8327C4FD23A0070035
:105144008327C4FD23A20700232604FE31A80327D6
:10515400C4FD8327C4FE8A07BA9723A407008327C4
:10516400C4FE85072326F4FE0327C4FE9D47E3F00F
:10517400E7FE8327C4FD23A407028327C4FD054754
:10518400D8D78327C4FD23A807028327C4FD23AAF5
:1051940007028327C4FD23AC07028327C4FD23AE83
:1051A4000702232404FE39A80327C4FD832784FEB1
:1051B400C1078A07BA9723A00700832784FE8507BF
:1051C4002324F4FE032784FE9D47E3FFE7FC8327A3
:1051D400C4FD0547B8D38327C4FD23A207060100F5
:1051E400325445618280011106CE22CC0010232660
:1051F400A4FE2324B4FE832784FE9C43BE8503259A
:10520400C4FE1536832784FEDC43BE850325C4FE15
:105214009139832784FE9C47BE850325C4FE5139FA
:10522400832784FEDC47BE850325C4FE8936832795
:1052340084FE9C4BBE850325C4FEBD3E832784FEAD
:10524400D84B832784FE9C4F3E86BA850325C4FE33
:105254004D3E0100F240624405618280011122CE7C
:1052640000102326A4FE8327C4FE23A0070083275F
:10527400C4FE23A207008327C4FE23A407008327B8
:10528400C4FE23A607008327C4FE23A807008327A0
:10529400C4FE23AA07008327C4FE23AC0700010031
:1052A400724405618280011122CE00102326A4FEDF
:1052B400B7E700300327C4FE058B1377F70F058B80
:1052C400220783A6470B93F6F6EF558F23AAE70A26
:1052D4000100724405618280011122CE0010232650
:1052E400A4FEB72701309843B707F9FFFD17B3763B
:1052F400F7008327C4FE13970701B7270130558FA2
:1053040098C30100724405618280011122CE00100D
:105314002326A4FEB72701309843E577FD17B3761B
:10532400F7008327C4FE1397C700B7270130558FB2
:1053340098C30100724405618280011122CE0010DD
:105344002326A4FEB72701309C4393F6F7CF832787
:10535400C4FE13978700B7270130558F98C3010007
:10536400724405618280011122CE00102326A4FE1E
:105374002324B4FEB7270130D8438327C4FE8A0709
:105384008D46B397F60093C7F7FFB376F7008327EC
:10539400C4FE8A07032784FE3317F700B7270130BA
:1053A400558FD8C30100724405618280011122CE59
:1053B40000102326A4FE2324B4FEB7270130984707
:1053C4008327C4FE8A079D46B397F60093C7F7FF69
:1053D400B376F7008327C4FE8A07032784FE3317B6
:1053E400F700B7270130558F98C701007244056153
:1053F4008280411106C622C4000801456D35054569
:105404005D350100B240224441018280011106CE83
:1054140022CC00102326A4FE8327C4FE9C433E8591
:10542400653D8327C4FEDC433E85C5358327C4FE22
:105434009C473E8519370100F24062440561828031
:10544400011122CE00102326A4FE8327C4FE23A22A
:1054540007008327C4FE23A407008327C4FE23A0D8
:1054640007000100724405618280011106CE22CC3E
:1054740000102326A4FE2324B4FE832784FE9C4329
:10548400BE850325C4FEC535832784FEDC43BE8563
:105494000325C4FE213F0100F2406244056182807D
:1054A400011122CE00102326A4FE8327C4FE23A2CA
:1054B40007008327C4FE054798C3010072440561B1
:1054C4008280011122CE00102326A4FE2324B4FEE0
:1054D400B7E70030984B8327C4FE93C7F7FFB37632
:1054E400F700832784FE81C78327C4FE11A0814768
:1054F40037E70030D58F1CCB0100724405618280F0
:10550400011122CE00102326A4FE2324B4FE8327F7
:10551400C4FEDC4713F7E7FF832784FE5D8F8327F0
:10552400C4FED8C70100724405618280011122CEF5
:1055340000102326A4FE2324B4FE8327C4FEDC47E4
:1055440013F7D7FF832784FE86075D8F8327C4FE66
:10555400D8C70100724405618280011122CE001077
:105564002326A4FE2324B4FE8327C4FEDC4713F7BA
:10557400B7FF832784FE8A075D8F8327C4FED8C7BD
:105584000100724405618280011122CE001023269D
:10559400A4FE2324B4FE8327C4FEDC4713F777FE5E
:1055A400832784FE8E075D8F8327C4FED8C701003E
:1055B400724405618280011122CE00102326A4FECC
:1055C4002324B4FE8327C4FEDC4713F7F7F98327AB
:1055D40084FE96075D8F8327C4FED8C701007244FA
:1055E40005618280011122CE00102326A4FE23240B
:1055F400B4FE8327C4FEDC4713F7F7F7832784FE42
:105604009E075D8F8327C4FED8C7010072440561DD
:105614008280011122CE00102326A4FE2324B4FE8E
:105624008327C4FE032784FE98CB010072440561DE
:105634008280011122CE00102326A4FE2324B4FE6E
:105644008327C4FE032784FED8CB0100724405617E
:105654008280797106D622D40018232EA4FC8545B5
:105664000325C4FD713D81450325C4FD513D032738
:10567400C4FDB70703206314F700856711A0896789
:105684002326F4FE81450325C4FE253D85450325D7
:10569400C4FE053D0100B2502254456182800111CF
:1056A40006CE22CC00102326A4FE2324B4FE832796
:1056B40084FE9C43BE850325C4FEA13F832784FE4C
:1056C400DC43BE850325C4FEFD35832784FE9C4749
:1056D400BE850325C4FE3937832784FEDC47BE8597
:1056E4000325C4FEA135832784FE9C4BBE85032578
:1056F400C4FEA535832784FEDC4BBE850325C4FE8A
:105704006135832784FE9C4FBE850325C4FE15376F
:105714000100F240624405618280011122CE001032
:105724002326A4FE8327C4FE23A007008327C4FEE8
:1057340023A207008327C4FE23A407008327C4FEF3
:1057440023A607008327C4FE23A807008327C4FEDB
:1057540023AA07008327C4FE3727C104130777DB76
:1057640098CF0100724405618280011122CE00109D
:105774002326A4FE2324B4FEB7E70030984B8327E6
:10578400C4FE93C7F7FFB376F700832784FE81C76F
:105794008327C4FE11A0814737E70030D58F1CCB87
:1057A4000100724405618280011122CE001023267B
:1057B400A4FEB7070220FC4393F6E7FFB7070220D5
:1057C4000327C4FE558FF8C301007244056182802B
:1057D400411122C60008B7070220F843B707022088
:1057E40013672700F8C3010032444101828001118C
:1057F40022CE00102326A4FEB7070220FC4393F612
:10580400B7FF8327C4FE13972700B7070220558FDD
:10581400F8C30100724405618280011122CE001098
:105824002326A4FEB7070220FC4393F677FE8327C2
:10583400C4FE13973700B7070220558FF8C3010041
:10584400724405618280011122CE00102326A4FE39
:10585400B7070220FC4393F6F7F98327C4FE139796
:105864005700B7070220558FF8C301007244056141
:105874008280011122CE00102326A4FEB707022045
:10588400FC4393F6F79F8327C4FE13979700B7074B
:105894000220558FF8C30100724405618280011112
:1058A40022CE00102326A4FEB7070220FC4393F661
:1058B400F7EF8327C4FE13978700B7070220558F9D
:1058C400F8C30100724405618280011122CE0010E8
:1058D4002326A4FE2324B4FE370702208327C4FE14
:1058E4008A07BA97032784FE98C3010072440561AE
:1058F4008280011122CE00102326A4FE2324B4FEAC
:10590400370702208327C4FE91078A07BA97032723
:1059140084FE98C30100724405618280011122CE85
:1059240000102326A4FE2324B4FE37070220832775
:10593400C4FEA1078A07BA97032784FE98C301000F
:10594400724405618280011122CE00102326A4FE38
:10595400370702208327C4FEF1078A07BA979C43BE
:105964003E85724405618280011122CE00102326F7
:10597400A4FE370702208327C4FE938787028A0781
:10598400BA979C433E85724405618280411122C6C8
:105994000008B707022083A70708858B3E85324499
:1059A40041018280011122CE00102326A4FEB707F4
:1059B40002200327C4FEB8C7010072440561828037
:1059C400411122C60008B7070220F847B707022092
:1059D40013671700F8C701003244410182800111A6
:1059E40022CE00102326A4FEB7070220FC4793F61C
:1059F400D7FF8327C4FE13971700B7070220558FDC
:105A0400F8C70100724405618280011122CE0010A2
:105A14002326A4FEB7070220FC4793F6B7FF83278B
:105A2400C4FE13972700B7070220558FF8C701005B
:105A3400724405618280411122C60008B707022022
:105A440083A7070893F7071099C3854711A08147D7
:105A54003E85324441018280411106C622C40008B9
:105A64008145114519338545114501330100B24083
:105A7400224441018280011106CE22CC001023264B
:105A8400A4FE8327C4FE9C433E8595338327C4FE2E
:105A9400DC433E8559338327C4FE9C473E856533EA
:105AA4008327C4FEDC473E85DD3B8327C4FE9C4B35
:105AB4003E85DD398327C4FEDC4B3E855D3B01001A
:105AC400F240624405618280011122CE0010232637
:105AD400A4FE8327C4FE23A007008327C4FE054732
:105AE400D8C38327C4FE0D4798C78327C4FE054740
:105AF400D8C78327C4FE054798CB8327C4FE23AAAF
